{
	"MasterGrand.sol": {
		"MasterGrand": {
			"abi": [
				{
					"inputs": [
						{
							"internalType": "contract GrandToken",
							"name": "_Grand",
							"type": "address"
						},
						{
							"internalType": "uint256",
							"name": "_GrandPerBlock",
							"type": "uint256"
						},
						{
							"internalType": "uint256",
							"name": "_bonusEndBlock",
							"type": "uint256"
						}
					],
					"stateMutability": "nonpayable",
					"type": "constructor"
				},
				{
					"inputs": [
						{
							"internalType": "address",
							"name": "owner",
							"type": "address"
						}
					],
					"name": "OwnableInvalidOwner",
					"type": "error"
				},
				{
					"inputs": [
						{
							"internalType": "address",
							"name": "account",
							"type": "address"
						}
					],
					"name": "OwnableUnauthorizedAccount",
					"type": "error"
				},
				{
					"inputs": [
						{
							"internalType": "address",
							"name": "token",
							"type": "address"
						}
					],
					"name": "SafeERC20FailedOperation",
					"type": "error"
				},
				{
					"anonymous": false,
					"inputs": [
						{
							"indexed": true,
							"internalType": "address",
							"name": "user",
							"type": "address"
						},
						{
							"indexed": true,
							"internalType": "address",
							"name": "lpAddress",
							"type": "address"
						},
						{
							"indexed": true,
							"internalType": "uint256",
							"name": "pid",
							"type": "uint256"
						},
						{
							"indexed": false,
							"internalType": "uint256",
							"name": "amount",
							"type": "uint256"
						}
					],
					"name": "Deposit",
					"type": "event"
				},
				{
					"anonymous": false,
					"inputs": [
						{
							"indexed": true,
							"internalType": "address",
							"name": "user",
							"type": "address"
						},
						{
							"indexed": true,
							"internalType": "uint256",
							"name": "pid",
							"type": "uint256"
						},
						{
							"indexed": false,
							"internalType": "uint256",
							"name": "amount",
							"type": "uint256"
						}
					],
					"name": "EmergencyWithdraw",
					"type": "event"
				},
				{
					"anonymous": false,
					"inputs": [
						{
							"indexed": true,
							"internalType": "address",
							"name": "previousOwner",
							"type": "address"
						},
						{
							"indexed": true,
							"internalType": "address",
							"name": "newOwner",
							"type": "address"
						}
					],
					"name": "OwnershipTransferred",
					"type": "event"
				},
				{
					"anonymous": false,
					"inputs": [
						{
							"indexed": true,
							"internalType": "address",
							"name": "user",
							"type": "address"
						},
						{
							"indexed": true,
							"internalType": "address",
							"name": "lpAddress",
							"type": "address"
						},
						{
							"indexed": true,
							"internalType": "uint256",
							"name": "pid",
							"type": "uint256"
						},
						{
							"indexed": false,
							"internalType": "uint256",
							"name": "amount",
							"type": "uint256"
						}
					],
					"name": "Withdraw",
					"type": "event"
				},
				{
					"inputs": [],
					"name": "BONUS_MULTIPLIER",
					"outputs": [
						{
							"internalType": "uint256",
							"name": "",
							"type": "uint256"
						}
					],
					"stateMutability": "view",
					"type": "function"
				},
				{
					"inputs": [],
					"name": "GRAND_CAP",
					"outputs": [
						{
							"internalType": "uint256",
							"name": "",
							"type": "uint256"
						}
					],
					"stateMutability": "view",
					"type": "function"
				},
				{
					"inputs": [],
					"name": "Grand",
					"outputs": [
						{
							"internalType": "contract GrandToken",
							"name": "",
							"type": "address"
						}
					],
					"stateMutability": "view",
					"type": "function"
				},
				{
					"inputs": [],
					"name": "GrandPerBlock",
					"outputs": [
						{
							"internalType": "uint256",
							"name": "",
							"type": "uint256"
						}
					],
					"stateMutability": "view",
					"type": "function"
				},
				{
					"inputs": [
						{
							"internalType": "uint256",
							"name": "_allocPoint",
							"type": "uint256"
						},
						{
							"internalType": "contract IERC20",
							"name": "_lpToken",
							"type": "address"
						},
						{
							"internalType": "bool",
							"name": "_withUpdate",
							"type": "bool"
						}
					],
					"name": "addPool",
					"outputs": [],
					"stateMutability": "nonpayable",
					"type": "function"
				},
				{
					"inputs": [],
					"name": "bonusEndBlock",
					"outputs": [
						{
							"internalType": "uint256",
							"name": "",
							"type": "uint256"
						}
					],
					"stateMutability": "view",
					"type": "function"
				},
				{
					"inputs": [],
					"name": "collector",
					"outputs": [
						{
							"internalType": "address",
							"name": "",
							"type": "address"
						}
					],
					"stateMutability": "view",
					"type": "function"
				},
				{
					"inputs": [
						{
							"internalType": "uint256",
							"name": "_pid",
							"type": "uint256"
						},
						{
							"internalType": "uint256",
							"name": "_amount",
							"type": "uint256"
						}
					],
					"name": "deposit",
					"outputs": [],
					"stateMutability": "nonpayable",
					"type": "function"
				},
				{
					"inputs": [
						{
							"internalType": "uint256",
							"name": "_pid",
							"type": "uint256"
						}
					],
					"name": "emergencyWithdraw",
					"outputs": [],
					"stateMutability": "nonpayable",
					"type": "function"
				},
				{
					"inputs": [
						{
							"internalType": "uint256",
							"name": "_from",
							"type": "uint256"
						},
						{
							"internalType": "uint256",
							"name": "_to",
							"type": "uint256"
						}
					],
					"name": "getMultiplier",
					"outputs": [
						{
							"internalType": "uint256",
							"name": "",
							"type": "uint256"
						}
					],
					"stateMutability": "view",
					"type": "function"
				},
				{
					"inputs": [],
					"name": "grandMinted",
					"outputs": [
						{
							"internalType": "uint256",
							"name": "",
							"type": "uint256"
						}
					],
					"stateMutability": "view",
					"type": "function"
				},
				{
					"inputs": [],
					"name": "massUpdatePools",
					"outputs": [],
					"stateMutability": "nonpayable",
					"type": "function"
				},
				{
					"inputs": [],
					"name": "owner",
					"outputs": [
						{
							"internalType": "address",
							"name": "",
							"type": "address"
						}
					],
					"stateMutability": "view",
					"type": "function"
				},
				{
					"inputs": [
						{
							"internalType": "uint256",
							"name": "",
							"type": "uint256"
						}
					],
					"name": "poolInfo",
					"outputs": [
						{
							"internalType": "contract IERC20",
							"name": "lpToken",
							"type": "address"
						},
						{
							"internalType": "uint256",
							"name": "allocPoint",
							"type": "uint256"
						},
						{
							"internalType": "uint256",
							"name": "lastRewardBlock",
							"type": "uint256"
						},
						{
							"internalType": "uint256",
							"name": "accGrandPerShare",
							"type": "uint256"
						}
					],
					"stateMutability": "view",
					"type": "function"
				},
				{
					"inputs": [],
					"name": "poolLength",
					"outputs": [
						{
							"internalType": "uint256",
							"name": "",
							"type": "uint256"
						}
					],
					"stateMutability": "view",
					"type": "function"
				},
				{
					"inputs": [],
					"name": "renounceOwnership",
					"outputs": [],
					"stateMutability": "nonpayable",
					"type": "function"
				},
				{
					"inputs": [
						{
							"internalType": "uint256",
							"name": "_pid",
							"type": "uint256"
						},
						{
							"internalType": "uint256",
							"name": "_allocPoint",
							"type": "uint256"
						},
						{
							"internalType": "bool",
							"name": "_withUpdate",
							"type": "bool"
						}
					],
					"name": "setPool",
					"outputs": [],
					"stateMutability": "nonpayable",
					"type": "function"
				},
				{
					"inputs": [],
					"name": "startBlock",
					"outputs": [
						{
							"internalType": "uint256",
							"name": "",
							"type": "uint256"
						}
					],
					"stateMutability": "view",
					"type": "function"
				},
				{
					"inputs": [],
					"name": "startTime",
					"outputs": [
						{
							"internalType": "uint256",
							"name": "",
							"type": "uint256"
						}
					],
					"stateMutability": "view",
					"type": "function"
				},
				{
					"inputs": [],
					"name": "totalAllocPoint",
					"outputs": [
						{
							"internalType": "uint256",
							"name": "",
							"type": "uint256"
						}
					],
					"stateMutability": "view",
					"type": "function"
				},
				{
					"inputs": [],
					"name": "totalBoxes",
					"outputs": [
						{
							"internalType": "uint256",
							"name": "",
							"type": "uint256"
						}
					],
					"stateMutability": "view",
					"type": "function"
				},
				{
					"inputs": [
						{
							"internalType": "address",
							"name": "newOwner",
							"type": "address"
						}
					],
					"name": "transferOwnership",
					"outputs": [],
					"stateMutability": "nonpayable",
					"type": "function"
				},
				{
					"inputs": [
						{
							"internalType": "uint256",
							"name": "_pid",
							"type": "uint256"
						}
					],
					"name": "updatePool",
					"outputs": [],
					"stateMutability": "nonpayable",
					"type": "function"
				},
				{
					"inputs": [
						{
							"internalType": "uint256",
							"name": "",
							"type": "uint256"
						},
						{
							"internalType": "address",
							"name": "",
							"type": "address"
						}
					],
					"name": "userInfo",
					"outputs": [
						{
							"internalType": "uint256",
							"name": "amount",
							"type": "uint256"
						},
						{
							"internalType": "uint256",
							"name": "rewardDebt",
							"type": "uint256"
						}
					],
					"stateMutability": "view",
					"type": "function"
				},
				{
					"inputs": [
						{
							"internalType": "uint256",
							"name": "_pid",
							"type": "uint256"
						},
						{
							"internalType": "uint256",
							"name": "_amount",
							"type": "uint256"
						}
					],
					"name": "withdraw",
					"outputs": [],
					"stateMutability": "nonpayable",
					"type": "function"
				}
			],
			"devdoc": {
				"errors": {
					"OwnableInvalidOwner(address)": [
						{
							"details": "The owner is not a valid owner account. (eg. `address(0)`)"
						}
					],
					"OwnableUnauthorizedAccount(address)": [
						{
							"details": "The caller account is not authorized to perform an operation."
						}
					],
					"SafeERC20FailedOperation(address)": [
						{
							"details": "An operation with an ERC-20 token failed."
						}
					]
				},
				"kind": "dev",
				"methods": {
					"owner()": {
						"details": "Returns the address of the current owner."
					},
					"renounceOwnership()": {
						"details": "Leaves the contract without owner. It will not be possible to call `onlyOwner` functions. Can only be called by the current owner. NOTE: Renouncing ownership will leave the contract without an owner, thereby disabling any functionality that is only available to the owner."
					},
					"transferOwnership(address)": {
						"details": "Transfers ownership of the contract to a new account (`newOwner`). Can only be called by the current owner."
					}
				},
				"version": 1
			},
			"evm": {
				"assembly": "    /* \"MasterGrand.sol\":377:7910  contract MasterGrand is Ownable {... */\n  mstore(0x40, 0x80)\n    /* \"MasterGrand.sol\":1539:1540  0 */\n  0x00\n    /* \"MasterGrand.sol\":1511:1540  uint256 public totalBoxes = 0 */\n  0x06\n  sstore\n    /* \"MasterGrand.sol\":1873:1874  0 */\n  0x00\n    /* \"MasterGrand.sol\":1840:1874  uint256 public totalAllocPoint = 0 */\n  0x09\n  sstore\n    /* \"MasterGrand.sol\":2322:2634  constructor(... */\n  callvalue\n  dup1\n  iszero\n  tag_1\n  jumpi\n  revert(0x00, 0x00)\ntag_1:\n  pop\n  mload(0x40)\n  sub(codesize, bytecodeSize)\n  dup1\n  bytecodeSize\n  dup4\n  codecopy\n  dup2\n  dup2\n  add\n  0x40\n  mstore\n  dup2\n  add\n  swap1\n  tag_2\n  swap2\n  swap1\n  tag_3\n  jump\t// in\ntag_2:\n    /* \"MasterGrand.sol\":2439:2449  msg.sender */\n  caller\n    /* \"@openzeppelin/contracts/access/Ownable.sol\":1297:1298  0 */\n  0x00\n    /* \"@openzeppelin/contracts/access/Ownable.sol\":1273:1299  initialOwner == address(0) */\n  0xffffffffffffffffffffffffffffffffffffffff\n  and\n    /* \"@openzeppelin/contracts/access/Ownable.sol\":1273:1285  initialOwner */\n  dup2\n    /* \"@openzeppelin/contracts/access/Ownable.sol\":1273:1299  initialOwner == address(0) */\n  0xffffffffffffffffffffffffffffffffffffffff\n  and\n  sub\n    /* \"@openzeppelin/contracts/access/Ownable.sol\":1269:1364  if (initialOwner == address(0)) {... */\n  tag_7\n  jumpi\n    /* \"@openzeppelin/contracts/access/Ownable.sol\":1350:1351  0 */\n  0x00\n    /* \"@openzeppelin/contracts/access/Ownable.sol\":1322:1353  OwnableInvalidOwner(address(0)) */\n  mload(0x40)\n  0x1e4fbdf700000000000000000000000000000000000000000000000000000000\n  dup2\n  mstore\n  0x04\n  add\n  tag_8\n  swap2\n  swap1\n  tag_9\n  jump\t// in\ntag_8:\n  mload(0x40)\n  dup1\n  swap2\n  sub\n  swap1\n  revert\n    /* \"@openzeppelin/contracts/access/Ownable.sol\":1269:1364  if (initialOwner == address(0)) {... */\ntag_7:\n    /* \"@openzeppelin/contracts/access/Ownable.sol\":1373:1405  _transferOwnership(initialOwner) */\n  tag_10\n    /* \"@openzeppelin/contracts/access/Ownable.sol\":1392:1404  initialOwner */\n  dup2\n    /* \"@openzeppelin/contracts/access/Ownable.sol\":1373:1391  _transferOwnership */\n  shl(0x20, tag_11)\n    /* \"@openzeppelin/contracts/access/Ownable.sol\":1373:1405  _transferOwnership(initialOwner) */\n  0x20\n  shr\n  jump\t// in\ntag_10:\n    /* \"@openzeppelin/contracts/access/Ownable.sol\":1225:1412  constructor(address initialOwner) {... */\n  pop\n    /* \"MasterGrand.sol\":2469:2475  _Grand */\n  dup3\n    /* \"MasterGrand.sol\":2461:2466  Grand */\n  0x01\n  0x00\n    /* \"MasterGrand.sol\":2461:2475  Grand = _Grand */\n  0x0100\n  exp\n  dup2\n  sload\n  dup2\n  0xffffffffffffffffffffffffffffffffffffffff\n  mul\n  not\n  and\n  swap1\n  dup4\n  0xffffffffffffffffffffffffffffffffffffffff\n  and\n  mul\n  or\n  swap1\n  sstore\n  pop\n    /* \"MasterGrand.sol\":2501:2515  _GrandPerBlock */\n  dup2\n    /* \"MasterGrand.sol\":2485:2498  GrandPerBlock */\n  0x04\n    /* \"MasterGrand.sol\":2485:2515  GrandPerBlock = _GrandPerBlock */\n  dup2\n  swap1\n  sstore\n  pop\n    /* \"MasterGrand.sol\":2541:2555  _bonusEndBlock */\n  dup1\n    /* \"MasterGrand.sol\":2525:2538  bonusEndBlock */\n  0x03\n    /* \"MasterGrand.sol\":2525:2555  bonusEndBlock = _bonusEndBlock */\n  dup2\n  swap1\n  sstore\n  pop\n    /* \"MasterGrand.sol\":2578:2590  block.number */\n  number\n    /* \"MasterGrand.sol\":2565:2575  startBlock */\n  0x0a\n    /* \"MasterGrand.sol\":2565:2590  startBlock = block.number */\n  dup2\n  swap1\n  sstore\n  pop\n    /* \"MasterGrand.sol\":2612:2627  block.timestamp */\n  timestamp\n    /* \"MasterGrand.sol\":2600:2609  startTime */\n  0x0b\n    /* \"MasterGrand.sol\":2600:2627  startTime = block.timestamp */\n  dup2\n  swap1\n  sstore\n  pop\n    /* \"MasterGrand.sol\":2322:2634  constructor(... */\n  pop\n  pop\n  pop\n    /* \"MasterGrand.sol\":377:7910  contract MasterGrand is Ownable {... */\n  jump(tag_13)\n    /* \"@openzeppelin/contracts/access/Ownable.sol\":2912:3099  function _transferOwnership(address newOwner) internal virtual {... */\ntag_11:\n    /* \"@openzeppelin/contracts/access/Ownable.sol\":2985:3001  address oldOwner */\n  0x00\n    /* \"@openzeppelin/contracts/access/Ownable.sol\":3004:3010  _owner */\n  0x00\n  0x00\n  swap1\n  sload\n  swap1\n  0x0100\n  exp\n  swap1\n  div\n  0xffffffffffffffffffffffffffffffffffffffff\n  and\n    /* \"@openzeppelin/contracts/access/Ownable.sol\":2985:3010  address oldOwner = _owner */\n  swap1\n  pop\n    /* \"@openzeppelin/contracts/access/Ownable.sol\":3029:3037  newOwner */\n  dup2\n    /* \"@openzeppelin/contracts/access/Ownable.sol\":3020:3026  _owner */\n  0x00\n  0x00\n    /* \"@openzeppelin/contracts/access/Ownable.sol\":3020:3037  _owner = newOwner */\n  0x0100\n  exp\n  dup2\n  sload\n  dup2\n  0xffffffffffffffffffffffffffffffffffffffff\n  mul\n  not\n  and\n  swap1\n  dup4\n  0xffffffffffffffffffffffffffffffffffffffff\n  and\n  mul\n  or\n  swap1\n  sstore\n  pop\n    /* \"@openzeppelin/contracts/access/Ownable.sol\":3083:3091  newOwner */\n  dup2\n    /* \"@openzeppelin/contracts/access/Ownable.sol\":3052:3092  OwnershipTransferred(oldOwner, newOwner) */\n  0xffffffffffffffffffffffffffffffffffffffff\n  and\n    /* \"@openzeppelin/contracts/access/Ownable.sol\":3073:3081  oldOwner */\n  dup2\n    /* \"@openzeppelin/contracts/access/Ownable.sol\":3052:3092  OwnershipTransferred(oldOwner, newOwner) */\n  0xffffffffffffffffffffffffffffffffffffffff\n  and\n  0x8be0079c531659141344cd1fd0a4f28419497f9722a3daafe3b4186f6b6457e0\n  mload(0x40)\n  mload(0x40)\n  dup1\n  swap2\n  sub\n  swap1\n  log3\n    /* \"@openzeppelin/contracts/access/Ownable.sol\":2975:3099  {... */\n  pop\n    /* \"@openzeppelin/contracts/access/Ownable.sol\":2912:3099  function _transferOwnership(address newOwner) internal virtual {... */\n  pop\n  jump\t// out\n    /* \"#utility.yul\":88:205   */\ntag_16:\n    /* \"#utility.yul\":197:198   */\n  0x00\n    /* \"#utility.yul\":194:195   */\n  0x00\n    /* \"#utility.yul\":187:199   */\n  revert\n    /* \"#utility.yul\":334:460   */\ntag_18:\n    /* \"#utility.yul\":371:378   */\n  0x00\n    /* \"#utility.yul\":411:453   */\n  0xffffffffffffffffffffffffffffffffffffffff\n    /* \"#utility.yul\":404:409   */\n  dup3\n    /* \"#utility.yul\":400:454   */\n  and\n    /* \"#utility.yul\":389:454   */\n  swap1\n  pop\n    /* \"#utility.yul\":334:460   */\n  swap2\n  swap1\n  pop\n  jump\t// out\n    /* \"#utility.yul\":466:562   */\ntag_19:\n    /* \"#utility.yul\":503:510   */\n  0x00\n    /* \"#utility.yul\":532:556   */\n  tag_33\n    /* \"#utility.yul\":550:555   */\n  dup3\n    /* \"#utility.yul\":532:556   */\n  tag_18\n  jump\t// in\ntag_33:\n    /* \"#utility.yul\":521:556   */\n  swap1\n  pop\n    /* \"#utility.yul\":466:562   */\n  swap2\n  swap1\n  pop\n  jump\t// out\n    /* \"#utility.yul\":568:683   */\ntag_20:\n    /* \"#utility.yul\":624:631   */\n  0x00\n    /* \"#utility.yul\":653:677   */\n  tag_35\n    /* \"#utility.yul\":671:676   */\n  dup3\n    /* \"#utility.yul\":653:677   */\n  tag_19\n  jump\t// in\ntag_35:\n    /* \"#utility.yul\":642:677   */\n  swap1\n  pop\n    /* \"#utility.yul\":568:683   */\n  swap2\n  swap1\n  pop\n  jump\t// out\n    /* \"#utility.yul\":689:849   */\ntag_21:\n    /* \"#utility.yul\":781:824   */\n  tag_37\n    /* \"#utility.yul\":818:823   */\n  dup2\n    /* \"#utility.yul\":781:824   */\n  tag_20\n  jump\t// in\ntag_37:\n    /* \"#utility.yul\":774:779   */\n  dup2\n    /* \"#utility.yul\":771:825   */\n  eq\n    /* \"#utility.yul\":761:843   */\n  tag_38\n  jumpi\n    /* \"#utility.yul\":839:840   */\n  0x00\n    /* \"#utility.yul\":836:837   */\n  0x00\n    /* \"#utility.yul\":829:841   */\n  revert\n    /* \"#utility.yul\":761:843   */\ntag_38:\n    /* \"#utility.yul\":689:849   */\n  pop\n  jump\t// out\n    /* \"#utility.yul\":855:1036   */\ntag_22:\n    /* \"#utility.yul\":931:936   */\n  0x00\n    /* \"#utility.yul\":962:968   */\n  dup2\n    /* \"#utility.yul\":956:969   */\n  mload\n    /* \"#utility.yul\":947:969   */\n  swap1\n  pop\n    /* \"#utility.yul\":978:1030   */\n  tag_40\n    /* \"#utility.yul\":1024:1029   */\n  dup2\n    /* \"#utility.yul\":978:1030   */\n  tag_21\n  jump\t// in\ntag_40:\n    /* \"#utility.yul\":855:1036   */\n  swap3\n  swap2\n  pop\n  pop\n  jump\t// out\n    /* \"#utility.yul\":1042:1119   */\ntag_23:\n    /* \"#utility.yul\":1079:1086   */\n  0x00\n    /* \"#utility.yul\":1108:1113   */\n  dup2\n    /* \"#utility.yul\":1097:1113   */\n  swap1\n  pop\n    /* \"#utility.yul\":1042:1119   */\n  swap2\n  swap1\n  pop\n  jump\t// out\n    /* \"#utility.yul\":1125:1247   */\ntag_24:\n    /* \"#utility.yul\":1198:1222   */\n  tag_43\n    /* \"#utility.yul\":1216:1221   */\n  dup2\n    /* \"#utility.yul\":1198:1222   */\n  tag_23\n  jump\t// in\ntag_43:\n    /* \"#utility.yul\":1191:1196   */\n  dup2\n    /* \"#utility.yul\":1188:1223   */\n  eq\n    /* \"#utility.yul\":1178:1241   */\n  tag_44\n  jumpi\n    /* \"#utility.yul\":1237:1238   */\n  0x00\n    /* \"#utility.yul\":1234:1235   */\n  0x00\n    /* \"#utility.yul\":1227:1239   */\n  revert\n    /* \"#utility.yul\":1178:1241   */\ntag_44:\n    /* \"#utility.yul\":1125:1247   */\n  pop\n  jump\t// out\n    /* \"#utility.yul\":1253:1396   */\ntag_25:\n    /* \"#utility.yul\":1310:1315   */\n  0x00\n    /* \"#utility.yul\":1341:1347   */\n  dup2\n    /* \"#utility.yul\":1335:1348   */\n  mload\n    /* \"#utility.yul\":1326:1348   */\n  swap1\n  pop\n    /* \"#utility.yul\":1357:1390   */\n  tag_46\n    /* \"#utility.yul\":1384:1389   */\n  dup2\n    /* \"#utility.yul\":1357:1390   */\n  tag_24\n  jump\t// in\ntag_46:\n    /* \"#utility.yul\":1253:1396   */\n  swap3\n  swap2\n  pop\n  pop\n  jump\t// out\n    /* \"#utility.yul\":1402:2103   */\ntag_3:\n    /* \"#utility.yul\":1509:1515   */\n  0x00\n    /* \"#utility.yul\":1517:1523   */\n  0x00\n    /* \"#utility.yul\":1525:1531   */\n  0x00\n    /* \"#utility.yul\":1574:1576   */\n  0x60\n    /* \"#utility.yul\":1562:1571   */\n  dup5\n    /* \"#utility.yul\":1553:1560   */\n  dup7\n    /* \"#utility.yul\":1549:1572   */\n  sub\n    /* \"#utility.yul\":1545:1577   */\n  slt\n    /* \"#utility.yul\":1542:1661   */\n  iszero\n  tag_48\n  jumpi\n    /* \"#utility.yul\":1580:1659   */\n  tag_49\n  tag_16\n  jump\t// in\ntag_49:\n    /* \"#utility.yul\":1542:1661   */\ntag_48:\n    /* \"#utility.yul\":1700:1701   */\n  0x00\n    /* \"#utility.yul\":1725:1808   */\n  tag_50\n    /* \"#utility.yul\":1800:1807   */\n  dup7\n    /* \"#utility.yul\":1791:1797   */\n  dup3\n    /* \"#utility.yul\":1780:1789   */\n  dup8\n    /* \"#utility.yul\":1776:1798   */\n  add\n    /* \"#utility.yul\":1725:1808   */\n  tag_22\n  jump\t// in\ntag_50:\n    /* \"#utility.yul\":1715:1808   */\n  swap4\n  pop\n    /* \"#utility.yul\":1671:1818   */\n  pop\n    /* \"#utility.yul\":1857:1859   */\n  0x20\n    /* \"#utility.yul\":1883:1947   */\n  tag_51\n    /* \"#utility.yul\":1939:1946   */\n  dup7\n    /* \"#utility.yul\":1930:1936   */\n  dup3\n    /* \"#utility.yul\":1919:1928   */\n  dup8\n    /* \"#utility.yul\":1915:1937   */\n  add\n    /* \"#utility.yul\":1883:1947   */\n  tag_25\n  jump\t// in\ntag_51:\n    /* \"#utility.yul\":1873:1947   */\n  swap3\n  pop\n    /* \"#utility.yul\":1828:1957   */\n  pop\n    /* \"#utility.yul\":1996:1998   */\n  0x40\n    /* \"#utility.yul\":2022:2086   */\n  tag_52\n    /* \"#utility.yul\":2078:2085   */\n  dup7\n    /* \"#utility.yul\":2069:2075   */\n  dup3\n    /* \"#utility.yul\":2058:2067   */\n  dup8\n    /* \"#utility.yul\":2054:2076   */\n  add\n    /* \"#utility.yul\":2022:2086   */\n  tag_25\n  jump\t// in\ntag_52:\n    /* \"#utility.yul\":2012:2086   */\n  swap2\n  pop\n    /* \"#utility.yul\":1967:2096   */\n  pop\n    /* \"#utility.yul\":1402:2103   */\n  swap3\n  pop\n  swap3\n  pop\n  swap3\n  jump\t// out\n    /* \"#utility.yul\":2109:2227   */\ntag_26:\n    /* \"#utility.yul\":2196:2220   */\n  tag_54\n    /* \"#utility.yul\":2214:2219   */\n  dup2\n    /* \"#utility.yul\":2196:2220   */\n  tag_19\n  jump\t// in\ntag_54:\n    /* \"#utility.yul\":2191:2194   */\n  dup3\n    /* \"#utility.yul\":2184:2221   */\n  mstore\n    /* \"#utility.yul\":2109:2227   */\n  pop\n  pop\n  jump\t// out\n    /* \"#utility.yul\":2233:2455   */\ntag_9:\n    /* \"#utility.yul\":2326:2330   */\n  0x00\n    /* \"#utility.yul\":2364:2366   */\n  0x20\n    /* \"#utility.yul\":2353:2362   */\n  dup3\n    /* \"#utility.yul\":2349:2367   */\n  add\n    /* \"#utility.yul\":2341:2367   */\n  swap1\n  pop\n    /* \"#utility.yul\":2377:2448   */\n  tag_56\n    /* \"#utility.yul\":2445:2446   */\n  0x00\n    /* \"#utility.yul\":2434:2443   */\n  dup4\n    /* \"#utility.yul\":2430:2447   */\n  add\n    /* \"#utility.yul\":2421:2427   */\n  dup5\n    /* \"#utility.yul\":2377:2448   */\n  tag_26\n  jump\t// in\ntag_56:\n    /* \"#utility.yul\":2233:2455   */\n  swap3\n  swap2\n  pop\n  pop\n  jump\t// out\n    /* \"MasterGrand.sol\":377:7910  contract MasterGrand is Ownable {... */\ntag_13:\n  dataSize(sub_0)\n  dup1\n  dataOffset(sub_0)\n  0x00\n  codecopy\n  0x00\n  return\nstop\n\nsub_0: assembly {\n        /* \"MasterGrand.sol\":377:7910  contract MasterGrand is Ownable {... */\n      mstore(0x40, 0x80)\n      callvalue\n      dup1\n      iszero\n      tag_1\n      jumpi\n      revert(0x00, 0x00)\n    tag_1:\n      pop\n      jumpi(tag_2, lt(calldatasize, 0x04))\n      shr(0xe0, calldataload(0x00))\n      dup1\n      0x715018a6\n      gt\n      tag_28\n      jumpi\n      dup1\n      0x8dbb1e3a\n      gt\n      tag_29\n      jumpi\n      dup1\n      0xb9926557\n      gt\n      tag_30\n      jumpi\n      dup1\n      0xb9926557\n      eq\n      tag_24\n      jumpi\n      dup1\n      0xd129459b\n      eq\n      tag_25\n      jumpi\n      dup1\n      0xe2bbb158\n      eq\n      tag_26\n      jumpi\n      dup1\n      0xf2fde38b\n      eq\n      tag_27\n      jumpi\n      jump(tag_2)\n    tag_30:\n      dup1\n      0x8dbb1e3a\n      eq\n      tag_21\n      jumpi\n      dup1\n      0x913e77ad\n      eq\n      tag_22\n      jumpi\n      dup1\n      0x93f1a40b\n      eq\n      tag_23\n      jumpi\n      jump(tag_2)\n    tag_29:\n      dup1\n      0x715018a6\n      eq\n      tag_15\n      jumpi\n      dup1\n      0x78e97925\n      eq\n      tag_16\n      jumpi\n      dup1\n      0x7abceffd\n      eq\n      tag_17\n      jumpi\n      dup1\n      0x83e27185\n      eq\n      tag_18\n      jumpi\n      dup1\n      0x8aa28550\n      eq\n      tag_19\n      jumpi\n      dup1\n      0x8da5cb5b\n      eq\n      tag_20\n      jumpi\n      jump(tag_2)\n    tag_28:\n      dup1\n      0x46ca6bea\n      gt\n      tag_31\n      jumpi\n      dup1\n      0x46ca6bea\n      eq\n      tag_9\n      jumpi\n      dup1\n      0x48cd4cb1\n      eq\n      tag_10\n      jumpi\n      dup1\n      0x51eb05a6\n      eq\n      tag_11\n      jumpi\n      dup1\n      0x5312ea8e\n      eq\n      tag_12\n      jumpi\n      dup1\n      0x57e78adc\n      eq\n      tag_13\n      jumpi\n      dup1\n      0x630b5ba1\n      eq\n      tag_14\n      jumpi\n      jump(tag_2)\n    tag_31:\n      dup1\n      0x081e3eda\n      eq\n      tag_3\n      jumpi\n      dup1\n      0x1526fe27\n      eq\n      tag_4\n      jumpi\n      dup1\n      0x17caf6f1\n      eq\n      tag_5\n      jumpi\n      dup1\n      0x1aed6553\n      eq\n      tag_6\n      jumpi\n      dup1\n      0x212f14cc\n      eq\n      tag_7\n      jumpi\n      dup1\n      0x441a3e70\n      eq\n      tag_8\n      jumpi\n    tag_2:\n      revert(0x00, 0x00)\n        /* \"MasterGrand.sol\":2640:2733  function poolLength() external view returns (uint256) {... */\n    tag_3:\n      tag_32\n      tag_33\n      jump\t// in\n    tag_32:\n      mload(0x40)\n      tag_34\n      swap2\n      swap1\n      tag_35\n      jump\t// in\n    tag_34:\n      mload(0x40)\n      dup1\n      swap2\n      sub\n      swap1\n      return\n        /* \"MasterGrand.sol\":1573:1599  PoolInfo[] public poolInfo */\n    tag_4:\n      tag_36\n      0x04\n      dup1\n      calldatasize\n      sub\n      dup2\n      add\n      swap1\n      tag_37\n      swap2\n      swap1\n      tag_38\n      jump\t// in\n    tag_37:\n      tag_39\n      jump\t// in\n    tag_36:\n      mload(0x40)\n      tag_40\n      swap5\n      swap4\n      swap3\n      swap2\n      swap1\n      tag_41\n      jump\t// in\n    tag_40:\n      mload(0x40)\n      dup1\n      swap2\n      sub\n      swap1\n      return\n        /* \"MasterGrand.sol\":1840:1874  uint256 public totalAllocPoint = 0 */\n    tag_5:\n      tag_42\n      tag_43\n      jump\t// in\n    tag_42:\n      mload(0x40)\n      tag_44\n      swap2\n      swap1\n      tag_35\n      jump\t// in\n    tag_44:\n      mload(0x40)\n      dup1\n      swap2\n      sub\n      swap1\n      return\n        /* \"MasterGrand.sol\":1208:1236  uint256 public bonusEndBlock */\n    tag_6:\n      tag_45\n      tag_46\n      jump\t// in\n    tag_45:\n      mload(0x40)\n      tag_47\n      swap2\n      swap1\n      tag_35\n      jump\t// in\n    tag_47:\n      mload(0x40)\n      dup1\n      swap2\n      sub\n      swap1\n      return\n        /* \"MasterGrand.sol\":1281:1309  uint256 public GrandPerBlock */\n    tag_7:\n      tag_48\n      tag_49\n      jump\t// in\n    tag_48:\n      mload(0x40)\n      tag_50\n      swap2\n      swap1\n      tag_35\n      jump\t// in\n    tag_50:\n      mload(0x40)\n      dup1\n      swap2\n      sub\n      swap1\n      return\n        /* \"MasterGrand.sol\":6676:7425  function withdraw(uint256 _pid, uint256 _amount) external {... */\n    tag_8:\n      tag_51\n      0x04\n      dup1\n      calldatasize\n      sub\n      dup2\n      add\n      swap1\n      tag_52\n      swap2\n      swap1\n      tag_53\n      jump\t// in\n    tag_52:\n      tag_54\n      jump\t// in\n    tag_51:\n      stop\n        /* \"MasterGrand.sol\":3474:3838  function setPool(... */\n    tag_9:\n      tag_55\n      0x04\n      dup1\n      calldatasize\n      sub\n      dup2\n      add\n      swap1\n      tag_56\n      swap2\n      swap1\n      tag_57\n      jump\t// in\n    tag_56:\n      tag_58\n      jump\t// in\n    tag_55:\n      stop\n        /* \"MasterGrand.sol\":1930:1955  uint256 public startBlock */\n    tag_10:\n      tag_59\n      tag_60\n      jump\t// in\n    tag_59:\n      mload(0x40)\n      tag_61\n      swap2\n      swap1\n      tag_35\n      jump\t// in\n    tag_61:\n      mload(0x40)\n      dup1\n      swap2\n      sub\n      swap1\n      return\n        /* \"MasterGrand.sol\":4683:5547  function updatePool(uint256 _pid) public {... */\n    tag_11:\n      tag_62\n      0x04\n      dup1\n      calldatasize\n      sub\n      dup2\n      add\n      swap1\n      tag_63\n      swap2\n      swap1\n      tag_38\n      jump\t// in\n    tag_63:\n      tag_64\n      jump\t// in\n    tag_62:\n      stop\n        /* \"MasterGrand.sol\":7493:7908  function emergencyWithdraw(uint256 _pid) external {... */\n    tag_12:\n      tag_65\n      0x04\n      dup1\n      calldatasize\n      sub\n      dup2\n      add\n      swap1\n      tag_66\n      swap2\n      swap1\n      tag_38\n      jump\t// in\n    tag_66:\n      tag_67\n      jump\t// in\n    tag_65:\n      stop\n        /* \"MasterGrand.sol\":1511:1540  uint256 public totalBoxes = 0 */\n    tag_13:\n      tag_68\n      tag_69\n      jump\t// in\n    tag_68:\n      mload(0x40)\n      tag_70\n      swap2\n      swap1\n      tag_35\n      jump\t// in\n    tag_70:\n      mload(0x40)\n      dup1\n      swap2\n      sub\n      swap1\n      return\n        /* \"MasterGrand.sol\":4435:4610  function massUpdatePools() public {... */\n    tag_14:\n      tag_71\n      tag_72\n      jump\t// in\n    tag_71:\n      stop\n        /* \"@openzeppelin/contracts/access/Ownable.sol\":2293:2394  function renounceOwnership() public virtual onlyOwner {... */\n    tag_15:\n      tag_73\n      tag_74\n      jump\t// in\n    tag_73:\n      stop\n        /* \"MasterGrand.sol\":1961:1985  uint256 public startTime */\n    tag_16:\n      tag_75\n      tag_76\n      jump\t// in\n    tag_75:\n      mload(0x40)\n      tag_77\n      swap2\n      swap1\n      tag_35\n      jump\t// in\n    tag_77:\n      mload(0x40)\n      dup1\n      swap2\n      sub\n      swap1\n      return\n        /* \"MasterGrand.sol\":2894:3380  function addPool(... */\n    tag_17:\n      tag_78\n      0x04\n      dup1\n      calldatasize\n      sub\n      dup2\n      add\n      swap1\n      tag_79\n      swap2\n      swap1\n      tag_80\n      jump\t// in\n    tag_79:\n      tag_81\n      jump\t// in\n    tag_78:\n      stop\n        /* \"MasterGrand.sol\":1479:1505  uint256 public grandMinted */\n    tag_18:\n      tag_82\n      tag_83\n      jump\t// in\n    tag_82:\n      mload(0x40)\n      tag_84\n      swap2\n      swap1\n      tag_35\n      jump\t// in\n    tag_84:\n      mload(0x40)\n      dup1\n      swap2\n      sub\n      swap1\n      return\n        /* \"MasterGrand.sol\":1362:1406  uint256 public constant BONUS_MULTIPLIER = 3 */\n    tag_19:\n      tag_85\n      tag_86\n      jump\t// in\n    tag_85:\n      mload(0x40)\n      tag_87\n      swap2\n      swap1\n      tag_35\n      jump\t// in\n    tag_87:\n      mload(0x40)\n      dup1\n      swap2\n      sub\n      swap1\n      return\n        /* \"@openzeppelin/contracts/access/Ownable.sol\":1638:1723  function owner() public view virtual returns (address) {... */\n    tag_20:\n      tag_88\n      tag_89\n      jump\t// in\n    tag_88:\n      mload(0x40)\n      tag_90\n      swap2\n      swap1\n      tag_91\n      jump\t// in\n    tag_90:\n      mload(0x40)\n      dup1\n      swap2\n      sub\n      swap1\n      return\n        /* \"MasterGrand.sol\":3911:4355  function getMultiplier(uint256 _from, uint256 _to)... */\n    tag_21:\n      tag_92\n      0x04\n      dup1\n      calldatasize\n      sub\n      dup2\n      add\n      swap1\n      tag_93\n      swap2\n      swap1\n      tag_53\n      jump\t// in\n    tag_93:\n      tag_94\n      jump\t// in\n    tag_92:\n      mload(0x40)\n      tag_95\n      swap2\n      swap1\n      tag_35\n      jump\t// in\n    tag_95:\n      mload(0x40)\n      dup1\n      swap2\n      sub\n      swap1\n      return\n        /* \"MasterGrand.sol\":1128:1152  address public collector */\n    tag_22:\n      tag_96\n      tag_97\n      jump\t// in\n    tag_96:\n      mload(0x40)\n      tag_98\n      swap2\n      swap1\n      tag_91\n      jump\t// in\n    tag_98:\n      mload(0x40)\n      dup1\n      swap2\n      sub\n      swap1\n      return\n        /* \"MasterGrand.sol\":1683:1747  mapping(uint256 => mapping(address => UserInfo)) public userInfo */\n    tag_23:\n      tag_99\n      0x04\n      dup1\n      calldatasize\n      sub\n      dup2\n      add\n      swap1\n      tag_100\n      swap2\n      swap1\n      tag_101\n      jump\t// in\n    tag_100:\n      tag_102\n      jump\t// in\n    tag_99:\n      mload(0x40)\n      tag_103\n      swap3\n      swap2\n      swap1\n      tag_104\n      jump\t// in\n    tag_103:\n      mload(0x40)\n      dup1\n      swap2\n      sub\n      swap1\n      return\n        /* \"MasterGrand.sol\":1412:1473  uint256 public constant GRAND_CAP = 4203333333333333333333333 */\n    tag_24:\n      tag_105\n      tag_106\n      jump\t// in\n    tag_105:\n      mload(0x40)\n      tag_107\n      swap2\n      swap1\n      tag_35\n      jump\t// in\n    tag_107:\n      mload(0x40)\n      dup1\n      swap2\n      sub\n      swap1\n      return\n        /* \"MasterGrand.sol\":1098:1121  GrandToken public Grand */\n    tag_25:\n      tag_108\n      tag_109\n      jump\t// in\n    tag_108:\n      mload(0x40)\n      tag_110\n      swap2\n      swap1\n      tag_111\n      jump\t// in\n    tag_110:\n      mload(0x40)\n      dup1\n      swap2\n      sub\n      swap1\n      return\n        /* \"MasterGrand.sol\":5615:6626  function deposit(uint256 _pid, uint256 _amount) external {... */\n    tag_26:\n      tag_112\n      0x04\n      dup1\n      calldatasize\n      sub\n      dup2\n      add\n      swap1\n      tag_113\n      swap2\n      swap1\n      tag_53\n      jump\t// in\n    tag_113:\n      tag_114\n      jump\t// in\n    tag_112:\n      stop\n        /* \"@openzeppelin/contracts/access/Ownable.sol\":2543:2758  function transferOwnership(address newOwner) public virtual onlyOwner {... */\n    tag_27:\n      tag_115\n      0x04\n      dup1\n      calldatasize\n      sub\n      dup2\n      add\n      swap1\n      tag_116\n      swap2\n      swap1\n      tag_117\n      jump\t// in\n    tag_116:\n      tag_118\n      jump\t// in\n    tag_115:\n      stop\n        /* \"MasterGrand.sol\":2640:2733  function poolLength() external view returns (uint256) {... */\n    tag_33:\n        /* \"MasterGrand.sol\":2685:2692  uint256 */\n      0x00\n        /* \"MasterGrand.sol\":2711:2719  poolInfo */\n      0x07\n        /* \"MasterGrand.sol\":2711:2726  poolInfo.length */\n      dup1\n      sload\n      swap1\n      pop\n        /* \"MasterGrand.sol\":2704:2726  return poolInfo.length */\n      swap1\n      pop\n        /* \"MasterGrand.sol\":2640:2733  function poolLength() external view returns (uint256) {... */\n      swap1\n      jump\t// out\n        /* \"MasterGrand.sol\":1573:1599  PoolInfo[] public poolInfo */\n    tag_39:\n      0x07\n      dup2\n      dup2\n      sload\n      dup2\n      lt\n      tag_120\n      jumpi\n      0x00\n      dup1\n      revert\n    tag_120:\n      swap1\n      0x00\n      mstore\n      keccak256(0x00, 0x20)\n      swap1\n      0x04\n      mul\n      add\n      0x00\n      swap2\n      pop\n      swap1\n      pop\n      dup1\n      0x00\n      add\n      0x00\n      swap1\n      sload\n      swap1\n      0x0100\n      exp\n      swap1\n      div\n      0xffffffffffffffffffffffffffffffffffffffff\n      and\n      swap1\n      dup1\n      0x01\n      add\n      sload\n      swap1\n      dup1\n      0x02\n      add\n      sload\n      swap1\n      dup1\n      0x03\n      add\n      sload\n      swap1\n      pop\n      dup5\n      jump\t// out\n        /* \"MasterGrand.sol\":1840:1874  uint256 public totalAllocPoint = 0 */\n    tag_43:\n      sload(0x09)\n      dup2\n      jump\t// out\n        /* \"MasterGrand.sol\":1208:1236  uint256 public bonusEndBlock */\n    tag_46:\n      sload(0x03)\n      dup2\n      jump\t// out\n        /* \"MasterGrand.sol\":1281:1309  uint256 public GrandPerBlock */\n    tag_49:\n      sload(0x04)\n      dup2\n      jump\t// out\n        /* \"MasterGrand.sol\":6676:7425  function withdraw(uint256 _pid, uint256 _amount) external {... */\n    tag_54:\n        /* \"MasterGrand.sol\":6783:6790  40 days */\n      0x34bc00\n        /* \"MasterGrand.sol\":6771:6780  startTime */\n      sload(0x0b)\n        /* \"MasterGrand.sol\":6771:6790  startTime + 40 days */\n      tag_123\n      swap2\n      swap1\n      tag_124\n      jump\t// in\n    tag_123:\n        /* \"MasterGrand.sol\":6752:6767  block.timestamp */\n      timestamp\n        /* \"MasterGrand.sol\":6752:6791  block.timestamp > (startTime + 40 days) */\n      gt\n        /* \"MasterGrand.sol\":6744:6805  require(block.timestamp > (startTime + 40 days), \"Too early\") */\n      tag_125\n      jumpi\n      mload(0x40)\n      0x08c379a000000000000000000000000000000000000000000000000000000000\n      dup2\n      mstore\n      0x04\n      add\n      tag_126\n      swap1\n      tag_127\n      jump\t// in\n    tag_126:\n      mload(0x40)\n      dup1\n      swap2\n      sub\n      swap1\n      revert\n    tag_125:\n        /* \"MasterGrand.sol\":6816:6837  PoolInfo storage pool */\n      0x00\n        /* \"MasterGrand.sol\":6840:6848  poolInfo */\n      0x07\n        /* \"MasterGrand.sol\":6849:6853  _pid */\n      dup4\n        /* \"MasterGrand.sol\":6840:6854  poolInfo[_pid] */\n      dup2\n      sload\n      dup2\n      lt\n      tag_128\n      jumpi\n      tag_129\n      tag_130\n      jump\t// in\n    tag_129:\n    tag_128:\n      swap1\n      0x00\n      mstore\n      keccak256(0x00, 0x20)\n      swap1\n      0x04\n      mul\n      add\n        /* \"MasterGrand.sol\":6816:6854  PoolInfo storage pool = poolInfo[_pid] */\n      swap1\n      pop\n        /* \"MasterGrand.sol\":6864:6885  UserInfo storage user */\n      0x00\n        /* \"MasterGrand.sol\":6888:6896  userInfo */\n      0x08\n        /* \"MasterGrand.sol\":6888:6902  userInfo[_pid] */\n      0x00\n        /* \"MasterGrand.sol\":6897:6901  _pid */\n      dup6\n        /* \"MasterGrand.sol\":6888:6902  userInfo[_pid] */\n      dup2\n      mstore\n      0x20\n      add\n      swap1\n      dup2\n      mstore\n      0x20\n      add\n      0x00\n      keccak256\n        /* \"MasterGrand.sol\":6888:6914  userInfo[_pid][msg.sender] */\n      0x00\n        /* \"MasterGrand.sol\":6903:6913  msg.sender */\n      caller\n        /* \"MasterGrand.sol\":6888:6914  userInfo[_pid][msg.sender] */\n      0xffffffffffffffffffffffffffffffffffffffff\n      and\n      0xffffffffffffffffffffffffffffffffffffffff\n      and\n      dup2\n      mstore\n      0x20\n      add\n      swap1\n      dup2\n      mstore\n      0x20\n      add\n      0x00\n      keccak256\n        /* \"MasterGrand.sol\":6864:6914  UserInfo storage user = userInfo[_pid][msg.sender] */\n      swap1\n      pop\n        /* \"MasterGrand.sol\":6948:6955  _amount */\n      dup3\n        /* \"MasterGrand.sol\":6933:6937  user */\n      dup2\n        /* \"MasterGrand.sol\":6933:6944  user.amount */\n      0x00\n      add\n      sload\n        /* \"MasterGrand.sol\":6933:6955  user.amount >= _amount */\n      lt\n      iszero\n        /* \"MasterGrand.sol\":6925:6978  require(user.amount >= _amount, \"withdraw: not good\") */\n      tag_132\n      jumpi\n      mload(0x40)\n      0x08c379a000000000000000000000000000000000000000000000000000000000\n      dup2\n      mstore\n      0x04\n      add\n      tag_133\n      swap1\n      tag_134\n      jump\t// in\n    tag_133:\n      mload(0x40)\n      dup1\n      swap2\n      sub\n      swap1\n      revert\n    tag_132:\n        /* \"MasterGrand.sol\":6989:7005  updatePool(_pid) */\n      tag_135\n        /* \"MasterGrand.sol\":7000:7004  _pid */\n      dup5\n        /* \"MasterGrand.sol\":6989:6999  updatePool */\n      tag_64\n        /* \"MasterGrand.sol\":6989:7005  updatePool(_pid) */\n      jump\t// in\n    tag_135:\n        /* \"MasterGrand.sol\":7016:7031  uint256 pending */\n      0x00\n        /* \"MasterGrand.sol\":7105:7109  user */\n      dup2\n        /* \"MasterGrand.sol\":7105:7120  user.rewardDebt */\n      0x01\n      add\n      sload\n        /* \"MasterGrand.sol\":7086:7090  1e12 */\n      0xe8d4a51000\n        /* \"MasterGrand.sol\":7049:7053  pool */\n      dup5\n        /* \"MasterGrand.sol\":7049:7070  pool.accGrandPerShare */\n      0x03\n      add\n      sload\n        /* \"MasterGrand.sol\":7035:7039  user */\n      dup5\n        /* \"MasterGrand.sol\":7035:7046  user.amount */\n      0x00\n      add\n      sload\n        /* \"MasterGrand.sol\":7035:7070  user.amount * pool.accGrandPerShare */\n      tag_136\n      swap2\n      swap1\n      tag_137\n      jump\t// in\n    tag_136:\n        /* \"MasterGrand.sol\":7034:7090  (user.amount * pool.accGrandPerShare) /... */\n      tag_138\n      swap2\n      swap1\n      tag_139\n      jump\t// in\n    tag_138:\n        /* \"MasterGrand.sol\":7034:7120  (user.amount * pool.accGrandPerShare) /... */\n      tag_140\n      swap2\n      swap1\n      tag_141\n      jump\t// in\n    tag_140:\n        /* \"MasterGrand.sol\":7016:7120  uint256 pending = (user.amount * pool.accGrandPerShare) /... */\n      swap1\n      pop\n        /* \"MasterGrand.sol\":7159:7166  _amount */\n      dup4\n        /* \"MasterGrand.sol\":7145:7149  user */\n      dup3\n        /* \"MasterGrand.sol\":7145:7156  user.amount */\n      0x00\n      add\n      sload\n        /* \"MasterGrand.sol\":7145:7166  user.amount - _amount */\n      tag_142\n      swap2\n      swap1\n      tag_141\n      jump\t// in\n    tag_142:\n        /* \"MasterGrand.sol\":7131:7135  user */\n      dup3\n        /* \"MasterGrand.sol\":7131:7142  user.amount */\n      0x00\n      add\n        /* \"MasterGrand.sol\":7131:7166  user.amount = user.amount - _amount */\n      dup2\n      swap1\n      sstore\n      pop\n        /* \"MasterGrand.sol\":7234:7238  1e12 */\n      0xe8d4a51000\n        /* \"MasterGrand.sol\":7209:7213  pool */\n      dup4\n        /* \"MasterGrand.sol\":7209:7230  pool.accGrandPerShare */\n      0x03\n      add\n      sload\n        /* \"MasterGrand.sol\":7195:7199  user */\n      dup4\n        /* \"MasterGrand.sol\":7195:7206  user.amount */\n      0x00\n      add\n      sload\n        /* \"MasterGrand.sol\":7195:7230  user.amount * pool.accGrandPerShare */\n      tag_143\n      swap2\n      swap1\n      tag_137\n      jump\t// in\n    tag_143:\n        /* \"MasterGrand.sol\":7194:7238  (user.amount * pool.accGrandPerShare) / 1e12 */\n      tag_144\n      swap2\n      swap1\n      tag_139\n      jump\t// in\n    tag_144:\n        /* \"MasterGrand.sol\":7176:7180  user */\n      dup3\n        /* \"MasterGrand.sol\":7176:7191  user.rewardDebt */\n      0x01\n      add\n        /* \"MasterGrand.sol\":7176:7238  user.rewardDebt = (user.amount * pool.accGrandPerShare) / 1e12 */\n      dup2\n      swap1\n      sstore\n      pop\n        /* \"MasterGrand.sol\":7249:7288  Grand.safeTransfer(msg.sender, pending) */\n      tag_145\n        /* \"MasterGrand.sol\":7268:7278  msg.sender */\n      caller\n        /* \"MasterGrand.sol\":7280:7287  pending */\n      dup3\n        /* \"MasterGrand.sol\":7249:7254  Grand */\n      0x01\n      0x00\n      swap1\n      sload\n      swap1\n      0x0100\n      exp\n      swap1\n      div\n      0xffffffffffffffffffffffffffffffffffffffff\n      and\n        /* \"MasterGrand.sol\":7249:7267  Grand.safeTransfer */\n      0xffffffffffffffffffffffffffffffffffffffff\n      and\n      tag_146\n      swap1\n        /* \"MasterGrand.sol\":7249:7288  Grand.safeTransfer(msg.sender, pending) */\n      swap3\n      swap2\n      swap1\n      0xffffffff\n      and\n      jump\t// in\n    tag_145:\n        /* \"MasterGrand.sol\":7298:7344  pool.lpToken.safeTransfer(msg.sender, _amount) */\n      tag_147\n        /* \"MasterGrand.sol\":7324:7334  msg.sender */\n      caller\n        /* \"MasterGrand.sol\":7336:7343  _amount */\n      dup6\n        /* \"MasterGrand.sol\":7298:7302  pool */\n      dup6\n        /* \"MasterGrand.sol\":7298:7310  pool.lpToken */\n      0x00\n      add\n      0x00\n      swap1\n      sload\n      swap1\n      0x0100\n      exp\n      swap1\n      div\n      0xffffffffffffffffffffffffffffffffffffffff\n      and\n        /* \"MasterGrand.sol\":7298:7323  pool.lpToken.safeTransfer */\n      0xffffffffffffffffffffffffffffffffffffffff\n      and\n      tag_146\n      swap1\n        /* \"MasterGrand.sol\":7298:7344  pool.lpToken.safeTransfer(msg.sender, _amount) */\n      swap3\n      swap2\n      swap1\n      0xffffffff\n      and\n      jump\t// in\n    tag_147:\n        /* \"MasterGrand.sol\":7404:7408  _pid */\n      dup5\n        /* \"MasterGrand.sol\":7389:7393  pool */\n      dup4\n        /* \"MasterGrand.sol\":7389:7401  pool.lpToken */\n      0x00\n      add\n      0x00\n      swap1\n      sload\n      swap1\n      0x0100\n      exp\n      swap1\n      div\n      0xffffffffffffffffffffffffffffffffffffffff\n      and\n        /* \"MasterGrand.sol\":7360:7418  Withdraw(msg.sender, address(pool.lpToken), _pid, _amount) */\n      0xffffffffffffffffffffffffffffffffffffffff\n      and\n        /* \"MasterGrand.sol\":7369:7379  msg.sender */\n      caller\n        /* \"MasterGrand.sol\":7360:7418  Withdraw(msg.sender, address(pool.lpToken), _pid, _amount) */\n      0xffffffffffffffffffffffffffffffffffffffff\n      and\n      0xf341246adaac6f497bc2a656f546ab9e182111d630394f0c57c710a59a2cb567\n        /* \"MasterGrand.sol\":7410:7417  _amount */\n      dup8\n        /* \"MasterGrand.sol\":7360:7418  Withdraw(msg.sender, address(pool.lpToken), _pid, _amount) */\n      mload(0x40)\n      tag_148\n      swap2\n      swap1\n      tag_35\n      jump\t// in\n    tag_148:\n      mload(0x40)\n      dup1\n      swap2\n      sub\n      swap1\n      log4\n        /* \"MasterGrand.sol\":6734:7425  {... */\n      pop\n      pop\n      pop\n        /* \"MasterGrand.sol\":6676:7425  function withdraw(uint256 _pid, uint256 _amount) external {... */\n      pop\n      pop\n      jump\t// out\n        /* \"MasterGrand.sol\":3474:3838  function setPool(... */\n    tag_58:\n        /* \"@openzeppelin/contracts/access/Ownable.sol\":1531:1544  _checkOwner() */\n      tag_150\n        /* \"@openzeppelin/contracts/access/Ownable.sol\":1531:1542  _checkOwner */\n      tag_151\n        /* \"@openzeppelin/contracts/access/Ownable.sol\":1531:1544  _checkOwner() */\n      jump\t// in\n    tag_150:\n        /* \"MasterGrand.sol\":3607:3618  _withUpdate */\n      dup1\n        /* \"MasterGrand.sol\":3603:3662  if (_withUpdate) {... */\n      iszero\n      tag_153\n      jumpi\n        /* \"MasterGrand.sol\":3634:3651  massUpdatePools() */\n      tag_154\n        /* \"MasterGrand.sol\":3634:3649  massUpdatePools */\n      tag_72\n        /* \"MasterGrand.sol\":3634:3651  massUpdatePools() */\n      jump\t// in\n    tag_154:\n        /* \"MasterGrand.sol\":3603:3662  if (_withUpdate) {... */\n    tag_153:\n        /* \"MasterGrand.sol\":3771:3782  _allocPoint */\n      dup2\n        /* \"MasterGrand.sol\":3731:3739  poolInfo */\n      0x07\n        /* \"MasterGrand.sol\":3740:3744  _pid */\n      dup5\n        /* \"MasterGrand.sol\":3731:3745  poolInfo[_pid] */\n      dup2\n      sload\n      dup2\n      lt\n      tag_155\n      jumpi\n      tag_156\n      tag_130\n      jump\t// in\n    tag_156:\n    tag_155:\n      swap1\n      0x00\n      mstore\n      keccak256(0x00, 0x20)\n      swap1\n      0x04\n      mul\n      add\n        /* \"MasterGrand.sol\":3731:3756  poolInfo[_pid].allocPoint */\n      0x01\n      add\n      sload\n        /* \"MasterGrand.sol\":3701:3716  totalAllocPoint */\n      sload(0x09)\n        /* \"MasterGrand.sol\":3701:3756  totalAllocPoint -... */\n      tag_158\n      swap2\n      swap1\n      tag_141\n      jump\t// in\n    tag_158:\n        /* \"MasterGrand.sol\":3701:3782  totalAllocPoint -... */\n      tag_159\n      swap2\n      swap1\n      tag_124\n      jump\t// in\n    tag_159:\n        /* \"MasterGrand.sol\":3671:3686  totalAllocPoint */\n      0x09\n        /* \"MasterGrand.sol\":3671:3782  totalAllocPoint =... */\n      dup2\n      swap1\n      sstore\n      pop\n        /* \"MasterGrand.sol\":3820:3831  _allocPoint */\n      dup2\n        /* \"MasterGrand.sol\":3792:3800  poolInfo */\n      0x07\n        /* \"MasterGrand.sol\":3801:3805  _pid */\n      dup5\n        /* \"MasterGrand.sol\":3792:3806  poolInfo[_pid] */\n      dup2\n      sload\n      dup2\n      lt\n      tag_160\n      jumpi\n      tag_161\n      tag_130\n      jump\t// in\n    tag_161:\n    tag_160:\n      swap1\n      0x00\n      mstore\n      keccak256(0x00, 0x20)\n      swap1\n      0x04\n      mul\n      add\n        /* \"MasterGrand.sol\":3792:3817  poolInfo[_pid].allocPoint */\n      0x01\n      add\n        /* \"MasterGrand.sol\":3792:3831  poolInfo[_pid].allocPoint = _allocPoint */\n      dup2\n      swap1\n      sstore\n      pop\n        /* \"MasterGrand.sol\":3474:3838  function setPool(... */\n      pop\n      pop\n      pop\n      jump\t// out\n        /* \"MasterGrand.sol\":1930:1955  uint256 public startBlock */\n    tag_60:\n      sload(0x0a)\n      dup2\n      jump\t// out\n        /* \"MasterGrand.sol\":4683:5547  function updatePool(uint256 _pid) public {... */\n    tag_64:\n        /* \"MasterGrand.sol\":4734:4755  PoolInfo storage pool */\n      0x00\n        /* \"MasterGrand.sol\":4758:4766  poolInfo */\n      0x07\n        /* \"MasterGrand.sol\":4767:4771  _pid */\n      dup3\n        /* \"MasterGrand.sol\":4758:4772  poolInfo[_pid] */\n      dup2\n      sload\n      dup2\n      lt\n      tag_164\n      jumpi\n      tag_165\n      tag_130\n      jump\t// in\n    tag_165:\n    tag_164:\n      swap1\n      0x00\n      mstore\n      keccak256(0x00, 0x20)\n      swap1\n      0x04\n      mul\n      add\n        /* \"MasterGrand.sol\":4734:4772  PoolInfo storage pool = poolInfo[_pid] */\n      swap1\n      pop\n        /* \"MasterGrand.sol\":4802:4806  pool */\n      dup1\n        /* \"MasterGrand.sol\":4802:4822  pool.lastRewardBlock */\n      0x02\n      add\n      sload\n        /* \"MasterGrand.sol\":4786:4798  block.number */\n      number\n        /* \"MasterGrand.sol\":4786:4822  block.number <= pool.lastRewardBlock */\n      gt\n        /* \"MasterGrand.sol\":4782:4855  if (block.number <= pool.lastRewardBlock) {... */\n      tag_167\n      jumpi\n        /* \"MasterGrand.sol\":4838:4845  return; */\n      pop\n      jump(tag_163)\n        /* \"MasterGrand.sol\":4782:4855  if (block.number <= pool.lastRewardBlock) {... */\n    tag_167:\n        /* \"MasterGrand.sol\":4865:4881  uint256 lpSupply */\n      0x00\n        /* \"MasterGrand.sol\":4884:4888  pool */\n      dup2\n        /* \"MasterGrand.sol\":4884:4896  pool.lpToken */\n      0x00\n      add\n      0x00\n      swap1\n      sload\n      swap1\n      0x0100\n      exp\n      swap1\n      div\n      0xffffffffffffffffffffffffffffffffffffffff\n      and\n        /* \"MasterGrand.sol\":4884:4906  pool.lpToken.balanceOf */\n      0xffffffffffffffffffffffffffffffffffffffff\n      and\n      0x70a08231\n        /* \"MasterGrand.sol\":4915:4919  this */\n      address\n        /* \"MasterGrand.sol\":4884:4921  pool.lpToken.balanceOf(address(this)) */\n      mload(0x40)\n      dup3\n      0xffffffff\n      and\n      0xe0\n      shl\n      dup2\n      mstore\n      0x04\n      add\n      tag_168\n      swap2\n      swap1\n      tag_91\n      jump\t// in\n    tag_168:\n      0x20\n      mload(0x40)\n      dup1\n      dup4\n      sub\n      dup2\n      dup7\n      gas\n      staticcall\n      iszero\n      dup1\n      iszero\n      tag_170\n      jumpi\n      returndatacopy(0x00, 0x00, returndatasize)\n      revert(0x00, returndatasize)\n    tag_170:\n      pop\n      pop\n      pop\n      pop\n      mload(0x40)\n      returndatasize\n      not(0x1f)\n      0x1f\n      dup3\n      add\n      and\n      dup3\n      add\n      dup1\n      0x40\n      mstore\n      pop\n      dup2\n      add\n      swap1\n      tag_171\n      swap2\n      swap1\n      tag_172\n      jump\t// in\n    tag_171:\n        /* \"MasterGrand.sol\":4865:4921  uint256 lpSupply = pool.lpToken.balanceOf(address(this)) */\n      swap1\n      pop\n        /* \"MasterGrand.sol\":4947:4948  0 */\n      0x00\n        /* \"MasterGrand.sol\":4935:4943  lpSupply */\n      dup2\n        /* \"MasterGrand.sol\":4935:4948  lpSupply == 0 */\n      sub\n        /* \"MasterGrand.sol\":4931:5030  if (lpSupply == 0) {... */\n      tag_173\n      jumpi\n        /* \"MasterGrand.sol\":4987:4999  block.number */\n      number\n        /* \"MasterGrand.sol\":4964:4968  pool */\n      dup3\n        /* \"MasterGrand.sol\":4964:4984  pool.lastRewardBlock */\n      0x02\n      add\n        /* \"MasterGrand.sol\":4964:4999  pool.lastRewardBlock = block.number */\n      dup2\n      swap1\n      sstore\n      pop\n        /* \"MasterGrand.sol\":5013:5020  return; */\n      pop\n      pop\n      jump(tag_163)\n        /* \"MasterGrand.sol\":4931:5030  if (lpSupply == 0) {... */\n    tag_173:\n        /* \"MasterGrand.sol\":5040:5059  uint256 GrandReward */\n      0x00\n        /* \"MasterGrand.sol\":5208:5223  totalAllocPoint */\n      sload(0x09)\n        /* \"MasterGrand.sol\":5189:5193  pool */\n      dup4\n        /* \"MasterGrand.sol\":5189:5204  pool.allocPoint */\n      0x01\n      add\n      sload\n        /* \"MasterGrand.sol\":5161:5174  GrandPerBlock */\n      sload(0x04)\n        /* \"MasterGrand.sol\":5063:5146  getMultiplier(... */\n      tag_174\n        /* \"MasterGrand.sol\":5090:5094  pool */\n      dup7\n        /* \"MasterGrand.sol\":5090:5110  pool.lastRewardBlock */\n      0x02\n      add\n      sload\n        /* \"MasterGrand.sol\":5124:5136  block.number */\n      number\n        /* \"MasterGrand.sol\":5063:5076  getMultiplier */\n      tag_94\n        /* \"MasterGrand.sol\":5063:5146  getMultiplier(... */\n      jump\t// in\n    tag_174:\n        /* \"MasterGrand.sol\":5063:5174  getMultiplier(... */\n      tag_175\n      swap2\n      swap1\n      tag_137\n      jump\t// in\n    tag_175:\n        /* \"MasterGrand.sol\":5063:5204  getMultiplier(... */\n      tag_176\n      swap2\n      swap1\n      tag_137\n      jump\t// in\n    tag_176:\n        /* \"MasterGrand.sol\":5062:5223  (getMultiplier(... */\n      tag_177\n      swap2\n      swap1\n      tag_139\n      jump\t// in\n    tag_177:\n        /* \"MasterGrand.sol\":5040:5223  uint256 GrandReward = (getMultiplier(... */\n      swap1\n      pop\n        /* \"MasterGrand.sol\":5330:5338  lpSupply */\n      dup2\n        /* \"MasterGrand.sol\":5322:5326  1e12 */\n      0xe8d4a51000\n        /* \"MasterGrand.sol\":5308:5319  GrandReward */\n      dup3\n        /* \"MasterGrand.sol\":5308:5326  GrandReward * 1e12 */\n      tag_178\n      swap2\n      swap1\n      tag_137\n      jump\t// in\n    tag_178:\n        /* \"MasterGrand.sol\":5307:5338  (GrandReward * 1e12) / lpSupply */\n      tag_179\n      swap2\n      swap1\n      tag_139\n      jump\t// in\n    tag_179:\n        /* \"MasterGrand.sol\":5270:5274  pool */\n      dup4\n        /* \"MasterGrand.sol\":5270:5291  pool.accGrandPerShare */\n      0x03\n      add\n      sload\n        /* \"MasterGrand.sol\":5270:5339  pool.accGrandPerShare +... */\n      tag_180\n      swap2\n      swap1\n      tag_124\n      jump\t// in\n    tag_180:\n        /* \"MasterGrand.sol\":5234:5238  pool */\n      dup4\n        /* \"MasterGrand.sol\":5234:5255  pool.accGrandPerShare */\n      0x03\n      add\n        /* \"MasterGrand.sol\":5234:5339  pool.accGrandPerShare =... */\n      dup2\n      swap1\n      sstore\n      pop\n        /* \"MasterGrand.sol\":5372:5384  block.number */\n      number\n        /* \"MasterGrand.sol\":5349:5353  pool */\n      dup4\n        /* \"MasterGrand.sol\":5349:5369  pool.lastRewardBlock */\n      0x02\n      add\n        /* \"MasterGrand.sol\":5349:5384  pool.lastRewardBlock = block.number */\n      dup2\n      swap1\n      sstore\n      pop\n        /* \"MasterGrand.sol\":1448:1473  4203333333333333333333333 */\n      0x037a172815e43557155555\n        /* \"MasterGrand.sol\":5399:5410  grandMinted */\n      sload(0x05)\n        /* \"MasterGrand.sol\":5399:5423  grandMinted <= GRAND_CAP */\n      gt\n        /* \"MasterGrand.sol\":5395:5541  if (grandMinted <= GRAND_CAP) {... */\n      tag_181\n      jumpi\n        /* \"MasterGrand.sol\":5467:5478  GrandReward */\n      dup1\n        /* \"MasterGrand.sol\":5453:5464  grandMinted */\n      sload(0x05)\n        /* \"MasterGrand.sol\":5453:5478  grandMinted + GrandReward */\n      tag_182\n      swap2\n      swap1\n      tag_124\n      jump\t// in\n    tag_182:\n        /* \"MasterGrand.sol\":5439:5450  grandMinted */\n      0x05\n        /* \"MasterGrand.sol\":5439:5478  grandMinted = grandMinted + GrandReward */\n      dup2\n      swap1\n      sstore\n      pop\n        /* \"MasterGrand.sol\":5492:5497  Grand */\n      0x01\n      0x00\n      swap1\n      sload\n      swap1\n      0x0100\n      exp\n      swap1\n      div\n      0xffffffffffffffffffffffffffffffffffffffff\n      and\n        /* \"MasterGrand.sol\":5492:5502  Grand.mint */\n      0xffffffffffffffffffffffffffffffffffffffff\n      and\n      0x40c10f19\n        /* \"MasterGrand.sol\":5511:5515  this */\n      address\n        /* \"MasterGrand.sol\":5518:5529  GrandReward */\n      dup4\n        /* \"MasterGrand.sol\":5492:5530  Grand.mint(address(this), GrandReward) */\n      mload(0x40)\n      dup4\n      0xffffffff\n      and\n      0xe0\n      shl\n      dup2\n      mstore\n      0x04\n      add\n      tag_183\n      swap3\n      swap2\n      swap1\n      tag_184\n      jump\t// in\n    tag_183:\n      0x00\n      mload(0x40)\n      dup1\n      dup4\n      sub\n      dup2\n      0x00\n      dup8\n      dup1\n      extcodesize\n      iszero\n      dup1\n      iszero\n      tag_185\n      jumpi\n      revert(0x00, 0x00)\n    tag_185:\n      pop\n      gas\n      call\n      iszero\n      dup1\n      iszero\n      tag_187\n      jumpi\n      returndatacopy(0x00, 0x00, returndatasize)\n      revert(0x00, returndatasize)\n    tag_187:\n      pop\n      pop\n      pop\n      pop\n        /* \"MasterGrand.sol\":5395:5541  if (grandMinted <= GRAND_CAP) {... */\n    tag_181:\n        /* \"MasterGrand.sol\":4724:5547  {... */\n      pop\n      pop\n      pop\n        /* \"MasterGrand.sol\":4683:5547  function updatePool(uint256 _pid) public {... */\n    tag_163:\n      pop\n      jump\t// out\n        /* \"MasterGrand.sol\":7493:7908  function emergencyWithdraw(uint256 _pid) external {... */\n    tag_67:\n        /* \"MasterGrand.sol\":7553:7574  PoolInfo storage pool */\n      0x00\n        /* \"MasterGrand.sol\":7577:7585  poolInfo */\n      0x07\n        /* \"MasterGrand.sol\":7586:7590  _pid */\n      dup3\n        /* \"MasterGrand.sol\":7577:7591  poolInfo[_pid] */\n      dup2\n      sload\n      dup2\n      lt\n      tag_189\n      jumpi\n      tag_190\n      tag_130\n      jump\t// in\n    tag_190:\n    tag_189:\n      swap1\n      0x00\n      mstore\n      keccak256(0x00, 0x20)\n      swap1\n      0x04\n      mul\n      add\n        /* \"MasterGrand.sol\":7553:7591  PoolInfo storage pool = poolInfo[_pid] */\n      swap1\n      pop\n        /* \"MasterGrand.sol\":7601:7622  UserInfo storage user */\n      0x00\n        /* \"MasterGrand.sol\":7625:7633  userInfo */\n      0x08\n        /* \"MasterGrand.sol\":7625:7639  userInfo[_pid] */\n      0x00\n        /* \"MasterGrand.sol\":7634:7638  _pid */\n      dup5\n        /* \"MasterGrand.sol\":7625:7639  userInfo[_pid] */\n      dup2\n      mstore\n      0x20\n      add\n      swap1\n      dup2\n      mstore\n      0x20\n      add\n      0x00\n      keccak256\n        /* \"MasterGrand.sol\":7625:7651  userInfo[_pid][msg.sender] */\n      0x00\n        /* \"MasterGrand.sol\":7640:7650  msg.sender */\n      caller\n        /* \"MasterGrand.sol\":7625:7651  userInfo[_pid][msg.sender] */\n      0xffffffffffffffffffffffffffffffffffffffff\n      and\n      0xffffffffffffffffffffffffffffffffffffffff\n      and\n      dup2\n      mstore\n      0x20\n      add\n      swap1\n      dup2\n      mstore\n      0x20\n      add\n      0x00\n      keccak256\n        /* \"MasterGrand.sol\":7601:7651  UserInfo storage user = userInfo[_pid][msg.sender] */\n      swap1\n      pop\n        /* \"MasterGrand.sol\":7662:7676  uint256 amount */\n      0x00\n        /* \"MasterGrand.sol\":7679:7683  user */\n      dup2\n        /* \"MasterGrand.sol\":7679:7690  user.amount */\n      0x00\n      add\n      sload\n        /* \"MasterGrand.sol\":7662:7690  uint256 amount = user.amount */\n      swap1\n      pop\n        /* \"MasterGrand.sol\":7700:7714  uint256 reward */\n      0x00\n        /* \"MasterGrand.sol\":7717:7721  user */\n      dup3\n        /* \"MasterGrand.sol\":7717:7732  user.rewardDebt */\n      0x01\n      add\n      sload\n        /* \"MasterGrand.sol\":7700:7732  uint256 reward = user.rewardDebt */\n      swap1\n      pop\n        /* \"MasterGrand.sol\":7757:7758  0 */\n      0x00\n        /* \"MasterGrand.sol\":7743:7747  user */\n      dup4\n        /* \"MasterGrand.sol\":7743:7754  user.amount */\n      0x00\n      add\n        /* \"MasterGrand.sol\":7743:7758  user.amount = 0 */\n      dup2\n      swap1\n      sstore\n      pop\n        /* \"MasterGrand.sol\":7786:7787  0 */\n      0x00\n        /* \"MasterGrand.sol\":7768:7772  user */\n      dup4\n        /* \"MasterGrand.sol\":7768:7783  user.rewardDebt */\n      0x01\n      add\n        /* \"MasterGrand.sol\":7768:7787  user.rewardDebt = 0 */\n      dup2\n      swap1\n      sstore\n      pop\n        /* \"MasterGrand.sol\":7798:7843  pool.lpToken.safeTransfer(msg.sender, amount) */\n      tag_192\n        /* \"MasterGrand.sol\":7824:7834  msg.sender */\n      caller\n        /* \"MasterGrand.sol\":7836:7842  amount */\n      dup4\n        /* \"MasterGrand.sol\":7798:7802  pool */\n      dup7\n        /* \"MasterGrand.sol\":7798:7810  pool.lpToken */\n      0x00\n      add\n      0x00\n      swap1\n      sload\n      swap1\n      0x0100\n      exp\n      swap1\n      div\n      0xffffffffffffffffffffffffffffffffffffffff\n      and\n        /* \"MasterGrand.sol\":7798:7823  pool.lpToken.safeTransfer */\n      0xffffffffffffffffffffffffffffffffffffffff\n      and\n      tag_146\n      swap1\n        /* \"MasterGrand.sol\":7798:7843  pool.lpToken.safeTransfer(msg.sender, amount) */\n      swap3\n      swap2\n      swap1\n      0xffffffff\n      and\n      jump\t// in\n    tag_192:\n        /* \"MasterGrand.sol\":7888:7892  _pid */\n      dup5\n        /* \"MasterGrand.sol\":7876:7886  msg.sender */\n      caller\n        /* \"MasterGrand.sol\":7858:7901  EmergencyWithdraw(msg.sender, _pid, reward) */\n      0xffffffffffffffffffffffffffffffffffffffff\n      and\n      0xbb757047c2b5f3974fe26b7c10f732e7bce710b0952a71082702781e62ae0595\n        /* \"MasterGrand.sol\":7894:7900  reward */\n      dup4\n        /* \"MasterGrand.sol\":7858:7901  EmergencyWithdraw(msg.sender, _pid, reward) */\n      mload(0x40)\n      tag_193\n      swap2\n      swap1\n      tag_35\n      jump\t// in\n    tag_193:\n      mload(0x40)\n      dup1\n      swap2\n      sub\n      swap1\n      log3\n        /* \"MasterGrand.sol\":7543:7908  {... */\n      pop\n      pop\n      pop\n      pop\n        /* \"MasterGrand.sol\":7493:7908  function emergencyWithdraw(uint256 _pid) external {... */\n      pop\n      jump\t// out\n        /* \"MasterGrand.sol\":1511:1540  uint256 public totalBoxes = 0 */\n    tag_69:\n      sload(0x06)\n      dup2\n      jump\t// out\n        /* \"MasterGrand.sol\":4435:4610  function massUpdatePools() public {... */\n    tag_72:\n        /* \"MasterGrand.sol\":4479:4493  uint256 length */\n      0x00\n        /* \"MasterGrand.sol\":4496:4504  poolInfo */\n      0x07\n        /* \"MasterGrand.sol\":4496:4511  poolInfo.length */\n      dup1\n      sload\n      swap1\n      pop\n        /* \"MasterGrand.sol\":4479:4511  uint256 length = poolInfo.length */\n      swap1\n      pop\n        /* \"MasterGrand.sol\":4526:4537  uint256 pid */\n      0x00\n        /* \"MasterGrand.sol\":4540:4541  0 */\n      0x00\n        /* \"MasterGrand.sol\":4526:4541  uint256 pid = 0 */\n      swap1\n      pop\n        /* \"MasterGrand.sol\":4521:4604  for (uint256 pid = 0; pid < length; ++pid) {... */\n    tag_195:\n        /* \"MasterGrand.sol\":4549:4555  length */\n      dup2\n        /* \"MasterGrand.sol\":4543:4546  pid */\n      dup2\n        /* \"MasterGrand.sol\":4543:4555  pid < length */\n      lt\n        /* \"MasterGrand.sol\":4521:4604  for (uint256 pid = 0; pid < length; ++pid) {... */\n      iszero\n      tag_196\n      jumpi\n        /* \"MasterGrand.sol\":4578:4593  updatePool(pid) */\n      tag_198\n        /* \"MasterGrand.sol\":4589:4592  pid */\n      dup2\n        /* \"MasterGrand.sol\":4578:4588  updatePool */\n      tag_64\n        /* \"MasterGrand.sol\":4578:4593  updatePool(pid) */\n      jump\t// in\n    tag_198:\n        /* \"MasterGrand.sol\":4557:4562  ++pid */\n      dup1\n      0x01\n      add\n      swap1\n      pop\n        /* \"MasterGrand.sol\":4521:4604  for (uint256 pid = 0; pid < length; ++pid) {... */\n      jump(tag_195)\n    tag_196:\n      pop\n        /* \"MasterGrand.sol\":4469:4610  {... */\n      pop\n        /* \"MasterGrand.sol\":4435:4610  function massUpdatePools() public {... */\n      jump\t// out\n        /* \"@openzeppelin/contracts/access/Ownable.sol\":2293:2394  function renounceOwnership() public virtual onlyOwner {... */\n    tag_74:\n        /* \"@openzeppelin/contracts/access/Ownable.sol\":1531:1544  _checkOwner() */\n      tag_200\n        /* \"@openzeppelin/contracts/access/Ownable.sol\":1531:1542  _checkOwner */\n      tag_151\n        /* \"@openzeppelin/contracts/access/Ownable.sol\":1531:1544  _checkOwner() */\n      jump\t// in\n    tag_200:\n        /* \"@openzeppelin/contracts/access/Ownable.sol\":2357:2387  _transferOwnership(address(0)) */\n      tag_202\n        /* \"@openzeppelin/contracts/access/Ownable.sol\":2384:2385  0 */\n      0x00\n        /* \"@openzeppelin/contracts/access/Ownable.sol\":2357:2375  _transferOwnership */\n      tag_203\n        /* \"@openzeppelin/contracts/access/Ownable.sol\":2357:2387  _transferOwnership(address(0)) */\n      jump\t// in\n    tag_202:\n        /* \"@openzeppelin/contracts/access/Ownable.sol\":2293:2394  function renounceOwnership() public virtual onlyOwner {... */\n      jump\t// out\n        /* \"MasterGrand.sol\":1961:1985  uint256 public startTime */\n    tag_76:\n      sload(0x0b)\n      dup2\n      jump\t// out\n        /* \"MasterGrand.sol\":2894:3380  function addPool(... */\n    tag_81:\n        /* \"@openzeppelin/contracts/access/Ownable.sol\":1531:1544  _checkOwner() */\n      tag_205\n        /* \"@openzeppelin/contracts/access/Ownable.sol\":1531:1542  _checkOwner */\n      tag_151\n        /* \"@openzeppelin/contracts/access/Ownable.sol\":1531:1544  _checkOwner() */\n      jump\t// in\n    tag_205:\n        /* \"MasterGrand.sol\":3030:3041  _withUpdate */\n      dup1\n        /* \"MasterGrand.sol\":3026:3085  if (_withUpdate) {... */\n      iszero\n      tag_207\n      jumpi\n        /* \"MasterGrand.sol\":3057:3074  massUpdatePools() */\n      tag_208\n        /* \"MasterGrand.sol\":3057:3072  massUpdatePools */\n      tag_72\n        /* \"MasterGrand.sol\":3057:3074  massUpdatePools() */\n      jump\t// in\n    tag_208:\n        /* \"MasterGrand.sol\":3026:3085  if (_withUpdate) {... */\n    tag_207:\n        /* \"MasterGrand.sol\":3131:3142  _allocPoint */\n      dup3\n        /* \"MasterGrand.sol\":3113:3128  totalAllocPoint */\n      sload(0x09)\n        /* \"MasterGrand.sol\":3113:3142  totalAllocPoint + _allocPoint */\n      tag_209\n      swap2\n      swap1\n      tag_124\n      jump\t// in\n    tag_209:\n        /* \"MasterGrand.sol\":3095:3110  totalAllocPoint */\n      0x09\n        /* \"MasterGrand.sol\":3095:3142  totalAllocPoint = totalAllocPoint + _allocPoint */\n      dup2\n      swap1\n      sstore\n      pop\n        /* \"MasterGrand.sol\":3152:3160  poolInfo */\n      0x07\n        /* \"MasterGrand.sol\":3179:3363  PoolInfo({... */\n      mload(0x40)\n      dup1\n      0x80\n      add\n      0x40\n      mstore\n      dup1\n        /* \"MasterGrand.sol\":3215:3223  _lpToken */\n      dup5\n        /* \"MasterGrand.sol\":3179:3363  PoolInfo({... */\n      0xffffffffffffffffffffffffffffffffffffffff\n      and\n      dup2\n      mstore\n      0x20\n      add\n        /* \"MasterGrand.sol\":3253:3264  _allocPoint */\n      dup6\n        /* \"MasterGrand.sol\":3179:3363  PoolInfo({... */\n      dup2\n      mstore\n      0x20\n      add\n        /* \"MasterGrand.sol\":3299:3311  block.number */\n      number\n        /* \"MasterGrand.sol\":3179:3363  PoolInfo({... */\n      dup2\n      mstore\n      0x20\n      add\n        /* \"MasterGrand.sol\":3347:3348  0 */\n      0x00\n        /* \"MasterGrand.sol\":3179:3363  PoolInfo({... */\n      dup2\n      mstore\n      pop\n        /* \"MasterGrand.sol\":3152:3373  poolInfo.push(... */\n      swap1\n      dup1\n      0x01\n      dup2\n      sload\n      add\n      dup1\n      dup3\n      sstore\n      dup1\n      swap2\n      pop\n      pop\n      0x01\n      swap1\n      sub\n      swap1\n      0x00\n      mstore\n      keccak256(0x00, 0x20)\n      swap1\n      0x04\n      mul\n      add\n      0x00\n      swap1\n      swap2\n      swap1\n      swap2\n      swap1\n      swap2\n      pop\n      0x00\n      dup3\n      add\n      mload\n      dup2\n      0x00\n      add\n      exp(0x0100, 0x00)\n      dup2\n      sload\n      dup2\n      0xffffffffffffffffffffffffffffffffffffffff\n      mul\n      not\n      and\n      swap1\n      dup4\n      0xffffffffffffffffffffffffffffffffffffffff\n      and\n      mul\n      or\n      swap1\n      sstore\n      pop\n      0x20\n      dup3\n      add\n      mload\n      dup2\n      0x01\n      add\n      sstore\n      0x40\n      dup3\n      add\n      mload\n      dup2\n      0x02\n      add\n      sstore\n      0x60\n      dup3\n      add\n      mload\n      dup2\n      0x03\n      add\n      sstore\n      pop\n      pop\n        /* \"MasterGrand.sol\":2894:3380  function addPool(... */\n      pop\n      pop\n      pop\n      jump\t// out\n        /* \"MasterGrand.sol\":1479:1505  uint256 public grandMinted */\n    tag_83:\n      sload(0x05)\n      dup2\n      jump\t// out\n        /* \"MasterGrand.sol\":1362:1406  uint256 public constant BONUS_MULTIPLIER = 3 */\n    tag_86:\n        /* \"MasterGrand.sol\":1405:1406  3 */\n      0x03\n        /* \"MasterGrand.sol\":1362:1406  uint256 public constant BONUS_MULTIPLIER = 3 */\n      dup2\n      jump\t// out\n        /* \"@openzeppelin/contracts/access/Ownable.sol\":1638:1723  function owner() public view virtual returns (address) {... */\n    tag_89:\n        /* \"@openzeppelin/contracts/access/Ownable.sol\":1684:1691  address */\n      0x00\n        /* \"@openzeppelin/contracts/access/Ownable.sol\":1710:1716  _owner */\n      0x00\n      0x00\n      swap1\n      sload\n      swap1\n      0x0100\n      exp\n      swap1\n      div\n      0xffffffffffffffffffffffffffffffffffffffff\n      and\n        /* \"@openzeppelin/contracts/access/Ownable.sol\":1703:1716  return _owner */\n      swap1\n      pop\n        /* \"@openzeppelin/contracts/access/Ownable.sol\":1638:1723  function owner() public view virtual returns (address) {... */\n      swap1\n      jump\t// out\n        /* \"MasterGrand.sol\":3911:4355  function getMultiplier(uint256 _from, uint256 _to)... */\n    tag_94:\n        /* \"MasterGrand.sol\":4007:4014  uint256 */\n      0x00\n        /* \"MasterGrand.sol\":4041:4054  bonusEndBlock */\n      sload(0x03)\n        /* \"MasterGrand.sol\":4034:4037  _to */\n      dup3\n        /* \"MasterGrand.sol\":4034:4054  _to <= bonusEndBlock */\n      gt\n        /* \"MasterGrand.sol\":4030:4349  if (_to <= bonusEndBlock) {... */\n      tag_213\n      jumpi\n        /* \"MasterGrand.sol\":1405:1406  3 */\n      0x03\n        /* \"MasterGrand.sol\":4084:4089  _from */\n      dup4\n        /* \"MasterGrand.sol\":4078:4081  _to */\n      dup4\n        /* \"MasterGrand.sol\":4078:4089  _to - _from */\n      tag_214\n      swap2\n      swap1\n      tag_141\n      jump\t// in\n    tag_214:\n        /* \"MasterGrand.sol\":4077:4109  (_to - _from) * BONUS_MULTIPLIER */\n      tag_215\n      swap2\n      swap1\n      tag_137\n      jump\t// in\n    tag_215:\n        /* \"MasterGrand.sol\":4070:4109  return (_to - _from) * BONUS_MULTIPLIER */\n      swap1\n      pop\n      jump(tag_212)\n        /* \"MasterGrand.sol\":4030:4349  if (_to <= bonusEndBlock) {... */\n    tag_213:\n        /* \"MasterGrand.sol\":4139:4152  bonusEndBlock */\n      sload(0x03)\n        /* \"MasterGrand.sol\":4130:4135  _from */\n      dup4\n        /* \"MasterGrand.sol\":4130:4152  _from >= bonusEndBlock */\n      lt\n        /* \"MasterGrand.sol\":4126:4349  if (_from >= bonusEndBlock) {... */\n      tag_217\n      jumpi\n        /* \"MasterGrand.sol\":4181:4186  _from */\n      dup3\n        /* \"MasterGrand.sol\":4175:4178  _to */\n      dup3\n        /* \"MasterGrand.sol\":4175:4186  _to - _from */\n      tag_218\n      swap2\n      swap1\n      tag_141\n      jump\t// in\n    tag_218:\n        /* \"MasterGrand.sol\":4168:4186  return _to - _from */\n      swap1\n      pop\n      jump(tag_212)\n        /* \"MasterGrand.sol\":4126:4349  if (_from >= bonusEndBlock) {... */\n    tag_217:\n        /* \"MasterGrand.sol\":4324:4337  bonusEndBlock */\n      sload(0x03)\n        /* \"MasterGrand.sol\":4318:4321  _to */\n      dup3\n        /* \"MasterGrand.sol\":4318:4337  _to - bonusEndBlock */\n      tag_220\n      swap2\n      swap1\n      tag_141\n      jump\t// in\n    tag_220:\n        /* \"MasterGrand.sol\":1405:1406  3 */\n      0x03\n        /* \"MasterGrand.sol\":4257:4262  _from */\n      dup5\n        /* \"MasterGrand.sol\":4241:4254  bonusEndBlock */\n      sload(0x03)\n        /* \"MasterGrand.sol\":4241:4262  bonusEndBlock - _from */\n      tag_221\n      swap2\n      swap1\n      tag_141\n      jump\t// in\n    tag_221:\n        /* \"MasterGrand.sol\":4240:4298  (bonusEndBlock - _from) *... */\n      tag_222\n      swap2\n      swap1\n      tag_137\n      jump\t// in\n    tag_222:\n        /* \"MasterGrand.sol\":4240:4338  (bonusEndBlock - _from) *... */\n      tag_223\n      swap2\n      swap1\n      tag_124\n      jump\t// in\n    tag_223:\n        /* \"MasterGrand.sol\":4217:4338  return... */\n      swap1\n      pop\n        /* \"MasterGrand.sol\":3911:4355  function getMultiplier(uint256 _from, uint256 _to)... */\n    tag_212:\n      swap3\n      swap2\n      pop\n      pop\n      jump\t// out\n        /* \"MasterGrand.sol\":1128:1152  address public collector */\n    tag_97:\n      0x02\n      0x00\n      swap1\n      sload\n      swap1\n      0x0100\n      exp\n      swap1\n      div\n      0xffffffffffffffffffffffffffffffffffffffff\n      and\n      dup2\n      jump\t// out\n        /* \"MasterGrand.sol\":1683:1747  mapping(uint256 => mapping(address => UserInfo)) public userInfo */\n    tag_102:\n      mstore(0x20, 0x08)\n      dup2\n      0x00\n      mstore\n      mstore(0x20, keccak256(0x00, 0x40))\n      dup1\n      0x00\n      mstore\n      keccak256(0x00, 0x40)\n      0x00\n      swap2\n      pop\n      swap2\n      pop\n      pop\n      dup1\n      0x00\n      add\n      sload\n      swap1\n      dup1\n      0x01\n      add\n      sload\n      swap1\n      pop\n      dup3\n      jump\t// out\n        /* \"MasterGrand.sol\":1412:1473  uint256 public constant GRAND_CAP = 4203333333333333333333333 */\n    tag_106:\n        /* \"MasterGrand.sol\":1448:1473  4203333333333333333333333 */\n      0x037a172815e43557155555\n        /* \"MasterGrand.sol\":1412:1473  uint256 public constant GRAND_CAP = 4203333333333333333333333 */\n      dup2\n      jump\t// out\n        /* \"MasterGrand.sol\":1098:1121  GrandToken public Grand */\n    tag_109:\n      0x01\n      0x00\n      swap1\n      sload\n      swap1\n      0x0100\n      exp\n      swap1\n      div\n      0xffffffffffffffffffffffffffffffffffffffff\n      and\n      dup2\n      jump\t// out\n        /* \"MasterGrand.sol\":5615:6626  function deposit(uint256 _pid, uint256 _amount) external {... */\n    tag_114:\n        /* \"MasterGrand.sol\":5682:5703  PoolInfo storage pool */\n      0x00\n        /* \"MasterGrand.sol\":5706:5714  poolInfo */\n      0x07\n        /* \"MasterGrand.sol\":5715:5719  _pid */\n      dup4\n        /* \"MasterGrand.sol\":5706:5720  poolInfo[_pid] */\n      dup2\n      sload\n      dup2\n      lt\n      tag_225\n      jumpi\n      tag_226\n      tag_130\n      jump\t// in\n    tag_226:\n    tag_225:\n      swap1\n      0x00\n      mstore\n      keccak256(0x00, 0x20)\n      swap1\n      0x04\n      mul\n      add\n        /* \"MasterGrand.sol\":5682:5720  PoolInfo storage pool = poolInfo[_pid] */\n      swap1\n      pop\n        /* \"MasterGrand.sol\":5730:5751  UserInfo storage user */\n      0x00\n        /* \"MasterGrand.sol\":5754:5762  userInfo */\n      0x08\n        /* \"MasterGrand.sol\":5754:5768  userInfo[_pid] */\n      0x00\n        /* \"MasterGrand.sol\":5763:5767  _pid */\n      dup6\n        /* \"MasterGrand.sol\":5754:5768  userInfo[_pid] */\n      dup2\n      mstore\n      0x20\n      add\n      swap1\n      dup2\n      mstore\n      0x20\n      add\n      0x00\n      keccak256\n        /* \"MasterGrand.sol\":5754:5780  userInfo[_pid][msg.sender] */\n      0x00\n        /* \"MasterGrand.sol\":5769:5779  msg.sender */\n      caller\n        /* \"MasterGrand.sol\":5754:5780  userInfo[_pid][msg.sender] */\n      0xffffffffffffffffffffffffffffffffffffffff\n      and\n      0xffffffffffffffffffffffffffffffffffffffff\n      and\n      dup2\n      mstore\n      0x20\n      add\n      swap1\n      dup2\n      mstore\n      0x20\n      add\n      0x00\n      keccak256\n        /* \"MasterGrand.sol\":5730:5780  UserInfo storage user = userInfo[_pid][msg.sender] */\n      swap1\n      pop\n        /* \"MasterGrand.sol\":5823:5827  pool */\n      dup2\n        /* \"MasterGrand.sol\":5823:5835  pool.lpToken */\n      0x00\n      add\n      0x00\n      swap1\n      sload\n      swap1\n      0x0100\n      exp\n      swap1\n      div\n      0xffffffffffffffffffffffffffffffffffffffff\n      and\n        /* \"MasterGrand.sol\":5823:5845  pool.lpToken.allowance */\n      0xffffffffffffffffffffffffffffffffffffffff\n      and\n      0xdd62ed3e\n        /* \"MasterGrand.sol\":5846:5856  msg.sender */\n      caller\n        /* \"MasterGrand.sol\":5866:5870  this */\n      address\n        /* \"MasterGrand.sol\":5823:5872  pool.lpToken.allowance(msg.sender, address(this)) */\n      mload(0x40)\n      dup4\n      0xffffffff\n      and\n      0xe0\n      shl\n      dup2\n      mstore\n      0x04\n      add\n      tag_228\n      swap3\n      swap2\n      swap1\n      tag_229\n      jump\t// in\n    tag_228:\n      0x20\n      mload(0x40)\n      dup1\n      dup4\n      sub\n      dup2\n      dup7\n      gas\n      staticcall\n      iszero\n      dup1\n      iszero\n      tag_231\n      jumpi\n      returndatacopy(0x00, 0x00, returndatasize)\n      revert(0x00, returndatasize)\n    tag_231:\n      pop\n      pop\n      pop\n      pop\n      mload(0x40)\n      returndatasize\n      not(0x1f)\n      0x1f\n      dup3\n      add\n      and\n      dup3\n      add\n      dup1\n      0x40\n      mstore\n      pop\n      dup2\n      add\n      swap1\n      tag_232\n      swap2\n      swap1\n      tag_172\n      jump\t// in\n    tag_232:\n        /* \"MasterGrand.sol\":5812:5819  _amount */\n      dup4\n        /* \"MasterGrand.sol\":5812:5872  _amount <= pool.lpToken.allowance(msg.sender, address(this)) */\n      gt\n      iszero\n        /* \"MasterGrand.sol\":5791:5923  require(... */\n      tag_233\n      jumpi\n      mload(0x40)\n      0x08c379a000000000000000000000000000000000000000000000000000000000\n      dup2\n      mstore\n      0x04\n      add\n      tag_234\n      swap1\n      tag_235\n      jump\t// in\n    tag_234:\n      mload(0x40)\n      dup1\n      swap2\n      sub\n      swap1\n      revert\n    tag_233:\n        /* \"MasterGrand.sol\":5933:5998  pool.lpToken.safeTransferFrom(msg.sender, address(this), _amount) */\n      tag_236\n        /* \"MasterGrand.sol\":5963:5973  msg.sender */\n      caller\n        /* \"MasterGrand.sol\":5983:5987  this */\n      address\n        /* \"MasterGrand.sol\":5990:5997  _amount */\n      dup6\n        /* \"MasterGrand.sol\":5933:5937  pool */\n      dup6\n        /* \"MasterGrand.sol\":5933:5945  pool.lpToken */\n      0x00\n      add\n      0x00\n      swap1\n      sload\n      swap1\n      0x0100\n      exp\n      swap1\n      div\n      0xffffffffffffffffffffffffffffffffffffffff\n      and\n        /* \"MasterGrand.sol\":5933:5962  pool.lpToken.safeTransferFrom */\n      0xffffffffffffffffffffffffffffffffffffffff\n      and\n      tag_237\n      swap1\n        /* \"MasterGrand.sol\":5933:5998  pool.lpToken.safeTransferFrom(msg.sender, address(this), _amount) */\n      swap4\n      swap3\n      swap2\n      swap1\n      0xffffffff\n      and\n      jump\t// in\n    tag_236:\n        /* \"MasterGrand.sol\":6009:6025  updatePool(_pid) */\n      tag_238\n        /* \"MasterGrand.sol\":6020:6024  _pid */\n      dup5\n        /* \"MasterGrand.sol\":6009:6019  updatePool */\n      tag_64\n        /* \"MasterGrand.sol\":6009:6025  updatePool(_pid) */\n      jump\t// in\n    tag_238:\n        /* \"MasterGrand.sol\":6036:6051  uint256 pending */\n      0x00\n        /* \"MasterGrand.sol\":6125:6129  user */\n      dup2\n        /* \"MasterGrand.sol\":6125:6140  user.rewardDebt */\n      0x01\n      add\n      sload\n        /* \"MasterGrand.sol\":6106:6110  1e12 */\n      0xe8d4a51000\n        /* \"MasterGrand.sol\":6069:6073  pool */\n      dup5\n        /* \"MasterGrand.sol\":6069:6090  pool.accGrandPerShare */\n      0x03\n      add\n      sload\n        /* \"MasterGrand.sol\":6055:6059  user */\n      dup5\n        /* \"MasterGrand.sol\":6055:6066  user.amount */\n      0x00\n      add\n      sload\n        /* \"MasterGrand.sol\":6055:6090  user.amount * pool.accGrandPerShare */\n      tag_239\n      swap2\n      swap1\n      tag_137\n      jump\t// in\n    tag_239:\n        /* \"MasterGrand.sol\":6054:6110  (user.amount * pool.accGrandPerShare) /... */\n      tag_240\n      swap2\n      swap1\n      tag_139\n      jump\t// in\n    tag_240:\n        /* \"MasterGrand.sol\":6054:6140  (user.amount * pool.accGrandPerShare) /... */\n      tag_241\n      swap2\n      swap1\n      tag_141\n      jump\t// in\n    tag_241:\n        /* \"MasterGrand.sol\":6036:6140  uint256 pending = (user.amount * pool.accGrandPerShare) /... */\n      swap1\n      pop\n        /* \"MasterGrand.sol\":6178:6185  _amount */\n      dup4\n        /* \"MasterGrand.sol\":6164:6168  user */\n      dup3\n        /* \"MasterGrand.sol\":6164:6175  user.amount */\n      0x00\n      add\n      sload\n        /* \"MasterGrand.sol\":6164:6185  user.amount + _amount */\n      tag_242\n      swap2\n      swap1\n      tag_124\n      jump\t// in\n    tag_242:\n        /* \"MasterGrand.sol\":6150:6154  user */\n      dup3\n        /* \"MasterGrand.sol\":6150:6161  user.amount */\n      0x00\n      add\n        /* \"MasterGrand.sol\":6150:6185  user.amount = user.amount + _amount */\n      dup2\n      swap1\n      sstore\n      pop\n        /* \"MasterGrand.sol\":6231:6238  40 days */\n      0x34bc00\n        /* \"MasterGrand.sol\":6219:6228  startTime */\n      sload(0x0b)\n        /* \"MasterGrand.sol\":6219:6238  startTime + 40 days */\n      tag_243\n      swap2\n      swap1\n      tag_124\n      jump\t// in\n    tag_243:\n        /* \"MasterGrand.sol\":6200:6215  block.timestamp */\n      timestamp\n        /* \"MasterGrand.sol\":6200:6239  block.timestamp > (startTime + 40 days) */\n      gt\n        /* \"MasterGrand.sol\":6200:6254  block.timestamp > (startTime + 40 days) && pending > 0 */\n      dup1\n      iszero\n      tag_244\n      jumpi\n      pop\n        /* \"MasterGrand.sol\":6253:6254  0 */\n      0x00\n        /* \"MasterGrand.sol\":6243:6250  pending */\n      dup2\n        /* \"MasterGrand.sol\":6243:6254  pending > 0 */\n      gt\n        /* \"MasterGrand.sol\":6200:6254  block.timestamp > (startTime + 40 days) && pending > 0 */\n    tag_244:\n        /* \"MasterGrand.sol\":6196:6547  if (block.timestamp > (startTime + 40 days) && pending > 0) {... */\n      iszero\n      tag_245\n      jumpi\n        /* \"MasterGrand.sol\":6328:6332  1e12 */\n      0xe8d4a51000\n        /* \"MasterGrand.sol\":6303:6307  pool */\n      dup4\n        /* \"MasterGrand.sol\":6303:6324  pool.accGrandPerShare */\n      0x03\n      add\n      sload\n        /* \"MasterGrand.sol\":6289:6293  user */\n      dup4\n        /* \"MasterGrand.sol\":6289:6300  user.amount */\n      0x00\n      add\n      sload\n        /* \"MasterGrand.sol\":6289:6324  user.amount * pool.accGrandPerShare */\n      tag_246\n      swap2\n      swap1\n      tag_137\n      jump\t// in\n    tag_246:\n        /* \"MasterGrand.sol\":6288:6332  (user.amount * pool.accGrandPerShare) / 1e12 */\n      tag_247\n      swap2\n      swap1\n      tag_139\n      jump\t// in\n    tag_247:\n        /* \"MasterGrand.sol\":6270:6274  user */\n      dup3\n        /* \"MasterGrand.sol\":6270:6285  user.rewardDebt */\n      0x01\n      add\n        /* \"MasterGrand.sol\":6270:6332  user.rewardDebt = (user.amount * pool.accGrandPerShare) / 1e12 */\n      dup2\n      swap1\n      sstore\n      pop\n        /* \"MasterGrand.sol\":6346:6385  Grand.safeTransfer(msg.sender, pending) */\n      tag_248\n        /* \"MasterGrand.sol\":6365:6375  msg.sender */\n      caller\n        /* \"MasterGrand.sol\":6377:6384  pending */\n      dup3\n        /* \"MasterGrand.sol\":6346:6351  Grand */\n      0x01\n      0x00\n      swap1\n      sload\n      swap1\n      0x0100\n      exp\n      swap1\n      div\n      0xffffffffffffffffffffffffffffffffffffffff\n      and\n        /* \"MasterGrand.sol\":6346:6364  Grand.safeTransfer */\n      0xffffffffffffffffffffffffffffffffffffffff\n      and\n      tag_146\n      swap1\n        /* \"MasterGrand.sol\":6346:6385  Grand.safeTransfer(msg.sender, pending) */\n      swap3\n      swap2\n      swap1\n      0xffffffff\n      and\n      jump\t// in\n    tag_248:\n        /* \"MasterGrand.sol\":6196:6547  if (block.timestamp > (startTime + 40 days) && pending > 0) {... */\n      jump(tag_249)\n    tag_245:\n        /* \"MasterGrand.sol\":6529:6536  pending */\n      dup1\n        /* \"MasterGrand.sol\":6506:6510  1e12 */\n      0xe8d4a51000\n        /* \"MasterGrand.sol\":6465:6469  pool */\n      dup5\n        /* \"MasterGrand.sol\":6465:6486  pool.accGrandPerShare */\n      0x03\n      add\n      sload\n        /* \"MasterGrand.sol\":6451:6455  user */\n      dup5\n        /* \"MasterGrand.sol\":6451:6462  user.amount */\n      0x00\n      add\n      sload\n        /* \"MasterGrand.sol\":6451:6486  user.amount * pool.accGrandPerShare */\n      tag_250\n      swap2\n      swap1\n      tag_137\n      jump\t// in\n    tag_250:\n        /* \"MasterGrand.sol\":6450:6510  (user.amount * pool.accGrandPerShare) /... */\n      tag_251\n      swap2\n      swap1\n      tag_139\n      jump\t// in\n    tag_251:\n        /* \"MasterGrand.sol\":6450:6536  (user.amount * pool.accGrandPerShare) /... */\n      tag_252\n      swap2\n      swap1\n      tag_141\n      jump\t// in\n    tag_252:\n        /* \"MasterGrand.sol\":6416:6420  user */\n      dup3\n        /* \"MasterGrand.sol\":6416:6431  user.rewardDebt */\n      0x01\n      add\n        /* \"MasterGrand.sol\":6416:6536  user.rewardDebt =... */\n      dup2\n      swap1\n      sstore\n      pop\n        /* \"MasterGrand.sol\":6196:6547  if (block.timestamp > (startTime + 40 days) && pending > 0) {... */\n    tag_249:\n        /* \"MasterGrand.sol\":6605:6609  _pid */\n      dup5\n        /* \"MasterGrand.sol\":6590:6594  pool */\n      dup4\n        /* \"MasterGrand.sol\":6590:6602  pool.lpToken */\n      0x00\n      add\n      0x00\n      swap1\n      sload\n      swap1\n      0x0100\n      exp\n      swap1\n      div\n      0xffffffffffffffffffffffffffffffffffffffff\n      and\n        /* \"MasterGrand.sol\":6562:6619  Deposit(msg.sender, address(pool.lpToken), _pid, _amount) */\n      0xffffffffffffffffffffffffffffffffffffffff\n      and\n        /* \"MasterGrand.sol\":6570:6580  msg.sender */\n      caller\n        /* \"MasterGrand.sol\":6562:6619  Deposit(msg.sender, address(pool.lpToken), _pid, _amount) */\n      0xffffffffffffffffffffffffffffffffffffffff\n      and\n      0xdcbc1c05240f31ff3ad067ef1ee35ce4997762752e3a095284754544f4c709d7\n        /* \"MasterGrand.sol\":6611:6618  _amount */\n      dup8\n        /* \"MasterGrand.sol\":6562:6619  Deposit(msg.sender, address(pool.lpToken), _pid, _amount) */\n      mload(0x40)\n      tag_253\n      swap2\n      swap1\n      tag_35\n      jump\t// in\n    tag_253:\n      mload(0x40)\n      dup1\n      swap2\n      sub\n      swap1\n      log4\n        /* \"MasterGrand.sol\":5672:6626  {... */\n      pop\n      pop\n      pop\n        /* \"MasterGrand.sol\":5615:6626  function deposit(uint256 _pid, uint256 _amount) external {... */\n      pop\n      pop\n      jump\t// out\n        /* \"@openzeppelin/contracts/access/Ownable.sol\":2543:2758  function transferOwnership(address newOwner) public virtual onlyOwner {... */\n    tag_118:\n        /* \"@openzeppelin/contracts/access/Ownable.sol\":1531:1544  _checkOwner() */\n      tag_255\n        /* \"@openzeppelin/contracts/access/Ownable.sol\":1531:1542  _checkOwner */\n      tag_151\n        /* \"@openzeppelin/contracts/access/Ownable.sol\":1531:1544  _checkOwner() */\n      jump\t// in\n    tag_255:\n        /* \"@openzeppelin/contracts/access/Ownable.sol\":2647:2648  0 */\n      0x00\n        /* \"@openzeppelin/contracts/access/Ownable.sol\":2627:2649  newOwner == address(0) */\n      0xffffffffffffffffffffffffffffffffffffffff\n      and\n        /* \"@openzeppelin/contracts/access/Ownable.sol\":2627:2635  newOwner */\n      dup2\n        /* \"@openzeppelin/contracts/access/Ownable.sol\":2627:2649  newOwner == address(0) */\n      0xffffffffffffffffffffffffffffffffffffffff\n      and\n      sub\n        /* \"@openzeppelin/contracts/access/Ownable.sol\":2623:2714  if (newOwner == address(0)) {... */\n      tag_257\n      jumpi\n        /* \"@openzeppelin/contracts/access/Ownable.sol\":2700:2701  0 */\n      0x00\n        /* \"@openzeppelin/contracts/access/Ownable.sol\":2672:2703  OwnableInvalidOwner(address(0)) */\n      mload(0x40)\n      0x1e4fbdf700000000000000000000000000000000000000000000000000000000\n      dup2\n      mstore\n      0x04\n      add\n      tag_258\n      swap2\n      swap1\n      tag_91\n      jump\t// in\n    tag_258:\n      mload(0x40)\n      dup1\n      swap2\n      sub\n      swap1\n      revert\n        /* \"@openzeppelin/contracts/access/Ownable.sol\":2623:2714  if (newOwner == address(0)) {... */\n    tag_257:\n        /* \"@openzeppelin/contracts/access/Ownable.sol\":2723:2751  _transferOwnership(newOwner) */\n      tag_259\n        /* \"@openzeppelin/contracts/access/Ownable.sol\":2742:2750  newOwner */\n      dup2\n        /* \"@openzeppelin/contracts/access/Ownable.sol\":2723:2741  _transferOwnership */\n      tag_203\n        /* \"@openzeppelin/contracts/access/Ownable.sol\":2723:2751  _transferOwnership(newOwner) */\n      jump\t// in\n    tag_259:\n        /* \"@openzeppelin/contracts/access/Ownable.sol\":2543:2758  function transferOwnership(address newOwner) public virtual onlyOwner {... */\n      pop\n      jump\t// out\n        /* \"@openzeppelin/contracts/token/ERC20/utils/SafeERC20.sol\":1271:1431  function safeTransfer(IERC20 token, address to, uint256 value) internal {... */\n    tag_146:\n        /* \"@openzeppelin/contracts/token/ERC20/utils/SafeERC20.sol\":1353:1424  _callOptionalReturn(token, abi.encodeCall(token.transfer, (to, value))) */\n      tag_261\n        /* \"@openzeppelin/contracts/token/ERC20/utils/SafeERC20.sol\":1373:1378  token */\n      dup4\n        /* \"@openzeppelin/contracts/token/ERC20/utils/SafeERC20.sol\":1395:1400  token */\n      dup5\n        /* \"@openzeppelin/contracts/token/ERC20/utils/SafeERC20.sol\":1395:1409  token.transfer */\n      0xffffffffffffffffffffffffffffffffffffffff\n      and\n      0xa9059cbb\n        /* \"@openzeppelin/contracts/token/ERC20/utils/SafeERC20.sol\":1412:1414  to */\n      dup6\n        /* \"@openzeppelin/contracts/token/ERC20/utils/SafeERC20.sol\":1416:1421  value */\n      dup6\n        /* \"@openzeppelin/contracts/token/ERC20/utils/SafeERC20.sol\":1380:1423  abi.encodeCall(token.transfer, (to, value)) */\n      add(0x24, mload(0x40))\n      tag_262\n      swap3\n      swap2\n      swap1\n      tag_184\n      jump\t// in\n    tag_262:\n      mload(0x40)\n      0x20\n      dup2\n      dup4\n      sub\n      sub\n      dup2\n      mstore\n      swap1\n      0x40\n      mstore\n      swap2\n      pop\n      0xe0\n      shl\n      0x20\n      dup3\n      add\n      dup1\n      mload\n      0xffffffffffffffffffffffffffffffffffffffffffffffffffffffff\n      dup4\n      dup2\n      dup4\n      and\n      or\n      dup4\n      mstore\n      pop\n      pop\n      pop\n      pop\n        /* \"@openzeppelin/contracts/token/ERC20/utils/SafeERC20.sol\":1353:1372  _callOptionalReturn */\n      tag_263\n        /* \"@openzeppelin/contracts/token/ERC20/utils/SafeERC20.sol\":1353:1424  _callOptionalReturn(token, abi.encodeCall(token.transfer, (to, value))) */\n      jump\t// in\n    tag_261:\n        /* \"@openzeppelin/contracts/token/ERC20/utils/SafeERC20.sol\":1271:1431  function safeTransfer(IERC20 token, address to, uint256 value) internal {... */\n      pop\n      pop\n      pop\n      jump\t// out\n        /* \"@openzeppelin/contracts/access/Ownable.sol\":1796:1958  function _checkOwner() internal view virtual {... */\n    tag_151:\n        /* \"@openzeppelin/contracts/access/Ownable.sol\":1866:1878  _msgSender() */\n      tag_265\n        /* \"@openzeppelin/contracts/access/Ownable.sol\":1866:1876  _msgSender */\n      tag_266\n        /* \"@openzeppelin/contracts/access/Ownable.sol\":1866:1878  _msgSender() */\n      jump\t// in\n    tag_265:\n        /* \"@openzeppelin/contracts/access/Ownable.sol\":1855:1878  owner() != _msgSender() */\n      0xffffffffffffffffffffffffffffffffffffffff\n      and\n        /* \"@openzeppelin/contracts/access/Ownable.sol\":1855:1862  owner() */\n      tag_267\n        /* \"@openzeppelin/contracts/access/Ownable.sol\":1855:1860  owner */\n      tag_89\n        /* \"@openzeppelin/contracts/access/Ownable.sol\":1855:1862  owner() */\n      jump\t// in\n    tag_267:\n        /* \"@openzeppelin/contracts/access/Ownable.sol\":1855:1878  owner() != _msgSender() */\n      0xffffffffffffffffffffffffffffffffffffffff\n      and\n      eq\n        /* \"@openzeppelin/contracts/access/Ownable.sol\":1851:1952  if (owner() != _msgSender()) {... */\n      tag_268\n      jumpi\n        /* \"@openzeppelin/contracts/access/Ownable.sol\":1928:1940  _msgSender() */\n      tag_269\n        /* \"@openzeppelin/contracts/access/Ownable.sol\":1928:1938  _msgSender */\n      tag_266\n        /* \"@openzeppelin/contracts/access/Ownable.sol\":1928:1940  _msgSender() */\n      jump\t// in\n    tag_269:\n        /* \"@openzeppelin/contracts/access/Ownable.sol\":1901:1941  OwnableUnauthorizedAccount(_msgSender()) */\n      mload(0x40)\n      0x118cdaa700000000000000000000000000000000000000000000000000000000\n      dup2\n      mstore\n      0x04\n      add\n      tag_270\n      swap2\n      swap1\n      tag_91\n      jump\t// in\n    tag_270:\n      mload(0x40)\n      dup1\n      swap2\n      sub\n      swap1\n      revert\n        /* \"@openzeppelin/contracts/access/Ownable.sol\":1851:1952  if (owner() != _msgSender()) {... */\n    tag_268:\n        /* \"@openzeppelin/contracts/access/Ownable.sol\":1796:1958  function _checkOwner() internal view virtual {... */\n      jump\t// out\n        /* \"@openzeppelin/contracts/access/Ownable.sol\":2912:3099  function _transferOwnership(address newOwner) internal virtual {... */\n    tag_203:\n        /* \"@openzeppelin/contracts/access/Ownable.sol\":2985:3001  address oldOwner */\n      0x00\n        /* \"@openzeppelin/contracts/access/Ownable.sol\":3004:3010  _owner */\n      0x00\n      0x00\n      swap1\n      sload\n      swap1\n      0x0100\n      exp\n      swap1\n      div\n      0xffffffffffffffffffffffffffffffffffffffff\n      and\n        /* \"@openzeppelin/contracts/access/Ownable.sol\":2985:3010  address oldOwner = _owner */\n      swap1\n      pop\n        /* \"@openzeppelin/contracts/access/Ownable.sol\":3029:3037  newOwner */\n      dup2\n        /* \"@openzeppelin/contracts/access/Ownable.sol\":3020:3026  _owner */\n      0x00\n      0x00\n        /* \"@openzeppelin/contracts/access/Ownable.sol\":3020:3037  _owner = newOwner */\n      0x0100\n      exp\n      dup2\n      sload\n      dup2\n      0xffffffffffffffffffffffffffffffffffffffff\n      mul\n      not\n      and\n      swap1\n      dup4\n      0xffffffffffffffffffffffffffffffffffffffff\n      and\n      mul\n      or\n      swap1\n      sstore\n      pop\n        /* \"@openzeppelin/contracts/access/Ownable.sol\":3083:3091  newOwner */\n      dup2\n        /* \"@openzeppelin/contracts/access/Ownable.sol\":3052:3092  OwnershipTransferred(oldOwner, newOwner) */\n      0xffffffffffffffffffffffffffffffffffffffff\n      and\n        /* \"@openzeppelin/contracts/access/Ownable.sol\":3073:3081  oldOwner */\n      dup2\n        /* \"@openzeppelin/contracts/access/Ownable.sol\":3052:3092  OwnershipTransferred(oldOwner, newOwner) */\n      0xffffffffffffffffffffffffffffffffffffffff\n      and\n      0x8be0079c531659141344cd1fd0a4f28419497f9722a3daafe3b4186f6b6457e0\n      mload(0x40)\n      mload(0x40)\n      dup1\n      swap2\n      sub\n      swap1\n      log3\n        /* \"@openzeppelin/contracts/access/Ownable.sol\":2975:3099  {... */\n      pop\n        /* \"@openzeppelin/contracts/access/Ownable.sol\":2912:3099  function _transferOwnership(address newOwner) internal virtual {... */\n      pop\n      jump\t// out\n        /* \"@openzeppelin/contracts/token/ERC20/utils/SafeERC20.sol\":1670:1858  function safeTransferFrom(IERC20 token, address from, address to, uint256 value) internal {... */\n    tag_237:\n        /* \"@openzeppelin/contracts/token/ERC20/utils/SafeERC20.sol\":1770:1851  _callOptionalReturn(token, abi.encodeCall(token.transferFrom, (from, to, value))) */\n      tag_273\n        /* \"@openzeppelin/contracts/token/ERC20/utils/SafeERC20.sol\":1790:1795  token */\n      dup5\n        /* \"@openzeppelin/contracts/token/ERC20/utils/SafeERC20.sol\":1812:1817  token */\n      dup6\n        /* \"@openzeppelin/contracts/token/ERC20/utils/SafeERC20.sol\":1812:1830  token.transferFrom */\n      0xffffffffffffffffffffffffffffffffffffffff\n      and\n      0x23b872dd\n        /* \"@openzeppelin/contracts/token/ERC20/utils/SafeERC20.sol\":1833:1837  from */\n      dup7\n        /* \"@openzeppelin/contracts/token/ERC20/utils/SafeERC20.sol\":1839:1841  to */\n      dup7\n        /* \"@openzeppelin/contracts/token/ERC20/utils/SafeERC20.sol\":1843:1848  value */\n      dup7\n        /* \"@openzeppelin/contracts/token/ERC20/utils/SafeERC20.sol\":1797:1850  abi.encodeCall(token.transferFrom, (from, to, value)) */\n      add(0x24, mload(0x40))\n      tag_274\n      swap4\n      swap3\n      swap2\n      swap1\n      tag_275\n      jump\t// in\n    tag_274:\n      mload(0x40)\n      0x20\n      dup2\n      dup4\n      sub\n      sub\n      dup2\n      mstore\n      swap1\n      0x40\n      mstore\n      swap2\n      pop\n      0xe0\n      shl\n      0x20\n      dup3\n      add\n      dup1\n      mload\n      0xffffffffffffffffffffffffffffffffffffffffffffffffffffffff\n      dup4\n      dup2\n      dup4\n      and\n      or\n      dup4\n      mstore\n      pop\n      pop\n      pop\n      pop\n        /* \"@openzeppelin/contracts/token/ERC20/utils/SafeERC20.sol\":1770:1789  _callOptionalReturn */\n      tag_263\n        /* \"@openzeppelin/contracts/token/ERC20/utils/SafeERC20.sol\":1770:1851  _callOptionalReturn(token, abi.encodeCall(token.transferFrom, (from, to, value))) */\n      jump\t// in\n    tag_273:\n        /* \"@openzeppelin/contracts/token/ERC20/utils/SafeERC20.sol\":1670:1858  function safeTransferFrom(IERC20 token, address from, address to, uint256 value) internal {... */\n      pop\n      pop\n      pop\n      pop\n      jump\t// out\n        /* \"@openzeppelin/contracts/token/ERC20/utils/SafeERC20.sol\":7738:8458  function _callOptionalReturn(IERC20 token, bytes memory data) private {... */\n    tag_263:\n        /* \"@openzeppelin/contracts/token/ERC20/utils/SafeERC20.sol\":7818:7836  uint256 returnSize */\n      0x00\n        /* \"@openzeppelin/contracts/token/ERC20/utils/SafeERC20.sol\":7846:7865  uint256 returnValue */\n      0x00\n        /* \"@openzeppelin/contracts/token/ERC20/utils/SafeERC20.sol\":7984:7988  0x20 */\n      0x20\n        /* \"@openzeppelin/contracts/token/ERC20/utils/SafeERC20.sol\":7981:7982  0 */\n      0x00\n        /* \"@openzeppelin/contracts/token/ERC20/utils/SafeERC20.sol\":7974:7978  data */\n      dup5\n        /* \"@openzeppelin/contracts/token/ERC20/utils/SafeERC20.sol\":7968:7979  mload(data) */\n      mload\n        /* \"@openzeppelin/contracts/token/ERC20/utils/SafeERC20.sol\":7961:7965  0x20 */\n      0x20\n        /* \"@openzeppelin/contracts/token/ERC20/utils/SafeERC20.sol\":7955:7959  data */\n      dup7\n        /* \"@openzeppelin/contracts/token/ERC20/utils/SafeERC20.sol\":7951:7966  add(data, 0x20) */\n      add\n        /* \"@openzeppelin/contracts/token/ERC20/utils/SafeERC20.sol\":7948:7949  0 */\n      0x00\n        /* \"@openzeppelin/contracts/token/ERC20/utils/SafeERC20.sol\":7941:7946  token */\n      dup9\n        /* \"@openzeppelin/contracts/token/ERC20/utils/SafeERC20.sol\":7934:7939  gas() */\n      gas\n        /* \"@openzeppelin/contracts/token/ERC20/utils/SafeERC20.sol\":7929:7989  call(gas(), token, 0, add(data, 0x20), mload(data), 0, 0x20) */\n      call\n        /* \"@openzeppelin/contracts/token/ERC20/utils/SafeERC20.sol\":8041:8048  success */\n      dup1\n        /* \"@openzeppelin/contracts/token/ERC20/utils/SafeERC20.sol\":8031:8207  if iszero(success) {... */\n      tag_277\n      jumpi\n        /* \"@openzeppelin/contracts/token/ERC20/utils/SafeERC20.sol\":8085:8089  0x40 */\n      0x40\n        /* \"@openzeppelin/contracts/token/ERC20/utils/SafeERC20.sol\":8079:8090  mload(0x40) */\n      mload\n        /* \"@openzeppelin/contracts/token/ERC20/utils/SafeERC20.sol\":8130:8146  returndatasize() */\n      returndatasize\n        /* \"@openzeppelin/contracts/token/ERC20/utils/SafeERC20.sol\":8127:8128  0 */\n      0x00\n        /* \"@openzeppelin/contracts/token/ERC20/utils/SafeERC20.sol\":8122:8125  ptr */\n      dup3\n        /* \"@openzeppelin/contracts/token/ERC20/utils/SafeERC20.sol\":8107:8147  returndatacopy(ptr, 0, returndatasize()) */\n      returndatacopy\n        /* \"@openzeppelin/contracts/token/ERC20/utils/SafeERC20.sol\":8176:8192  returndatasize() */\n      returndatasize\n        /* \"@openzeppelin/contracts/token/ERC20/utils/SafeERC20.sol\":8171:8174  ptr */\n      dup2\n        /* \"@openzeppelin/contracts/token/ERC20/utils/SafeERC20.sol\":8164:8193  revert(ptr, returndatasize()) */\n      revert\n        /* \"@openzeppelin/contracts/token/ERC20/utils/SafeERC20.sol\":8031:8207  if iszero(success) {... */\n    tag_277:\n        /* \"@openzeppelin/contracts/token/ERC20/utils/SafeERC20.sol\":8234:8250  returndatasize() */\n      returndatasize\n        /* \"@openzeppelin/contracts/token/ERC20/utils/SafeERC20.sol\":8220:8250  returnSize := returndatasize() */\n      swap3\n      pop\n        /* \"@openzeppelin/contracts/token/ERC20/utils/SafeERC20.sol\":8284:8285  0 */\n      0x00\n        /* \"@openzeppelin/contracts/token/ERC20/utils/SafeERC20.sol\":8278:8286  mload(0) */\n      mload\n        /* \"@openzeppelin/contracts/token/ERC20/utils/SafeERC20.sol\":8263:8286  returnValue := mload(0) */\n      swap2\n      pop\n        /* \"@openzeppelin/contracts/token/ERC20/utils/SafeERC20.sol\":7900:8296  {... */\n      pop\n        /* \"@openzeppelin/contracts/token/ERC20/utils/SafeERC20.sol\":8324:8325  0 */\n      0x00\n        /* \"@openzeppelin/contracts/token/ERC20/utils/SafeERC20.sol\":8310:8320  returnSize */\n      dup3\n        /* \"@openzeppelin/contracts/token/ERC20/utils/SafeERC20.sol\":8310:8325  returnSize == 0 */\n      eq\n        /* \"@openzeppelin/contracts/token/ERC20/utils/SafeERC20.sol\":8310:8378  returnSize == 0 ? address(token).code.length == 0 : returnValue != 1 */\n      tag_278\n      jumpi\n        /* \"@openzeppelin/contracts/token/ERC20/utils/SafeERC20.sol\":8377:8378  1 */\n      0x01\n        /* \"@openzeppelin/contracts/token/ERC20/utils/SafeERC20.sol\":8362:8373  returnValue */\n      dup2\n        /* \"@openzeppelin/contracts/token/ERC20/utils/SafeERC20.sol\":8362:8378  returnValue != 1 */\n      eq\n      iszero\n        /* \"@openzeppelin/contracts/token/ERC20/utils/SafeERC20.sol\":8310:8378  returnSize == 0 ? address(token).code.length == 0 : returnValue != 1 */\n      jump(tag_279)\n    tag_278:\n        /* \"@openzeppelin/contracts/token/ERC20/utils/SafeERC20.sol\":8358:8359  0 */\n      0x00\n        /* \"@openzeppelin/contracts/token/ERC20/utils/SafeERC20.sol\":8336:8341  token */\n      dup5\n        /* \"@openzeppelin/contracts/token/ERC20/utils/SafeERC20.sol\":8328:8354  address(token).code.length */\n      0xffffffffffffffffffffffffffffffffffffffff\n      and\n      extcodesize\n        /* \"@openzeppelin/contracts/token/ERC20/utils/SafeERC20.sol\":8328:8359  address(token).code.length == 0 */\n      eq\n        /* \"@openzeppelin/contracts/token/ERC20/utils/SafeERC20.sol\":8310:8378  returnSize == 0 ? address(token).code.length == 0 : returnValue != 1 */\n    tag_279:\n        /* \"@openzeppelin/contracts/token/ERC20/utils/SafeERC20.sol\":8306:8452  if (returnSize == 0 ? address(token).code.length == 0 : returnValue != 1) {... */\n      iszero\n      tag_280\n      jumpi\n        /* \"@openzeppelin/contracts/token/ERC20/utils/SafeERC20.sol\":8434:8439  token */\n      dup4\n        /* \"@openzeppelin/contracts/token/ERC20/utils/SafeERC20.sol\":8401:8441  SafeERC20FailedOperation(address(token)) */\n      mload(0x40)\n      0x5274afe700000000000000000000000000000000000000000000000000000000\n      dup2\n      mstore\n      0x04\n      add\n      tag_281\n      swap2\n      swap1\n      tag_91\n      jump\t// in\n    tag_281:\n      mload(0x40)\n      dup1\n      swap2\n      sub\n      swap1\n      revert\n        /* \"@openzeppelin/contracts/token/ERC20/utils/SafeERC20.sol\":8306:8452  if (returnSize == 0 ? address(token).code.length == 0 : returnValue != 1) {... */\n    tag_280:\n        /* \"@openzeppelin/contracts/token/ERC20/utils/SafeERC20.sol\":7808:8458  {... */\n      pop\n      pop\n        /* \"@openzeppelin/contracts/token/ERC20/utils/SafeERC20.sol\":7738:8458  function _callOptionalReturn(IERC20 token, bytes memory data) private {... */\n      pop\n      pop\n      jump\t// out\n        /* \"@openzeppelin/contracts/utils/Context.sol\":656:752  function _msgSender() internal view virtual returns (address) {... */\n    tag_266:\n        /* \"@openzeppelin/contracts/utils/Context.sol\":709:716  address */\n      0x00\n        /* \"@openzeppelin/contracts/utils/Context.sol\":735:745  msg.sender */\n      caller\n        /* \"@openzeppelin/contracts/utils/Context.sol\":728:745  return msg.sender */\n      swap1\n      pop\n        /* \"@openzeppelin/contracts/utils/Context.sol\":656:752  function _msgSender() internal view virtual returns (address) {... */\n      swap1\n      jump\t// out\n        /* \"#utility.yul\":7:84   */\n    tag_283:\n        /* \"#utility.yul\":44:51   */\n      0x00\n        /* \"#utility.yul\":73:78   */\n      dup2\n        /* \"#utility.yul\":62:78   */\n      swap1\n      pop\n        /* \"#utility.yul\":7:84   */\n      swap2\n      swap1\n      pop\n      jump\t// out\n        /* \"#utility.yul\":90:208   */\n    tag_284:\n        /* \"#utility.yul\":177:201   */\n      tag_321\n        /* \"#utility.yul\":195:200   */\n      dup2\n        /* \"#utility.yul\":177:201   */\n      tag_283\n      jump\t// in\n    tag_321:\n        /* \"#utility.yul\":172:175   */\n      dup3\n        /* \"#utility.yul\":165:202   */\n      mstore\n        /* \"#utility.yul\":90:208   */\n      pop\n      pop\n      jump\t// out\n        /* \"#utility.yul\":214:436   */\n    tag_35:\n        /* \"#utility.yul\":307:311   */\n      0x00\n        /* \"#utility.yul\":345:347   */\n      0x20\n        /* \"#utility.yul\":334:343   */\n      dup3\n        /* \"#utility.yul\":330:348   */\n      add\n        /* \"#utility.yul\":322:348   */\n      swap1\n      pop\n        /* \"#utility.yul\":358:429   */\n      tag_323\n        /* \"#utility.yul\":426:427   */\n      0x00\n        /* \"#utility.yul\":415:424   */\n      dup4\n        /* \"#utility.yul\":411:428   */\n      add\n        /* \"#utility.yul\":402:408   */\n      dup5\n        /* \"#utility.yul\":358:429   */\n      tag_284\n      jump\t// in\n    tag_323:\n        /* \"#utility.yul\":214:436   */\n      swap3\n      swap2\n      pop\n      pop\n      jump\t// out\n        /* \"#utility.yul\":523:640   */\n    tag_286:\n        /* \"#utility.yul\":632:633   */\n      0x00\n        /* \"#utility.yul\":629:630   */\n      0x00\n        /* \"#utility.yul\":622:634   */\n      revert\n        /* \"#utility.yul\":769:891   */\n    tag_288:\n        /* \"#utility.yul\":842:866   */\n      tag_328\n        /* \"#utility.yul\":860:865   */\n      dup2\n        /* \"#utility.yul\":842:866   */\n      tag_283\n      jump\t// in\n    tag_328:\n        /* \"#utility.yul\":835:840   */\n      dup2\n        /* \"#utility.yul\":832:867   */\n      eq\n        /* \"#utility.yul\":822:885   */\n      tag_329\n      jumpi\n        /* \"#utility.yul\":881:882   */\n      0x00\n        /* \"#utility.yul\":878:879   */\n      0x00\n        /* \"#utility.yul\":871:883   */\n      revert\n        /* \"#utility.yul\":822:885   */\n    tag_329:\n        /* \"#utility.yul\":769:891   */\n      pop\n      jump\t// out\n        /* \"#utility.yul\":897:1036   */\n    tag_289:\n        /* \"#utility.yul\":943:948   */\n      0x00\n        /* \"#utility.yul\":981:987   */\n      dup2\n        /* \"#utility.yul\":968:988   */\n      calldataload\n        /* \"#utility.yul\":959:988   */\n      swap1\n      pop\n        /* \"#utility.yul\":997:1030   */\n      tag_331\n        /* \"#utility.yul\":1024:1029   */\n      dup2\n        /* \"#utility.yul\":997:1030   */\n      tag_288\n      jump\t// in\n    tag_331:\n        /* \"#utility.yul\":897:1036   */\n      swap3\n      swap2\n      pop\n      pop\n      jump\t// out\n        /* \"#utility.yul\":1042:1371   */\n    tag_38:\n        /* \"#utility.yul\":1101:1107   */\n      0x00\n        /* \"#utility.yul\":1150:1152   */\n      0x20\n        /* \"#utility.yul\":1138:1147   */\n      dup3\n        /* \"#utility.yul\":1129:1136   */\n      dup5\n        /* \"#utility.yul\":1125:1148   */\n      sub\n        /* \"#utility.yul\":1121:1153   */\n      slt\n        /* \"#utility.yul\":1118:1237   */\n      iszero\n      tag_333\n      jumpi\n        /* \"#utility.yul\":1156:1235   */\n      tag_334\n      tag_286\n      jump\t// in\n    tag_334:\n        /* \"#utility.yul\":1118:1237   */\n    tag_333:\n        /* \"#utility.yul\":1276:1277   */\n      0x00\n        /* \"#utility.yul\":1301:1354   */\n      tag_335\n        /* \"#utility.yul\":1346:1353   */\n      dup5\n        /* \"#utility.yul\":1337:1343   */\n      dup3\n        /* \"#utility.yul\":1326:1335   */\n      dup6\n        /* \"#utility.yul\":1322:1344   */\n      add\n        /* \"#utility.yul\":1301:1354   */\n      tag_289\n      jump\t// in\n    tag_335:\n        /* \"#utility.yul\":1291:1354   */\n      swap2\n      pop\n        /* \"#utility.yul\":1247:1364   */\n      pop\n        /* \"#utility.yul\":1042:1371   */\n      swap3\n      swap2\n      pop\n      pop\n      jump\t// out\n        /* \"#utility.yul\":1377:1503   */\n    tag_290:\n        /* \"#utility.yul\":1414:1421   */\n      0x00\n        /* \"#utility.yul\":1454:1496   */\n      0xffffffffffffffffffffffffffffffffffffffff\n        /* \"#utility.yul\":1447:1452   */\n      dup3\n        /* \"#utility.yul\":1443:1497   */\n      and\n        /* \"#utility.yul\":1432:1497   */\n      swap1\n      pop\n        /* \"#utility.yul\":1377:1503   */\n      swap2\n      swap1\n      pop\n      jump\t// out\n        /* \"#utility.yul\":1509:1569   */\n    tag_291:\n        /* \"#utility.yul\":1537:1540   */\n      0x00\n        /* \"#utility.yul\":1558:1563   */\n      dup2\n        /* \"#utility.yul\":1551:1563   */\n      swap1\n      pop\n        /* \"#utility.yul\":1509:1569   */\n      swap2\n      swap1\n      pop\n      jump\t// out\n        /* \"#utility.yul\":1575:1717   */\n    tag_292:\n        /* \"#utility.yul\":1625:1634   */\n      0x00\n        /* \"#utility.yul\":1658:1711   */\n      tag_339\n        /* \"#utility.yul\":1676:1710   */\n      tag_340\n        /* \"#utility.yul\":1685:1709   */\n      tag_341\n        /* \"#utility.yul\":1703:1708   */\n      dup5\n        /* \"#utility.yul\":1685:1709   */\n      tag_290\n      jump\t// in\n    tag_341:\n        /* \"#utility.yul\":1676:1710   */\n      tag_291\n      jump\t// in\n    tag_340:\n        /* \"#utility.yul\":1658:1711   */\n      tag_290\n      jump\t// in\n    tag_339:\n        /* \"#utility.yul\":1645:1711   */\n      swap1\n      pop\n        /* \"#utility.yul\":1575:1717   */\n      swap2\n      swap1\n      pop\n      jump\t// out\n        /* \"#utility.yul\":1723:1849   */\n    tag_293:\n        /* \"#utility.yul\":1773:1782   */\n      0x00\n        /* \"#utility.yul\":1806:1843   */\n      tag_343\n        /* \"#utility.yul\":1837:1842   */\n      dup3\n        /* \"#utility.yul\":1806:1843   */\n      tag_292\n      jump\t// in\n    tag_343:\n        /* \"#utility.yul\":1793:1843   */\n      swap1\n      pop\n        /* \"#utility.yul\":1723:1849   */\n      swap2\n      swap1\n      pop\n      jump\t// out\n        /* \"#utility.yul\":1855:1995   */\n    tag_294:\n        /* \"#utility.yul\":1919:1928   */\n      0x00\n        /* \"#utility.yul\":1952:1989   */\n      tag_345\n        /* \"#utility.yul\":1983:1988   */\n      dup3\n        /* \"#utility.yul\":1952:1989   */\n      tag_293\n      jump\t// in\n    tag_345:\n        /* \"#utility.yul\":1939:1989   */\n      swap1\n      pop\n        /* \"#utility.yul\":1855:1995   */\n      swap2\n      swap1\n      pop\n      jump\t// out\n        /* \"#utility.yul\":2001:2160   */\n    tag_295:\n        /* \"#utility.yul\":2102:2153   */\n      tag_347\n        /* \"#utility.yul\":2147:2152   */\n      dup2\n        /* \"#utility.yul\":2102:2153   */\n      tag_294\n      jump\t// in\n    tag_347:\n        /* \"#utility.yul\":2097:2100   */\n      dup3\n        /* \"#utility.yul\":2090:2154   */\n      mstore\n        /* \"#utility.yul\":2001:2160   */\n      pop\n      pop\n      jump\t// out\n        /* \"#utility.yul\":2166:2747   */\n    tag_41:\n        /* \"#utility.yul\":2357:2361   */\n      0x00\n        /* \"#utility.yul\":2395:2398   */\n      0x80\n        /* \"#utility.yul\":2384:2393   */\n      dup3\n        /* \"#utility.yul\":2380:2399   */\n      add\n        /* \"#utility.yul\":2372:2399   */\n      swap1\n      pop\n        /* \"#utility.yul\":2409:2494   */\n      tag_349\n        /* \"#utility.yul\":2491:2492   */\n      0x00\n        /* \"#utility.yul\":2480:2489   */\n      dup4\n        /* \"#utility.yul\":2476:2493   */\n      add\n        /* \"#utility.yul\":2467:2473   */\n      dup8\n        /* \"#utility.yul\":2409:2494   */\n      tag_295\n      jump\t// in\n    tag_349:\n        /* \"#utility.yul\":2504:2576   */\n      tag_350\n        /* \"#utility.yul\":2572:2574   */\n      0x20\n        /* \"#utility.yul\":2561:2570   */\n      dup4\n        /* \"#utility.yul\":2557:2575   */\n      add\n        /* \"#utility.yul\":2548:2554   */\n      dup7\n        /* \"#utility.yul\":2504:2576   */\n      tag_284\n      jump\t// in\n    tag_350:\n        /* \"#utility.yul\":2586:2658   */\n      tag_351\n        /* \"#utility.yul\":2654:2656   */\n      0x40\n        /* \"#utility.yul\":2643:2652   */\n      dup4\n        /* \"#utility.yul\":2639:2657   */\n      add\n        /* \"#utility.yul\":2630:2636   */\n      dup6\n        /* \"#utility.yul\":2586:2658   */\n      tag_284\n      jump\t// in\n    tag_351:\n        /* \"#utility.yul\":2668:2740   */\n      tag_352\n        /* \"#utility.yul\":2736:2738   */\n      0x60\n        /* \"#utility.yul\":2725:2734   */\n      dup4\n        /* \"#utility.yul\":2721:2739   */\n      add\n        /* \"#utility.yul\":2712:2718   */\n      dup5\n        /* \"#utility.yul\":2668:2740   */\n      tag_284\n      jump\t// in\n    tag_352:\n        /* \"#utility.yul\":2166:2747   */\n      swap6\n      swap5\n      pop\n      pop\n      pop\n      pop\n      pop\n      jump\t// out\n        /* \"#utility.yul\":2753:3227   */\n    tag_53:\n        /* \"#utility.yul\":2821:2827   */\n      0x00\n        /* \"#utility.yul\":2829:2835   */\n      0x00\n        /* \"#utility.yul\":2878:2880   */\n      0x40\n        /* \"#utility.yul\":2866:2875   */\n      dup4\n        /* \"#utility.yul\":2857:2864   */\n      dup6\n        /* \"#utility.yul\":2853:2876   */\n      sub\n        /* \"#utility.yul\":2849:2881   */\n      slt\n        /* \"#utility.yul\":2846:2965   */\n      iszero\n      tag_354\n      jumpi\n        /* \"#utility.yul\":2884:2963   */\n      tag_355\n      tag_286\n      jump\t// in\n    tag_355:\n        /* \"#utility.yul\":2846:2965   */\n    tag_354:\n        /* \"#utility.yul\":3004:3005   */\n      0x00\n        /* \"#utility.yul\":3029:3082   */\n      tag_356\n        /* \"#utility.yul\":3074:3081   */\n      dup6\n        /* \"#utility.yul\":3065:3071   */\n      dup3\n        /* \"#utility.yul\":3054:3063   */\n      dup7\n        /* \"#utility.yul\":3050:3072   */\n      add\n        /* \"#utility.yul\":3029:3082   */\n      tag_289\n      jump\t// in\n    tag_356:\n        /* \"#utility.yul\":3019:3082   */\n      swap3\n      pop\n        /* \"#utility.yul\":2975:3092   */\n      pop\n        /* \"#utility.yul\":3131:3133   */\n      0x20\n        /* \"#utility.yul\":3157:3210   */\n      tag_357\n        /* \"#utility.yul\":3202:3209   */\n      dup6\n        /* \"#utility.yul\":3193:3199   */\n      dup3\n        /* \"#utility.yul\":3182:3191   */\n      dup7\n        /* \"#utility.yul\":3178:3200   */\n      add\n        /* \"#utility.yul\":3157:3210   */\n      tag_289\n      jump\t// in\n    tag_357:\n        /* \"#utility.yul\":3147:3210   */\n      swap2\n      pop\n        /* \"#utility.yul\":3102:3220   */\n      pop\n        /* \"#utility.yul\":2753:3227   */\n      swap3\n      pop\n      swap3\n      swap1\n      pop\n      jump\t// out\n        /* \"#utility.yul\":3233:3323   */\n    tag_296:\n        /* \"#utility.yul\":3267:3274   */\n      0x00\n        /* \"#utility.yul\":3310:3315   */\n      dup2\n        /* \"#utility.yul\":3303:3316   */\n      iszero\n        /* \"#utility.yul\":3296:3317   */\n      iszero\n        /* \"#utility.yul\":3285:3317   */\n      swap1\n      pop\n        /* \"#utility.yul\":3233:3323   */\n      swap2\n      swap1\n      pop\n      jump\t// out\n        /* \"#utility.yul\":3329:3445   */\n    tag_297:\n        /* \"#utility.yul\":3399:3420   */\n      tag_360\n        /* \"#utility.yul\":3414:3419   */\n      dup2\n        /* \"#utility.yul\":3399:3420   */\n      tag_296\n      jump\t// in\n    tag_360:\n        /* \"#utility.yul\":3392:3397   */\n      dup2\n        /* \"#utility.yul\":3389:3421   */\n      eq\n        /* \"#utility.yul\":3379:3439   */\n      tag_361\n      jumpi\n        /* \"#utility.yul\":3435:3436   */\n      0x00\n        /* \"#utility.yul\":3432:3433   */\n      0x00\n        /* \"#utility.yul\":3425:3437   */\n      revert\n        /* \"#utility.yul\":3379:3439   */\n    tag_361:\n        /* \"#utility.yul\":3329:3445   */\n      pop\n      jump\t// out\n        /* \"#utility.yul\":3451:3584   */\n    tag_298:\n        /* \"#utility.yul\":3494:3499   */\n      0x00\n        /* \"#utility.yul\":3532:3538   */\n      dup2\n        /* \"#utility.yul\":3519:3539   */\n      calldataload\n        /* \"#utility.yul\":3510:3539   */\n      swap1\n      pop\n        /* \"#utility.yul\":3548:3578   */\n      tag_363\n        /* \"#utility.yul\":3572:3577   */\n      dup2\n        /* \"#utility.yul\":3548:3578   */\n      tag_297\n      jump\t// in\n    tag_363:\n        /* \"#utility.yul\":3451:3584   */\n      swap3\n      swap2\n      pop\n      pop\n      jump\t// out\n        /* \"#utility.yul\":3590:4203   */\n    tag_57:\n        /* \"#utility.yul\":3664:3670   */\n      0x00\n        /* \"#utility.yul\":3672:3678   */\n      0x00\n        /* \"#utility.yul\":3680:3686   */\n      0x00\n        /* \"#utility.yul\":3729:3731   */\n      0x60\n        /* \"#utility.yul\":3717:3726   */\n      dup5\n        /* \"#utility.yul\":3708:3715   */\n      dup7\n        /* \"#utility.yul\":3704:3727   */\n      sub\n        /* \"#utility.yul\":3700:3732   */\n      slt\n        /* \"#utility.yul\":3697:3816   */\n      iszero\n      tag_365\n      jumpi\n        /* \"#utility.yul\":3735:3814   */\n      tag_366\n      tag_286\n      jump\t// in\n    tag_366:\n        /* \"#utility.yul\":3697:3816   */\n    tag_365:\n        /* \"#utility.yul\":3855:3856   */\n      0x00\n        /* \"#utility.yul\":3880:3933   */\n      tag_367\n        /* \"#utility.yul\":3925:3932   */\n      dup7\n        /* \"#utility.yul\":3916:3922   */\n      dup3\n        /* \"#utility.yul\":3905:3914   */\n      dup8\n        /* \"#utility.yul\":3901:3923   */\n      add\n        /* \"#utility.yul\":3880:3933   */\n      tag_289\n      jump\t// in\n    tag_367:\n        /* \"#utility.yul\":3870:3933   */\n      swap4\n      pop\n        /* \"#utility.yul\":3826:3943   */\n      pop\n        /* \"#utility.yul\":3982:3984   */\n      0x20\n        /* \"#utility.yul\":4008:4061   */\n      tag_368\n        /* \"#utility.yul\":4053:4060   */\n      dup7\n        /* \"#utility.yul\":4044:4050   */\n      dup3\n        /* \"#utility.yul\":4033:4042   */\n      dup8\n        /* \"#utility.yul\":4029:4051   */\n      add\n        /* \"#utility.yul\":4008:4061   */\n      tag_289\n      jump\t// in\n    tag_368:\n        /* \"#utility.yul\":3998:4061   */\n      swap3\n      pop\n        /* \"#utility.yul\":3953:4071   */\n      pop\n        /* \"#utility.yul\":4110:4112   */\n      0x40\n        /* \"#utility.yul\":4136:4186   */\n      tag_369\n        /* \"#utility.yul\":4178:4185   */\n      dup7\n        /* \"#utility.yul\":4169:4175   */\n      dup3\n        /* \"#utility.yul\":4158:4167   */\n      dup8\n        /* \"#utility.yul\":4154:4176   */\n      add\n        /* \"#utility.yul\":4136:4186   */\n      tag_298\n      jump\t// in\n    tag_369:\n        /* \"#utility.yul\":4126:4186   */\n      swap2\n      pop\n        /* \"#utility.yul\":4081:4196   */\n      pop\n        /* \"#utility.yul\":3590:4203   */\n      swap3\n      pop\n      swap3\n      pop\n      swap3\n      jump\t// out\n        /* \"#utility.yul\":4209:4305   */\n    tag_299:\n        /* \"#utility.yul\":4246:4253   */\n      0x00\n        /* \"#utility.yul\":4275:4299   */\n      tag_371\n        /* \"#utility.yul\":4293:4298   */\n      dup3\n        /* \"#utility.yul\":4275:4299   */\n      tag_290\n      jump\t// in\n    tag_371:\n        /* \"#utility.yul\":4264:4299   */\n      swap1\n      pop\n        /* \"#utility.yul\":4209:4305   */\n      swap2\n      swap1\n      pop\n      jump\t// out\n        /* \"#utility.yul\":4311:4421   */\n    tag_300:\n        /* \"#utility.yul\":4362:4369   */\n      0x00\n        /* \"#utility.yul\":4391:4415   */\n      tag_373\n        /* \"#utility.yul\":4409:4414   */\n      dup3\n        /* \"#utility.yul\":4391:4415   */\n      tag_299\n      jump\t// in\n    tag_373:\n        /* \"#utility.yul\":4380:4415   */\n      swap1\n      pop\n        /* \"#utility.yul\":4311:4421   */\n      swap2\n      swap1\n      pop\n      jump\t// out\n        /* \"#utility.yul\":4427:4577   */\n    tag_301:\n        /* \"#utility.yul\":4514:4552   */\n      tag_375\n        /* \"#utility.yul\":4546:4551   */\n      dup2\n        /* \"#utility.yul\":4514:4552   */\n      tag_300\n      jump\t// in\n    tag_375:\n        /* \"#utility.yul\":4507:4512   */\n      dup2\n        /* \"#utility.yul\":4504:4553   */\n      eq\n        /* \"#utility.yul\":4494:4571   */\n      tag_376\n      jumpi\n        /* \"#utility.yul\":4567:4568   */\n      0x00\n        /* \"#utility.yul\":4564:4565   */\n      0x00\n        /* \"#utility.yul\":4557:4569   */\n      revert\n        /* \"#utility.yul\":4494:4571   */\n    tag_376:\n        /* \"#utility.yul\":4427:4577   */\n      pop\n      jump\t// out\n        /* \"#utility.yul\":4583:4750   */\n    tag_302:\n        /* \"#utility.yul\":4643:4648   */\n      0x00\n        /* \"#utility.yul\":4681:4687   */\n      dup2\n        /* \"#utility.yul\":4668:4688   */\n      calldataload\n        /* \"#utility.yul\":4659:4688   */\n      swap1\n      pop\n        /* \"#utility.yul\":4697:4744   */\n      tag_378\n        /* \"#utility.yul\":4738:4743   */\n      dup2\n        /* \"#utility.yul\":4697:4744   */\n      tag_301\n      jump\t// in\n    tag_378:\n        /* \"#utility.yul\":4583:4750   */\n      swap3\n      swap2\n      pop\n      pop\n      jump\t// out\n        /* \"#utility.yul\":4756:5397   */\n    tag_80:\n        /* \"#utility.yul\":4844:4850   */\n      0x00\n        /* \"#utility.yul\":4852:4858   */\n      0x00\n        /* \"#utility.yul\":4860:4866   */\n      0x00\n        /* \"#utility.yul\":4909:4911   */\n      0x60\n        /* \"#utility.yul\":4897:4906   */\n      dup5\n        /* \"#utility.yul\":4888:4895   */\n      dup7\n        /* \"#utility.yul\":4884:4907   */\n      sub\n        /* \"#utility.yul\":4880:4912   */\n      slt\n        /* \"#utility.yul\":4877:4996   */\n      iszero\n      tag_380\n      jumpi\n        /* \"#utility.yul\":4915:4994   */\n      tag_381\n      tag_286\n      jump\t// in\n    tag_381:\n        /* \"#utility.yul\":4877:4996   */\n    tag_380:\n        /* \"#utility.yul\":5035:5036   */\n      0x00\n        /* \"#utility.yul\":5060:5113   */\n      tag_382\n        /* \"#utility.yul\":5105:5112   */\n      dup7\n        /* \"#utility.yul\":5096:5102   */\n      dup3\n        /* \"#utility.yul\":5085:5094   */\n      dup8\n        /* \"#utility.yul\":5081:5103   */\n      add\n        /* \"#utility.yul\":5060:5113   */\n      tag_289\n      jump\t// in\n    tag_382:\n        /* \"#utility.yul\":5050:5113   */\n      swap4\n      pop\n        /* \"#utility.yul\":5006:5123   */\n      pop\n        /* \"#utility.yul\":5162:5164   */\n      0x20\n        /* \"#utility.yul\":5188:5255   */\n      tag_383\n        /* \"#utility.yul\":5247:5254   */\n      dup7\n        /* \"#utility.yul\":5238:5244   */\n      dup3\n        /* \"#utility.yul\":5227:5236   */\n      dup8\n        /* \"#utility.yul\":5223:5245   */\n      add\n        /* \"#utility.yul\":5188:5255   */\n      tag_302\n      jump\t// in\n    tag_383:\n        /* \"#utility.yul\":5178:5255   */\n      swap3\n      pop\n        /* \"#utility.yul\":5133:5265   */\n      pop\n        /* \"#utility.yul\":5304:5306   */\n      0x40\n        /* \"#utility.yul\":5330:5380   */\n      tag_384\n        /* \"#utility.yul\":5372:5379   */\n      dup7\n        /* \"#utility.yul\":5363:5369   */\n      dup3\n        /* \"#utility.yul\":5352:5361   */\n      dup8\n        /* \"#utility.yul\":5348:5370   */\n      add\n        /* \"#utility.yul\":5330:5380   */\n      tag_298\n      jump\t// in\n    tag_384:\n        /* \"#utility.yul\":5320:5380   */\n      swap2\n      pop\n        /* \"#utility.yul\":5275:5390   */\n      pop\n        /* \"#utility.yul\":4756:5397   */\n      swap3\n      pop\n      swap3\n      pop\n      swap3\n      jump\t// out\n        /* \"#utility.yul\":5403:5521   */\n    tag_303:\n        /* \"#utility.yul\":5490:5514   */\n      tag_386\n        /* \"#utility.yul\":5508:5513   */\n      dup2\n        /* \"#utility.yul\":5490:5514   */\n      tag_299\n      jump\t// in\n    tag_386:\n        /* \"#utility.yul\":5485:5488   */\n      dup3\n        /* \"#utility.yul\":5478:5515   */\n      mstore\n        /* \"#utility.yul\":5403:5521   */\n      pop\n      pop\n      jump\t// out\n        /* \"#utility.yul\":5527:5749   */\n    tag_91:\n        /* \"#utility.yul\":5620:5624   */\n      0x00\n        /* \"#utility.yul\":5658:5660   */\n      0x20\n        /* \"#utility.yul\":5647:5656   */\n      dup3\n        /* \"#utility.yul\":5643:5661   */\n      add\n        /* \"#utility.yul\":5635:5661   */\n      swap1\n      pop\n        /* \"#utility.yul\":5671:5742   */\n      tag_388\n        /* \"#utility.yul\":5739:5740   */\n      0x00\n        /* \"#utility.yul\":5728:5737   */\n      dup4\n        /* \"#utility.yul\":5724:5741   */\n      add\n        /* \"#utility.yul\":5715:5721   */\n      dup5\n        /* \"#utility.yul\":5671:5742   */\n      tag_303\n      jump\t// in\n    tag_388:\n        /* \"#utility.yul\":5527:5749   */\n      swap3\n      swap2\n      pop\n      pop\n      jump\t// out\n        /* \"#utility.yul\":5755:5877   */\n    tag_304:\n        /* \"#utility.yul\":5828:5852   */\n      tag_390\n        /* \"#utility.yul\":5846:5851   */\n      dup2\n        /* \"#utility.yul\":5828:5852   */\n      tag_299\n      jump\t// in\n    tag_390:\n        /* \"#utility.yul\":5821:5826   */\n      dup2\n        /* \"#utility.yul\":5818:5853   */\n      eq\n        /* \"#utility.yul\":5808:5871   */\n      tag_391\n      jumpi\n        /* \"#utility.yul\":5867:5868   */\n      0x00\n        /* \"#utility.yul\":5864:5865   */\n      0x00\n        /* \"#utility.yul\":5857:5869   */\n      revert\n        /* \"#utility.yul\":5808:5871   */\n    tag_391:\n        /* \"#utility.yul\":5755:5877   */\n      pop\n      jump\t// out\n        /* \"#utility.yul\":5883:6022   */\n    tag_305:\n        /* \"#utility.yul\":5929:5934   */\n      0x00\n        /* \"#utility.yul\":5967:5973   */\n      dup2\n        /* \"#utility.yul\":5954:5974   */\n      calldataload\n        /* \"#utility.yul\":5945:5974   */\n      swap1\n      pop\n        /* \"#utility.yul\":5983:6016   */\n      tag_393\n        /* \"#utility.yul\":6010:6015   */\n      dup2\n        /* \"#utility.yul\":5983:6016   */\n      tag_304\n      jump\t// in\n    tag_393:\n        /* \"#utility.yul\":5883:6022   */\n      swap3\n      swap2\n      pop\n      pop\n      jump\t// out\n        /* \"#utility.yul\":6028:6502   */\n    tag_101:\n        /* \"#utility.yul\":6096:6102   */\n      0x00\n        /* \"#utility.yul\":6104:6110   */\n      0x00\n        /* \"#utility.yul\":6153:6155   */\n      0x40\n        /* \"#utility.yul\":6141:6150   */\n      dup4\n        /* \"#utility.yul\":6132:6139   */\n      dup6\n        /* \"#utility.yul\":6128:6151   */\n      sub\n        /* \"#utility.yul\":6124:6156   */\n      slt\n        /* \"#utility.yul\":6121:6240   */\n      iszero\n      tag_395\n      jumpi\n        /* \"#utility.yul\":6159:6238   */\n      tag_396\n      tag_286\n      jump\t// in\n    tag_396:\n        /* \"#utility.yul\":6121:6240   */\n    tag_395:\n        /* \"#utility.yul\":6279:6280   */\n      0x00\n        /* \"#utility.yul\":6304:6357   */\n      tag_397\n        /* \"#utility.yul\":6349:6356   */\n      dup6\n        /* \"#utility.yul\":6340:6346   */\n      dup3\n        /* \"#utility.yul\":6329:6338   */\n      dup7\n        /* \"#utility.yul\":6325:6347   */\n      add\n        /* \"#utility.yul\":6304:6357   */\n      tag_289\n      jump\t// in\n    tag_397:\n        /* \"#utility.yul\":6294:6357   */\n      swap3\n      pop\n        /* \"#utility.yul\":6250:6367   */\n      pop\n        /* \"#utility.yul\":6406:6408   */\n      0x20\n        /* \"#utility.yul\":6432:6485   */\n      tag_398\n        /* \"#utility.yul\":6477:6484   */\n      dup6\n        /* \"#utility.yul\":6468:6474   */\n      dup3\n        /* \"#utility.yul\":6457:6466   */\n      dup7\n        /* \"#utility.yul\":6453:6475   */\n      add\n        /* \"#utility.yul\":6432:6485   */\n      tag_305\n      jump\t// in\n    tag_398:\n        /* \"#utility.yul\":6422:6485   */\n      swap2\n      pop\n        /* \"#utility.yul\":6377:6495   */\n      pop\n        /* \"#utility.yul\":6028:6502   */\n      swap3\n      pop\n      swap3\n      swap1\n      pop\n      jump\t// out\n        /* \"#utility.yul\":6508:6840   */\n    tag_104:\n        /* \"#utility.yul\":6629:6633   */\n      0x00\n        /* \"#utility.yul\":6667:6669   */\n      0x40\n        /* \"#utility.yul\":6656:6665   */\n      dup3\n        /* \"#utility.yul\":6652:6670   */\n      add\n        /* \"#utility.yul\":6644:6670   */\n      swap1\n      pop\n        /* \"#utility.yul\":6680:6751   */\n      tag_400\n        /* \"#utility.yul\":6748:6749   */\n      0x00\n        /* \"#utility.yul\":6737:6746   */\n      dup4\n        /* \"#utility.yul\":6733:6750   */\n      add\n        /* \"#utility.yul\":6724:6730   */\n      dup6\n        /* \"#utility.yul\":6680:6751   */\n      tag_284\n      jump\t// in\n    tag_400:\n        /* \"#utility.yul\":6761:6833   */\n      tag_401\n        /* \"#utility.yul\":6829:6831   */\n      0x20\n        /* \"#utility.yul\":6818:6827   */\n      dup4\n        /* \"#utility.yul\":6814:6832   */\n      add\n        /* \"#utility.yul\":6805:6811   */\n      dup5\n        /* \"#utility.yul\":6761:6833   */\n      tag_284\n      jump\t// in\n    tag_401:\n        /* \"#utility.yul\":6508:6840   */\n      swap4\n      swap3\n      pop\n      pop\n      pop\n      jump\t// out\n        /* \"#utility.yul\":6846:6991   */\n    tag_306:\n        /* \"#utility.yul\":6915:6924   */\n      0x00\n        /* \"#utility.yul\":6948:6985   */\n      tag_403\n        /* \"#utility.yul\":6979:6984   */\n      dup3\n        /* \"#utility.yul\":6948:6985   */\n      tag_293\n      jump\t// in\n    tag_403:\n        /* \"#utility.yul\":6935:6985   */\n      swap1\n      pop\n        /* \"#utility.yul\":6846:6991   */\n      swap2\n      swap1\n      pop\n      jump\t// out\n        /* \"#utility.yul\":6997:7166   */\n    tag_307:\n        /* \"#utility.yul\":7103:7159   */\n      tag_405\n        /* \"#utility.yul\":7153:7158   */\n      dup2\n        /* \"#utility.yul\":7103:7159   */\n      tag_306\n      jump\t// in\n    tag_405:\n        /* \"#utility.yul\":7098:7101   */\n      dup3\n        /* \"#utility.yul\":7091:7160   */\n      mstore\n        /* \"#utility.yul\":6997:7166   */\n      pop\n      pop\n      jump\t// out\n        /* \"#utility.yul\":7172:7432   */\n    tag_111:\n        /* \"#utility.yul\":7284:7288   */\n      0x00\n        /* \"#utility.yul\":7322:7324   */\n      0x20\n        /* \"#utility.yul\":7311:7320   */\n      dup3\n        /* \"#utility.yul\":7307:7325   */\n      add\n        /* \"#utility.yul\":7299:7325   */\n      swap1\n      pop\n        /* \"#utility.yul\":7335:7425   */\n      tag_407\n        /* \"#utility.yul\":7422:7423   */\n      0x00\n        /* \"#utility.yul\":7411:7420   */\n      dup4\n        /* \"#utility.yul\":7407:7424   */\n      add\n        /* \"#utility.yul\":7398:7404   */\n      dup5\n        /* \"#utility.yul\":7335:7425   */\n      tag_307\n      jump\t// in\n    tag_407:\n        /* \"#utility.yul\":7172:7432   */\n      swap3\n      swap2\n      pop\n      pop\n      jump\t// out\n        /* \"#utility.yul\":7438:7767   */\n    tag_117:\n        /* \"#utility.yul\":7497:7503   */\n      0x00\n        /* \"#utility.yul\":7546:7548   */\n      0x20\n        /* \"#utility.yul\":7534:7543   */\n      dup3\n        /* \"#utility.yul\":7525:7532   */\n      dup5\n        /* \"#utility.yul\":7521:7544   */\n      sub\n        /* \"#utility.yul\":7517:7549   */\n      slt\n        /* \"#utility.yul\":7514:7633   */\n      iszero\n      tag_409\n      jumpi\n        /* \"#utility.yul\":7552:7631   */\n      tag_410\n      tag_286\n      jump\t// in\n    tag_410:\n        /* \"#utility.yul\":7514:7633   */\n    tag_409:\n        /* \"#utility.yul\":7672:7673   */\n      0x00\n        /* \"#utility.yul\":7697:7750   */\n      tag_411\n        /* \"#utility.yul\":7742:7749   */\n      dup5\n        /* \"#utility.yul\":7733:7739   */\n      dup3\n        /* \"#utility.yul\":7722:7731   */\n      dup6\n        /* \"#utility.yul\":7718:7740   */\n      add\n        /* \"#utility.yul\":7697:7750   */\n      tag_305\n      jump\t// in\n    tag_411:\n        /* \"#utility.yul\":7687:7750   */\n      swap2\n      pop\n        /* \"#utility.yul\":7643:7760   */\n      pop\n        /* \"#utility.yul\":7438:7767   */\n      swap3\n      swap2\n      pop\n      pop\n      jump\t// out\n        /* \"#utility.yul\":7773:7953   */\n    tag_308:\n        /* \"#utility.yul\":7821:7898   */\n      0x4e487b7100000000000000000000000000000000000000000000000000000000\n        /* \"#utility.yul\":7818:7819   */\n      0x00\n        /* \"#utility.yul\":7811:7899   */\n      mstore\n        /* \"#utility.yul\":7918:7922   */\n      0x11\n        /* \"#utility.yul\":7915:7916   */\n      0x04\n        /* \"#utility.yul\":7908:7923   */\n      mstore\n        /* \"#utility.yul\":7942:7946   */\n      0x24\n        /* \"#utility.yul\":7939:7940   */\n      0x00\n        /* \"#utility.yul\":7932:7947   */\n      revert\n        /* \"#utility.yul\":7959:8150   */\n    tag_124:\n        /* \"#utility.yul\":7999:8002   */\n      0x00\n        /* \"#utility.yul\":8018:8038   */\n      tag_414\n        /* \"#utility.yul\":8036:8037   */\n      dup3\n        /* \"#utility.yul\":8018:8038   */\n      tag_283\n      jump\t// in\n    tag_414:\n        /* \"#utility.yul\":8013:8038   */\n      swap2\n      pop\n        /* \"#utility.yul\":8052:8072   */\n      tag_415\n        /* \"#utility.yul\":8070:8071   */\n      dup4\n        /* \"#utility.yul\":8052:8072   */\n      tag_283\n      jump\t// in\n    tag_415:\n        /* \"#utility.yul\":8047:8072   */\n      swap3\n      pop\n        /* \"#utility.yul\":8095:8096   */\n      dup3\n        /* \"#utility.yul\":8092:8093   */\n      dup3\n        /* \"#utility.yul\":8088:8097   */\n      add\n        /* \"#utility.yul\":8081:8097   */\n      swap1\n      pop\n        /* \"#utility.yul\":8116:8119   */\n      dup1\n        /* \"#utility.yul\":8113:8114   */\n      dup3\n        /* \"#utility.yul\":8110:8120   */\n      gt\n        /* \"#utility.yul\":8107:8143   */\n      iszero\n      tag_416\n      jumpi\n        /* \"#utility.yul\":8123:8141   */\n      tag_417\n      tag_308\n      jump\t// in\n    tag_417:\n        /* \"#utility.yul\":8107:8143   */\n    tag_416:\n        /* \"#utility.yul\":7959:8150   */\n      swap3\n      swap2\n      pop\n      pop\n      jump\t// out\n        /* \"#utility.yul\":8156:8325   */\n    tag_309:\n        /* \"#utility.yul\":8240:8251   */\n      0x00\n        /* \"#utility.yul\":8274:8280   */\n      dup3\n        /* \"#utility.yul\":8269:8272   */\n      dup3\n        /* \"#utility.yul\":8262:8281   */\n      mstore\n        /* \"#utility.yul\":8314:8318   */\n      0x20\n        /* \"#utility.yul\":8309:8312   */\n      dup3\n        /* \"#utility.yul\":8305:8319   */\n      add\n        /* \"#utility.yul\":8290:8319   */\n      swap1\n      pop\n        /* \"#utility.yul\":8156:8325   */\n      swap3\n      swap2\n      pop\n      pop\n      jump\t// out\n        /* \"#utility.yul\":8331:8490   */\n    tag_310:\n        /* \"#utility.yul\":8471:8482   */\n      0x546f6f206561726c790000000000000000000000000000000000000000000000\n        /* \"#utility.yul\":8467:8468   */\n      0x00\n        /* \"#utility.yul\":8459:8465   */\n      dup3\n        /* \"#utility.yul\":8455:8469   */\n      add\n        /* \"#utility.yul\":8448:8483   */\n      mstore\n        /* \"#utility.yul\":8331:8490   */\n      pop\n      jump\t// out\n        /* \"#utility.yul\":8496:8861   */\n    tag_311:\n        /* \"#utility.yul\":8638:8641   */\n      0x00\n        /* \"#utility.yul\":8659:8725   */\n      tag_421\n        /* \"#utility.yul\":8723:8724   */\n      0x09\n        /* \"#utility.yul\":8718:8721   */\n      dup4\n        /* \"#utility.yul\":8659:8725   */\n      tag_309\n      jump\t// in\n    tag_421:\n        /* \"#utility.yul\":8652:8725   */\n      swap2\n      pop\n        /* \"#utility.yul\":8734:8827   */\n      tag_422\n        /* \"#utility.yul\":8823:8826   */\n      dup3\n        /* \"#utility.yul\":8734:8827   */\n      tag_310\n      jump\t// in\n    tag_422:\n        /* \"#utility.yul\":8852:8854   */\n      0x20\n        /* \"#utility.yul\":8847:8850   */\n      dup3\n        /* \"#utility.yul\":8843:8855   */\n      add\n        /* \"#utility.yul\":8836:8855   */\n      swap1\n      pop\n        /* \"#utility.yul\":8496:8861   */\n      swap2\n      swap1\n      pop\n      jump\t// out\n        /* \"#utility.yul\":8867:9286   */\n    tag_127:\n        /* \"#utility.yul\":9033:9037   */\n      0x00\n        /* \"#utility.yul\":9071:9073   */\n      0x20\n        /* \"#utility.yul\":9060:9069   */\n      dup3\n        /* \"#utility.yul\":9056:9074   */\n      add\n        /* \"#utility.yul\":9048:9074   */\n      swap1\n      pop\n        /* \"#utility.yul\":9120:9129   */\n      dup2\n        /* \"#utility.yul\":9114:9118   */\n      dup2\n        /* \"#utility.yul\":9110:9130   */\n      sub\n        /* \"#utility.yul\":9106:9107   */\n      0x00\n        /* \"#utility.yul\":9095:9104   */\n      dup4\n        /* \"#utility.yul\":9091:9108   */\n      add\n        /* \"#utility.yul\":9084:9131   */\n      mstore\n        /* \"#utility.yul\":9148:9279   */\n      tag_424\n        /* \"#utility.yul\":9274:9278   */\n      dup2\n        /* \"#utility.yul\":9148:9279   */\n      tag_311\n      jump\t// in\n    tag_424:\n        /* \"#utility.yul\":9140:9279   */\n      swap1\n      pop\n        /* \"#utility.yul\":8867:9286   */\n      swap2\n      swap1\n      pop\n      jump\t// out\n        /* \"#utility.yul\":9292:9472   */\n    tag_130:\n        /* \"#utility.yul\":9340:9417   */\n      0x4e487b7100000000000000000000000000000000000000000000000000000000\n        /* \"#utility.yul\":9337:9338   */\n      0x00\n        /* \"#utility.yul\":9330:9418   */\n      mstore\n        /* \"#utility.yul\":9437:9441   */\n      0x32\n        /* \"#utility.yul\":9434:9435   */\n      0x04\n        /* \"#utility.yul\":9427:9442   */\n      mstore\n        /* \"#utility.yul\":9461:9465   */\n      0x24\n        /* \"#utility.yul\":9458:9459   */\n      0x00\n        /* \"#utility.yul\":9451:9466   */\n      revert\n        /* \"#utility.yul\":9478:9646   */\n    tag_312:\n        /* \"#utility.yul\":9618:9638   */\n      0x77697468647261773a206e6f7420676f6f640000000000000000000000000000\n        /* \"#utility.yul\":9614:9615   */\n      0x00\n        /* \"#utility.yul\":9606:9612   */\n      dup3\n        /* \"#utility.yul\":9602:9616   */\n      add\n        /* \"#utility.yul\":9595:9639   */\n      mstore\n        /* \"#utility.yul\":9478:9646   */\n      pop\n      jump\t// out\n        /* \"#utility.yul\":9652:10018   */\n    tag_313:\n        /* \"#utility.yul\":9794:9797   */\n      0x00\n        /* \"#utility.yul\":9815:9882   */\n      tag_428\n        /* \"#utility.yul\":9879:9881   */\n      0x12\n        /* \"#utility.yul\":9874:9877   */\n      dup4\n        /* \"#utility.yul\":9815:9882   */\n      tag_309\n      jump\t// in\n    tag_428:\n        /* \"#utility.yul\":9808:9882   */\n      swap2\n      pop\n        /* \"#utility.yul\":9891:9984   */\n      tag_429\n        /* \"#utility.yul\":9980:9983   */\n      dup3\n        /* \"#utility.yul\":9891:9984   */\n      tag_312\n      jump\t// in\n    tag_429:\n        /* \"#utility.yul\":10009:10011   */\n      0x20\n        /* \"#utility.yul\":10004:10007   */\n      dup3\n        /* \"#utility.yul\":10000:10012   */\n      add\n        /* \"#utility.yul\":9993:10012   */\n      swap1\n      pop\n        /* \"#utility.yul\":9652:10018   */\n      swap2\n      swap1\n      pop\n      jump\t// out\n        /* \"#utility.yul\":10024:10443   */\n    tag_134:\n        /* \"#utility.yul\":10190:10194   */\n      0x00\n        /* \"#utility.yul\":10228:10230   */\n      0x20\n        /* \"#utility.yul\":10217:10226   */\n      dup3\n        /* \"#utility.yul\":10213:10231   */\n      add\n        /* \"#utility.yul\":10205:10231   */\n      swap1\n      pop\n        /* \"#utility.yul\":10277:10286   */\n      dup2\n        /* \"#utility.yul\":10271:10275   */\n      dup2\n        /* \"#utility.yul\":10267:10287   */\n      sub\n        /* \"#utility.yul\":10263:10264   */\n      0x00\n        /* \"#utility.yul\":10252:10261   */\n      dup4\n        /* \"#utility.yul\":10248:10265   */\n      add\n        /* \"#utility.yul\":10241:10288   */\n      mstore\n        /* \"#utility.yul\":10305:10436   */\n      tag_431\n        /* \"#utility.yul\":10431:10435   */\n      dup2\n        /* \"#utility.yul\":10305:10436   */\n      tag_313\n      jump\t// in\n    tag_431:\n        /* \"#utility.yul\":10297:10436   */\n      swap1\n      pop\n        /* \"#utility.yul\":10024:10443   */\n      swap2\n      swap1\n      pop\n      jump\t// out\n        /* \"#utility.yul\":10449:10859   */\n    tag_137:\n        /* \"#utility.yul\":10489:10496   */\n      0x00\n        /* \"#utility.yul\":10512:10532   */\n      tag_433\n        /* \"#utility.yul\":10530:10531   */\n      dup3\n        /* \"#utility.yul\":10512:10532   */\n      tag_283\n      jump\t// in\n    tag_433:\n        /* \"#utility.yul\":10507:10532   */\n      swap2\n      pop\n        /* \"#utility.yul\":10546:10566   */\n      tag_434\n        /* \"#utility.yul\":10564:10565   */\n      dup4\n        /* \"#utility.yul\":10546:10566   */\n      tag_283\n      jump\t// in\n    tag_434:\n        /* \"#utility.yul\":10541:10566   */\n      swap3\n      pop\n        /* \"#utility.yul\":10601:10602   */\n      dup3\n        /* \"#utility.yul\":10598:10599   */\n      dup3\n        /* \"#utility.yul\":10594:10603   */\n      mul\n        /* \"#utility.yul\":10623:10653   */\n      tag_435\n        /* \"#utility.yul\":10641:10652   */\n      dup2\n        /* \"#utility.yul\":10623:10653   */\n      tag_283\n      jump\t// in\n    tag_435:\n        /* \"#utility.yul\":10612:10653   */\n      swap2\n      pop\n        /* \"#utility.yul\":10802:10803   */\n      dup3\n        /* \"#utility.yul\":10793:10800   */\n      dup3\n        /* \"#utility.yul\":10789:10804   */\n      div\n        /* \"#utility.yul\":10786:10787   */\n      dup5\n        /* \"#utility.yul\":10783:10805   */\n      eq\n        /* \"#utility.yul\":10763:10764   */\n      dup4\n        /* \"#utility.yul\":10756:10765   */\n      iszero\n        /* \"#utility.yul\":10736:10819   */\n      or\n        /* \"#utility.yul\":10713:10852   */\n      tag_436\n      jumpi\n        /* \"#utility.yul\":10832:10850   */\n      tag_437\n      tag_308\n      jump\t// in\n    tag_437:\n        /* \"#utility.yul\":10713:10852   */\n    tag_436:\n        /* \"#utility.yul\":10497:10859   */\n      pop\n        /* \"#utility.yul\":10449:10859   */\n      swap3\n      swap2\n      pop\n      pop\n      jump\t// out\n        /* \"#utility.yul\":10865:11045   */\n    tag_314:\n        /* \"#utility.yul\":10913:10990   */\n      0x4e487b7100000000000000000000000000000000000000000000000000000000\n        /* \"#utility.yul\":10910:10911   */\n      0x00\n        /* \"#utility.yul\":10903:10991   */\n      mstore\n        /* \"#utility.yul\":11010:11014   */\n      0x12\n        /* \"#utility.yul\":11007:11008   */\n      0x04\n        /* \"#utility.yul\":11000:11015   */\n      mstore\n        /* \"#utility.yul\":11034:11038   */\n      0x24\n        /* \"#utility.yul\":11031:11032   */\n      0x00\n        /* \"#utility.yul\":11024:11039   */\n      revert\n        /* \"#utility.yul\":11051:11236   */\n    tag_139:\n        /* \"#utility.yul\":11091:11092   */\n      0x00\n        /* \"#utility.yul\":11108:11128   */\n      tag_440\n        /* \"#utility.yul\":11126:11127   */\n      dup3\n        /* \"#utility.yul\":11108:11128   */\n      tag_283\n      jump\t// in\n    tag_440:\n        /* \"#utility.yul\":11103:11128   */\n      swap2\n      pop\n        /* \"#utility.yul\":11142:11162   */\n      tag_441\n        /* \"#utility.yul\":11160:11161   */\n      dup4\n        /* \"#utility.yul\":11142:11162   */\n      tag_283\n      jump\t// in\n    tag_441:\n        /* \"#utility.yul\":11137:11162   */\n      swap3\n      pop\n        /* \"#utility.yul\":11181:11182   */\n      dup3\n        /* \"#utility.yul\":11171:11206   */\n      tag_442\n      jumpi\n        /* \"#utility.yul\":11186:11204   */\n      tag_443\n      tag_314\n      jump\t// in\n    tag_443:\n        /* \"#utility.yul\":11171:11206   */\n    tag_442:\n        /* \"#utility.yul\":11228:11229   */\n      dup3\n        /* \"#utility.yul\":11225:11226   */\n      dup3\n        /* \"#utility.yul\":11221:11230   */\n      div\n        /* \"#utility.yul\":11216:11230   */\n      swap1\n      pop\n        /* \"#utility.yul\":11051:11236   */\n      swap3\n      swap2\n      pop\n      pop\n      jump\t// out\n        /* \"#utility.yul\":11242:11436   */\n    tag_141:\n        /* \"#utility.yul\":11282:11286   */\n      0x00\n        /* \"#utility.yul\":11302:11322   */\n      tag_445\n        /* \"#utility.yul\":11320:11321   */\n      dup3\n        /* \"#utility.yul\":11302:11322   */\n      tag_283\n      jump\t// in\n    tag_445:\n        /* \"#utility.yul\":11297:11322   */\n      swap2\n      pop\n        /* \"#utility.yul\":11336:11356   */\n      tag_446\n        /* \"#utility.yul\":11354:11355   */\n      dup4\n        /* \"#utility.yul\":11336:11356   */\n      tag_283\n      jump\t// in\n    tag_446:\n        /* \"#utility.yul\":11331:11356   */\n      swap3\n      pop\n        /* \"#utility.yul\":11380:11381   */\n      dup3\n        /* \"#utility.yul\":11377:11378   */\n      dup3\n        /* \"#utility.yul\":11373:11382   */\n      sub\n        /* \"#utility.yul\":11365:11382   */\n      swap1\n      pop\n        /* \"#utility.yul\":11404:11405   */\n      dup2\n        /* \"#utility.yul\":11398:11402   */\n      dup2\n        /* \"#utility.yul\":11395:11406   */\n      gt\n        /* \"#utility.yul\":11392:11429   */\n      iszero\n      tag_447\n      jumpi\n        /* \"#utility.yul\":11409:11427   */\n      tag_448\n      tag_308\n      jump\t// in\n    tag_448:\n        /* \"#utility.yul\":11392:11429   */\n    tag_447:\n        /* \"#utility.yul\":11242:11436   */\n      swap3\n      swap2\n      pop\n      pop\n      jump\t// out\n        /* \"#utility.yul\":11442:11585   */\n    tag_315:\n        /* \"#utility.yul\":11499:11504   */\n      0x00\n        /* \"#utility.yul\":11530:11536   */\n      dup2\n        /* \"#utility.yul\":11524:11537   */\n      mload\n        /* \"#utility.yul\":11515:11537   */\n      swap1\n      pop\n        /* \"#utility.yul\":11546:11579   */\n      tag_450\n        /* \"#utility.yul\":11573:11578   */\n      dup2\n        /* \"#utility.yul\":11546:11579   */\n      tag_288\n      jump\t// in\n    tag_450:\n        /* \"#utility.yul\":11442:11585   */\n      swap3\n      swap2\n      pop\n      pop\n      jump\t// out\n        /* \"#utility.yul\":11591:11942   */\n    tag_172:\n        /* \"#utility.yul\":11661:11667   */\n      0x00\n        /* \"#utility.yul\":11710:11712   */\n      0x20\n        /* \"#utility.yul\":11698:11707   */\n      dup3\n        /* \"#utility.yul\":11689:11696   */\n      dup5\n        /* \"#utility.yul\":11685:11708   */\n      sub\n        /* \"#utility.yul\":11681:11713   */\n      slt\n        /* \"#utility.yul\":11678:11797   */\n      iszero\n      tag_452\n      jumpi\n        /* \"#utility.yul\":11716:11795   */\n      tag_453\n      tag_286\n      jump\t// in\n    tag_453:\n        /* \"#utility.yul\":11678:11797   */\n    tag_452:\n        /* \"#utility.yul\":11836:11837   */\n      0x00\n        /* \"#utility.yul\":11861:11925   */\n      tag_454\n        /* \"#utility.yul\":11917:11924   */\n      dup5\n        /* \"#utility.yul\":11908:11914   */\n      dup3\n        /* \"#utility.yul\":11897:11906   */\n      dup6\n        /* \"#utility.yul\":11893:11915   */\n      add\n        /* \"#utility.yul\":11861:11925   */\n      tag_315\n      jump\t// in\n    tag_454:\n        /* \"#utility.yul\":11851:11925   */\n      swap2\n      pop\n        /* \"#utility.yul\":11807:11935   */\n      pop\n        /* \"#utility.yul\":11591:11942   */\n      swap3\n      swap2\n      pop\n      pop\n      jump\t// out\n        /* \"#utility.yul\":11948:12280   */\n    tag_184:\n        /* \"#utility.yul\":12069:12073   */\n      0x00\n        /* \"#utility.yul\":12107:12109   */\n      0x40\n        /* \"#utility.yul\":12096:12105   */\n      dup3\n        /* \"#utility.yul\":12092:12110   */\n      add\n        /* \"#utility.yul\":12084:12110   */\n      swap1\n      pop\n        /* \"#utility.yul\":12120:12191   */\n      tag_456\n        /* \"#utility.yul\":12188:12189   */\n      0x00\n        /* \"#utility.yul\":12177:12186   */\n      dup4\n        /* \"#utility.yul\":12173:12190   */\n      add\n        /* \"#utility.yul\":12164:12170   */\n      dup6\n        /* \"#utility.yul\":12120:12191   */\n      tag_303\n      jump\t// in\n    tag_456:\n        /* \"#utility.yul\":12201:12273   */\n      tag_457\n        /* \"#utility.yul\":12269:12271   */\n      0x20\n        /* \"#utility.yul\":12258:12267   */\n      dup4\n        /* \"#utility.yul\":12254:12272   */\n      add\n        /* \"#utility.yul\":12245:12251   */\n      dup5\n        /* \"#utility.yul\":12201:12273   */\n      tag_284\n      jump\t// in\n    tag_457:\n        /* \"#utility.yul\":11948:12280   */\n      swap4\n      swap3\n      pop\n      pop\n      pop\n      jump\t// out\n        /* \"#utility.yul\":12286:12618   */\n    tag_229:\n        /* \"#utility.yul\":12407:12411   */\n      0x00\n        /* \"#utility.yul\":12445:12447   */\n      0x40\n        /* \"#utility.yul\":12434:12443   */\n      dup3\n        /* \"#utility.yul\":12430:12448   */\n      add\n        /* \"#utility.yul\":12422:12448   */\n      swap1\n      pop\n        /* \"#utility.yul\":12458:12529   */\n      tag_459\n        /* \"#utility.yul\":12526:12527   */\n      0x00\n        /* \"#utility.yul\":12515:12524   */\n      dup4\n        /* \"#utility.yul\":12511:12528   */\n      add\n        /* \"#utility.yul\":12502:12508   */\n      dup6\n        /* \"#utility.yul\":12458:12529   */\n      tag_303\n      jump\t// in\n    tag_459:\n        /* \"#utility.yul\":12539:12611   */\n      tag_460\n        /* \"#utility.yul\":12607:12609   */\n      0x20\n        /* \"#utility.yul\":12596:12605   */\n      dup4\n        /* \"#utility.yul\":12592:12610   */\n      add\n        /* \"#utility.yul\":12583:12589   */\n      dup5\n        /* \"#utility.yul\":12539:12611   */\n      tag_303\n      jump\t// in\n    tag_460:\n        /* \"#utility.yul\":12286:12618   */\n      swap4\n      swap3\n      pop\n      pop\n      pop\n      jump\t// out\n        /* \"#utility.yul\":12624:12799   */\n    tag_316:\n        /* \"#utility.yul\":12764:12791   */\n      0x416c6c6f77616e6365206e6f74206869676820656e6f75676800000000000000\n        /* \"#utility.yul\":12760:12761   */\n      0x00\n        /* \"#utility.yul\":12752:12758   */\n      dup3\n        /* \"#utility.yul\":12748:12762   */\n      add\n        /* \"#utility.yul\":12741:12792   */\n      mstore\n        /* \"#utility.yul\":12624:12799   */\n      pop\n      jump\t// out\n        /* \"#utility.yul\":12805:13171   */\n    tag_317:\n        /* \"#utility.yul\":12947:12950   */\n      0x00\n        /* \"#utility.yul\":12968:13035   */\n      tag_463\n        /* \"#utility.yul\":13032:13034   */\n      0x19\n        /* \"#utility.yul\":13027:13030   */\n      dup4\n        /* \"#utility.yul\":12968:13035   */\n      tag_309\n      jump\t// in\n    tag_463:\n        /* \"#utility.yul\":12961:13035   */\n      swap2\n      pop\n        /* \"#utility.yul\":13044:13137   */\n      tag_464\n        /* \"#utility.yul\":13133:13136   */\n      dup3\n        /* \"#utility.yul\":13044:13137   */\n      tag_316\n      jump\t// in\n    tag_464:\n        /* \"#utility.yul\":13162:13164   */\n      0x20\n        /* \"#utility.yul\":13157:13160   */\n      dup3\n        /* \"#utility.yul\":13153:13165   */\n      add\n        /* \"#utility.yul\":13146:13165   */\n      swap1\n      pop\n        /* \"#utility.yul\":12805:13171   */\n      swap2\n      swap1\n      pop\n      jump\t// out\n        /* \"#utility.yul\":13177:13596   */\n    tag_235:\n        /* \"#utility.yul\":13343:13347   */\n      0x00\n        /* \"#utility.yul\":13381:13383   */\n      0x20\n        /* \"#utility.yul\":13370:13379   */\n      dup3\n        /* \"#utility.yul\":13366:13384   */\n      add\n        /* \"#utility.yul\":13358:13384   */\n      swap1\n      pop\n        /* \"#utility.yul\":13430:13439   */\n      dup2\n        /* \"#utility.yul\":13424:13428   */\n      dup2\n        /* \"#utility.yul\":13420:13440   */\n      sub\n        /* \"#utility.yul\":13416:13417   */\n      0x00\n        /* \"#utility.yul\":13405:13414   */\n      dup4\n        /* \"#utility.yul\":13401:13418   */\n      add\n        /* \"#utility.yul\":13394:13441   */\n      mstore\n        /* \"#utility.yul\":13458:13589   */\n      tag_466\n        /* \"#utility.yul\":13584:13588   */\n      dup2\n        /* \"#utility.yul\":13458:13589   */\n      tag_317\n      jump\t// in\n    tag_466:\n        /* \"#utility.yul\":13450:13589   */\n      swap1\n      pop\n        /* \"#utility.yul\":13177:13596   */\n      swap2\n      swap1\n      pop\n      jump\t// out\n        /* \"#utility.yul\":13602:14044   */\n    tag_275:\n        /* \"#utility.yul\":13751:13755   */\n      0x00\n        /* \"#utility.yul\":13789:13791   */\n      0x60\n        /* \"#utility.yul\":13778:13787   */\n      dup3\n        /* \"#utility.yul\":13774:13792   */\n      add\n        /* \"#utility.yul\":13766:13792   */\n      swap1\n      pop\n        /* \"#utility.yul\":13802:13873   */\n      tag_468\n        /* \"#utility.yul\":13870:13871   */\n      0x00\n        /* \"#utility.yul\":13859:13868   */\n      dup4\n        /* \"#utility.yul\":13855:13872   */\n      add\n        /* \"#utility.yul\":13846:13852   */\n      dup7\n        /* \"#utility.yul\":13802:13873   */\n      tag_303\n      jump\t// in\n    tag_468:\n        /* \"#utility.yul\":13883:13955   */\n      tag_469\n        /* \"#utility.yul\":13951:13953   */\n      0x20\n        /* \"#utility.yul\":13940:13949   */\n      dup4\n        /* \"#utility.yul\":13936:13954   */\n      add\n        /* \"#utility.yul\":13927:13933   */\n      dup6\n        /* \"#utility.yul\":13883:13955   */\n      tag_303\n      jump\t// in\n    tag_469:\n        /* \"#utility.yul\":13965:14037   */\n      tag_470\n        /* \"#utility.yul\":14033:14035   */\n      0x40\n        /* \"#utility.yul\":14022:14031   */\n      dup4\n        /* \"#utility.yul\":14018:14036   */\n      add\n        /* \"#utility.yul\":14009:14015   */\n      dup5\n        /* \"#utility.yul\":13965:14037   */\n      tag_284\n      jump\t// in\n    tag_470:\n        /* \"#utility.yul\":13602:14044   */\n      swap5\n      swap4\n      pop\n      pop\n      pop\n      pop\n      jump\t// out\n\n    auxdata: 0xa26469706673582212202227a373fc540a7b682224ca800fc24dd6ade251fbe8b159ce32d7703633a74f64736f6c634300081c0033\n}\n",
				"bytecode": {
					"linkReferences": {},
					"object": "60806040525f6006555f600955348015610017575f5ffd5b50604051611f0a380380611f0a83398181016040528101906100399190610281565b335f73ffffffffffffffffffffffffffffffffffffffff168173ffffffffffffffffffffffffffffffffffffffff16036100aa575f6040517f1e4fbdf70000000000000000000000000000000000000000000000000000000081526004016100a191906102e0565b60405180910390fd5b6100b98161011e60201b60201c565b508260015f6101000a81548173ffffffffffffffffffffffffffffffffffffffff021916908373ffffffffffffffffffffffffffffffffffffffff160217905550816004819055508060038190555043600a8190555042600b819055505050506102f9565b5f5f5f9054906101000a900473ffffffffffffffffffffffffffffffffffffffff169050815f5f6101000a81548173ffffffffffffffffffffffffffffffffffffffff021916908373ffffffffffffffffffffffffffffffffffffffff1602179055508173ffffffffffffffffffffffffffffffffffffffff168173ffffffffffffffffffffffffffffffffffffffff167f8be0079c531659141344cd1fd0a4f28419497f9722a3daafe3b4186f6b6457e060405160405180910390a35050565b5f5ffd5b5f73ffffffffffffffffffffffffffffffffffffffff82169050919050565b5f61020c826101e3565b9050919050565b5f61021d82610202565b9050919050565b61022d81610213565b8114610237575f5ffd5b50565b5f8151905061024881610224565b92915050565b5f819050919050565b6102608161024e565b811461026a575f5ffd5b50565b5f8151905061027b81610257565b92915050565b5f5f5f60608486031215610298576102976101df565b5b5f6102a58682870161023a565b93505060206102b68682870161026d565b92505060406102c78682870161026d565b9150509250925092565b6102da81610202565b82525050565b5f6020820190506102f35f8301846102d1565b92915050565b611c04806103065f395ff3fe608060405234801561000f575f5ffd5b5060043610610171575f3560e01c8063715018a6116100dc5780638dbb1e3a11610095578063b99265571161006f578063b9926557146103f3578063d129459b14610411578063e2bbb1581461042f578063f2fde38b1461044b57610171565b80638dbb1e3a14610374578063913e77ad146103a457806393f1a40b146103c257610171565b8063715018a6146102d657806378e97925146102e05780637abceffd146102fe57806383e271851461031a5780638aa28550146103385780638da5cb5b1461035657610171565b806346ca6bea1161012e57806346ca6bea1461023c57806348cd4cb11461025857806351eb05a6146102765780635312ea8e1461029257806357e78adc146102ae578063630b5ba1146102cc57610171565b8063081e3eda146101755780631526fe271461019357806317caf6f1146101c65780631aed6553146101e4578063212f14cc14610202578063441a3e7014610220575b5f5ffd5b61017d610467565b60405161018a91906114bd565b60405180910390f35b6101ad60048036038101906101a89190611504565b610473565b6040516101bd94939291906115a9565b60405180910390f35b6101ce6104cd565b6040516101db91906114bd565b60405180910390f35b6101ec6104d3565b6040516101f991906114bd565b60405180910390f35b61020a6104d9565b60405161021791906114bd565b60405180910390f35b61023a600480360381019061023591906115ec565b6104df565b005b6102566004803603810190610251919061165f565b610790565b005b610260610816565b60405161026d91906114bd565b60405180910390f35b610290600480360381019061028b9190611504565b61081c565b005b6102ac60048036038101906102a79190611504565b610a33565b005b6102b6610b68565b6040516102c391906114bd565b60405180910390f35b6102d4610b6e565b005b6102de610b9c565b005b6102e8610baf565b6040516102f591906114bd565b60405180910390f35b610318600480360381019061031391906116fb565b610bb5565b005b610322610ca8565b60405161032f91906114bd565b60405180910390f35b610340610cae565b60405161034d91906114bd565b60405180910390f35b61035e610cb3565b60405161036b919061175a565b60405180910390f35b61038e600480360381019061038991906115ec565b610cda565b60405161039b91906114bd565b60405180910390f35b6103ac610d5a565b6040516103b9919061175a565b60405180910390f35b6103dc60048036038101906103d7919061179d565b610d7f565b6040516103ea9291906117db565b60405180910390f35b6103fb610daa565b60405161040891906114bd565b60405180910390f35b610419610db9565b6040516104269190611822565b60405180910390f35b610449600480360381019061044491906115ec565b610dde565b005b6104656004803603810190610460919061183b565b611136565b005b5f600780549050905090565b60078181548110610482575f80fd5b905f5260205f2090600402015f91509050805f015f9054906101000a900473ffffffffffffffffffffffffffffffffffffffff16908060010154908060020154908060030154905084565b60095481565b60035481565b60045481565b6234bc00600b546104f09190611893565b4211610531576040517f08c379a000000000000000000000000000000000000000000000000000000000815260040161052890611920565b60405180910390fd5b5f600783815481106105465761054561193e565b5b905f5260205f20906004020190505f60085f8581526020019081526020015f205f3373ffffffffffffffffffffffffffffffffffffffff1673ffffffffffffffffffffffffffffffffffffffff1681526020019081526020015f20905082815f015410156105e9576040517f08c379a00000000000000000000000000000000000000000000000000000000081526004016105e0906119b5565b60405180910390fd5b6105f28461081c565b5f816001015464e8d4a510008460030154845f015461061191906119d3565b61061b9190611a41565b6106259190611a71565b905083825f01546106369190611a71565b825f018190555064e8d4a510008360030154835f015461065691906119d3565b6106609190611a41565b82600101819055506106b4338260015f9054906101000a900473ffffffffffffffffffffffffffffffffffffffff1673ffffffffffffffffffffffffffffffffffffffff166111ba9092919063ffffffff16565b6107013385855f015f9054906101000a900473ffffffffffffffffffffffffffffffffffffffff1673ffffffffffffffffffffffffffffffffffffffff166111ba9092919063ffffffff16565b84835f015f9054906101000a900473ffffffffffffffffffffffffffffffffffffffff1673ffffffffffffffffffffffffffffffffffffffff163373ffffffffffffffffffffffffffffffffffffffff167ff341246adaac6f497bc2a656f546ab9e182111d630394f0c57c710a59a2cb5678760405161078191906114bd565b60405180910390a45050505050565b610798611239565b80156107a7576107a6610b6e565b5b81600784815481106107bc576107bb61193e565b5b905f5260205f209060040201600101546009546107d99190611a71565b6107e39190611893565b60098190555081600784815481106107fe576107fd61193e565b5b905f5260205f20906004020160010181905550505050565b600a5481565b5f600782815481106108315761083061193e565b5b905f5260205f2090600402019050806002015443116108505750610a30565b5f815f015f9054906101000a900473ffffffffffffffffffffffffffffffffffffffff1673ffffffffffffffffffffffffffffffffffffffff166370a08231306040518263ffffffff1660e01b81526004016108ac919061175a565b602060405180830381865afa1580156108c7573d5f5f3e3d5ffd5b505050506040513d601f19601f820116820180604052508101906108eb9190611ab8565b90505f8103610904574382600201819055505050610a30565b5f600954836001015460045461091e866002015443610cda565b61092891906119d3565b61093291906119d3565b61093c9190611a41565b90508164e8d4a510008261095091906119d3565b61095a9190611a41565b83600301546109699190611893565b83600301819055504383600201819055506a037a172815e4355715555560055411610a2c578060055461099c9190611893565b60058190555060015f9054906101000a900473ffffffffffffffffffffffffffffffffffffffff1673ffffffffffffffffffffffffffffffffffffffff166340c10f1930836040518363ffffffff1660e01b81526004016109fe929190611ae3565b5f604051808303815f87803b158015610a15575f5ffd5b505af1158015610a27573d5f5f3e3d5ffd5b505050505b5050505b50565b5f60078281548110610a4857610a4761193e565b5b905f5260205f20906004020190505f60085f8481526020019081526020015f205f3373ffffffffffffffffffffffffffffffffffffffff1673ffffffffffffffffffffffffffffffffffffffff1681526020019081526020015f2090505f815f015490505f826001015490505f835f01819055505f8360010181905550610b123383865f015f9054906101000a900473ffffffffffffffffffffffffffffffffffffffff1673ffffffffffffffffffffffffffffffffffffffff166111ba9092919063ffffffff16565b843373ffffffffffffffffffffffffffffffffffffffff167fbb757047c2b5f3974fe26b7c10f732e7bce710b0952a71082702781e62ae059583604051610b5991906114bd565b60405180910390a35050505050565b60065481565b5f60078054905090505f5f90505b81811015610b9857610b8d8161081c565b806001019050610b7c565b5050565b610ba4611239565b610bad5f6112c0565b565b600b5481565b610bbd611239565b8015610bcc57610bcb610b6e565b5b82600954610bda9190611893565b600981905550600760405180608001604052808473ffffffffffffffffffffffffffffffffffffffff1681526020018581526020014381526020015f815250908060018154018082558091505060019003905f5260205f2090600402015f909190919091505f820151815f015f6101000a81548173ffffffffffffffffffffffffffffffffffffffff021916908373ffffffffffffffffffffffffffffffffffffffff1602179055506020820151816001015560408201518160020155606082015181600301555050505050565b60055481565b600381565b5f5f5f9054906101000a900473ffffffffffffffffffffffffffffffffffffffff16905090565b5f6003548211610d035760038383610cf29190611a71565b610cfc91906119d3565b9050610d54565b6003548310610d1f578282610d189190611a71565b9050610d54565b60035482610d2d9190611a71565b600384600354610d3d9190611a71565b610d4791906119d3565b610d519190611893565b90505b92915050565b60025f9054906101000a900473ffffffffffffffffffffffffffffffffffffffff1681565b6008602052815f5260405f20602052805f5260405f205f9150915050805f0154908060010154905082565b6a037a172815e4355715555581565b60015f9054906101000a900473ffffffffffffffffffffffffffffffffffffffff1681565b5f60078381548110610df357610df261193e565b5b905f5260205f20906004020190505f60085f8581526020019081526020015f205f3373ffffffffffffffffffffffffffffffffffffffff1673ffffffffffffffffffffffffffffffffffffffff1681526020019081526020015f209050815f015f9054906101000a900473ffffffffffffffffffffffffffffffffffffffff1673ffffffffffffffffffffffffffffffffffffffff1663dd62ed3e33306040518363ffffffff1660e01b8152600401610ead929190611b0a565b602060405180830381865afa158015610ec8573d5f5f3e3d5ffd5b505050506040513d601f19601f82011682018060405250810190610eec9190611ab8565b831115610f2e576040517f08c379a0000000000000000000000000000000000000000000000000000000008152600401610f2590611b7b565b60405180910390fd5b610f7d333085855f015f9054906101000a900473ffffffffffffffffffffffffffffffffffffffff1673ffffffffffffffffffffffffffffffffffffffff16611381909392919063ffffffff16565b610f868461081c565b5f816001015464e8d4a510008460030154845f0154610fa591906119d3565b610faf9190611a41565b610fb99190611a71565b905083825f0154610fca9190611893565b825f01819055506234bc00600b54610fe29190611893565b42118015610fef57505f81115b156110705764e8d4a510008360030154835f015461100d91906119d3565b6110179190611a41565b826001018190555061106b338260015f9054906101000a900473ffffffffffffffffffffffffffffffffffffffff1673ffffffffffffffffffffffffffffffffffffffff166111ba9092919063ffffffff16565b6110a7565b8064e8d4a510008460030154845f015461108a91906119d3565b6110949190611a41565b61109e9190611a71565b82600101819055505b84835f015f9054906101000a900473ffffffffffffffffffffffffffffffffffffffff1673ffffffffffffffffffffffffffffffffffffffff163373ffffffffffffffffffffffffffffffffffffffff167fdcbc1c05240f31ff3ad067ef1ee35ce4997762752e3a095284754544f4c709d78760405161112791906114bd565b60405180910390a45050505050565b61113e611239565b5f73ffffffffffffffffffffffffffffffffffffffff168173ffffffffffffffffffffffffffffffffffffffff16036111ae575f6040517f1e4fbdf70000000000000000000000000000000000000000000000000000000081526004016111a5919061175a565b60405180910390fd5b6111b7816112c0565b50565b611234838473ffffffffffffffffffffffffffffffffffffffff1663a9059cbb85856040516024016111ed929190611ae3565b604051602081830303815290604052915060e01b6020820180517bffffffffffffffffffffffffffffffffffffffffffffffffffffffff8381831617835250505050611403565b505050565b61124161149e565b73ffffffffffffffffffffffffffffffffffffffff1661125f610cb3565b73ffffffffffffffffffffffffffffffffffffffff16146112be5761128261149e565b6040517f118cdaa70000000000000000000000000000000000000000000000000000000081526004016112b5919061175a565b60405180910390fd5b565b5f5f5f9054906101000a900473ffffffffffffffffffffffffffffffffffffffff169050815f5f6101000a81548173ffffffffffffffffffffffffffffffffffffffff021916908373ffffffffffffffffffffffffffffffffffffffff1602179055508173ffffffffffffffffffffffffffffffffffffffff168173ffffffffffffffffffffffffffffffffffffffff167f8be0079c531659141344cd1fd0a4f28419497f9722a3daafe3b4186f6b6457e060405160405180910390a35050565b6113fd848573ffffffffffffffffffffffffffffffffffffffff166323b872dd8686866040516024016113b693929190611b99565b604051602081830303815290604052915060e01b6020820180517bffffffffffffffffffffffffffffffffffffffffffffffffffffffff8381831617835250505050611403565b50505050565b5f5f60205f8451602086015f885af180611422576040513d5f823e3d81fd5b3d92505f519150505f821461143b576001811415611456565b5f8473ffffffffffffffffffffffffffffffffffffffff163b145b1561149857836040517f5274afe700000000000000000000000000000000000000000000000000000000815260040161148f919061175a565b60405180910390fd5b50505050565b5f33905090565b5f819050919050565b6114b7816114a5565b82525050565b5f6020820190506114d05f8301846114ae565b92915050565b5f5ffd5b6114e3816114a5565b81146114ed575f5ffd5b50565b5f813590506114fe816114da565b92915050565b5f60208284031215611519576115186114d6565b5b5f611526848285016114f0565b91505092915050565b5f73ffffffffffffffffffffffffffffffffffffffff82169050919050565b5f819050919050565b5f61157161156c6115678461152f565b61154e565b61152f565b9050919050565b5f61158282611557565b9050919050565b5f61159382611578565b9050919050565b6115a381611589565b82525050565b5f6080820190506115bc5f83018761159a565b6115c960208301866114ae565b6115d660408301856114ae565b6115e360608301846114ae565b95945050505050565b5f5f60408385031215611602576116016114d6565b5b5f61160f858286016114f0565b9250506020611620858286016114f0565b9150509250929050565b5f8115159050919050565b61163e8161162a565b8114611648575f5ffd5b50565b5f8135905061165981611635565b92915050565b5f5f5f60608486031215611676576116756114d6565b5b5f611683868287016114f0565b9350506020611694868287016114f0565b92505060406116a58682870161164b565b9150509250925092565b5f6116b98261152f565b9050919050565b5f6116ca826116af565b9050919050565b6116da816116c0565b81146116e4575f5ffd5b50565b5f813590506116f5816116d1565b92915050565b5f5f5f60608486031215611712576117116114d6565b5b5f61171f868287016114f0565b9350506020611730868287016116e7565b92505060406117418682870161164b565b9150509250925092565b611754816116af565b82525050565b5f60208201905061176d5f83018461174b565b92915050565b61177c816116af565b8114611786575f5ffd5b50565b5f8135905061179781611773565b92915050565b5f5f604083850312156117b3576117b26114d6565b5b5f6117c0858286016114f0565b92505060206117d185828601611789565b9150509250929050565b5f6040820190506117ee5f8301856114ae565b6117fb60208301846114ae565b9392505050565b5f61180c82611578565b9050919050565b61181c81611802565b82525050565b5f6020820190506118355f830184611813565b92915050565b5f602082840312156118505761184f6114d6565b5b5f61185d84828501611789565b91505092915050565b7f4e487b71000000000000000000000000000000000000000000000000000000005f52601160045260245ffd5b5f61189d826114a5565b91506118a8836114a5565b92508282019050808211156118c0576118bf611866565b5b92915050565b5f82825260208201905092915050565b7f546f6f206561726c7900000000000000000000000000000000000000000000005f82015250565b5f61190a6009836118c6565b9150611915826118d6565b602082019050919050565b5f6020820190508181035f830152611937816118fe565b9050919050565b7f4e487b71000000000000000000000000000000000000000000000000000000005f52603260045260245ffd5b7f77697468647261773a206e6f7420676f6f6400000000000000000000000000005f82015250565b5f61199f6012836118c6565b91506119aa8261196b565b602082019050919050565b5f6020820190508181035f8301526119cc81611993565b9050919050565b5f6119dd826114a5565b91506119e8836114a5565b92508282026119f6816114a5565b91508282048414831517611a0d57611a0c611866565b5b5092915050565b7f4e487b71000000000000000000000000000000000000000000000000000000005f52601260045260245ffd5b5f611a4b826114a5565b9150611a56836114a5565b925082611a6657611a65611a14565b5b828204905092915050565b5f611a7b826114a5565b9150611a86836114a5565b9250828203905081811115611a9e57611a9d611866565b5b92915050565b5f81519050611ab2816114da565b92915050565b5f60208284031215611acd57611acc6114d6565b5b5f611ada84828501611aa4565b91505092915050565b5f604082019050611af65f83018561174b565b611b0360208301846114ae565b9392505050565b5f604082019050611b1d5f83018561174b565b611b2a602083018461174b565b9392505050565b7f416c6c6f77616e6365206e6f74206869676820656e6f756768000000000000005f82015250565b5f611b656019836118c6565b9150611b7082611b31565b602082019050919050565b5f6020820190508181035f830152611b9281611b59565b9050919050565b5f606082019050611bac5f83018661174b565b611bb9602083018561174b565b611bc660408301846114ae565b94935050505056fea26469706673582212202227a373fc540a7b682224ca800fc24dd6ade251fbe8b159ce32d7703633a74f64736f6c634300081c0033",
					"opcodes": "PUSH1 0x80 PUSH1 0x40 MSTORE PUSH0 PUSH1 0x6 SSTORE PUSH0 PUSH1 0x9 SSTORE CALLVALUE DUP1 ISZERO PUSH2 0x17 JUMPI PUSH0 PUSH0 REVERT JUMPDEST POP PUSH1 0x40 MLOAD PUSH2 0x1F0A CODESIZE SUB DUP1 PUSH2 0x1F0A DUP4 CODECOPY DUP2 DUP2 ADD PUSH1 0x40 MSTORE DUP2 ADD SWAP1 PUSH2 0x39 SWAP2 SWAP1 PUSH2 0x281 JUMP JUMPDEST CALLER PUSH0 PUSH20 0xFFFFFFFFFFFFFFFFFFFFFFFFFFFFFFFFFFFFFFFF AND DUP2 PUSH20 0xFFFFFFFFFFFFFFFFFFFFFFFFFFFFFFFFFFFFFFFF AND SUB PUSH2 0xAA JUMPI PUSH0 PUSH1 0x40 MLOAD PUSH32 0x1E4FBDF700000000000000000000000000000000000000000000000000000000 DUP2 MSTORE PUSH1 0x4 ADD PUSH2 0xA1 SWAP2 SWAP1 PUSH2 0x2E0 JUMP JUMPDEST PUSH1 0x40 MLOAD DUP1 SWAP2 SUB SWAP1 REVERT JUMPDEST PUSH2 0xB9 DUP2 PUSH2 0x11E PUSH1 0x20 SHL PUSH1 0x20 SHR JUMP JUMPDEST POP DUP3 PUSH1 0x1 PUSH0 PUSH2 0x100 EXP DUP2 SLOAD DUP2 PUSH20 0xFFFFFFFFFFFFFFFFFFFFFFFFFFFFFFFFFFFFFFFF MUL NOT AND SWAP1 DUP4 PUSH20 0xFFFFFFFFFFFFFFFFFFFFFFFFFFFFFFFFFFFFFFFF AND MUL OR SWAP1 SSTORE POP DUP2 PUSH1 0x4 DUP2 SWAP1 SSTORE POP DUP1 PUSH1 0x3 DUP2 SWAP1 SSTORE POP NUMBER PUSH1 0xA DUP2 SWAP1 SSTORE POP TIMESTAMP PUSH1 0xB DUP2 SWAP1 SSTORE POP POP POP POP PUSH2 0x2F9 JUMP JUMPDEST PUSH0 PUSH0 PUSH0 SWAP1 SLOAD SWAP1 PUSH2 0x100 EXP SWAP1 DIV PUSH20 0xFFFFFFFFFFFFFFFFFFFFFFFFFFFFFFFFFFFFFFFF AND SWAP1 POP DUP2 PUSH0 PUSH0 PUSH2 0x100 EXP DUP2 SLOAD DUP2 PUSH20 0xFFFFFFFFFFFFFFFFFFFFFFFFFFFFFFFFFFFFFFFF MUL NOT AND SWAP1 DUP4 PUSH20 0xFFFFFFFFFFFFFFFFFFFFFFFFFFFFFFFFFFFFFFFF AND MUL OR SWAP1 SSTORE POP DUP2 PUSH20 0xFFFFFFFFFFFFFFFFFFFFFFFFFFFFFFFFFFFFFFFF AND DUP2 PUSH20 0xFFFFFFFFFFFFFFFFFFFFFFFFFFFFFFFFFFFFFFFF AND PUSH32 0x8BE0079C531659141344CD1FD0A4F28419497F9722A3DAAFE3B4186F6B6457E0 PUSH1 0x40 MLOAD PUSH1 0x40 MLOAD DUP1 SWAP2 SUB SWAP1 LOG3 POP POP JUMP JUMPDEST PUSH0 PUSH0 REVERT JUMPDEST PUSH0 PUSH20 0xFFFFFFFFFFFFFFFFFFFFFFFFFFFFFFFFFFFFFFFF DUP3 AND SWAP1 POP SWAP2 SWAP1 POP JUMP JUMPDEST PUSH0 PUSH2 0x20C DUP3 PUSH2 0x1E3 JUMP JUMPDEST SWAP1 POP SWAP2 SWAP1 POP JUMP JUMPDEST PUSH0 PUSH2 0x21D DUP3 PUSH2 0x202 JUMP JUMPDEST SWAP1 POP SWAP2 SWAP1 POP JUMP JUMPDEST PUSH2 0x22D DUP2 PUSH2 0x213 JUMP JUMPDEST DUP2 EQ PUSH2 0x237 JUMPI PUSH0 PUSH0 REVERT JUMPDEST POP JUMP JUMPDEST PUSH0 DUP2 MLOAD SWAP1 POP PUSH2 0x248 DUP2 PUSH2 0x224 JUMP JUMPDEST SWAP3 SWAP2 POP POP JUMP JUMPDEST PUSH0 DUP2 SWAP1 POP SWAP2 SWAP1 POP JUMP JUMPDEST PUSH2 0x260 DUP2 PUSH2 0x24E JUMP JUMPDEST DUP2 EQ PUSH2 0x26A JUMPI PUSH0 PUSH0 REVERT JUMPDEST POP JUMP JUMPDEST PUSH0 DUP2 MLOAD SWAP1 POP PUSH2 0x27B DUP2 PUSH2 0x257 JUMP JUMPDEST SWAP3 SWAP2 POP POP JUMP JUMPDEST PUSH0 PUSH0 PUSH0 PUSH1 0x60 DUP5 DUP7 SUB SLT ISZERO PUSH2 0x298 JUMPI PUSH2 0x297 PUSH2 0x1DF JUMP JUMPDEST JUMPDEST PUSH0 PUSH2 0x2A5 DUP7 DUP3 DUP8 ADD PUSH2 0x23A JUMP JUMPDEST SWAP4 POP POP PUSH1 0x20 PUSH2 0x2B6 DUP7 DUP3 DUP8 ADD PUSH2 0x26D JUMP JUMPDEST SWAP3 POP POP PUSH1 0x40 PUSH2 0x2C7 DUP7 DUP3 DUP8 ADD PUSH2 0x26D JUMP JUMPDEST SWAP2 POP POP SWAP3 POP SWAP3 POP SWAP3 JUMP JUMPDEST PUSH2 0x2DA DUP2 PUSH2 0x202 JUMP JUMPDEST DUP3 MSTORE POP POP JUMP JUMPDEST PUSH0 PUSH1 0x20 DUP3 ADD SWAP1 POP PUSH2 0x2F3 PUSH0 DUP4 ADD DUP5 PUSH2 0x2D1 JUMP JUMPDEST SWAP3 SWAP2 POP POP JUMP JUMPDEST PUSH2 0x1C04 DUP1 PUSH2 0x306 PUSH0 CODECOPY PUSH0 RETURN INVALID PUSH1 0x80 PUSH1 0x40 MSTORE CALLVALUE DUP1 ISZERO PUSH2 0xF JUMPI PUSH0 PUSH0 REVERT JUMPDEST POP PUSH1 0x4 CALLDATASIZE LT PUSH2 0x171 JUMPI PUSH0 CALLDATALOAD PUSH1 0xE0 SHR DUP1 PUSH4 0x715018A6 GT PUSH2 0xDC JUMPI DUP1 PUSH4 0x8DBB1E3A GT PUSH2 0x95 JUMPI DUP1 PUSH4 0xB9926557 GT PUSH2 0x6F JUMPI DUP1 PUSH4 0xB9926557 EQ PUSH2 0x3F3 JUMPI DUP1 PUSH4 0xD129459B EQ PUSH2 0x411 JUMPI DUP1 PUSH4 0xE2BBB158 EQ PUSH2 0x42F JUMPI DUP1 PUSH4 0xF2FDE38B EQ PUSH2 0x44B JUMPI PUSH2 0x171 JUMP JUMPDEST DUP1 PUSH4 0x8DBB1E3A EQ PUSH2 0x374 JUMPI DUP1 PUSH4 0x913E77AD EQ PUSH2 0x3A4 JUMPI DUP1 PUSH4 0x93F1A40B EQ PUSH2 0x3C2 JUMPI PUSH2 0x171 JUMP JUMPDEST DUP1 PUSH4 0x715018A6 EQ PUSH2 0x2D6 JUMPI DUP1 PUSH4 0x78E97925 EQ PUSH2 0x2E0 JUMPI DUP1 PUSH4 0x7ABCEFFD EQ PUSH2 0x2FE JUMPI DUP1 PUSH4 0x83E27185 EQ PUSH2 0x31A JUMPI DUP1 PUSH4 0x8AA28550 EQ PUSH2 0x338 JUMPI DUP1 PUSH4 0x8DA5CB5B EQ PUSH2 0x356 JUMPI PUSH2 0x171 JUMP JUMPDEST DUP1 PUSH4 0x46CA6BEA GT PUSH2 0x12E JUMPI DUP1 PUSH4 0x46CA6BEA EQ PUSH2 0x23C JUMPI DUP1 PUSH4 0x48CD4CB1 EQ PUSH2 0x258 JUMPI DUP1 PUSH4 0x51EB05A6 EQ PUSH2 0x276 JUMPI DUP1 PUSH4 0x5312EA8E EQ PUSH2 0x292 JUMPI DUP1 PUSH4 0x57E78ADC EQ PUSH2 0x2AE JUMPI DUP1 PUSH4 0x630B5BA1 EQ PUSH2 0x2CC JUMPI PUSH2 0x171 JUMP JUMPDEST DUP1 PUSH4 0x81E3EDA EQ PUSH2 0x175 JUMPI DUP1 PUSH4 0x1526FE27 EQ PUSH2 0x193 JUMPI DUP1 PUSH4 0x17CAF6F1 EQ PUSH2 0x1C6 JUMPI DUP1 PUSH4 0x1AED6553 EQ PUSH2 0x1E4 JUMPI DUP1 PUSH4 0x212F14CC EQ PUSH2 0x202 JUMPI DUP1 PUSH4 0x441A3E70 EQ PUSH2 0x220 JUMPI JUMPDEST PUSH0 PUSH0 REVERT JUMPDEST PUSH2 0x17D PUSH2 0x467 JUMP JUMPDEST PUSH1 0x40 MLOAD PUSH2 0x18A SWAP2 SWAP1 PUSH2 0x14BD JUMP JUMPDEST PUSH1 0x40 MLOAD DUP1 SWAP2 SUB SWAP1 RETURN JUMPDEST PUSH2 0x1AD PUSH1 0x4 DUP1 CALLDATASIZE SUB DUP2 ADD SWAP1 PUSH2 0x1A8 SWAP2 SWAP1 PUSH2 0x1504 JUMP JUMPDEST PUSH2 0x473 JUMP JUMPDEST PUSH1 0x40 MLOAD PUSH2 0x1BD SWAP5 SWAP4 SWAP3 SWAP2 SWAP1 PUSH2 0x15A9 JUMP JUMPDEST PUSH1 0x40 MLOAD DUP1 SWAP2 SUB SWAP1 RETURN JUMPDEST PUSH2 0x1CE PUSH2 0x4CD JUMP JUMPDEST PUSH1 0x40 MLOAD PUSH2 0x1DB SWAP2 SWAP1 PUSH2 0x14BD JUMP JUMPDEST PUSH1 0x40 MLOAD DUP1 SWAP2 SUB SWAP1 RETURN JUMPDEST PUSH2 0x1EC PUSH2 0x4D3 JUMP JUMPDEST PUSH1 0x40 MLOAD PUSH2 0x1F9 SWAP2 SWAP1 PUSH2 0x14BD JUMP JUMPDEST PUSH1 0x40 MLOAD DUP1 SWAP2 SUB SWAP1 RETURN JUMPDEST PUSH2 0x20A PUSH2 0x4D9 JUMP JUMPDEST PUSH1 0x40 MLOAD PUSH2 0x217 SWAP2 SWAP1 PUSH2 0x14BD JUMP JUMPDEST PUSH1 0x40 MLOAD DUP1 SWAP2 SUB SWAP1 RETURN JUMPDEST PUSH2 0x23A PUSH1 0x4 DUP1 CALLDATASIZE SUB DUP2 ADD SWAP1 PUSH2 0x235 SWAP2 SWAP1 PUSH2 0x15EC JUMP JUMPDEST PUSH2 0x4DF JUMP JUMPDEST STOP JUMPDEST PUSH2 0x256 PUSH1 0x4 DUP1 CALLDATASIZE SUB DUP2 ADD SWAP1 PUSH2 0x251 SWAP2 SWAP1 PUSH2 0x165F JUMP JUMPDEST PUSH2 0x790 JUMP JUMPDEST STOP JUMPDEST PUSH2 0x260 PUSH2 0x816 JUMP JUMPDEST PUSH1 0x40 MLOAD PUSH2 0x26D SWAP2 SWAP1 PUSH2 0x14BD JUMP JUMPDEST PUSH1 0x40 MLOAD DUP1 SWAP2 SUB SWAP1 RETURN JUMPDEST PUSH2 0x290 PUSH1 0x4 DUP1 CALLDATASIZE SUB DUP2 ADD SWAP1 PUSH2 0x28B SWAP2 SWAP1 PUSH2 0x1504 JUMP JUMPDEST PUSH2 0x81C JUMP JUMPDEST STOP JUMPDEST PUSH2 0x2AC PUSH1 0x4 DUP1 CALLDATASIZE SUB DUP2 ADD SWAP1 PUSH2 0x2A7 SWAP2 SWAP1 PUSH2 0x1504 JUMP JUMPDEST PUSH2 0xA33 JUMP JUMPDEST STOP JUMPDEST PUSH2 0x2B6 PUSH2 0xB68 JUMP JUMPDEST PUSH1 0x40 MLOAD PUSH2 0x2C3 SWAP2 SWAP1 PUSH2 0x14BD JUMP JUMPDEST PUSH1 0x40 MLOAD DUP1 SWAP2 SUB SWAP1 RETURN JUMPDEST PUSH2 0x2D4 PUSH2 0xB6E JUMP JUMPDEST STOP JUMPDEST PUSH2 0x2DE PUSH2 0xB9C JUMP JUMPDEST STOP JUMPDEST PUSH2 0x2E8 PUSH2 0xBAF JUMP JUMPDEST PUSH1 0x40 MLOAD PUSH2 0x2F5 SWAP2 SWAP1 PUSH2 0x14BD JUMP JUMPDEST PUSH1 0x40 MLOAD DUP1 SWAP2 SUB SWAP1 RETURN JUMPDEST PUSH2 0x318 PUSH1 0x4 DUP1 CALLDATASIZE SUB DUP2 ADD SWAP1 PUSH2 0x313 SWAP2 SWAP1 PUSH2 0x16FB JUMP JUMPDEST PUSH2 0xBB5 JUMP JUMPDEST STOP JUMPDEST PUSH2 0x322 PUSH2 0xCA8 JUMP JUMPDEST PUSH1 0x40 MLOAD PUSH2 0x32F SWAP2 SWAP1 PUSH2 0x14BD JUMP JUMPDEST PUSH1 0x40 MLOAD DUP1 SWAP2 SUB SWAP1 RETURN JUMPDEST PUSH2 0x340 PUSH2 0xCAE JUMP JUMPDEST PUSH1 0x40 MLOAD PUSH2 0x34D SWAP2 SWAP1 PUSH2 0x14BD JUMP JUMPDEST PUSH1 0x40 MLOAD DUP1 SWAP2 SUB SWAP1 RETURN JUMPDEST PUSH2 0x35E PUSH2 0xCB3 JUMP JUMPDEST PUSH1 0x40 MLOAD PUSH2 0x36B SWAP2 SWAP1 PUSH2 0x175A JUMP JUMPDEST PUSH1 0x40 MLOAD DUP1 SWAP2 SUB SWAP1 RETURN JUMPDEST PUSH2 0x38E PUSH1 0x4 DUP1 CALLDATASIZE SUB DUP2 ADD SWAP1 PUSH2 0x389 SWAP2 SWAP1 PUSH2 0x15EC JUMP JUMPDEST PUSH2 0xCDA JUMP JUMPDEST PUSH1 0x40 MLOAD PUSH2 0x39B SWAP2 SWAP1 PUSH2 0x14BD JUMP JUMPDEST PUSH1 0x40 MLOAD DUP1 SWAP2 SUB SWAP1 RETURN JUMPDEST PUSH2 0x3AC PUSH2 0xD5A JUMP JUMPDEST PUSH1 0x40 MLOAD PUSH2 0x3B9 SWAP2 SWAP1 PUSH2 0x175A JUMP JUMPDEST PUSH1 0x40 MLOAD DUP1 SWAP2 SUB SWAP1 RETURN JUMPDEST PUSH2 0x3DC PUSH1 0x4 DUP1 CALLDATASIZE SUB DUP2 ADD SWAP1 PUSH2 0x3D7 SWAP2 SWAP1 PUSH2 0x179D JUMP JUMPDEST PUSH2 0xD7F JUMP JUMPDEST PUSH1 0x40 MLOAD PUSH2 0x3EA SWAP3 SWAP2 SWAP1 PUSH2 0x17DB JUMP JUMPDEST PUSH1 0x40 MLOAD DUP1 SWAP2 SUB SWAP1 RETURN JUMPDEST PUSH2 0x3FB PUSH2 0xDAA JUMP JUMPDEST PUSH1 0x40 MLOAD PUSH2 0x408 SWAP2 SWAP1 PUSH2 0x14BD JUMP JUMPDEST PUSH1 0x40 MLOAD DUP1 SWAP2 SUB SWAP1 RETURN JUMPDEST PUSH2 0x419 PUSH2 0xDB9 JUMP JUMPDEST PUSH1 0x40 MLOAD PUSH2 0x426 SWAP2 SWAP1 PUSH2 0x1822 JUMP JUMPDEST PUSH1 0x40 MLOAD DUP1 SWAP2 SUB SWAP1 RETURN JUMPDEST PUSH2 0x449 PUSH1 0x4 DUP1 CALLDATASIZE SUB DUP2 ADD SWAP1 PUSH2 0x444 SWAP2 SWAP1 PUSH2 0x15EC JUMP JUMPDEST PUSH2 0xDDE JUMP JUMPDEST STOP JUMPDEST PUSH2 0x465 PUSH1 0x4 DUP1 CALLDATASIZE SUB DUP2 ADD SWAP1 PUSH2 0x460 SWAP2 SWAP1 PUSH2 0x183B JUMP JUMPDEST PUSH2 0x1136 JUMP JUMPDEST STOP JUMPDEST PUSH0 PUSH1 0x7 DUP1 SLOAD SWAP1 POP SWAP1 POP SWAP1 JUMP JUMPDEST PUSH1 0x7 DUP2 DUP2 SLOAD DUP2 LT PUSH2 0x482 JUMPI PUSH0 DUP1 REVERT JUMPDEST SWAP1 PUSH0 MSTORE PUSH1 0x20 PUSH0 KECCAK256 SWAP1 PUSH1 0x4 MUL ADD PUSH0 SWAP2 POP SWAP1 POP DUP1 PUSH0 ADD PUSH0 SWAP1 SLOAD SWAP1 PUSH2 0x100 EXP SWAP1 DIV PUSH20 0xFFFFFFFFFFFFFFFFFFFFFFFFFFFFFFFFFFFFFFFF AND SWAP1 DUP1 PUSH1 0x1 ADD SLOAD SWAP1 DUP1 PUSH1 0x2 ADD SLOAD SWAP1 DUP1 PUSH1 0x3 ADD SLOAD SWAP1 POP DUP5 JUMP JUMPDEST PUSH1 0x9 SLOAD DUP2 JUMP JUMPDEST PUSH1 0x3 SLOAD DUP2 JUMP JUMPDEST PUSH1 0x4 SLOAD DUP2 JUMP JUMPDEST PUSH3 0x34BC00 PUSH1 0xB SLOAD PUSH2 0x4F0 SWAP2 SWAP1 PUSH2 0x1893 JUMP JUMPDEST TIMESTAMP GT PUSH2 0x531 JUMPI PUSH1 0x40 MLOAD PUSH32 0x8C379A000000000000000000000000000000000000000000000000000000000 DUP2 MSTORE PUSH1 0x4 ADD PUSH2 0x528 SWAP1 PUSH2 0x1920 JUMP JUMPDEST PUSH1 0x40 MLOAD DUP1 SWAP2 SUB SWAP1 REVERT JUMPDEST PUSH0 PUSH1 0x7 DUP4 DUP2 SLOAD DUP2 LT PUSH2 0x546 JUMPI PUSH2 0x545 PUSH2 0x193E JUMP JUMPDEST JUMPDEST SWAP1 PUSH0 MSTORE PUSH1 0x20 PUSH0 KECCAK256 SWAP1 PUSH1 0x4 MUL ADD SWAP1 POP PUSH0 PUSH1 0x8 PUSH0 DUP6 DUP2 MSTORE PUSH1 0x20 ADD SWAP1 DUP2 MSTORE PUSH1 0x20 ADD PUSH0 KECCAK256 PUSH0 CALLER PUSH20 0xFFFFFFFFFFFFFFFFFFFFFFFFFFFFFFFFFFFFFFFF AND PUSH20 0xFFFFFFFFFFFFFFFFFFFFFFFFFFFFFFFFFFFFFFFF AND DUP2 MSTORE PUSH1 0x20 ADD SWAP1 DUP2 MSTORE PUSH1 0x20 ADD PUSH0 KECCAK256 SWAP1 POP DUP3 DUP2 PUSH0 ADD SLOAD LT ISZERO PUSH2 0x5E9 JUMPI PUSH1 0x40 MLOAD PUSH32 0x8C379A000000000000000000000000000000000000000000000000000000000 DUP2 MSTORE PUSH1 0x4 ADD PUSH2 0x5E0 SWAP1 PUSH2 0x19B5 JUMP JUMPDEST PUSH1 0x40 MLOAD DUP1 SWAP2 SUB SWAP1 REVERT JUMPDEST PUSH2 0x5F2 DUP5 PUSH2 0x81C JUMP JUMPDEST PUSH0 DUP2 PUSH1 0x1 ADD SLOAD PUSH5 0xE8D4A51000 DUP5 PUSH1 0x3 ADD SLOAD DUP5 PUSH0 ADD SLOAD PUSH2 0x611 SWAP2 SWAP1 PUSH2 0x19D3 JUMP JUMPDEST PUSH2 0x61B SWAP2 SWAP1 PUSH2 0x1A41 JUMP JUMPDEST PUSH2 0x625 SWAP2 SWAP1 PUSH2 0x1A71 JUMP JUMPDEST SWAP1 POP DUP4 DUP3 PUSH0 ADD SLOAD PUSH2 0x636 SWAP2 SWAP1 PUSH2 0x1A71 JUMP JUMPDEST DUP3 PUSH0 ADD DUP2 SWAP1 SSTORE POP PUSH5 0xE8D4A51000 DUP4 PUSH1 0x3 ADD SLOAD DUP4 PUSH0 ADD SLOAD PUSH2 0x656 SWAP2 SWAP1 PUSH2 0x19D3 JUMP JUMPDEST PUSH2 0x660 SWAP2 SWAP1 PUSH2 0x1A41 JUMP JUMPDEST DUP3 PUSH1 0x1 ADD DUP2 SWAP1 SSTORE POP PUSH2 0x6B4 CALLER DUP3 PUSH1 0x1 PUSH0 SWAP1 SLOAD SWAP1 PUSH2 0x100 EXP SWAP1 DIV PUSH20 0xFFFFFFFFFFFFFFFFFFFFFFFFFFFFFFFFFFFFFFFF AND PUSH20 0xFFFFFFFFFFFFFFFFFFFFFFFFFFFFFFFFFFFFFFFF AND PUSH2 0x11BA SWAP1 SWAP3 SWAP2 SWAP1 PUSH4 0xFFFFFFFF AND JUMP JUMPDEST PUSH2 0x701 CALLER DUP6 DUP6 PUSH0 ADD PUSH0 SWAP1 SLOAD SWAP1 PUSH2 0x100 EXP SWAP1 DIV PUSH20 0xFFFFFFFFFFFFFFFFFFFFFFFFFFFFFFFFFFFFFFFF AND PUSH20 0xFFFFFFFFFFFFFFFFFFFFFFFFFFFFFFFFFFFFFFFF AND PUSH2 0x11BA SWAP1 SWAP3 SWAP2 SWAP1 PUSH4 0xFFFFFFFF AND JUMP JUMPDEST DUP5 DUP4 PUSH0 ADD PUSH0 SWAP1 SLOAD SWAP1 PUSH2 0x100 EXP SWAP1 DIV PUSH20 0xFFFFFFFFFFFFFFFFFFFFFFFFFFFFFFFFFFFFFFFF AND PUSH20 0xFFFFFFFFFFFFFFFFFFFFFFFFFFFFFFFFFFFFFFFF AND CALLER PUSH20 0xFFFFFFFFFFFFFFFFFFFFFFFFFFFFFFFFFFFFFFFF AND PUSH32 0xF341246ADAAC6F497BC2A656F546AB9E182111D630394F0C57C710A59A2CB567 DUP8 PUSH1 0x40 MLOAD PUSH2 0x781 SWAP2 SWAP1 PUSH2 0x14BD JUMP JUMPDEST PUSH1 0x40 MLOAD DUP1 SWAP2 SUB SWAP1 LOG4 POP POP POP POP POP JUMP JUMPDEST PUSH2 0x798 PUSH2 0x1239 JUMP JUMPDEST DUP1 ISZERO PUSH2 0x7A7 JUMPI PUSH2 0x7A6 PUSH2 0xB6E JUMP JUMPDEST JUMPDEST DUP2 PUSH1 0x7 DUP5 DUP2 SLOAD DUP2 LT PUSH2 0x7BC JUMPI PUSH2 0x7BB PUSH2 0x193E JUMP JUMPDEST JUMPDEST SWAP1 PUSH0 MSTORE PUSH1 0x20 PUSH0 KECCAK256 SWAP1 PUSH1 0x4 MUL ADD PUSH1 0x1 ADD SLOAD PUSH1 0x9 SLOAD PUSH2 0x7D9 SWAP2 SWAP1 PUSH2 0x1A71 JUMP JUMPDEST PUSH2 0x7E3 SWAP2 SWAP1 PUSH2 0x1893 JUMP JUMPDEST PUSH1 0x9 DUP2 SWAP1 SSTORE POP DUP2 PUSH1 0x7 DUP5 DUP2 SLOAD DUP2 LT PUSH2 0x7FE JUMPI PUSH2 0x7FD PUSH2 0x193E JUMP JUMPDEST JUMPDEST SWAP1 PUSH0 MSTORE PUSH1 0x20 PUSH0 KECCAK256 SWAP1 PUSH1 0x4 MUL ADD PUSH1 0x1 ADD DUP2 SWAP1 SSTORE POP POP POP POP JUMP JUMPDEST PUSH1 0xA SLOAD DUP2 JUMP JUMPDEST PUSH0 PUSH1 0x7 DUP3 DUP2 SLOAD DUP2 LT PUSH2 0x831 JUMPI PUSH2 0x830 PUSH2 0x193E JUMP JUMPDEST JUMPDEST SWAP1 PUSH0 MSTORE PUSH1 0x20 PUSH0 KECCAK256 SWAP1 PUSH1 0x4 MUL ADD SWAP1 POP DUP1 PUSH1 0x2 ADD SLOAD NUMBER GT PUSH2 0x850 JUMPI POP PUSH2 0xA30 JUMP JUMPDEST PUSH0 DUP2 PUSH0 ADD PUSH0 SWAP1 SLOAD SWAP1 PUSH2 0x100 EXP SWAP1 DIV PUSH20 0xFFFFFFFFFFFFFFFFFFFFFFFFFFFFFFFFFFFFFFFF AND PUSH20 0xFFFFFFFFFFFFFFFFFFFFFFFFFFFFFFFFFFFFFFFF AND PUSH4 0x70A08231 ADDRESS PUSH1 0x40 MLOAD DUP3 PUSH4 0xFFFFFFFF AND PUSH1 0xE0 SHL DUP2 MSTORE PUSH1 0x4 ADD PUSH2 0x8AC SWAP2 SWAP1 PUSH2 0x175A JUMP JUMPDEST PUSH1 0x20 PUSH1 0x40 MLOAD DUP1 DUP4 SUB DUP2 DUP7 GAS STATICCALL ISZERO DUP1 ISZERO PUSH2 0x8C7 JUMPI RETURNDATASIZE PUSH0 PUSH0 RETURNDATACOPY RETURNDATASIZE PUSH0 REVERT JUMPDEST POP POP POP POP PUSH1 0x40 MLOAD RETURNDATASIZE PUSH1 0x1F NOT PUSH1 0x1F DUP3 ADD AND DUP3 ADD DUP1 PUSH1 0x40 MSTORE POP DUP2 ADD SWAP1 PUSH2 0x8EB SWAP2 SWAP1 PUSH2 0x1AB8 JUMP JUMPDEST SWAP1 POP PUSH0 DUP2 SUB PUSH2 0x904 JUMPI NUMBER DUP3 PUSH1 0x2 ADD DUP2 SWAP1 SSTORE POP POP POP PUSH2 0xA30 JUMP JUMPDEST PUSH0 PUSH1 0x9 SLOAD DUP4 PUSH1 0x1 ADD SLOAD PUSH1 0x4 SLOAD PUSH2 0x91E DUP7 PUSH1 0x2 ADD SLOAD NUMBER PUSH2 0xCDA JUMP JUMPDEST PUSH2 0x928 SWAP2 SWAP1 PUSH2 0x19D3 JUMP JUMPDEST PUSH2 0x932 SWAP2 SWAP1 PUSH2 0x19D3 JUMP JUMPDEST PUSH2 0x93C SWAP2 SWAP1 PUSH2 0x1A41 JUMP JUMPDEST SWAP1 POP DUP2 PUSH5 0xE8D4A51000 DUP3 PUSH2 0x950 SWAP2 SWAP1 PUSH2 0x19D3 JUMP JUMPDEST PUSH2 0x95A SWAP2 SWAP1 PUSH2 0x1A41 JUMP JUMPDEST DUP4 PUSH1 0x3 ADD SLOAD PUSH2 0x969 SWAP2 SWAP1 PUSH2 0x1893 JUMP JUMPDEST DUP4 PUSH1 0x3 ADD DUP2 SWAP1 SSTORE POP NUMBER DUP4 PUSH1 0x2 ADD DUP2 SWAP1 SSTORE POP PUSH11 0x37A172815E43557155555 PUSH1 0x5 SLOAD GT PUSH2 0xA2C JUMPI DUP1 PUSH1 0x5 SLOAD PUSH2 0x99C SWAP2 SWAP1 PUSH2 0x1893 JUMP JUMPDEST PUSH1 0x5 DUP2 SWAP1 SSTORE POP PUSH1 0x1 PUSH0 SWAP1 SLOAD SWAP1 PUSH2 0x100 EXP SWAP1 DIV PUSH20 0xFFFFFFFFFFFFFFFFFFFFFFFFFFFFFFFFFFFFFFFF AND PUSH20 0xFFFFFFFFFFFFFFFFFFFFFFFFFFFFFFFFFFFFFFFF AND PUSH4 0x40C10F19 ADDRESS DUP4 PUSH1 0x40 MLOAD DUP4 PUSH4 0xFFFFFFFF AND PUSH1 0xE0 SHL DUP2 MSTORE PUSH1 0x4 ADD PUSH2 0x9FE SWAP3 SWAP2 SWAP1 PUSH2 0x1AE3 JUMP JUMPDEST PUSH0 PUSH1 0x40 MLOAD DUP1 DUP4 SUB DUP2 PUSH0 DUP8 DUP1 EXTCODESIZE ISZERO DUP1 ISZERO PUSH2 0xA15 JUMPI PUSH0 PUSH0 REVERT JUMPDEST POP GAS CALL ISZERO DUP1 ISZERO PUSH2 0xA27 JUMPI RETURNDATASIZE PUSH0 PUSH0 RETURNDATACOPY RETURNDATASIZE PUSH0 REVERT JUMPDEST POP POP POP POP JUMPDEST POP POP POP JUMPDEST POP JUMP JUMPDEST PUSH0 PUSH1 0x7 DUP3 DUP2 SLOAD DUP2 LT PUSH2 0xA48 JUMPI PUSH2 0xA47 PUSH2 0x193E JUMP JUMPDEST JUMPDEST SWAP1 PUSH0 MSTORE PUSH1 0x20 PUSH0 KECCAK256 SWAP1 PUSH1 0x4 MUL ADD SWAP1 POP PUSH0 PUSH1 0x8 PUSH0 DUP5 DUP2 MSTORE PUSH1 0x20 ADD SWAP1 DUP2 MSTORE PUSH1 0x20 ADD PUSH0 KECCAK256 PUSH0 CALLER PUSH20 0xFFFFFFFFFFFFFFFFFFFFFFFFFFFFFFFFFFFFFFFF AND PUSH20 0xFFFFFFFFFFFFFFFFFFFFFFFFFFFFFFFFFFFFFFFF AND DUP2 MSTORE PUSH1 0x20 ADD SWAP1 DUP2 MSTORE PUSH1 0x20 ADD PUSH0 KECCAK256 SWAP1 POP PUSH0 DUP2 PUSH0 ADD SLOAD SWAP1 POP PUSH0 DUP3 PUSH1 0x1 ADD SLOAD SWAP1 POP PUSH0 DUP4 PUSH0 ADD DUP2 SWAP1 SSTORE POP PUSH0 DUP4 PUSH1 0x1 ADD DUP2 SWAP1 SSTORE POP PUSH2 0xB12 CALLER DUP4 DUP7 PUSH0 ADD PUSH0 SWAP1 SLOAD SWAP1 PUSH2 0x100 EXP SWAP1 DIV PUSH20 0xFFFFFFFFFFFFFFFFFFFFFFFFFFFFFFFFFFFFFFFF AND PUSH20 0xFFFFFFFFFFFFFFFFFFFFFFFFFFFFFFFFFFFFFFFF AND PUSH2 0x11BA SWAP1 SWAP3 SWAP2 SWAP1 PUSH4 0xFFFFFFFF AND JUMP JUMPDEST DUP5 CALLER PUSH20 0xFFFFFFFFFFFFFFFFFFFFFFFFFFFFFFFFFFFFFFFF AND PUSH32 0xBB757047C2B5F3974FE26B7C10F732E7BCE710B0952A71082702781E62AE0595 DUP4 PUSH1 0x40 MLOAD PUSH2 0xB59 SWAP2 SWAP1 PUSH2 0x14BD JUMP JUMPDEST PUSH1 0x40 MLOAD DUP1 SWAP2 SUB SWAP1 LOG3 POP POP POP POP POP JUMP JUMPDEST PUSH1 0x6 SLOAD DUP2 JUMP JUMPDEST PUSH0 PUSH1 0x7 DUP1 SLOAD SWAP1 POP SWAP1 POP PUSH0 PUSH0 SWAP1 POP JUMPDEST DUP2 DUP2 LT ISZERO PUSH2 0xB98 JUMPI PUSH2 0xB8D DUP2 PUSH2 0x81C JUMP JUMPDEST DUP1 PUSH1 0x1 ADD SWAP1 POP PUSH2 0xB7C JUMP JUMPDEST POP POP JUMP JUMPDEST PUSH2 0xBA4 PUSH2 0x1239 JUMP JUMPDEST PUSH2 0xBAD PUSH0 PUSH2 0x12C0 JUMP JUMPDEST JUMP JUMPDEST PUSH1 0xB SLOAD DUP2 JUMP JUMPDEST PUSH2 0xBBD PUSH2 0x1239 JUMP JUMPDEST DUP1 ISZERO PUSH2 0xBCC JUMPI PUSH2 0xBCB PUSH2 0xB6E JUMP JUMPDEST JUMPDEST DUP3 PUSH1 0x9 SLOAD PUSH2 0xBDA SWAP2 SWAP1 PUSH2 0x1893 JUMP JUMPDEST PUSH1 0x9 DUP2 SWAP1 SSTORE POP PUSH1 0x7 PUSH1 0x40 MLOAD DUP1 PUSH1 0x80 ADD PUSH1 0x40 MSTORE DUP1 DUP5 PUSH20 0xFFFFFFFFFFFFFFFFFFFFFFFFFFFFFFFFFFFFFFFF AND DUP2 MSTORE PUSH1 0x20 ADD DUP6 DUP2 MSTORE PUSH1 0x20 ADD NUMBER DUP2 MSTORE PUSH1 0x20 ADD PUSH0 DUP2 MSTORE POP SWAP1 DUP1 PUSH1 0x1 DUP2 SLOAD ADD DUP1 DUP3 SSTORE DUP1 SWAP2 POP POP PUSH1 0x1 SWAP1 SUB SWAP1 PUSH0 MSTORE PUSH1 0x20 PUSH0 KECCAK256 SWAP1 PUSH1 0x4 MUL ADD PUSH0 SWAP1 SWAP2 SWAP1 SWAP2 SWAP1 SWAP2 POP PUSH0 DUP3 ADD MLOAD DUP2 PUSH0 ADD PUSH0 PUSH2 0x100 EXP DUP2 SLOAD DUP2 PUSH20 0xFFFFFFFFFFFFFFFFFFFFFFFFFFFFFFFFFFFFFFFF MUL NOT AND SWAP1 DUP4 PUSH20 0xFFFFFFFFFFFFFFFFFFFFFFFFFFFFFFFFFFFFFFFF AND MUL OR SWAP1 SSTORE POP PUSH1 0x20 DUP3 ADD MLOAD DUP2 PUSH1 0x1 ADD SSTORE PUSH1 0x40 DUP3 ADD MLOAD DUP2 PUSH1 0x2 ADD SSTORE PUSH1 0x60 DUP3 ADD MLOAD DUP2 PUSH1 0x3 ADD SSTORE POP POP POP POP POP JUMP JUMPDEST PUSH1 0x5 SLOAD DUP2 JUMP JUMPDEST PUSH1 0x3 DUP2 JUMP JUMPDEST PUSH0 PUSH0 PUSH0 SWAP1 SLOAD SWAP1 PUSH2 0x100 EXP SWAP1 DIV PUSH20 0xFFFFFFFFFFFFFFFFFFFFFFFFFFFFFFFFFFFFFFFF AND SWAP1 POP SWAP1 JUMP JUMPDEST PUSH0 PUSH1 0x3 SLOAD DUP3 GT PUSH2 0xD03 JUMPI PUSH1 0x3 DUP4 DUP4 PUSH2 0xCF2 SWAP2 SWAP1 PUSH2 0x1A71 JUMP JUMPDEST PUSH2 0xCFC SWAP2 SWAP1 PUSH2 0x19D3 JUMP JUMPDEST SWAP1 POP PUSH2 0xD54 JUMP JUMPDEST PUSH1 0x3 SLOAD DUP4 LT PUSH2 0xD1F JUMPI DUP3 DUP3 PUSH2 0xD18 SWAP2 SWAP1 PUSH2 0x1A71 JUMP JUMPDEST SWAP1 POP PUSH2 0xD54 JUMP JUMPDEST PUSH1 0x3 SLOAD DUP3 PUSH2 0xD2D SWAP2 SWAP1 PUSH2 0x1A71 JUMP JUMPDEST PUSH1 0x3 DUP5 PUSH1 0x3 SLOAD PUSH2 0xD3D SWAP2 SWAP1 PUSH2 0x1A71 JUMP JUMPDEST PUSH2 0xD47 SWAP2 SWAP1 PUSH2 0x19D3 JUMP JUMPDEST PUSH2 0xD51 SWAP2 SWAP1 PUSH2 0x1893 JUMP JUMPDEST SWAP1 POP JUMPDEST SWAP3 SWAP2 POP POP JUMP JUMPDEST PUSH1 0x2 PUSH0 SWAP1 SLOAD SWAP1 PUSH2 0x100 EXP SWAP1 DIV PUSH20 0xFFFFFFFFFFFFFFFFFFFFFFFFFFFFFFFFFFFFFFFF AND DUP2 JUMP JUMPDEST PUSH1 0x8 PUSH1 0x20 MSTORE DUP2 PUSH0 MSTORE PUSH1 0x40 PUSH0 KECCAK256 PUSH1 0x20 MSTORE DUP1 PUSH0 MSTORE PUSH1 0x40 PUSH0 KECCAK256 PUSH0 SWAP2 POP SWAP2 POP POP DUP1 PUSH0 ADD SLOAD SWAP1 DUP1 PUSH1 0x1 ADD SLOAD SWAP1 POP DUP3 JUMP JUMPDEST PUSH11 0x37A172815E43557155555 DUP2 JUMP JUMPDEST PUSH1 0x1 PUSH0 SWAP1 SLOAD SWAP1 PUSH2 0x100 EXP SWAP1 DIV PUSH20 0xFFFFFFFFFFFFFFFFFFFFFFFFFFFFFFFFFFFFFFFF AND DUP2 JUMP JUMPDEST PUSH0 PUSH1 0x7 DUP4 DUP2 SLOAD DUP2 LT PUSH2 0xDF3 JUMPI PUSH2 0xDF2 PUSH2 0x193E JUMP JUMPDEST JUMPDEST SWAP1 PUSH0 MSTORE PUSH1 0x20 PUSH0 KECCAK256 SWAP1 PUSH1 0x4 MUL ADD SWAP1 POP PUSH0 PUSH1 0x8 PUSH0 DUP6 DUP2 MSTORE PUSH1 0x20 ADD SWAP1 DUP2 MSTORE PUSH1 0x20 ADD PUSH0 KECCAK256 PUSH0 CALLER PUSH20 0xFFFFFFFFFFFFFFFFFFFFFFFFFFFFFFFFFFFFFFFF AND PUSH20 0xFFFFFFFFFFFFFFFFFFFFFFFFFFFFFFFFFFFFFFFF AND DUP2 MSTORE PUSH1 0x20 ADD SWAP1 DUP2 MSTORE PUSH1 0x20 ADD PUSH0 KECCAK256 SWAP1 POP DUP2 PUSH0 ADD PUSH0 SWAP1 SLOAD SWAP1 PUSH2 0x100 EXP SWAP1 DIV PUSH20 0xFFFFFFFFFFFFFFFFFFFFFFFFFFFFFFFFFFFFFFFF AND PUSH20 0xFFFFFFFFFFFFFFFFFFFFFFFFFFFFFFFFFFFFFFFF AND PUSH4 0xDD62ED3E CALLER ADDRESS PUSH1 0x40 MLOAD DUP4 PUSH4 0xFFFFFFFF AND PUSH1 0xE0 SHL DUP2 MSTORE PUSH1 0x4 ADD PUSH2 0xEAD SWAP3 SWAP2 SWAP1 PUSH2 0x1B0A JUMP JUMPDEST PUSH1 0x20 PUSH1 0x40 MLOAD DUP1 DUP4 SUB DUP2 DUP7 GAS STATICCALL ISZERO DUP1 ISZERO PUSH2 0xEC8 JUMPI RETURNDATASIZE PUSH0 PUSH0 RETURNDATACOPY RETURNDATASIZE PUSH0 REVERT JUMPDEST POP POP POP POP PUSH1 0x40 MLOAD RETURNDATASIZE PUSH1 0x1F NOT PUSH1 0x1F DUP3 ADD AND DUP3 ADD DUP1 PUSH1 0x40 MSTORE POP DUP2 ADD SWAP1 PUSH2 0xEEC SWAP2 SWAP1 PUSH2 0x1AB8 JUMP JUMPDEST DUP4 GT ISZERO PUSH2 0xF2E JUMPI PUSH1 0x40 MLOAD PUSH32 0x8C379A000000000000000000000000000000000000000000000000000000000 DUP2 MSTORE PUSH1 0x4 ADD PUSH2 0xF25 SWAP1 PUSH2 0x1B7B JUMP JUMPDEST PUSH1 0x40 MLOAD DUP1 SWAP2 SUB SWAP1 REVERT JUMPDEST PUSH2 0xF7D CALLER ADDRESS DUP6 DUP6 PUSH0 ADD PUSH0 SWAP1 SLOAD SWAP1 PUSH2 0x100 EXP SWAP1 DIV PUSH20 0xFFFFFFFFFFFFFFFFFFFFFFFFFFFFFFFFFFFFFFFF AND PUSH20 0xFFFFFFFFFFFFFFFFFFFFFFFFFFFFFFFFFFFFFFFF AND PUSH2 0x1381 SWAP1 SWAP4 SWAP3 SWAP2 SWAP1 PUSH4 0xFFFFFFFF AND JUMP JUMPDEST PUSH2 0xF86 DUP5 PUSH2 0x81C JUMP JUMPDEST PUSH0 DUP2 PUSH1 0x1 ADD SLOAD PUSH5 0xE8D4A51000 DUP5 PUSH1 0x3 ADD SLOAD DUP5 PUSH0 ADD SLOAD PUSH2 0xFA5 SWAP2 SWAP1 PUSH2 0x19D3 JUMP JUMPDEST PUSH2 0xFAF SWAP2 SWAP1 PUSH2 0x1A41 JUMP JUMPDEST PUSH2 0xFB9 SWAP2 SWAP1 PUSH2 0x1A71 JUMP JUMPDEST SWAP1 POP DUP4 DUP3 PUSH0 ADD SLOAD PUSH2 0xFCA SWAP2 SWAP1 PUSH2 0x1893 JUMP JUMPDEST DUP3 PUSH0 ADD DUP2 SWAP1 SSTORE POP PUSH3 0x34BC00 PUSH1 0xB SLOAD PUSH2 0xFE2 SWAP2 SWAP1 PUSH2 0x1893 JUMP JUMPDEST TIMESTAMP GT DUP1 ISZERO PUSH2 0xFEF JUMPI POP PUSH0 DUP2 GT JUMPDEST ISZERO PUSH2 0x1070 JUMPI PUSH5 0xE8D4A51000 DUP4 PUSH1 0x3 ADD SLOAD DUP4 PUSH0 ADD SLOAD PUSH2 0x100D SWAP2 SWAP1 PUSH2 0x19D3 JUMP JUMPDEST PUSH2 0x1017 SWAP2 SWAP1 PUSH2 0x1A41 JUMP JUMPDEST DUP3 PUSH1 0x1 ADD DUP2 SWAP1 SSTORE POP PUSH2 0x106B CALLER DUP3 PUSH1 0x1 PUSH0 SWAP1 SLOAD SWAP1 PUSH2 0x100 EXP SWAP1 DIV PUSH20 0xFFFFFFFFFFFFFFFFFFFFFFFFFFFFFFFFFFFFFFFF AND PUSH20 0xFFFFFFFFFFFFFFFFFFFFFFFFFFFFFFFFFFFFFFFF AND PUSH2 0x11BA SWAP1 SWAP3 SWAP2 SWAP1 PUSH4 0xFFFFFFFF AND JUMP JUMPDEST PUSH2 0x10A7 JUMP JUMPDEST DUP1 PUSH5 0xE8D4A51000 DUP5 PUSH1 0x3 ADD SLOAD DUP5 PUSH0 ADD SLOAD PUSH2 0x108A SWAP2 SWAP1 PUSH2 0x19D3 JUMP JUMPDEST PUSH2 0x1094 SWAP2 SWAP1 PUSH2 0x1A41 JUMP JUMPDEST PUSH2 0x109E SWAP2 SWAP1 PUSH2 0x1A71 JUMP JUMPDEST DUP3 PUSH1 0x1 ADD DUP2 SWAP1 SSTORE POP JUMPDEST DUP5 DUP4 PUSH0 ADD PUSH0 SWAP1 SLOAD SWAP1 PUSH2 0x100 EXP SWAP1 DIV PUSH20 0xFFFFFFFFFFFFFFFFFFFFFFFFFFFFFFFFFFFFFFFF AND PUSH20 0xFFFFFFFFFFFFFFFFFFFFFFFFFFFFFFFFFFFFFFFF AND CALLER PUSH20 0xFFFFFFFFFFFFFFFFFFFFFFFFFFFFFFFFFFFFFFFF AND PUSH32 0xDCBC1C05240F31FF3AD067EF1EE35CE4997762752E3A095284754544F4C709D7 DUP8 PUSH1 0x40 MLOAD PUSH2 0x1127 SWAP2 SWAP1 PUSH2 0x14BD JUMP JUMPDEST PUSH1 0x40 MLOAD DUP1 SWAP2 SUB SWAP1 LOG4 POP POP POP POP POP JUMP JUMPDEST PUSH2 0x113E PUSH2 0x1239 JUMP JUMPDEST PUSH0 PUSH20 0xFFFFFFFFFFFFFFFFFFFFFFFFFFFFFFFFFFFFFFFF AND DUP2 PUSH20 0xFFFFFFFFFFFFFFFFFFFFFFFFFFFFFFFFFFFFFFFF AND SUB PUSH2 0x11AE JUMPI PUSH0 PUSH1 0x40 MLOAD PUSH32 0x1E4FBDF700000000000000000000000000000000000000000000000000000000 DUP2 MSTORE PUSH1 0x4 ADD PUSH2 0x11A5 SWAP2 SWAP1 PUSH2 0x175A JUMP JUMPDEST PUSH1 0x40 MLOAD DUP1 SWAP2 SUB SWAP1 REVERT JUMPDEST PUSH2 0x11B7 DUP2 PUSH2 0x12C0 JUMP JUMPDEST POP JUMP JUMPDEST PUSH2 0x1234 DUP4 DUP5 PUSH20 0xFFFFFFFFFFFFFFFFFFFFFFFFFFFFFFFFFFFFFFFF AND PUSH4 0xA9059CBB DUP6 DUP6 PUSH1 0x40 MLOAD PUSH1 0x24 ADD PUSH2 0x11ED SWAP3 SWAP2 SWAP1 PUSH2 0x1AE3 JUMP JUMPDEST PUSH1 0x40 MLOAD PUSH1 0x20 DUP2 DUP4 SUB SUB DUP2 MSTORE SWAP1 PUSH1 0x40 MSTORE SWAP2 POP PUSH1 0xE0 SHL PUSH1 0x20 DUP3 ADD DUP1 MLOAD PUSH28 0xFFFFFFFFFFFFFFFFFFFFFFFFFFFFFFFFFFFFFFFFFFFFFFFFFFFFFFFF DUP4 DUP2 DUP4 AND OR DUP4 MSTORE POP POP POP POP PUSH2 0x1403 JUMP JUMPDEST POP POP POP JUMP JUMPDEST PUSH2 0x1241 PUSH2 0x149E JUMP JUMPDEST PUSH20 0xFFFFFFFFFFFFFFFFFFFFFFFFFFFFFFFFFFFFFFFF AND PUSH2 0x125F PUSH2 0xCB3 JUMP JUMPDEST PUSH20 0xFFFFFFFFFFFFFFFFFFFFFFFFFFFFFFFFFFFFFFFF AND EQ PUSH2 0x12BE JUMPI PUSH2 0x1282 PUSH2 0x149E JUMP JUMPDEST PUSH1 0x40 MLOAD PUSH32 0x118CDAA700000000000000000000000000000000000000000000000000000000 DUP2 MSTORE PUSH1 0x4 ADD PUSH2 0x12B5 SWAP2 SWAP1 PUSH2 0x175A JUMP JUMPDEST PUSH1 0x40 MLOAD DUP1 SWAP2 SUB SWAP1 REVERT JUMPDEST JUMP JUMPDEST PUSH0 PUSH0 PUSH0 SWAP1 SLOAD SWAP1 PUSH2 0x100 EXP SWAP1 DIV PUSH20 0xFFFFFFFFFFFFFFFFFFFFFFFFFFFFFFFFFFFFFFFF AND SWAP1 POP DUP2 PUSH0 PUSH0 PUSH2 0x100 EXP DUP2 SLOAD DUP2 PUSH20 0xFFFFFFFFFFFFFFFFFFFFFFFFFFFFFFFFFFFFFFFF MUL NOT AND SWAP1 DUP4 PUSH20 0xFFFFFFFFFFFFFFFFFFFFFFFFFFFFFFFFFFFFFFFF AND MUL OR SWAP1 SSTORE POP DUP2 PUSH20 0xFFFFFFFFFFFFFFFFFFFFFFFFFFFFFFFFFFFFFFFF AND DUP2 PUSH20 0xFFFFFFFFFFFFFFFFFFFFFFFFFFFFFFFFFFFFFFFF AND PUSH32 0x8BE0079C531659141344CD1FD0A4F28419497F9722A3DAAFE3B4186F6B6457E0 PUSH1 0x40 MLOAD PUSH1 0x40 MLOAD DUP1 SWAP2 SUB SWAP1 LOG3 POP POP JUMP JUMPDEST PUSH2 0x13FD DUP5 DUP6 PUSH20 0xFFFFFFFFFFFFFFFFFFFFFFFFFFFFFFFFFFFFFFFF AND PUSH4 0x23B872DD DUP7 DUP7 DUP7 PUSH1 0x40 MLOAD PUSH1 0x24 ADD PUSH2 0x13B6 SWAP4 SWAP3 SWAP2 SWAP1 PUSH2 0x1B99 JUMP JUMPDEST PUSH1 0x40 MLOAD PUSH1 0x20 DUP2 DUP4 SUB SUB DUP2 MSTORE SWAP1 PUSH1 0x40 MSTORE SWAP2 POP PUSH1 0xE0 SHL PUSH1 0x20 DUP3 ADD DUP1 MLOAD PUSH28 0xFFFFFFFFFFFFFFFFFFFFFFFFFFFFFFFFFFFFFFFFFFFFFFFFFFFFFFFF DUP4 DUP2 DUP4 AND OR DUP4 MSTORE POP POP POP POP PUSH2 0x1403 JUMP JUMPDEST POP POP POP POP JUMP JUMPDEST PUSH0 PUSH0 PUSH1 0x20 PUSH0 DUP5 MLOAD PUSH1 0x20 DUP7 ADD PUSH0 DUP9 GAS CALL DUP1 PUSH2 0x1422 JUMPI PUSH1 0x40 MLOAD RETURNDATASIZE PUSH0 DUP3 RETURNDATACOPY RETURNDATASIZE DUP2 REVERT JUMPDEST RETURNDATASIZE SWAP3 POP PUSH0 MLOAD SWAP2 POP POP PUSH0 DUP3 EQ PUSH2 0x143B JUMPI PUSH1 0x1 DUP2 EQ ISZERO PUSH2 0x1456 JUMP JUMPDEST PUSH0 DUP5 PUSH20 0xFFFFFFFFFFFFFFFFFFFFFFFFFFFFFFFFFFFFFFFF AND EXTCODESIZE EQ JUMPDEST ISZERO PUSH2 0x1498 JUMPI DUP4 PUSH1 0x40 MLOAD PUSH32 0x5274AFE700000000000000000000000000000000000000000000000000000000 DUP2 MSTORE PUSH1 0x4 ADD PUSH2 0x148F SWAP2 SWAP1 PUSH2 0x175A JUMP JUMPDEST PUSH1 0x40 MLOAD DUP1 SWAP2 SUB SWAP1 REVERT JUMPDEST POP POP POP POP JUMP JUMPDEST PUSH0 CALLER SWAP1 POP SWAP1 JUMP JUMPDEST PUSH0 DUP2 SWAP1 POP SWAP2 SWAP1 POP JUMP JUMPDEST PUSH2 0x14B7 DUP2 PUSH2 0x14A5 JUMP JUMPDEST DUP3 MSTORE POP POP JUMP JUMPDEST PUSH0 PUSH1 0x20 DUP3 ADD SWAP1 POP PUSH2 0x14D0 PUSH0 DUP4 ADD DUP5 PUSH2 0x14AE JUMP JUMPDEST SWAP3 SWAP2 POP POP JUMP JUMPDEST PUSH0 PUSH0 REVERT JUMPDEST PUSH2 0x14E3 DUP2 PUSH2 0x14A5 JUMP JUMPDEST DUP2 EQ PUSH2 0x14ED JUMPI PUSH0 PUSH0 REVERT JUMPDEST POP JUMP JUMPDEST PUSH0 DUP2 CALLDATALOAD SWAP1 POP PUSH2 0x14FE DUP2 PUSH2 0x14DA JUMP JUMPDEST SWAP3 SWAP2 POP POP JUMP JUMPDEST PUSH0 PUSH1 0x20 DUP3 DUP5 SUB SLT ISZERO PUSH2 0x1519 JUMPI PUSH2 0x1518 PUSH2 0x14D6 JUMP JUMPDEST JUMPDEST PUSH0 PUSH2 0x1526 DUP5 DUP3 DUP6 ADD PUSH2 0x14F0 JUMP JUMPDEST SWAP2 POP POP SWAP3 SWAP2 POP POP JUMP JUMPDEST PUSH0 PUSH20 0xFFFFFFFFFFFFFFFFFFFFFFFFFFFFFFFFFFFFFFFF DUP3 AND SWAP1 POP SWAP2 SWAP1 POP JUMP JUMPDEST PUSH0 DUP2 SWAP1 POP SWAP2 SWAP1 POP JUMP JUMPDEST PUSH0 PUSH2 0x1571 PUSH2 0x156C PUSH2 0x1567 DUP5 PUSH2 0x152F JUMP JUMPDEST PUSH2 0x154E JUMP JUMPDEST PUSH2 0x152F JUMP JUMPDEST SWAP1 POP SWAP2 SWAP1 POP JUMP JUMPDEST PUSH0 PUSH2 0x1582 DUP3 PUSH2 0x1557 JUMP JUMPDEST SWAP1 POP SWAP2 SWAP1 POP JUMP JUMPDEST PUSH0 PUSH2 0x1593 DUP3 PUSH2 0x1578 JUMP JUMPDEST SWAP1 POP SWAP2 SWAP1 POP JUMP JUMPDEST PUSH2 0x15A3 DUP2 PUSH2 0x1589 JUMP JUMPDEST DUP3 MSTORE POP POP JUMP JUMPDEST PUSH0 PUSH1 0x80 DUP3 ADD SWAP1 POP PUSH2 0x15BC PUSH0 DUP4 ADD DUP8 PUSH2 0x159A JUMP JUMPDEST PUSH2 0x15C9 PUSH1 0x20 DUP4 ADD DUP7 PUSH2 0x14AE JUMP JUMPDEST PUSH2 0x15D6 PUSH1 0x40 DUP4 ADD DUP6 PUSH2 0x14AE JUMP JUMPDEST PUSH2 0x15E3 PUSH1 0x60 DUP4 ADD DUP5 PUSH2 0x14AE JUMP JUMPDEST SWAP6 SWAP5 POP POP POP POP POP JUMP JUMPDEST PUSH0 PUSH0 PUSH1 0x40 DUP4 DUP6 SUB SLT ISZERO PUSH2 0x1602 JUMPI PUSH2 0x1601 PUSH2 0x14D6 JUMP JUMPDEST JUMPDEST PUSH0 PUSH2 0x160F DUP6 DUP3 DUP7 ADD PUSH2 0x14F0 JUMP JUMPDEST SWAP3 POP POP PUSH1 0x20 PUSH2 0x1620 DUP6 DUP3 DUP7 ADD PUSH2 0x14F0 JUMP JUMPDEST SWAP2 POP POP SWAP3 POP SWAP3 SWAP1 POP JUMP JUMPDEST PUSH0 DUP2 ISZERO ISZERO SWAP1 POP SWAP2 SWAP1 POP JUMP JUMPDEST PUSH2 0x163E DUP2 PUSH2 0x162A JUMP JUMPDEST DUP2 EQ PUSH2 0x1648 JUMPI PUSH0 PUSH0 REVERT JUMPDEST POP JUMP JUMPDEST PUSH0 DUP2 CALLDATALOAD SWAP1 POP PUSH2 0x1659 DUP2 PUSH2 0x1635 JUMP JUMPDEST SWAP3 SWAP2 POP POP JUMP JUMPDEST PUSH0 PUSH0 PUSH0 PUSH1 0x60 DUP5 DUP7 SUB SLT ISZERO PUSH2 0x1676 JUMPI PUSH2 0x1675 PUSH2 0x14D6 JUMP JUMPDEST JUMPDEST PUSH0 PUSH2 0x1683 DUP7 DUP3 DUP8 ADD PUSH2 0x14F0 JUMP JUMPDEST SWAP4 POP POP PUSH1 0x20 PUSH2 0x1694 DUP7 DUP3 DUP8 ADD PUSH2 0x14F0 JUMP JUMPDEST SWAP3 POP POP PUSH1 0x40 PUSH2 0x16A5 DUP7 DUP3 DUP8 ADD PUSH2 0x164B JUMP JUMPDEST SWAP2 POP POP SWAP3 POP SWAP3 POP SWAP3 JUMP JUMPDEST PUSH0 PUSH2 0x16B9 DUP3 PUSH2 0x152F JUMP JUMPDEST SWAP1 POP SWAP2 SWAP1 POP JUMP JUMPDEST PUSH0 PUSH2 0x16CA DUP3 PUSH2 0x16AF JUMP JUMPDEST SWAP1 POP SWAP2 SWAP1 POP JUMP JUMPDEST PUSH2 0x16DA DUP2 PUSH2 0x16C0 JUMP JUMPDEST DUP2 EQ PUSH2 0x16E4 JUMPI PUSH0 PUSH0 REVERT JUMPDEST POP JUMP JUMPDEST PUSH0 DUP2 CALLDATALOAD SWAP1 POP PUSH2 0x16F5 DUP2 PUSH2 0x16D1 JUMP JUMPDEST SWAP3 SWAP2 POP POP JUMP JUMPDEST PUSH0 PUSH0 PUSH0 PUSH1 0x60 DUP5 DUP7 SUB SLT ISZERO PUSH2 0x1712 JUMPI PUSH2 0x1711 PUSH2 0x14D6 JUMP JUMPDEST JUMPDEST PUSH0 PUSH2 0x171F DUP7 DUP3 DUP8 ADD PUSH2 0x14F0 JUMP JUMPDEST SWAP4 POP POP PUSH1 0x20 PUSH2 0x1730 DUP7 DUP3 DUP8 ADD PUSH2 0x16E7 JUMP JUMPDEST SWAP3 POP POP PUSH1 0x40 PUSH2 0x1741 DUP7 DUP3 DUP8 ADD PUSH2 0x164B JUMP JUMPDEST SWAP2 POP POP SWAP3 POP SWAP3 POP SWAP3 JUMP JUMPDEST PUSH2 0x1754 DUP2 PUSH2 0x16AF JUMP JUMPDEST DUP3 MSTORE POP POP JUMP JUMPDEST PUSH0 PUSH1 0x20 DUP3 ADD SWAP1 POP PUSH2 0x176D PUSH0 DUP4 ADD DUP5 PUSH2 0x174B JUMP JUMPDEST SWAP3 SWAP2 POP POP JUMP JUMPDEST PUSH2 0x177C DUP2 PUSH2 0x16AF JUMP JUMPDEST DUP2 EQ PUSH2 0x1786 JUMPI PUSH0 PUSH0 REVERT JUMPDEST POP JUMP JUMPDEST PUSH0 DUP2 CALLDATALOAD SWAP1 POP PUSH2 0x1797 DUP2 PUSH2 0x1773 JUMP JUMPDEST SWAP3 SWAP2 POP POP JUMP JUMPDEST PUSH0 PUSH0 PUSH1 0x40 DUP4 DUP6 SUB SLT ISZERO PUSH2 0x17B3 JUMPI PUSH2 0x17B2 PUSH2 0x14D6 JUMP JUMPDEST JUMPDEST PUSH0 PUSH2 0x17C0 DUP6 DUP3 DUP7 ADD PUSH2 0x14F0 JUMP JUMPDEST SWAP3 POP POP PUSH1 0x20 PUSH2 0x17D1 DUP6 DUP3 DUP7 ADD PUSH2 0x1789 JUMP JUMPDEST SWAP2 POP POP SWAP3 POP SWAP3 SWAP1 POP JUMP JUMPDEST PUSH0 PUSH1 0x40 DUP3 ADD SWAP1 POP PUSH2 0x17EE PUSH0 DUP4 ADD DUP6 PUSH2 0x14AE JUMP JUMPDEST PUSH2 0x17FB PUSH1 0x20 DUP4 ADD DUP5 PUSH2 0x14AE JUMP JUMPDEST SWAP4 SWAP3 POP POP POP JUMP JUMPDEST PUSH0 PUSH2 0x180C DUP3 PUSH2 0x1578 JUMP JUMPDEST SWAP1 POP SWAP2 SWAP1 POP JUMP JUMPDEST PUSH2 0x181C DUP2 PUSH2 0x1802 JUMP JUMPDEST DUP3 MSTORE POP POP JUMP JUMPDEST PUSH0 PUSH1 0x20 DUP3 ADD SWAP1 POP PUSH2 0x1835 PUSH0 DUP4 ADD DUP5 PUSH2 0x1813 JUMP JUMPDEST SWAP3 SWAP2 POP POP JUMP JUMPDEST PUSH0 PUSH1 0x20 DUP3 DUP5 SUB SLT ISZERO PUSH2 0x1850 JUMPI PUSH2 0x184F PUSH2 0x14D6 JUMP JUMPDEST JUMPDEST PUSH0 PUSH2 0x185D DUP5 DUP3 DUP6 ADD PUSH2 0x1789 JUMP JUMPDEST SWAP2 POP POP SWAP3 SWAP2 POP POP JUMP JUMPDEST PUSH32 0x4E487B7100000000000000000000000000000000000000000000000000000000 PUSH0 MSTORE PUSH1 0x11 PUSH1 0x4 MSTORE PUSH1 0x24 PUSH0 REVERT JUMPDEST PUSH0 PUSH2 0x189D DUP3 PUSH2 0x14A5 JUMP JUMPDEST SWAP2 POP PUSH2 0x18A8 DUP4 PUSH2 0x14A5 JUMP JUMPDEST SWAP3 POP DUP3 DUP3 ADD SWAP1 POP DUP1 DUP3 GT ISZERO PUSH2 0x18C0 JUMPI PUSH2 0x18BF PUSH2 0x1866 JUMP JUMPDEST JUMPDEST SWAP3 SWAP2 POP POP JUMP JUMPDEST PUSH0 DUP3 DUP3 MSTORE PUSH1 0x20 DUP3 ADD SWAP1 POP SWAP3 SWAP2 POP POP JUMP JUMPDEST PUSH32 0x546F6F206561726C790000000000000000000000000000000000000000000000 PUSH0 DUP3 ADD MSTORE POP JUMP JUMPDEST PUSH0 PUSH2 0x190A PUSH1 0x9 DUP4 PUSH2 0x18C6 JUMP JUMPDEST SWAP2 POP PUSH2 0x1915 DUP3 PUSH2 0x18D6 JUMP JUMPDEST PUSH1 0x20 DUP3 ADD SWAP1 POP SWAP2 SWAP1 POP JUMP JUMPDEST PUSH0 PUSH1 0x20 DUP3 ADD SWAP1 POP DUP2 DUP2 SUB PUSH0 DUP4 ADD MSTORE PUSH2 0x1937 DUP2 PUSH2 0x18FE JUMP JUMPDEST SWAP1 POP SWAP2 SWAP1 POP JUMP JUMPDEST PUSH32 0x4E487B7100000000000000000000000000000000000000000000000000000000 PUSH0 MSTORE PUSH1 0x32 PUSH1 0x4 MSTORE PUSH1 0x24 PUSH0 REVERT JUMPDEST PUSH32 0x77697468647261773A206E6F7420676F6F640000000000000000000000000000 PUSH0 DUP3 ADD MSTORE POP JUMP JUMPDEST PUSH0 PUSH2 0x199F PUSH1 0x12 DUP4 PUSH2 0x18C6 JUMP JUMPDEST SWAP2 POP PUSH2 0x19AA DUP3 PUSH2 0x196B JUMP JUMPDEST PUSH1 0x20 DUP3 ADD SWAP1 POP SWAP2 SWAP1 POP JUMP JUMPDEST PUSH0 PUSH1 0x20 DUP3 ADD SWAP1 POP DUP2 DUP2 SUB PUSH0 DUP4 ADD MSTORE PUSH2 0x19CC DUP2 PUSH2 0x1993 JUMP JUMPDEST SWAP1 POP SWAP2 SWAP1 POP JUMP JUMPDEST PUSH0 PUSH2 0x19DD DUP3 PUSH2 0x14A5 JUMP JUMPDEST SWAP2 POP PUSH2 0x19E8 DUP4 PUSH2 0x14A5 JUMP JUMPDEST SWAP3 POP DUP3 DUP3 MUL PUSH2 0x19F6 DUP2 PUSH2 0x14A5 JUMP JUMPDEST SWAP2 POP DUP3 DUP3 DIV DUP5 EQ DUP4 ISZERO OR PUSH2 0x1A0D JUMPI PUSH2 0x1A0C PUSH2 0x1866 JUMP JUMPDEST JUMPDEST POP SWAP3 SWAP2 POP POP JUMP JUMPDEST PUSH32 0x4E487B7100000000000000000000000000000000000000000000000000000000 PUSH0 MSTORE PUSH1 0x12 PUSH1 0x4 MSTORE PUSH1 0x24 PUSH0 REVERT JUMPDEST PUSH0 PUSH2 0x1A4B DUP3 PUSH2 0x14A5 JUMP JUMPDEST SWAP2 POP PUSH2 0x1A56 DUP4 PUSH2 0x14A5 JUMP JUMPDEST SWAP3 POP DUP3 PUSH2 0x1A66 JUMPI PUSH2 0x1A65 PUSH2 0x1A14 JUMP JUMPDEST JUMPDEST DUP3 DUP3 DIV SWAP1 POP SWAP3 SWAP2 POP POP JUMP JUMPDEST PUSH0 PUSH2 0x1A7B DUP3 PUSH2 0x14A5 JUMP JUMPDEST SWAP2 POP PUSH2 0x1A86 DUP4 PUSH2 0x14A5 JUMP JUMPDEST SWAP3 POP DUP3 DUP3 SUB SWAP1 POP DUP2 DUP2 GT ISZERO PUSH2 0x1A9E JUMPI PUSH2 0x1A9D PUSH2 0x1866 JUMP JUMPDEST JUMPDEST SWAP3 SWAP2 POP POP JUMP JUMPDEST PUSH0 DUP2 MLOAD SWAP1 POP PUSH2 0x1AB2 DUP2 PUSH2 0x14DA JUMP JUMPDEST SWAP3 SWAP2 POP POP JUMP JUMPDEST PUSH0 PUSH1 0x20 DUP3 DUP5 SUB SLT ISZERO PUSH2 0x1ACD JUMPI PUSH2 0x1ACC PUSH2 0x14D6 JUMP JUMPDEST JUMPDEST PUSH0 PUSH2 0x1ADA DUP5 DUP3 DUP6 ADD PUSH2 0x1AA4 JUMP JUMPDEST SWAP2 POP POP SWAP3 SWAP2 POP POP JUMP JUMPDEST PUSH0 PUSH1 0x40 DUP3 ADD SWAP1 POP PUSH2 0x1AF6 PUSH0 DUP4 ADD DUP6 PUSH2 0x174B JUMP JUMPDEST PUSH2 0x1B03 PUSH1 0x20 DUP4 ADD DUP5 PUSH2 0x14AE JUMP JUMPDEST SWAP4 SWAP3 POP POP POP JUMP JUMPDEST PUSH0 PUSH1 0x40 DUP3 ADD SWAP1 POP PUSH2 0x1B1D PUSH0 DUP4 ADD DUP6 PUSH2 0x174B JUMP JUMPDEST PUSH2 0x1B2A PUSH1 0x20 DUP4 ADD DUP5 PUSH2 0x174B JUMP JUMPDEST SWAP4 SWAP3 POP POP POP JUMP JUMPDEST PUSH32 0x416C6C6F77616E6365206E6F74206869676820656E6F75676800000000000000 PUSH0 DUP3 ADD MSTORE POP JUMP JUMPDEST PUSH0 PUSH2 0x1B65 PUSH1 0x19 DUP4 PUSH2 0x18C6 JUMP JUMPDEST SWAP2 POP PUSH2 0x1B70 DUP3 PUSH2 0x1B31 JUMP JUMPDEST PUSH1 0x20 DUP3 ADD SWAP1 POP SWAP2 SWAP1 POP JUMP JUMPDEST PUSH0 PUSH1 0x20 DUP3 ADD SWAP1 POP DUP2 DUP2 SUB PUSH0 DUP4 ADD MSTORE PUSH2 0x1B92 DUP2 PUSH2 0x1B59 JUMP JUMPDEST SWAP1 POP SWAP2 SWAP1 POP JUMP JUMPDEST PUSH0 PUSH1 0x60 DUP3 ADD SWAP1 POP PUSH2 0x1BAC PUSH0 DUP4 ADD DUP7 PUSH2 0x174B JUMP JUMPDEST PUSH2 0x1BB9 PUSH1 0x20 DUP4 ADD DUP6 PUSH2 0x174B JUMP JUMPDEST PUSH2 0x1BC6 PUSH1 0x40 DUP4 ADD DUP5 PUSH2 0x14AE JUMP JUMPDEST SWAP5 SWAP4 POP POP POP POP JUMP INVALID LOG2 PUSH5 0x6970667358 0x22 SLT KECCAK256 0x22 0x27 LOG3 PUSH20 0xFC540A7B682224CA800FC24DD6ADE251FBE8B159 0xCE ORIGIN 0xD7 PUSH17 0x3633A74F64736F6C634300081C00330000 "
				},
				"gasEstimates": {
					"creation": {
						"codeDepositCost": "1434400",
						"executionCost": "infinite",
						"totalCost": "infinite"
					},
					"external": {
						"BONUS_MULTIPLIER()": "436",
						"GRAND_CAP()": "369",
						"Grand()": "infinite",
						"GrandPerBlock()": "2537",
						"addPool(uint256,address,bool)": "infinite",
						"bonusEndBlock()": "2515",
						"collector()": "2575",
						"deposit(uint256,uint256)": "infinite",
						"emergencyWithdraw(uint256)": "infinite",
						"getMultiplier(uint256,uint256)": "infinite",
						"grandMinted()": "2514",
						"massUpdatePools()": "infinite",
						"owner()": "2647",
						"poolInfo(uint256)": "infinite",
						"poolLength()": "2464",
						"renounceOwnership()": "infinite",
						"setPool(uint256,uint256,bool)": "infinite",
						"startBlock()": "2470",
						"startTime()": "2470",
						"totalAllocPoint()": "2493",
						"totalBoxes()": "2536",
						"transferOwnership(address)": "infinite",
						"updatePool(uint256)": "infinite",
						"userInfo(uint256,address)": "infinite",
						"withdraw(uint256,uint256)": "infinite"
					}
				},
				"methodIdentifiers": {
					"BONUS_MULTIPLIER()": "8aa28550",
					"GRAND_CAP()": "b9926557",
					"Grand()": "d129459b",
					"GrandPerBlock()": "212f14cc",
					"addPool(uint256,address,bool)": "7abceffd",
					"bonusEndBlock()": "1aed6553",
					"collector()": "913e77ad",
					"deposit(uint256,uint256)": "e2bbb158",
					"emergencyWithdraw(uint256)": "5312ea8e",
					"getMultiplier(uint256,uint256)": "8dbb1e3a",
					"grandMinted()": "83e27185",
					"massUpdatePools()": "630b5ba1",
					"owner()": "8da5cb5b",
					"poolInfo(uint256)": "1526fe27",
					"poolLength()": "081e3eda",
					"renounceOwnership()": "715018a6",
					"setPool(uint256,uint256,bool)": "46ca6bea",
					"startBlock()": "48cd4cb1",
					"startTime()": "78e97925",
					"totalAllocPoint()": "17caf6f1",
					"totalBoxes()": "57e78adc",
					"transferOwnership(address)": "f2fde38b",
					"updatePool(uint256)": "51eb05a6",
					"userInfo(uint256,address)": "93f1a40b",
					"withdraw(uint256,uint256)": "441a3e70"
				}
			},
			"storageLayout": {
				"storage": [
					{
						"astId": 8,
						"contract": "MasterGrand.sol:MasterGrand",
						"label": "_owner",
						"offset": 0,
						"slot": "0",
						"type": "t_address"
					},
					{
						"astId": 1770,
						"contract": "MasterGrand.sol:MasterGrand",
						"label": "Grand",
						"offset": 0,
						"slot": "1",
						"type": "t_contract(GrandToken)1742"
					},
					{
						"astId": 1772,
						"contract": "MasterGrand.sol:MasterGrand",
						"label": "collector",
						"offset": 0,
						"slot": "2",
						"type": "t_address"
					},
					{
						"astId": 1774,
						"contract": "MasterGrand.sol:MasterGrand",
						"label": "bonusEndBlock",
						"offset": 0,
						"slot": "3",
						"type": "t_uint256"
					},
					{
						"astId": 1776,
						"contract": "MasterGrand.sol:MasterGrand",
						"label": "GrandPerBlock",
						"offset": 0,
						"slot": "4",
						"type": "t_uint256"
					},
					{
						"astId": 1784,
						"contract": "MasterGrand.sol:MasterGrand",
						"label": "grandMinted",
						"offset": 0,
						"slot": "5",
						"type": "t_uint256"
					},
					{
						"astId": 1787,
						"contract": "MasterGrand.sol:MasterGrand",
						"label": "totalBoxes",
						"offset": 0,
						"slot": "6",
						"type": "t_uint256"
					},
					{
						"astId": 1791,
						"contract": "MasterGrand.sol:MasterGrand",
						"label": "poolInfo",
						"offset": 0,
						"slot": "7",
						"type": "t_array(t_struct(PoolInfo)1767_storage)dyn_storage"
					},
					{
						"astId": 1798,
						"contract": "MasterGrand.sol:MasterGrand",
						"label": "userInfo",
						"offset": 0,
						"slot": "8",
						"type": "t_mapping(t_uint256,t_mapping(t_address,t_struct(UserInfo)1757_storage))"
					},
					{
						"astId": 1801,
						"contract": "MasterGrand.sol:MasterGrand",
						"label": "totalAllocPoint",
						"offset": 0,
						"slot": "9",
						"type": "t_uint256"
					},
					{
						"astId": 1803,
						"contract": "MasterGrand.sol:MasterGrand",
						"label": "startBlock",
						"offset": 0,
						"slot": "10",
						"type": "t_uint256"
					},
					{
						"astId": 1805,
						"contract": "MasterGrand.sol:MasterGrand",
						"label": "startTime",
						"offset": 0,
						"slot": "11",
						"type": "t_uint256"
					}
				],
				"types": {
					"t_address": {
						"encoding": "inplace",
						"label": "address",
						"numberOfBytes": "20"
					},
					"t_array(t_struct(PoolInfo)1767_storage)dyn_storage": {
						"base": "t_struct(PoolInfo)1767_storage",
						"encoding": "dynamic_array",
						"label": "struct MasterGrand.PoolInfo[]",
						"numberOfBytes": "32"
					},
					"t_contract(GrandToken)1742": {
						"encoding": "inplace",
						"label": "contract GrandToken",
						"numberOfBytes": "20"
					},
					"t_contract(IERC20)967": {
						"encoding": "inplace",
						"label": "contract IERC20",
						"numberOfBytes": "20"
					},
					"t_mapping(t_address,t_struct(UserInfo)1757_storage)": {
						"encoding": "mapping",
						"key": "t_address",
						"label": "mapping(address => struct MasterGrand.UserInfo)",
						"numberOfBytes": "32",
						"value": "t_struct(UserInfo)1757_storage"
					},
					"t_mapping(t_uint256,t_mapping(t_address,t_struct(UserInfo)1757_storage))": {
						"encoding": "mapping",
						"key": "t_uint256",
						"label": "mapping(uint256 => mapping(address => struct MasterGrand.UserInfo))",
						"numberOfBytes": "32",
						"value": "t_mapping(t_address,t_struct(UserInfo)1757_storage)"
					},
					"t_struct(PoolInfo)1767_storage": {
						"encoding": "inplace",
						"label": "struct MasterGrand.PoolInfo",
						"members": [
							{
								"astId": 1760,
								"contract": "MasterGrand.sol:MasterGrand",
								"label": "lpToken",
								"offset": 0,
								"slot": "0",
								"type": "t_contract(IERC20)967"
							},
							{
								"astId": 1762,
								"contract": "MasterGrand.sol:MasterGrand",
								"label": "allocPoint",
								"offset": 0,
								"slot": "1",
								"type": "t_uint256"
							},
							{
								"astId": 1764,
								"contract": "MasterGrand.sol:MasterGrand",
								"label": "lastRewardBlock",
								"offset": 0,
								"slot": "2",
								"type": "t_uint256"
							},
							{
								"astId": 1766,
								"contract": "MasterGrand.sol:MasterGrand",
								"label": "accGrandPerShare",
								"offset": 0,
								"slot": "3",
								"type": "t_uint256"
							}
						],
						"numberOfBytes": "128"
					},
					"t_struct(UserInfo)1757_storage": {
						"encoding": "inplace",
						"label": "struct MasterGrand.UserInfo",
						"members": [
							{
								"astId": 1754,
								"contract": "MasterGrand.sol:MasterGrand",
								"label": "amount",
								"offset": 0,
								"slot": "0",
								"type": "t_uint256"
							},
							{
								"astId": 1756,
								"contract": "MasterGrand.sol:MasterGrand",
								"label": "rewardDebt",
								"offset": 0,
								"slot": "1",
								"type": "t_uint256"
							}
						],
						"numberOfBytes": "64"
					},
					"t_uint256": {
						"encoding": "inplace",
						"label": "uint256",
						"numberOfBytes": "32"
					}
				}
			},
			"userdoc": {
				"kind": "user",
				"methods": {},
				"version": 1
			}
		}
	}
}