{
	"data": {
		"bytecode": {
			"linkReferences": {},
			"object": "60806040525f6006555f600955348015610017575f5ffd5b50604051611f0a380380611f0a83398181016040528101906100399190610281565b335f73ffffffffffffffffffffffffffffffffffffffff168173ffffffffffffffffffffffffffffffffffffffff16036100aa575f6040517f1e4fbdf70000000000000000000000000000000000000000000000000000000081526004016100a191906102e0565b60405180910390fd5b6100b98161011e60201b60201c565b508260015f6101000a81548173ffffffffffffffffffffffffffffffffffffffff021916908373ffffffffffffffffffffffffffffffffffffffff160217905550816004819055508060038190555043600a8190555042600b819055505050506102f9565b5f5f5f9054906101000a900473ffffffffffffffffffffffffffffffffffffffff169050815f5f6101000a81548173ffffffffffffffffffffffffffffffffffffffff021916908373ffffffffffffffffffffffffffffffffffffffff1602179055508173ffffffffffffffffffffffffffffffffffffffff168173ffffffffffffffffffffffffffffffffffffffff167f8be0079c531659141344cd1fd0a4f28419497f9722a3daafe3b4186f6b6457e060405160405180910390a35050565b5f5ffd5b5f73ffffffffffffffffffffffffffffffffffffffff82169050919050565b5f61020c826101e3565b9050919050565b5f61021d82610202565b9050919050565b61022d81610213565b8114610237575f5ffd5b50565b5f8151905061024881610224565b92915050565b5f819050919050565b6102608161024e565b811461026a575f5ffd5b50565b5f8151905061027b81610257565b92915050565b5f5f5f60608486031215610298576102976101df565b5b5f6102a58682870161023a565b93505060206102b68682870161026d565b92505060406102c78682870161026d565b9150509250925092565b6102da81610202565b82525050565b5f6020820190506102f35f8301846102d1565b92915050565b611c04806103065f395ff3fe608060405234801561000f575f5ffd5b5060043610610171575f3560e01c8063715018a6116100dc5780638dbb1e3a11610095578063b99265571161006f578063b9926557146103f3578063d129459b14610411578063e2bbb1581461042f578063f2fde38b1461044b57610171565b80638dbb1e3a14610374578063913e77ad146103a457806393f1a40b146103c257610171565b8063715018a6146102d657806378e97925146102e05780637abceffd146102fe57806383e271851461031a5780638aa28550146103385780638da5cb5b1461035657610171565b806346ca6bea1161012e57806346ca6bea1461023c57806348cd4cb11461025857806351eb05a6146102765780635312ea8e1461029257806357e78adc146102ae578063630b5ba1146102cc57610171565b8063081e3eda146101755780631526fe271461019357806317caf6f1146101c65780631aed6553146101e4578063212f14cc14610202578063441a3e7014610220575b5f5ffd5b61017d610467565b60405161018a91906114bd565b60405180910390f35b6101ad60048036038101906101a89190611504565b610473565b6040516101bd94939291906115a9565b60405180910390f35b6101ce6104cd565b6040516101db91906114bd565b60405180910390f35b6101ec6104d3565b6040516101f991906114bd565b60405180910390f35b61020a6104d9565b60405161021791906114bd565b60405180910390f35b61023a600480360381019061023591906115ec565b6104df565b005b6102566004803603810190610251919061165f565b610790565b005b610260610816565b60405161026d91906114bd565b60405180910390f35b610290600480360381019061028b9190611504565b61081c565b005b6102ac60048036038101906102a79190611504565b610a33565b005b6102b6610b68565b6040516102c391906114bd565b60405180910390f35b6102d4610b6e565b005b6102de610b9c565b005b6102e8610baf565b6040516102f591906114bd565b60405180910390f35b610318600480360381019061031391906116fb565b610bb5565b005b610322610ca8565b60405161032f91906114bd565b60405180910390f35b610340610cae565b60405161034d91906114bd565b60405180910390f35b61035e610cb3565b60405161036b919061175a565b60405180910390f35b61038e600480360381019061038991906115ec565b610cda565b60405161039b91906114bd565b60405180910390f35b6103ac610d5a565b6040516103b9919061175a565b60405180910390f35b6103dc60048036038101906103d7919061179d565b610d7f565b6040516103ea9291906117db565b60405180910390f35b6103fb610daa565b60405161040891906114bd565b60405180910390f35b610419610db9565b6040516104269190611822565b60405180910390f35b610449600480360381019061044491906115ec565b610dde565b005b6104656004803603810190610460919061183b565b611136565b005b5f600780549050905090565b60078181548110610482575f80fd5b905f5260205f2090600402015f91509050805f015f9054906101000a900473ffffffffffffffffffffffffffffffffffffffff16908060010154908060020154908060030154905084565b60095481565b60035481565b60045481565b6234bc00600b546104f09190611893565b4211610531576040517f08c379a000000000000000000000000000000000000000000000000000000000815260040161052890611920565b60405180910390fd5b5f600783815481106105465761054561193e565b5b905f5260205f20906004020190505f60085f8581526020019081526020015f205f3373ffffffffffffffffffffffffffffffffffffffff1673ffffffffffffffffffffffffffffffffffffffff1681526020019081526020015f20905082815f015410156105e9576040517f08c379a00000000000000000000000000000000000000000000000000000000081526004016105e0906119b5565b60405180910390fd5b6105f28461081c565b5f816001015464e8d4a510008460030154845f015461061191906119d3565b61061b9190611a41565b6106259190611a71565b905083825f01546106369190611a71565b825f018190555064e8d4a510008360030154835f015461065691906119d3565b6106609190611a41565b82600101819055506106b4338260015f9054906101000a900473ffffffffffffffffffffffffffffffffffffffff1673ffffffffffffffffffffffffffffffffffffffff166111ba9092919063ffffffff16565b6107013385855f015f9054906101000a900473ffffffffffffffffffffffffffffffffffffffff1673ffffffffffffffffffffffffffffffffffffffff166111ba9092919063ffffffff16565b84835f015f9054906101000a900473ffffffffffffffffffffffffffffffffffffffff1673ffffffffffffffffffffffffffffffffffffffff163373ffffffffffffffffffffffffffffffffffffffff167ff341246adaac6f497bc2a656f546ab9e182111d630394f0c57c710a59a2cb5678760405161078191906114bd565b60405180910390a45050505050565b610798611239565b80156107a7576107a6610b6e565b5b81600784815481106107bc576107bb61193e565b5b905f5260205f209060040201600101546009546107d99190611a71565b6107e39190611893565b60098190555081600784815481106107fe576107fd61193e565b5b905f5260205f20906004020160010181905550505050565b600a5481565b5f600782815481106108315761083061193e565b5b905f5260205f2090600402019050806002015443116108505750610a30565b5f815f015f9054906101000a900473ffffffffffffffffffffffffffffffffffffffff1673ffffffffffffffffffffffffffffffffffffffff166370a08231306040518263ffffffff1660e01b81526004016108ac919061175a565b602060405180830381865afa1580156108c7573d5f5f3e3d5ffd5b505050506040513d601f19601f820116820180604052508101906108eb9190611ab8565b90505f8103610904574382600201819055505050610a30565b5f600954836001015460045461091e866002015443610cda565b61092891906119d3565b61093291906119d3565b61093c9190611a41565b90508164e8d4a510008261095091906119d3565b61095a9190611a41565b83600301546109699190611893565b83600301819055504383600201819055506a037a172815e4355715555560055411610a2c578060055461099c9190611893565b60058190555060015f9054906101000a900473ffffffffffffffffffffffffffffffffffffffff1673ffffffffffffffffffffffffffffffffffffffff166340c10f1930836040518363ffffffff1660e01b81526004016109fe929190611ae3565b5f604051808303815f87803b158015610a15575f5ffd5b505af1158015610a27573d5f5f3e3d5ffd5b505050505b5050505b50565b5f60078281548110610a4857610a4761193e565b5b905f5260205f20906004020190505f60085f8481526020019081526020015f205f3373ffffffffffffffffffffffffffffffffffffffff1673ffffffffffffffffffffffffffffffffffffffff1681526020019081526020015f2090505f815f015490505f826001015490505f835f01819055505f8360010181905550610b123383865f015f9054906101000a900473ffffffffffffffffffffffffffffffffffffffff1673ffffffffffffffffffffffffffffffffffffffff166111ba9092919063ffffffff16565b843373ffffffffffffffffffffffffffffffffffffffff167fbb757047c2b5f3974fe26b7c10f732e7bce710b0952a71082702781e62ae059583604051610b5991906114bd565b60405180910390a35050505050565b60065481565b5f60078054905090505f5f90505b81811015610b9857610b8d8161081c565b806001019050610b7c565b5050565b610ba4611239565b610bad5f6112c0565b565b600b5481565b610bbd611239565b8015610bcc57610bcb610b6e565b5b82600954610bda9190611893565b600981905550600760405180608001604052808473ffffffffffffffffffffffffffffffffffffffff1681526020018581526020014381526020015f815250908060018154018082558091505060019003905f5260205f2090600402015f909190919091505f820151815f015f6101000a81548173ffffffffffffffffffffffffffffffffffffffff021916908373ffffffffffffffffffffffffffffffffffffffff1602179055506020820151816001015560408201518160020155606082015181600301555050505050565b60055481565b600381565b5f5f5f9054906101000a900473ffffffffffffffffffffffffffffffffffffffff16905090565b5f6003548211610d035760038383610cf29190611a71565b610cfc91906119d3565b9050610d54565b6003548310610d1f578282610d189190611a71565b9050610d54565b60035482610d2d9190611a71565b600384600354610d3d9190611a71565b610d4791906119d3565b610d519190611893565b90505b92915050565b60025f9054906101000a900473ffffffffffffffffffffffffffffffffffffffff1681565b6008602052815f5260405f20602052805f5260405f205f9150915050805f0154908060010154905082565b6a037a172815e4355715555581565b60015f9054906101000a900473ffffffffffffffffffffffffffffffffffffffff1681565b5f60078381548110610df357610df261193e565b5b905f5260205f20906004020190505f60085f8581526020019081526020015f205f3373ffffffffffffffffffffffffffffffffffffffff1673ffffffffffffffffffffffffffffffffffffffff1681526020019081526020015f209050815f015f9054906101000a900473ffffffffffffffffffffffffffffffffffffffff1673ffffffffffffffffffffffffffffffffffffffff1663dd62ed3e33306040518363ffffffff1660e01b8152600401610ead929190611b0a565b602060405180830381865afa158015610ec8573d5f5f3e3d5ffd5b505050506040513d601f19601f82011682018060405250810190610eec9190611ab8565b831115610f2e576040517f08c379a0000000000000000000000000000000000000000000000000000000008152600401610f2590611b7b565b60405180910390fd5b610f7d333085855f015f9054906101000a900473ffffffffffffffffffffffffffffffffffffffff1673ffffffffffffffffffffffffffffffffffffffff16611381909392919063ffffffff16565b610f868461081c565b5f816001015464e8d4a510008460030154845f0154610fa591906119d3565b610faf9190611a41565b610fb99190611a71565b905083825f0154610fca9190611893565b825f01819055506234bc00600b54610fe29190611893565b42118015610fef57505f81115b156110705764e8d4a510008360030154835f015461100d91906119d3565b6110179190611a41565b826001018190555061106b338260015f9054906101000a900473ffffffffffffffffffffffffffffffffffffffff1673ffffffffffffffffffffffffffffffffffffffff166111ba9092919063ffffffff16565b6110a7565b8064e8d4a510008460030154845f015461108a91906119d3565b6110949190611a41565b61109e9190611a71565b82600101819055505b84835f015f9054906101000a900473ffffffffffffffffffffffffffffffffffffffff1673ffffffffffffffffffffffffffffffffffffffff163373ffffffffffffffffffffffffffffffffffffffff167fdcbc1c05240f31ff3ad067ef1ee35ce4997762752e3a095284754544f4c709d78760405161112791906114bd565b60405180910390a45050505050565b61113e611239565b5f73ffffffffffffffffffffffffffffffffffffffff168173ffffffffffffffffffffffffffffffffffffffff16036111ae575f6040517f1e4fbdf70000000000000000000000000000000000000000000000000000000081526004016111a5919061175a565b60405180910390fd5b6111b7816112c0565b50565b611234838473ffffffffffffffffffffffffffffffffffffffff1663a9059cbb85856040516024016111ed929190611ae3565b604051602081830303815290604052915060e01b6020820180517bffffffffffffffffffffffffffffffffffffffffffffffffffffffff8381831617835250505050611403565b505050565b61124161149e565b73ffffffffffffffffffffffffffffffffffffffff1661125f610cb3565b73ffffffffffffffffffffffffffffffffffffffff16146112be5761128261149e565b6040517f118cdaa70000000000000000000000000000000000000000000000000000000081526004016112b5919061175a565b60405180910390fd5b565b5f5f5f9054906101000a900473ffffffffffffffffffffffffffffffffffffffff169050815f5f6101000a81548173ffffffffffffffffffffffffffffffffffffffff021916908373ffffffffffffffffffffffffffffffffffffffff1602179055508173ffffffffffffffffffffffffffffffffffffffff168173ffffffffffffffffffffffffffffffffffffffff167f8be0079c531659141344cd1fd0a4f28419497f9722a3daafe3b4186f6b6457e060405160405180910390a35050565b6113fd848573ffffffffffffffffffffffffffffffffffffffff166323b872dd8686866040516024016113b693929190611b99565b604051602081830303815290604052915060e01b6020820180517bffffffffffffffffffffffffffffffffffffffffffffffffffffffff8381831617835250505050611403565b50505050565b5f5f60205f8451602086015f885af180611422576040513d5f823e3d81fd5b3d92505f519150505f821461143b576001811415611456565b5f8473ffffffffffffffffffffffffffffffffffffffff163b145b1561149857836040517f5274afe700000000000000000000000000000000000000000000000000000000815260040161148f919061175a565b60405180910390fd5b50505050565b5f33905090565b5f819050919050565b6114b7816114a5565b82525050565b5f6020820190506114d05f8301846114ae565b92915050565b5f5ffd5b6114e3816114a5565b81146114ed575f5ffd5b50565b5f813590506114fe816114da565b92915050565b5f60208284031215611519576115186114d6565b5b5f611526848285016114f0565b91505092915050565b5f73ffffffffffffffffffffffffffffffffffffffff82169050919050565b5f819050919050565b5f61157161156c6115678461152f565b61154e565b61152f565b9050919050565b5f61158282611557565b9050919050565b5f61159382611578565b9050919050565b6115a381611589565b82525050565b5f6080820190506115bc5f83018761159a565b6115c960208301866114ae565b6115d660408301856114ae565b6115e360608301846114ae565b95945050505050565b5f5f60408385031215611602576116016114d6565b5b5f61160f858286016114f0565b9250506020611620858286016114f0565b9150509250929050565b5f8115159050919050565b61163e8161162a565b8114611648575f5ffd5b50565b5f8135905061165981611635565b92915050565b5f5f5f60608486031215611676576116756114d6565b5b5f611683868287016114f0565b9350506020611694868287016114f0565b92505060406116a58682870161164b565b9150509250925092565b5f6116b98261152f565b9050919050565b5f6116ca826116af565b9050919050565b6116da816116c0565b81146116e4575f5ffd5b50565b5f813590506116f5816116d1565b92915050565b5f5f5f60608486031215611712576117116114d6565b5b5f61171f868287016114f0565b9350506020611730868287016116e7565b92505060406117418682870161164b565b9150509250925092565b611754816116af565b82525050565b5f60208201905061176d5f83018461174b565b92915050565b61177c816116af565b8114611786575f5ffd5b50565b5f8135905061179781611773565b92915050565b5f5f604083850312156117b3576117b26114d6565b5b5f6117c0858286016114f0565b92505060206117d185828601611789565b9150509250929050565b5f6040820190506117ee5f8301856114ae565b6117fb60208301846114ae565b9392505050565b5f61180c82611578565b9050919050565b61181c81611802565b82525050565b5f6020820190506118355f830184611813565b92915050565b5f602082840312156118505761184f6114d6565b5b5f61185d84828501611789565b91505092915050565b7f4e487b71000000000000000000000000000000000000000000000000000000005f52601160045260245ffd5b5f61189d826114a5565b91506118a8836114a5565b92508282019050808211156118c0576118bf611866565b5b92915050565b5f82825260208201905092915050565b7f546f6f206561726c7900000000000000000000000000000000000000000000005f82015250565b5f61190a6009836118c6565b9150611915826118d6565b602082019050919050565b5f6020820190508181035f830152611937816118fe565b9050919050565b7f4e487b71000000000000000000000000000000000000000000000000000000005f52603260045260245ffd5b7f77697468647261773a206e6f7420676f6f6400000000000000000000000000005f82015250565b5f61199f6012836118c6565b91506119aa8261196b565b602082019050919050565b5f6020820190508181035f8301526119cc81611993565b9050919050565b5f6119dd826114a5565b91506119e8836114a5565b92508282026119f6816114a5565b91508282048414831517611a0d57611a0c611866565b5b5092915050565b7f4e487b71000000000000000000000000000000000000000000000000000000005f52601260045260245ffd5b5f611a4b826114a5565b9150611a56836114a5565b925082611a6657611a65611a14565b5b828204905092915050565b5f611a7b826114a5565b9150611a86836114a5565b9250828203905081811115611a9e57611a9d611866565b5b92915050565b5f81519050611ab2816114da565b92915050565b5f60208284031215611acd57611acc6114d6565b5b5f611ada84828501611aa4565b91505092915050565b5f604082019050611af65f83018561174b565b611b0360208301846114ae565b9392505050565b5f604082019050611b1d5f83018561174b565b611b2a602083018461174b565b9392505050565b7f416c6c6f77616e6365206e6f74206869676820656e6f756768000000000000005f82015250565b5f611b656019836118c6565b9150611b7082611b31565b602082019050919050565b5f6020820190508181035f830152611b9281611b59565b9050919050565b5f606082019050611bac5f83018661174b565b611bb9602083018561174b565b611bc660408301846114ae565b94935050505056fea26469706673582212202227a373fc540a7b682224ca800fc24dd6ade251fbe8b159ce32d7703633a74f64736f6c634300081c0033",
			"opcodes": "PUSH1 0x80 PUSH1 0x40 MSTORE PUSH0 PUSH1 0x6 SSTORE PUSH0 PUSH1 0x9 SSTORE CALLVALUE DUP1 ISZERO PUSH2 0x17 JUMPI PUSH0 PUSH0 REVERT JUMPDEST POP PUSH1 0x40 MLOAD PUSH2 0x1F0A CODESIZE SUB DUP1 PUSH2 0x1F0A DUP4 CODECOPY DUP2 DUP2 ADD PUSH1 0x40 MSTORE DUP2 ADD SWAP1 PUSH2 0x39 SWAP2 SWAP1 PUSH2 0x281 JUMP JUMPDEST CALLER PUSH0 PUSH20 0xFFFFFFFFFFFFFFFFFFFFFFFFFFFFFFFFFFFFFFFF AND DUP2 PUSH20 0xFFFFFFFFFFFFFFFFFFFFFFFFFFFFFFFFFFFFFFFF AND SUB PUSH2 0xAA JUMPI PUSH0 PUSH1 0x40 MLOAD PUSH32 0x1E4FBDF700000000000000000000000000000000000000000000000000000000 DUP2 MSTORE PUSH1 0x4 ADD PUSH2 0xA1 SWAP2 SWAP1 PUSH2 0x2E0 JUMP JUMPDEST PUSH1 0x40 MLOAD DUP1 SWAP2 SUB SWAP1 REVERT JUMPDEST PUSH2 0xB9 DUP2 PUSH2 0x11E PUSH1 0x20 SHL PUSH1 0x20 SHR JUMP JUMPDEST POP DUP3 PUSH1 0x1 PUSH0 PUSH2 0x100 EXP DUP2 SLOAD DUP2 PUSH20 0xFFFFFFFFFFFFFFFFFFFFFFFFFFFFFFFFFFFFFFFF MUL NOT AND SWAP1 DUP4 PUSH20 0xFFFFFFFFFFFFFFFFFFFFFFFFFFFFFFFFFFFFFFFF AND MUL OR SWAP1 SSTORE POP DUP2 PUSH1 0x4 DUP2 SWAP1 SSTORE POP DUP1 PUSH1 0x3 DUP2 SWAP1 SSTORE POP NUMBER PUSH1 0xA DUP2 SWAP1 SSTORE POP TIMESTAMP PUSH1 0xB DUP2 SWAP1 SSTORE POP POP POP POP PUSH2 0x2F9 JUMP JUMPDEST PUSH0 PUSH0 PUSH0 SWAP1 SLOAD SWAP1 PUSH2 0x100 EXP SWAP1 DIV PUSH20 0xFFFFFFFFFFFFFFFFFFFFFFFFFFFFFFFFFFFFFFFF AND SWAP1 POP DUP2 PUSH0 PUSH0 PUSH2 0x100 EXP DUP2 SLOAD DUP2 PUSH20 0xFFFFFFFFFFFFFFFFFFFFFFFFFFFFFFFFFFFFFFFF MUL NOT AND SWAP1 DUP4 PUSH20 0xFFFFFFFFFFFFFFFFFFFFFFFFFFFFFFFFFFFFFFFF AND MUL OR SWAP1 SSTORE POP DUP2 PUSH20 0xFFFFFFFFFFFFFFFFFFFFFFFFFFFFFFFFFFFFFFFF AND DUP2 PUSH20 0xFFFFFFFFFFFFFFFFFFFFFFFFFFFFFFFFFFFFFFFF AND PUSH32 0x8BE0079C531659141344CD1FD0A4F28419497F9722A3DAAFE3B4186F6B6457E0 PUSH1 0x40 MLOAD PUSH1 0x40 MLOAD DUP1 SWAP2 SUB SWAP1 LOG3 POP POP JUMP JUMPDEST PUSH0 PUSH0 REVERT JUMPDEST PUSH0 PUSH20 0xFFFFFFFFFFFFFFFFFFFFFFFFFFFFFFFFFFFFFFFF DUP3 AND SWAP1 POP SWAP2 SWAP1 POP JUMP JUMPDEST PUSH0 PUSH2 0x20C DUP3 PUSH2 0x1E3 JUMP JUMPDEST SWAP1 POP SWAP2 SWAP1 POP JUMP JUMPDEST PUSH0 PUSH2 0x21D DUP3 PUSH2 0x202 JUMP JUMPDEST SWAP1 POP SWAP2 SWAP1 POP JUMP JUMPDEST PUSH2 0x22D DUP2 PUSH2 0x213 JUMP JUMPDEST DUP2 EQ PUSH2 0x237 JUMPI PUSH0 PUSH0 REVERT JUMPDEST POP JUMP JUMPDEST PUSH0 DUP2 MLOAD SWAP1 POP PUSH2 0x248 DUP2 PUSH2 0x224 JUMP JUMPDEST SWAP3 SWAP2 POP POP JUMP JUMPDEST PUSH0 DUP2 SWAP1 POP SWAP2 SWAP1 POP JUMP JUMPDEST PUSH2 0x260 DUP2 PUSH2 0x24E JUMP JUMPDEST DUP2 EQ PUSH2 0x26A JUMPI PUSH0 PUSH0 REVERT JUMPDEST POP JUMP JUMPDEST PUSH0 DUP2 MLOAD SWAP1 POP PUSH2 0x27B DUP2 PUSH2 0x257 JUMP JUMPDEST SWAP3 SWAP2 POP POP JUMP JUMPDEST PUSH0 PUSH0 PUSH0 PUSH1 0x60 DUP5 DUP7 SUB SLT ISZERO PUSH2 0x298 JUMPI PUSH2 0x297 PUSH2 0x1DF JUMP JUMPDEST JUMPDEST PUSH0 PUSH2 0x2A5 DUP7 DUP3 DUP8 ADD PUSH2 0x23A JUMP JUMPDEST SWAP4 POP POP PUSH1 0x20 PUSH2 0x2B6 DUP7 DUP3 DUP8 ADD PUSH2 0x26D JUMP JUMPDEST SWAP3 POP POP PUSH1 0x40 PUSH2 0x2C7 DUP7 DUP3 DUP8 ADD PUSH2 0x26D JUMP JUMPDEST SWAP2 POP POP SWAP3 POP SWAP3 POP SWAP3 JUMP JUMPDEST PUSH2 0x2DA DUP2 PUSH2 0x202 JUMP JUMPDEST DUP3 MSTORE POP POP JUMP JUMPDEST PUSH0 PUSH1 0x20 DUP3 ADD SWAP1 POP PUSH2 0x2F3 PUSH0 DUP4 ADD DUP5 PUSH2 0x2D1 JUMP JUMPDEST SWAP3 SWAP2 POP POP JUMP JUMPDEST PUSH2 0x1C04 DUP1 PUSH2 0x306 PUSH0 CODECOPY PUSH0 RETURN INVALID PUSH1 0x80 PUSH1 0x40 MSTORE CALLVALUE DUP1 ISZERO PUSH2 0xF JUMPI PUSH0 PUSH0 REVERT JUMPDEST POP PUSH1 0x4 CALLDATASIZE LT PUSH2 0x171 JUMPI PUSH0 CALLDATALOAD PUSH1 0xE0 SHR DUP1 PUSH4 0x715018A6 GT PUSH2 0xDC JUMPI DUP1 PUSH4 0x8DBB1E3A GT PUSH2 0x95 JUMPI DUP1 PUSH4 0xB9926557 GT PUSH2 0x6F JUMPI DUP1 PUSH4 0xB9926557 EQ PUSH2 0x3F3 JUMPI DUP1 PUSH4 0xD129459B EQ PUSH2 0x411 JUMPI DUP1 PUSH4 0xE2BBB158 EQ PUSH2 0x42F JUMPI DUP1 PUSH4 0xF2FDE38B EQ PUSH2 0x44B JUMPI PUSH2 0x171 JUMP JUMPDEST DUP1 PUSH4 0x8DBB1E3A EQ PUSH2 0x374 JUMPI DUP1 PUSH4 0x913E77AD EQ PUSH2 0x3A4 JUMPI DUP1 PUSH4 0x93F1A40B EQ PUSH2 0x3C2 JUMPI PUSH2 0x171 JUMP JUMPDEST DUP1 PUSH4 0x715018A6 EQ PUSH2 0x2D6 JUMPI DUP1 PUSH4 0x78E97925 EQ PUSH2 0x2E0 JUMPI DUP1 PUSH4 0x7ABCEFFD EQ PUSH2 0x2FE JUMPI DUP1 PUSH4 0x83E27185 EQ PUSH2 0x31A JUMPI DUP1 PUSH4 0x8AA28550 EQ PUSH2 0x338 JUMPI DUP1 PUSH4 0x8DA5CB5B EQ PUSH2 0x356 JUMPI PUSH2 0x171 JUMP JUMPDEST DUP1 PUSH4 0x46CA6BEA GT PUSH2 0x12E JUMPI DUP1 PUSH4 0x46CA6BEA EQ PUSH2 0x23C JUMPI DUP1 PUSH4 0x48CD4CB1 EQ PUSH2 0x258 JUMPI DUP1 PUSH4 0x51EB05A6 EQ PUSH2 0x276 JUMPI DUP1 PUSH4 0x5312EA8E EQ PUSH2 0x292 JUMPI DUP1 PUSH4 0x57E78ADC EQ PUSH2 0x2AE JUMPI DUP1 PUSH4 0x630B5BA1 EQ PUSH2 0x2CC JUMPI PUSH2 0x171 JUMP JUMPDEST DUP1 PUSH4 0x81E3EDA EQ PUSH2 0x175 JUMPI DUP1 PUSH4 0x1526FE27 EQ PUSH2 0x193 JUMPI DUP1 PUSH4 0x17CAF6F1 EQ PUSH2 0x1C6 JUMPI DUP1 PUSH4 0x1AED6553 EQ PUSH2 0x1E4 JUMPI DUP1 PUSH4 0x212F14CC EQ PUSH2 0x202 JUMPI DUP1 PUSH4 0x441A3E70 EQ PUSH2 0x220 JUMPI JUMPDEST PUSH0 PUSH0 REVERT JUMPDEST PUSH2 0x17D PUSH2 0x467 JUMP JUMPDEST PUSH1 0x40 MLOAD PUSH2 0x18A SWAP2 SWAP1 PUSH2 0x14BD JUMP JUMPDEST PUSH1 0x40 MLOAD DUP1 SWAP2 SUB SWAP1 RETURN JUMPDEST PUSH2 0x1AD PUSH1 0x4 DUP1 CALLDATASIZE SUB DUP2 ADD SWAP1 PUSH2 0x1A8 SWAP2 SWAP1 PUSH2 0x1504 JUMP JUMPDEST PUSH2 0x473 JUMP JUMPDEST PUSH1 0x40 MLOAD PUSH2 0x1BD SWAP5 SWAP4 SWAP3 SWAP2 SWAP1 PUSH2 0x15A9 JUMP JUMPDEST PUSH1 0x40 MLOAD DUP1 SWAP2 SUB SWAP1 RETURN JUMPDEST PUSH2 0x1CE PUSH2 0x4CD JUMP JUMPDEST PUSH1 0x40 MLOAD PUSH2 0x1DB SWAP2 SWAP1 PUSH2 0x14BD JUMP JUMPDEST PUSH1 0x40 MLOAD DUP1 SWAP2 SUB SWAP1 RETURN JUMPDEST PUSH2 0x1EC PUSH2 0x4D3 JUMP JUMPDEST PUSH1 0x40 MLOAD PUSH2 0x1F9 SWAP2 SWAP1 PUSH2 0x14BD JUMP JUMPDEST PUSH1 0x40 MLOAD DUP1 SWAP2 SUB SWAP1 RETURN JUMPDEST PUSH2 0x20A PUSH2 0x4D9 JUMP JUMPDEST PUSH1 0x40 MLOAD PUSH2 0x217 SWAP2 SWAP1 PUSH2 0x14BD JUMP JUMPDEST PUSH1 0x40 MLOAD DUP1 SWAP2 SUB SWAP1 RETURN JUMPDEST PUSH2 0x23A PUSH1 0x4 DUP1 CALLDATASIZE SUB DUP2 ADD SWAP1 PUSH2 0x235 SWAP2 SWAP1 PUSH2 0x15EC JUMP JUMPDEST PUSH2 0x4DF JUMP JUMPDEST STOP JUMPDEST PUSH2 0x256 PUSH1 0x4 DUP1 CALLDATASIZE SUB DUP2 ADD SWAP1 PUSH2 0x251 SWAP2 SWAP1 PUSH2 0x165F JUMP JUMPDEST PUSH2 0x790 JUMP JUMPDEST STOP JUMPDEST PUSH2 0x260 PUSH2 0x816 JUMP JUMPDEST PUSH1 0x40 MLOAD PUSH2 0x26D SWAP2 SWAP1 PUSH2 0x14BD JUMP JUMPDEST PUSH1 0x40 MLOAD DUP1 SWAP2 SUB SWAP1 RETURN JUMPDEST PUSH2 0x290 PUSH1 0x4 DUP1 CALLDATASIZE SUB DUP2 ADD SWAP1 PUSH2 0x28B SWAP2 SWAP1 PUSH2 0x1504 JUMP JUMPDEST PUSH2 0x81C JUMP JUMPDEST STOP JUMPDEST PUSH2 0x2AC PUSH1 0x4 DUP1 CALLDATASIZE SUB DUP2 ADD SWAP1 PUSH2 0x2A7 SWAP2 SWAP1 PUSH2 0x1504 JUMP JUMPDEST PUSH2 0xA33 JUMP JUMPDEST STOP JUMPDEST PUSH2 0x2B6 PUSH2 0xB68 JUMP JUMPDEST PUSH1 0x40 MLOAD PUSH2 0x2C3 SWAP2 SWAP1 PUSH2 0x14BD JUMP JUMPDEST PUSH1 0x40 MLOAD DUP1 SWAP2 SUB SWAP1 RETURN JUMPDEST PUSH2 0x2D4 PUSH2 0xB6E JUMP JUMPDEST STOP JUMPDEST PUSH2 0x2DE PUSH2 0xB9C JUMP JUMPDEST STOP JUMPDEST PUSH2 0x2E8 PUSH2 0xBAF JUMP JUMPDEST PUSH1 0x40 MLOAD PUSH2 0x2F5 SWAP2 SWAP1 PUSH2 0x14BD JUMP JUMPDEST PUSH1 0x40 MLOAD DUP1 SWAP2 SUB SWAP1 RETURN JUMPDEST PUSH2 0x318 PUSH1 0x4 DUP1 CALLDATASIZE SUB DUP2 ADD SWAP1 PUSH2 0x313 SWAP2 SWAP1 PUSH2 0x16FB JUMP JUMPDEST PUSH2 0xBB5 JUMP JUMPDEST STOP JUMPDEST PUSH2 0x322 PUSH2 0xCA8 JUMP JUMPDEST PUSH1 0x40 MLOAD PUSH2 0x32F SWAP2 SWAP1 PUSH2 0x14BD JUMP JUMPDEST PUSH1 0x40 MLOAD DUP1 SWAP2 SUB SWAP1 RETURN JUMPDEST PUSH2 0x340 PUSH2 0xCAE JUMP JUMPDEST PUSH1 0x40 MLOAD PUSH2 0x34D SWAP2 SWAP1 PUSH2 0x14BD JUMP JUMPDEST PUSH1 0x40 MLOAD DUP1 SWAP2 SUB SWAP1 RETURN JUMPDEST PUSH2 0x35E PUSH2 0xCB3 JUMP JUMPDEST PUSH1 0x40 MLOAD PUSH2 0x36B SWAP2 SWAP1 PUSH2 0x175A JUMP JUMPDEST PUSH1 0x40 MLOAD DUP1 SWAP2 SUB SWAP1 RETURN JUMPDEST PUSH2 0x38E PUSH1 0x4 DUP1 CALLDATASIZE SUB DUP2 ADD SWAP1 PUSH2 0x389 SWAP2 SWAP1 PUSH2 0x15EC JUMP JUMPDEST PUSH2 0xCDA JUMP JUMPDEST PUSH1 0x40 MLOAD PUSH2 0x39B SWAP2 SWAP1 PUSH2 0x14BD JUMP JUMPDEST PUSH1 0x40 MLOAD DUP1 SWAP2 SUB SWAP1 RETURN JUMPDEST PUSH2 0x3AC PUSH2 0xD5A JUMP JUMPDEST PUSH1 0x40 MLOAD PUSH2 0x3B9 SWAP2 SWAP1 PUSH2 0x175A JUMP JUMPDEST PUSH1 0x40 MLOAD DUP1 SWAP2 SUB SWAP1 RETURN JUMPDEST PUSH2 0x3DC PUSH1 0x4 DUP1 CALLDATASIZE SUB DUP2 ADD SWAP1 PUSH2 0x3D7 SWAP2 SWAP1 PUSH2 0x179D JUMP JUMPDEST PUSH2 0xD7F JUMP JUMPDEST PUSH1 0x40 MLOAD PUSH2 0x3EA SWAP3 SWAP2 SWAP1 PUSH2 0x17DB JUMP JUMPDEST PUSH1 0x40 MLOAD DUP1 SWAP2 SUB SWAP1 RETURN JUMPDEST PUSH2 0x3FB PUSH2 0xDAA JUMP JUMPDEST PUSH1 0x40 MLOAD PUSH2 0x408 SWAP2 SWAP1 PUSH2 0x14BD JUMP JUMPDEST PUSH1 0x40 MLOAD DUP1 SWAP2 SUB SWAP1 RETURN JUMPDEST PUSH2 0x419 PUSH2 0xDB9 JUMP JUMPDEST PUSH1 0x40 MLOAD PUSH2 0x426 SWAP2 SWAP1 PUSH2 0x1822 JUMP JUMPDEST PUSH1 0x40 MLOAD DUP1 SWAP2 SUB SWAP1 RETURN JUMPDEST PUSH2 0x449 PUSH1 0x4 DUP1 CALLDATASIZE SUB DUP2 ADD SWAP1 PUSH2 0x444 SWAP2 SWAP1 PUSH2 0x15EC JUMP JUMPDEST PUSH2 0xDDE JUMP JUMPDEST STOP JUMPDEST PUSH2 0x465 PUSH1 0x4 DUP1 CALLDATASIZE SUB DUP2 ADD SWAP1 PUSH2 0x460 SWAP2 SWAP1 PUSH2 0x183B JUMP JUMPDEST PUSH2 0x1136 JUMP JUMPDEST STOP JUMPDEST PUSH0 PUSH1 0x7 DUP1 SLOAD SWAP1 POP SWAP1 POP SWAP1 JUMP JUMPDEST PUSH1 0x7 DUP2 DUP2 SLOAD DUP2 LT PUSH2 0x482 JUMPI PUSH0 DUP1 REVERT JUMPDEST SWAP1 PUSH0 MSTORE PUSH1 0x20 PUSH0 KECCAK256 SWAP1 PUSH1 0x4 MUL ADD PUSH0 SWAP2 POP SWAP1 POP DUP1 PUSH0 ADD PUSH0 SWAP1 SLOAD SWAP1 PUSH2 0x100 EXP SWAP1 DIV PUSH20 0xFFFFFFFFFFFFFFFFFFFFFFFFFFFFFFFFFFFFFFFF AND SWAP1 DUP1 PUSH1 0x1 ADD SLOAD SWAP1 DUP1 PUSH1 0x2 ADD SLOAD SWAP1 DUP1 PUSH1 0x3 ADD SLOAD SWAP1 POP DUP5 JUMP JUMPDEST PUSH1 0x9 SLOAD DUP2 JUMP JUMPDEST PUSH1 0x3 SLOAD DUP2 JUMP JUMPDEST PUSH1 0x4 SLOAD DUP2 JUMP JUMPDEST PUSH3 0x34BC00 PUSH1 0xB SLOAD PUSH2 0x4F0 SWAP2 SWAP1 PUSH2 0x1893 JUMP JUMPDEST TIMESTAMP GT PUSH2 0x531 JUMPI PUSH1 0x40 MLOAD PUSH32 0x8C379A000000000000000000000000000000000000000000000000000000000 DUP2 MSTORE PUSH1 0x4 ADD PUSH2 0x528 SWAP1 PUSH2 0x1920 JUMP JUMPDEST PUSH1 0x40 MLOAD DUP1 SWAP2 SUB SWAP1 REVERT JUMPDEST PUSH0 PUSH1 0x7 DUP4 DUP2 SLOAD DUP2 LT PUSH2 0x546 JUMPI PUSH2 0x545 PUSH2 0x193E JUMP JUMPDEST JUMPDEST SWAP1 PUSH0 MSTORE PUSH1 0x20 PUSH0 KECCAK256 SWAP1 PUSH1 0x4 MUL ADD SWAP1 POP PUSH0 PUSH1 0x8 PUSH0 DUP6 DUP2 MSTORE PUSH1 0x20 ADD SWAP1 DUP2 MSTORE PUSH1 0x20 ADD PUSH0 KECCAK256 PUSH0 CALLER PUSH20 0xFFFFFFFFFFFFFFFFFFFFFFFFFFFFFFFFFFFFFFFF AND PUSH20 0xFFFFFFFFFFFFFFFFFFFFFFFFFFFFFFFFFFFFFFFF AND DUP2 MSTORE PUSH1 0x20 ADD SWAP1 DUP2 MSTORE PUSH1 0x20 ADD PUSH0 KECCAK256 SWAP1 POP DUP3 DUP2 PUSH0 ADD SLOAD LT ISZERO PUSH2 0x5E9 JUMPI PUSH1 0x40 MLOAD PUSH32 0x8C379A000000000000000000000000000000000000000000000000000000000 DUP2 MSTORE PUSH1 0x4 ADD PUSH2 0x5E0 SWAP1 PUSH2 0x19B5 JUMP JUMPDEST PUSH1 0x40 MLOAD DUP1 SWAP2 SUB SWAP1 REVERT JUMPDEST PUSH2 0x5F2 DUP5 PUSH2 0x81C JUMP JUMPDEST PUSH0 DUP2 PUSH1 0x1 ADD SLOAD PUSH5 0xE8D4A51000 DUP5 PUSH1 0x3 ADD SLOAD DUP5 PUSH0 ADD SLOAD PUSH2 0x611 SWAP2 SWAP1 PUSH2 0x19D3 JUMP JUMPDEST PUSH2 0x61B SWAP2 SWAP1 PUSH2 0x1A41 JUMP JUMPDEST PUSH2 0x625 SWAP2 SWAP1 PUSH2 0x1A71 JUMP JUMPDEST SWAP1 POP DUP4 DUP3 PUSH0 ADD SLOAD PUSH2 0x636 SWAP2 SWAP1 PUSH2 0x1A71 JUMP JUMPDEST DUP3 PUSH0 ADD DUP2 SWAP1 SSTORE POP PUSH5 0xE8D4A51000 DUP4 PUSH1 0x3 ADD SLOAD DUP4 PUSH0 ADD SLOAD PUSH2 0x656 SWAP2 SWAP1 PUSH2 0x19D3 JUMP JUMPDEST PUSH2 0x660 SWAP2 SWAP1 PUSH2 0x1A41 JUMP JUMPDEST DUP3 PUSH1 0x1 ADD DUP2 SWAP1 SSTORE POP PUSH2 0x6B4 CALLER DUP3 PUSH1 0x1 PUSH0 SWAP1 SLOAD SWAP1 PUSH2 0x100 EXP SWAP1 DIV PUSH20 0xFFFFFFFFFFFFFFFFFFFFFFFFFFFFFFFFFFFFFFFF AND PUSH20 0xFFFFFFFFFFFFFFFFFFFFFFFFFFFFFFFFFFFFFFFF AND PUSH2 0x11BA SWAP1 SWAP3 SWAP2 SWAP1 PUSH4 0xFFFFFFFF AND JUMP JUMPDEST PUSH2 0x701 CALLER DUP6 DUP6 PUSH0 ADD PUSH0 SWAP1 SLOAD SWAP1 PUSH2 0x100 EXP SWAP1 DIV PUSH20 0xFFFFFFFFFFFFFFFFFFFFFFFFFFFFFFFFFFFFFFFF AND PUSH20 0xFFFFFFFFFFFFFFFFFFFFFFFFFFFFFFFFFFFFFFFF AND PUSH2 0x11BA SWAP1 SWAP3 SWAP2 SWAP1 PUSH4 0xFFFFFFFF AND JUMP JUMPDEST DUP5 DUP4 PUSH0 ADD PUSH0 SWAP1 SLOAD SWAP1 PUSH2 0x100 EXP SWAP1 DIV PUSH20 0xFFFFFFFFFFFFFFFFFFFFFFFFFFFFFFFFFFFFFFFF AND PUSH20 0xFFFFFFFFFFFFFFFFFFFFFFFFFFFFFFFFFFFFFFFF AND CALLER PUSH20 0xFFFFFFFFFFFFFFFFFFFFFFFFFFFFFFFFFFFFFFFF AND PUSH32 0xF341246ADAAC6F497BC2A656F546AB9E182111D630394F0C57C710A59A2CB567 DUP8 PUSH1 0x40 MLOAD PUSH2 0x781 SWAP2 SWAP1 PUSH2 0x14BD JUMP JUMPDEST PUSH1 0x40 MLOAD DUP1 SWAP2 SUB SWAP1 LOG4 POP POP POP POP POP JUMP JUMPDEST PUSH2 0x798 PUSH2 0x1239 JUMP JUMPDEST DUP1 ISZERO PUSH2 0x7A7 JUMPI PUSH2 0x7A6 PUSH2 0xB6E JUMP JUMPDEST JUMPDEST DUP2 PUSH1 0x7 DUP5 DUP2 SLOAD DUP2 LT PUSH2 0x7BC JUMPI PUSH2 0x7BB PUSH2 0x193E JUMP JUMPDEST JUMPDEST SWAP1 PUSH0 MSTORE PUSH1 0x20 PUSH0 KECCAK256 SWAP1 PUSH1 0x4 MUL ADD PUSH1 0x1 ADD SLOAD PUSH1 0x9 SLOAD PUSH2 0x7D9 SWAP2 SWAP1 PUSH2 0x1A71 JUMP JUMPDEST PUSH2 0x7E3 SWAP2 SWAP1 PUSH2 0x1893 JUMP JUMPDEST PUSH1 0x9 DUP2 SWAP1 SSTORE POP DUP2 PUSH1 0x7 DUP5 DUP2 SLOAD DUP2 LT PUSH2 0x7FE JUMPI PUSH2 0x7FD PUSH2 0x193E JUMP JUMPDEST JUMPDEST SWAP1 PUSH0 MSTORE PUSH1 0x20 PUSH0 KECCAK256 SWAP1 PUSH1 0x4 MUL ADD PUSH1 0x1 ADD DUP2 SWAP1 SSTORE POP POP POP POP JUMP JUMPDEST PUSH1 0xA SLOAD DUP2 JUMP JUMPDEST PUSH0 PUSH1 0x7 DUP3 DUP2 SLOAD DUP2 LT PUSH2 0x831 JUMPI PUSH2 0x830 PUSH2 0x193E JUMP JUMPDEST JUMPDEST SWAP1 PUSH0 MSTORE PUSH1 0x20 PUSH0 KECCAK256 SWAP1 PUSH1 0x4 MUL ADD SWAP1 POP DUP1 PUSH1 0x2 ADD SLOAD NUMBER GT PUSH2 0x850 JUMPI POP PUSH2 0xA30 JUMP JUMPDEST PUSH0 DUP2 PUSH0 ADD PUSH0 SWAP1 SLOAD SWAP1 PUSH2 0x100 EXP SWAP1 DIV PUSH20 0xFFFFFFFFFFFFFFFFFFFFFFFFFFFFFFFFFFFFFFFF AND PUSH20 0xFFFFFFFFFFFFFFFFFFFFFFFFFFFFFFFFFFFFFFFF AND PUSH4 0x70A08231 ADDRESS PUSH1 0x40 MLOAD DUP3 PUSH4 0xFFFFFFFF AND PUSH1 0xE0 SHL DUP2 MSTORE PUSH1 0x4 ADD PUSH2 0x8AC SWAP2 SWAP1 PUSH2 0x175A JUMP JUMPDEST PUSH1 0x20 PUSH1 0x40 MLOAD DUP1 DUP4 SUB DUP2 DUP7 GAS STATICCALL ISZERO DUP1 ISZERO PUSH2 0x8C7 JUMPI RETURNDATASIZE PUSH0 PUSH0 RETURNDATACOPY RETURNDATASIZE PUSH0 REVERT JUMPDEST POP POP POP POP PUSH1 0x40 MLOAD RETURNDATASIZE PUSH1 0x1F NOT PUSH1 0x1F DUP3 ADD AND DUP3 ADD DUP1 PUSH1 0x40 MSTORE POP DUP2 ADD SWAP1 PUSH2 0x8EB SWAP2 SWAP1 PUSH2 0x1AB8 JUMP JUMPDEST SWAP1 POP PUSH0 DUP2 SUB PUSH2 0x904 JUMPI NUMBER DUP3 PUSH1 0x2 ADD DUP2 SWAP1 SSTORE POP POP POP PUSH2 0xA30 JUMP JUMPDEST PUSH0 PUSH1 0x9 SLOAD DUP4 PUSH1 0x1 ADD SLOAD PUSH1 0x4 SLOAD PUSH2 0x91E DUP7 PUSH1 0x2 ADD SLOAD NUMBER PUSH2 0xCDA JUMP JUMPDEST PUSH2 0x928 SWAP2 SWAP1 PUSH2 0x19D3 JUMP JUMPDEST PUSH2 0x932 SWAP2 SWAP1 PUSH2 0x19D3 JUMP JUMPDEST PUSH2 0x93C SWAP2 SWAP1 PUSH2 0x1A41 JUMP JUMPDEST SWAP1 POP DUP2 PUSH5 0xE8D4A51000 DUP3 PUSH2 0x950 SWAP2 SWAP1 PUSH2 0x19D3 JUMP JUMPDEST PUSH2 0x95A SWAP2 SWAP1 PUSH2 0x1A41 JUMP JUMPDEST DUP4 PUSH1 0x3 ADD SLOAD PUSH2 0x969 SWAP2 SWAP1 PUSH2 0x1893 JUMP JUMPDEST DUP4 PUSH1 0x3 ADD DUP2 SWAP1 SSTORE POP NUMBER DUP4 PUSH1 0x2 ADD DUP2 SWAP1 SSTORE POP PUSH11 0x37A172815E43557155555 PUSH1 0x5 SLOAD GT PUSH2 0xA2C JUMPI DUP1 PUSH1 0x5 SLOAD PUSH2 0x99C SWAP2 SWAP1 PUSH2 0x1893 JUMP JUMPDEST PUSH1 0x5 DUP2 SWAP1 SSTORE POP PUSH1 0x1 PUSH0 SWAP1 SLOAD SWAP1 PUSH2 0x100 EXP SWAP1 DIV PUSH20 0xFFFFFFFFFFFFFFFFFFFFFFFFFFFFFFFFFFFFFFFF AND PUSH20 0xFFFFFFFFFFFFFFFFFFFFFFFFFFFFFFFFFFFFFFFF AND PUSH4 0x40C10F19 ADDRESS DUP4 PUSH1 0x40 MLOAD DUP4 PUSH4 0xFFFFFFFF AND PUSH1 0xE0 SHL DUP2 MSTORE PUSH1 0x4 ADD PUSH2 0x9FE SWAP3 SWAP2 SWAP1 PUSH2 0x1AE3 JUMP JUMPDEST PUSH0 PUSH1 0x40 MLOAD DUP1 DUP4 SUB DUP2 PUSH0 DUP8 DUP1 EXTCODESIZE ISZERO DUP1 ISZERO PUSH2 0xA15 JUMPI PUSH0 PUSH0 REVERT JUMPDEST POP GAS CALL ISZERO DUP1 ISZERO PUSH2 0xA27 JUMPI RETURNDATASIZE PUSH0 PUSH0 RETURNDATACOPY RETURNDATASIZE PUSH0 REVERT JUMPDEST POP POP POP POP JUMPDEST POP POP POP JUMPDEST POP JUMP JUMPDEST PUSH0 PUSH1 0x7 DUP3 DUP2 SLOAD DUP2 LT PUSH2 0xA48 JUMPI PUSH2 0xA47 PUSH2 0x193E JUMP JUMPDEST JUMPDEST SWAP1 PUSH0 MSTORE PUSH1 0x20 PUSH0 KECCAK256 SWAP1 PUSH1 0x4 MUL ADD SWAP1 POP PUSH0 PUSH1 0x8 PUSH0 DUP5 DUP2 MSTORE PUSH1 0x20 ADD SWAP1 DUP2 MSTORE PUSH1 0x20 ADD PUSH0 KECCAK256 PUSH0 CALLER PUSH20 0xFFFFFFFFFFFFFFFFFFFFFFFFFFFFFFFFFFFFFFFF AND PUSH20 0xFFFFFFFFFFFFFFFFFFFFFFFFFFFFFFFFFFFFFFFF AND DUP2 MSTORE PUSH1 0x20 ADD SWAP1 DUP2 MSTORE PUSH1 0x20 ADD PUSH0 KECCAK256 SWAP1 POP PUSH0 DUP2 PUSH0 ADD SLOAD SWAP1 POP PUSH0 DUP3 PUSH1 0x1 ADD SLOAD SWAP1 POP PUSH0 DUP4 PUSH0 ADD DUP2 SWAP1 SSTORE POP PUSH0 DUP4 PUSH1 0x1 ADD DUP2 SWAP1 SSTORE POP PUSH2 0xB12 CALLER DUP4 DUP7 PUSH0 ADD PUSH0 SWAP1 SLOAD SWAP1 PUSH2 0x100 EXP SWAP1 DIV PUSH20 0xFFFFFFFFFFFFFFFFFFFFFFFFFFFFFFFFFFFFFFFF AND PUSH20 0xFFFFFFFFFFFFFFFFFFFFFFFFFFFFFFFFFFFFFFFF AND PUSH2 0x11BA SWAP1 SWAP3 SWAP2 SWAP1 PUSH4 0xFFFFFFFF AND JUMP JUMPDEST DUP5 CALLER PUSH20 0xFFFFFFFFFFFFFFFFFFFFFFFFFFFFFFFFFFFFFFFF AND PUSH32 0xBB757047C2B5F3974FE26B7C10F732E7BCE710B0952A71082702781E62AE0595 DUP4 PUSH1 0x40 MLOAD PUSH2 0xB59 SWAP2 SWAP1 PUSH2 0x14BD JUMP JUMPDEST PUSH1 0x40 MLOAD DUP1 SWAP2 SUB SWAP1 LOG3 POP POP POP POP POP JUMP JUMPDEST PUSH1 0x6 SLOAD DUP2 JUMP JUMPDEST PUSH0 PUSH1 0x7 DUP1 SLOAD SWAP1 POP SWAP1 POP PUSH0 PUSH0 SWAP1 POP JUMPDEST DUP2 DUP2 LT ISZERO PUSH2 0xB98 JUMPI PUSH2 0xB8D DUP2 PUSH2 0x81C JUMP JUMPDEST DUP1 PUSH1 0x1 ADD SWAP1 POP PUSH2 0xB7C JUMP JUMPDEST POP POP JUMP JUMPDEST PUSH2 0xBA4 PUSH2 0x1239 JUMP JUMPDEST PUSH2 0xBAD PUSH0 PUSH2 0x12C0 JUMP JUMPDEST JUMP JUMPDEST PUSH1 0xB SLOAD DUP2 JUMP JUMPDEST PUSH2 0xBBD PUSH2 0x1239 JUMP JUMPDEST DUP1 ISZERO PUSH2 0xBCC JUMPI PUSH2 0xBCB PUSH2 0xB6E JUMP JUMPDEST JUMPDEST DUP3 PUSH1 0x9 SLOAD PUSH2 0xBDA SWAP2 SWAP1 PUSH2 0x1893 JUMP JUMPDEST PUSH1 0x9 DUP2 SWAP1 SSTORE POP PUSH1 0x7 PUSH1 0x40 MLOAD DUP1 PUSH1 0x80 ADD PUSH1 0x40 MSTORE DUP1 DUP5 PUSH20 0xFFFFFFFFFFFFFFFFFFFFFFFFFFFFFFFFFFFFFFFF AND DUP2 MSTORE PUSH1 0x20 ADD DUP6 DUP2 MSTORE PUSH1 0x20 ADD NUMBER DUP2 MSTORE PUSH1 0x20 ADD PUSH0 DUP2 MSTORE POP SWAP1 DUP1 PUSH1 0x1 DUP2 SLOAD ADD DUP1 DUP3 SSTORE DUP1 SWAP2 POP POP PUSH1 0x1 SWAP1 SUB SWAP1 PUSH0 MSTORE PUSH1 0x20 PUSH0 KECCAK256 SWAP1 PUSH1 0x4 MUL ADD PUSH0 SWAP1 SWAP2 SWAP1 SWAP2 SWAP1 SWAP2 POP PUSH0 DUP3 ADD MLOAD DUP2 PUSH0 ADD PUSH0 PUSH2 0x100 EXP DUP2 SLOAD DUP2 PUSH20 0xFFFFFFFFFFFFFFFFFFFFFFFFFFFFFFFFFFFFFFFF MUL NOT AND SWAP1 DUP4 PUSH20 0xFFFFFFFFFFFFFFFFFFFFFFFFFFFFFFFFFFFFFFFF AND MUL OR SWAP1 SSTORE POP PUSH1 0x20 DUP3 ADD MLOAD DUP2 PUSH1 0x1 ADD SSTORE PUSH1 0x40 DUP3 ADD MLOAD DUP2 PUSH1 0x2 ADD SSTORE PUSH1 0x60 DUP3 ADD MLOAD DUP2 PUSH1 0x3 ADD SSTORE POP POP POP POP POP JUMP JUMPDEST PUSH1 0x5 SLOAD DUP2 JUMP JUMPDEST PUSH1 0x3 DUP2 JUMP JUMPDEST PUSH0 PUSH0 PUSH0 SWAP1 SLOAD SWAP1 PUSH2 0x100 EXP SWAP1 DIV PUSH20 0xFFFFFFFFFFFFFFFFFFFFFFFFFFFFFFFFFFFFFFFF AND SWAP1 POP SWAP1 JUMP JUMPDEST PUSH0 PUSH1 0x3 SLOAD DUP3 GT PUSH2 0xD03 JUMPI PUSH1 0x3 DUP4 DUP4 PUSH2 0xCF2 SWAP2 SWAP1 PUSH2 0x1A71 JUMP JUMPDEST PUSH2 0xCFC SWAP2 SWAP1 PUSH2 0x19D3 JUMP JUMPDEST SWAP1 POP PUSH2 0xD54 JUMP JUMPDEST PUSH1 0x3 SLOAD DUP4 LT PUSH2 0xD1F JUMPI DUP3 DUP3 PUSH2 0xD18 SWAP2 SWAP1 PUSH2 0x1A71 JUMP JUMPDEST SWAP1 POP PUSH2 0xD54 JUMP JUMPDEST PUSH1 0x3 SLOAD DUP3 PUSH2 0xD2D SWAP2 SWAP1 PUSH2 0x1A71 JUMP JUMPDEST PUSH1 0x3 DUP5 PUSH1 0x3 SLOAD PUSH2 0xD3D SWAP2 SWAP1 PUSH2 0x1A71 JUMP JUMPDEST PUSH2 0xD47 SWAP2 SWAP1 PUSH2 0x19D3 JUMP JUMPDEST PUSH2 0xD51 SWAP2 SWAP1 PUSH2 0x1893 JUMP JUMPDEST SWAP1 POP JUMPDEST SWAP3 SWAP2 POP POP JUMP JUMPDEST PUSH1 0x2 PUSH0 SWAP1 SLOAD SWAP1 PUSH2 0x100 EXP SWAP1 DIV PUSH20 0xFFFFFFFFFFFFFFFFFFFFFFFFFFFFFFFFFFFFFFFF AND DUP2 JUMP JUMPDEST PUSH1 0x8 PUSH1 0x20 MSTORE DUP2 PUSH0 MSTORE PUSH1 0x40 PUSH0 KECCAK256 PUSH1 0x20 MSTORE DUP1 PUSH0 MSTORE PUSH1 0x40 PUSH0 KECCAK256 PUSH0 SWAP2 POP SWAP2 POP POP DUP1 PUSH0 ADD SLOAD SWAP1 DUP1 PUSH1 0x1 ADD SLOAD SWAP1 POP DUP3 JUMP JUMPDEST PUSH11 0x37A172815E43557155555 DUP2 JUMP JUMPDEST PUSH1 0x1 PUSH0 SWAP1 SLOAD SWAP1 PUSH2 0x100 EXP SWAP1 DIV PUSH20 0xFFFFFFFFFFFFFFFFFFFFFFFFFFFFFFFFFFFFFFFF AND DUP2 JUMP JUMPDEST PUSH0 PUSH1 0x7 DUP4 DUP2 SLOAD DUP2 LT PUSH2 0xDF3 JUMPI PUSH2 0xDF2 PUSH2 0x193E JUMP JUMPDEST JUMPDEST SWAP1 PUSH0 MSTORE PUSH1 0x20 PUSH0 KECCAK256 SWAP1 PUSH1 0x4 MUL ADD SWAP1 POP PUSH0 PUSH1 0x8 PUSH0 DUP6 DUP2 MSTORE PUSH1 0x20 ADD SWAP1 DUP2 MSTORE PUSH1 0x20 ADD PUSH0 KECCAK256 PUSH0 CALLER PUSH20 0xFFFFFFFFFFFFFFFFFFFFFFFFFFFFFFFFFFFFFFFF AND PUSH20 0xFFFFFFFFFFFFFFFFFFFFFFFFFFFFFFFFFFFFFFFF AND DUP2 MSTORE PUSH1 0x20 ADD SWAP1 DUP2 MSTORE PUSH1 0x20 ADD PUSH0 KECCAK256 SWAP1 POP DUP2 PUSH0 ADD PUSH0 SWAP1 SLOAD SWAP1 PUSH2 0x100 EXP SWAP1 DIV PUSH20 0xFFFFFFFFFFFFFFFFFFFFFFFFFFFFFFFFFFFFFFFF AND PUSH20 0xFFFFFFFFFFFFFFFFFFFFFFFFFFFFFFFFFFFFFFFF AND PUSH4 0xDD62ED3E CALLER ADDRESS PUSH1 0x40 MLOAD DUP4 PUSH4 0xFFFFFFFF AND PUSH1 0xE0 SHL DUP2 MSTORE PUSH1 0x4 ADD PUSH2 0xEAD SWAP3 SWAP2 SWAP1 PUSH2 0x1B0A JUMP JUMPDEST PUSH1 0x20 PUSH1 0x40 MLOAD DUP1 DUP4 SUB DUP2 DUP7 GAS STATICCALL ISZERO DUP1 ISZERO PUSH2 0xEC8 JUMPI RETURNDATASIZE PUSH0 PUSH0 RETURNDATACOPY RETURNDATASIZE PUSH0 REVERT JUMPDEST POP POP POP POP PUSH1 0x40 MLOAD RETURNDATASIZE PUSH1 0x1F NOT PUSH1 0x1F DUP3 ADD AND DUP3 ADD DUP1 PUSH1 0x40 MSTORE POP DUP2 ADD SWAP1 PUSH2 0xEEC SWAP2 SWAP1 PUSH2 0x1AB8 JUMP JUMPDEST DUP4 GT ISZERO PUSH2 0xF2E JUMPI PUSH1 0x40 MLOAD PUSH32 0x8C379A000000000000000000000000000000000000000000000000000000000 DUP2 MSTORE PUSH1 0x4 ADD PUSH2 0xF25 SWAP1 PUSH2 0x1B7B JUMP JUMPDEST PUSH1 0x40 MLOAD DUP1 SWAP2 SUB SWAP1 REVERT JUMPDEST PUSH2 0xF7D CALLER ADDRESS DUP6 DUP6 PUSH0 ADD PUSH0 SWAP1 SLOAD SWAP1 PUSH2 0x100 EXP SWAP1 DIV PUSH20 0xFFFFFFFFFFFFFFFFFFFFFFFFFFFFFFFFFFFFFFFF AND PUSH20 0xFFFFFFFFFFFFFFFFFFFFFFFFFFFFFFFFFFFFFFFF AND PUSH2 0x1381 SWAP1 SWAP4 SWAP3 SWAP2 SWAP1 PUSH4 0xFFFFFFFF AND JUMP JUMPDEST PUSH2 0xF86 DUP5 PUSH2 0x81C JUMP JUMPDEST PUSH0 DUP2 PUSH1 0x1 ADD SLOAD PUSH5 0xE8D4A51000 DUP5 PUSH1 0x3 ADD SLOAD DUP5 PUSH0 ADD SLOAD PUSH2 0xFA5 SWAP2 SWAP1 PUSH2 0x19D3 JUMP JUMPDEST PUSH2 0xFAF SWAP2 SWAP1 PUSH2 0x1A41 JUMP JUMPDEST PUSH2 0xFB9 SWAP2 SWAP1 PUSH2 0x1A71 JUMP JUMPDEST SWAP1 POP DUP4 DUP3 PUSH0 ADD SLOAD PUSH2 0xFCA SWAP2 SWAP1 PUSH2 0x1893 JUMP JUMPDEST DUP3 PUSH0 ADD DUP2 SWAP1 SSTORE POP PUSH3 0x34BC00 PUSH1 0xB SLOAD PUSH2 0xFE2 SWAP2 SWAP1 PUSH2 0x1893 JUMP JUMPDEST TIMESTAMP GT DUP1 ISZERO PUSH2 0xFEF JUMPI POP PUSH0 DUP2 GT JUMPDEST ISZERO PUSH2 0x1070 JUMPI PUSH5 0xE8D4A51000 DUP4 PUSH1 0x3 ADD SLOAD DUP4 PUSH0 ADD SLOAD PUSH2 0x100D SWAP2 SWAP1 PUSH2 0x19D3 JUMP JUMPDEST PUSH2 0x1017 SWAP2 SWAP1 PUSH2 0x1A41 JUMP JUMPDEST DUP3 PUSH1 0x1 ADD DUP2 SWAP1 SSTORE POP PUSH2 0x106B CALLER DUP3 PUSH1 0x1 PUSH0 SWAP1 SLOAD SWAP1 PUSH2 0x100 EXP SWAP1 DIV PUSH20 0xFFFFFFFFFFFFFFFFFFFFFFFFFFFFFFFFFFFFFFFF AND PUSH20 0xFFFFFFFFFFFFFFFFFFFFFFFFFFFFFFFFFFFFFFFF AND PUSH2 0x11BA SWAP1 SWAP3 SWAP2 SWAP1 PUSH4 0xFFFFFFFF AND JUMP JUMPDEST PUSH2 0x10A7 JUMP JUMPDEST DUP1 PUSH5 0xE8D4A51000 DUP5 PUSH1 0x3 ADD SLOAD DUP5 PUSH0 ADD SLOAD PUSH2 0x108A SWAP2 SWAP1 PUSH2 0x19D3 JUMP JUMPDEST PUSH2 0x1094 SWAP2 SWAP1 PUSH2 0x1A41 JUMP JUMPDEST PUSH2 0x109E SWAP2 SWAP1 PUSH2 0x1A71 JUMP JUMPDEST DUP3 PUSH1 0x1 ADD DUP2 SWAP1 SSTORE POP JUMPDEST DUP5 DUP4 PUSH0 ADD PUSH0 SWAP1 SLOAD SWAP1 PUSH2 0x100 EXP SWAP1 DIV PUSH20 0xFFFFFFFFFFFFFFFFFFFFFFFFFFFFFFFFFFFFFFFF AND PUSH20 0xFFFFFFFFFFFFFFFFFFFFFFFFFFFFFFFFFFFFFFFF AND CALLER PUSH20 0xFFFFFFFFFFFFFFFFFFFFFFFFFFFFFFFFFFFFFFFF AND PUSH32 0xDCBC1C05240F31FF3AD067EF1EE35CE4997762752E3A095284754544F4C709D7 DUP8 PUSH1 0x40 MLOAD PUSH2 0x1127 SWAP2 SWAP1 PUSH2 0x14BD JUMP JUMPDEST PUSH1 0x40 MLOAD DUP1 SWAP2 SUB SWAP1 LOG4 POP POP POP POP POP JUMP JUMPDEST PUSH2 0x113E PUSH2 0x1239 JUMP JUMPDEST PUSH0 PUSH20 0xFFFFFFFFFFFFFFFFFFFFFFFFFFFFFFFFFFFFFFFF AND DUP2 PUSH20 0xFFFFFFFFFFFFFFFFFFFFFFFFFFFFFFFFFFFFFFFF AND SUB PUSH2 0x11AE JUMPI PUSH0 PUSH1 0x40 MLOAD PUSH32 0x1E4FBDF700000000000000000000000000000000000000000000000000000000 DUP2 MSTORE PUSH1 0x4 ADD PUSH2 0x11A5 SWAP2 SWAP1 PUSH2 0x175A JUMP JUMPDEST PUSH1 0x40 MLOAD DUP1 SWAP2 SUB SWAP1 REVERT JUMPDEST PUSH2 0x11B7 DUP2 PUSH2 0x12C0 JUMP JUMPDEST POP JUMP JUMPDEST PUSH2 0x1234 DUP4 DUP5 PUSH20 0xFFFFFFFFFFFFFFFFFFFFFFFFFFFFFFFFFFFFFFFF AND PUSH4 0xA9059CBB DUP6 DUP6 PUSH1 0x40 MLOAD PUSH1 0x24 ADD PUSH2 0x11ED SWAP3 SWAP2 SWAP1 PUSH2 0x1AE3 JUMP JUMPDEST PUSH1 0x40 MLOAD PUSH1 0x20 DUP2 DUP4 SUB SUB DUP2 MSTORE SWAP1 PUSH1 0x40 MSTORE SWAP2 POP PUSH1 0xE0 SHL PUSH1 0x20 DUP3 ADD DUP1 MLOAD PUSH28 0xFFFFFFFFFFFFFFFFFFFFFFFFFFFFFFFFFFFFFFFFFFFFFFFFFFFFFFFF DUP4 DUP2 DUP4 AND OR DUP4 MSTORE POP POP POP POP PUSH2 0x1403 JUMP JUMPDEST POP POP POP JUMP JUMPDEST PUSH2 0x1241 PUSH2 0x149E JUMP JUMPDEST PUSH20 0xFFFFFFFFFFFFFFFFFFFFFFFFFFFFFFFFFFFFFFFF AND PUSH2 0x125F PUSH2 0xCB3 JUMP JUMPDEST PUSH20 0xFFFFFFFFFFFFFFFFFFFFFFFFFFFFFFFFFFFFFFFF AND EQ PUSH2 0x12BE JUMPI PUSH2 0x1282 PUSH2 0x149E JUMP JUMPDEST PUSH1 0x40 MLOAD PUSH32 0x118CDAA700000000000000000000000000000000000000000000000000000000 DUP2 MSTORE PUSH1 0x4 ADD PUSH2 0x12B5 SWAP2 SWAP1 PUSH2 0x175A JUMP JUMPDEST PUSH1 0x40 MLOAD DUP1 SWAP2 SUB SWAP1 REVERT JUMPDEST JUMP JUMPDEST PUSH0 PUSH0 PUSH0 SWAP1 SLOAD SWAP1 PUSH2 0x100 EXP SWAP1 DIV PUSH20 0xFFFFFFFFFFFFFFFFFFFFFFFFFFFFFFFFFFFFFFFF AND SWAP1 POP DUP2 PUSH0 PUSH0 PUSH2 0x100 EXP DUP2 SLOAD DUP2 PUSH20 0xFFFFFFFFFFFFFFFFFFFFFFFFFFFFFFFFFFFFFFFF MUL NOT AND SWAP1 DUP4 PUSH20 0xFFFFFFFFFFFFFFFFFFFFFFFFFFFFFFFFFFFFFFFF AND MUL OR SWAP1 SSTORE POP DUP2 PUSH20 0xFFFFFFFFFFFFFFFFFFFFFFFFFFFFFFFFFFFFFFFF AND DUP2 PUSH20 0xFFFFFFFFFFFFFFFFFFFFFFFFFFFFFFFFFFFFFFFF AND PUSH32 0x8BE0079C531659141344CD1FD0A4F28419497F9722A3DAAFE3B4186F6B6457E0 PUSH1 0x40 MLOAD PUSH1 0x40 MLOAD DUP1 SWAP2 SUB SWAP1 LOG3 POP POP JUMP JUMPDEST PUSH2 0x13FD DUP5 DUP6 PUSH20 0xFFFFFFFFFFFFFFFFFFFFFFFFFFFFFFFFFFFFFFFF AND PUSH4 0x23B872DD DUP7 DUP7 DUP7 PUSH1 0x40 MLOAD PUSH1 0x24 ADD PUSH2 0x13B6 SWAP4 SWAP3 SWAP2 SWAP1 PUSH2 0x1B99 JUMP JUMPDEST PUSH1 0x40 MLOAD PUSH1 0x20 DUP2 DUP4 SUB SUB DUP2 MSTORE SWAP1 PUSH1 0x40 MSTORE SWAP2 POP PUSH1 0xE0 SHL PUSH1 0x20 DUP3 ADD DUP1 MLOAD PUSH28 0xFFFFFFFFFFFFFFFFFFFFFFFFFFFFFFFFFFFFFFFFFFFFFFFFFFFFFFFF DUP4 DUP2 DUP4 AND OR DUP4 MSTORE POP POP POP POP PUSH2 0x1403 JUMP JUMPDEST POP POP POP POP JUMP JUMPDEST PUSH0 PUSH0 PUSH1 0x20 PUSH0 DUP5 MLOAD PUSH1 0x20 DUP7 ADD PUSH0 DUP9 GAS CALL DUP1 PUSH2 0x1422 JUMPI PUSH1 0x40 MLOAD RETURNDATASIZE PUSH0 DUP3 RETURNDATACOPY RETURNDATASIZE DUP2 REVERT JUMPDEST RETURNDATASIZE SWAP3 POP PUSH0 MLOAD SWAP2 POP POP PUSH0 DUP3 EQ PUSH2 0x143B JUMPI PUSH1 0x1 DUP2 EQ ISZERO PUSH2 0x1456 JUMP JUMPDEST PUSH0 DUP5 PUSH20 0xFFFFFFFFFFFFFFFFFFFFFFFFFFFFFFFFFFFFFFFF AND EXTCODESIZE EQ JUMPDEST ISZERO PUSH2 0x1498 JUMPI DUP4 PUSH1 0x40 MLOAD PUSH32 0x5274AFE700000000000000000000000000000000000000000000000000000000 DUP2 MSTORE PUSH1 0x4 ADD PUSH2 0x148F SWAP2 SWAP1 PUSH2 0x175A JUMP JUMPDEST PUSH1 0x40 MLOAD DUP1 SWAP2 SUB SWAP1 REVERT JUMPDEST POP POP POP POP JUMP JUMPDEST PUSH0 CALLER SWAP1 POP SWAP1 JUMP JUMPDEST PUSH0 DUP2 SWAP1 POP SWAP2 SWAP1 POP JUMP JUMPDEST PUSH2 0x14B7 DUP2 PUSH2 0x14A5 JUMP JUMPDEST DUP3 MSTORE POP POP JUMP JUMPDEST PUSH0 PUSH1 0x20 DUP3 ADD SWAP1 POP PUSH2 0x14D0 PUSH0 DUP4 ADD DUP5 PUSH2 0x14AE JUMP JUMPDEST SWAP3 SWAP2 POP POP JUMP JUMPDEST PUSH0 PUSH0 REVERT JUMPDEST PUSH2 0x14E3 DUP2 PUSH2 0x14A5 JUMP JUMPDEST DUP2 EQ PUSH2 0x14ED JUMPI PUSH0 PUSH0 REVERT JUMPDEST POP JUMP JUMPDEST PUSH0 DUP2 CALLDATALOAD SWAP1 POP PUSH2 0x14FE DUP2 PUSH2 0x14DA JUMP JUMPDEST SWAP3 SWAP2 POP POP JUMP JUMPDEST PUSH0 PUSH1 0x20 DUP3 DUP5 SUB SLT ISZERO PUSH2 0x1519 JUMPI PUSH2 0x1518 PUSH2 0x14D6 JUMP JUMPDEST JUMPDEST PUSH0 PUSH2 0x1526 DUP5 DUP3 DUP6 ADD PUSH2 0x14F0 JUMP JUMPDEST SWAP2 POP POP SWAP3 SWAP2 POP POP JUMP JUMPDEST PUSH0 PUSH20 0xFFFFFFFFFFFFFFFFFFFFFFFFFFFFFFFFFFFFFFFF DUP3 AND SWAP1 POP SWAP2 SWAP1 POP JUMP JUMPDEST PUSH0 DUP2 SWAP1 POP SWAP2 SWAP1 POP JUMP JUMPDEST PUSH0 PUSH2 0x1571 PUSH2 0x156C PUSH2 0x1567 DUP5 PUSH2 0x152F JUMP JUMPDEST PUSH2 0x154E JUMP JUMPDEST PUSH2 0x152F JUMP JUMPDEST SWAP1 POP SWAP2 SWAP1 POP JUMP JUMPDEST PUSH0 PUSH2 0x1582 DUP3 PUSH2 0x1557 JUMP JUMPDEST SWAP1 POP SWAP2 SWAP1 POP JUMP JUMPDEST PUSH0 PUSH2 0x1593 DUP3 PUSH2 0x1578 JUMP JUMPDEST SWAP1 POP SWAP2 SWAP1 POP JUMP JUMPDEST PUSH2 0x15A3 DUP2 PUSH2 0x1589 JUMP JUMPDEST DUP3 MSTORE POP POP JUMP JUMPDEST PUSH0 PUSH1 0x80 DUP3 ADD SWAP1 POP PUSH2 0x15BC PUSH0 DUP4 ADD DUP8 PUSH2 0x159A JUMP JUMPDEST PUSH2 0x15C9 PUSH1 0x20 DUP4 ADD DUP7 PUSH2 0x14AE JUMP JUMPDEST PUSH2 0x15D6 PUSH1 0x40 DUP4 ADD DUP6 PUSH2 0x14AE JUMP JUMPDEST PUSH2 0x15E3 PUSH1 0x60 DUP4 ADD DUP5 PUSH2 0x14AE JUMP JUMPDEST SWAP6 SWAP5 POP POP POP POP POP JUMP JUMPDEST PUSH0 PUSH0 PUSH1 0x40 DUP4 DUP6 SUB SLT ISZERO PUSH2 0x1602 JUMPI PUSH2 0x1601 PUSH2 0x14D6 JUMP JUMPDEST JUMPDEST PUSH0 PUSH2 0x160F DUP6 DUP3 DUP7 ADD PUSH2 0x14F0 JUMP JUMPDEST SWAP3 POP POP PUSH1 0x20 PUSH2 0x1620 DUP6 DUP3 DUP7 ADD PUSH2 0x14F0 JUMP JUMPDEST SWAP2 POP POP SWAP3 POP SWAP3 SWAP1 POP JUMP JUMPDEST PUSH0 DUP2 ISZERO ISZERO SWAP1 POP SWAP2 SWAP1 POP JUMP JUMPDEST PUSH2 0x163E DUP2 PUSH2 0x162A JUMP JUMPDEST DUP2 EQ PUSH2 0x1648 JUMPI PUSH0 PUSH0 REVERT JUMPDEST POP JUMP JUMPDEST PUSH0 DUP2 CALLDATALOAD SWAP1 POP PUSH2 0x1659 DUP2 PUSH2 0x1635 JUMP JUMPDEST SWAP3 SWAP2 POP POP JUMP JUMPDEST PUSH0 PUSH0 PUSH0 PUSH1 0x60 DUP5 DUP7 SUB SLT ISZERO PUSH2 0x1676 JUMPI PUSH2 0x1675 PUSH2 0x14D6 JUMP JUMPDEST JUMPDEST PUSH0 PUSH2 0x1683 DUP7 DUP3 DUP8 ADD PUSH2 0x14F0 JUMP JUMPDEST SWAP4 POP POP PUSH1 0x20 PUSH2 0x1694 DUP7 DUP3 DUP8 ADD PUSH2 0x14F0 JUMP JUMPDEST SWAP3 POP POP PUSH1 0x40 PUSH2 0x16A5 DUP7 DUP3 DUP8 ADD PUSH2 0x164B JUMP JUMPDEST SWAP2 POP POP SWAP3 POP SWAP3 POP SWAP3 JUMP JUMPDEST PUSH0 PUSH2 0x16B9 DUP3 PUSH2 0x152F JUMP JUMPDEST SWAP1 POP SWAP2 SWAP1 POP JUMP JUMPDEST PUSH0 PUSH2 0x16CA DUP3 PUSH2 0x16AF JUMP JUMPDEST SWAP1 POP SWAP2 SWAP1 POP JUMP JUMPDEST PUSH2 0x16DA DUP2 PUSH2 0x16C0 JUMP JUMPDEST DUP2 EQ PUSH2 0x16E4 JUMPI PUSH0 PUSH0 REVERT JUMPDEST POP JUMP JUMPDEST PUSH0 DUP2 CALLDATALOAD SWAP1 POP PUSH2 0x16F5 DUP2 PUSH2 0x16D1 JUMP JUMPDEST SWAP3 SWAP2 POP POP JUMP JUMPDEST PUSH0 PUSH0 PUSH0 PUSH1 0x60 DUP5 DUP7 SUB SLT ISZERO PUSH2 0x1712 JUMPI PUSH2 0x1711 PUSH2 0x14D6 JUMP JUMPDEST JUMPDEST PUSH0 PUSH2 0x171F DUP7 DUP3 DUP8 ADD PUSH2 0x14F0 JUMP JUMPDEST SWAP4 POP POP PUSH1 0x20 PUSH2 0x1730 DUP7 DUP3 DUP8 ADD PUSH2 0x16E7 JUMP JUMPDEST SWAP3 POP POP PUSH1 0x40 PUSH2 0x1741 DUP7 DUP3 DUP8 ADD PUSH2 0x164B JUMP JUMPDEST SWAP2 POP POP SWAP3 POP SWAP3 POP SWAP3 JUMP JUMPDEST PUSH2 0x1754 DUP2 PUSH2 0x16AF JUMP JUMPDEST DUP3 MSTORE POP POP JUMP JUMPDEST PUSH0 PUSH1 0x20 DUP3 ADD SWAP1 POP PUSH2 0x176D PUSH0 DUP4 ADD DUP5 PUSH2 0x174B JUMP JUMPDEST SWAP3 SWAP2 POP POP JUMP JUMPDEST PUSH2 0x177C DUP2 PUSH2 0x16AF JUMP JUMPDEST DUP2 EQ PUSH2 0x1786 JUMPI PUSH0 PUSH0 REVERT JUMPDEST POP JUMP JUMPDEST PUSH0 DUP2 CALLDATALOAD SWAP1 POP PUSH2 0x1797 DUP2 PUSH2 0x1773 JUMP JUMPDEST SWAP3 SWAP2 POP POP JUMP JUMPDEST PUSH0 PUSH0 PUSH1 0x40 DUP4 DUP6 SUB SLT ISZERO PUSH2 0x17B3 JUMPI PUSH2 0x17B2 PUSH2 0x14D6 JUMP JUMPDEST JUMPDEST PUSH0 PUSH2 0x17C0 DUP6 DUP3 DUP7 ADD PUSH2 0x14F0 JUMP JUMPDEST SWAP3 POP POP PUSH1 0x20 PUSH2 0x17D1 DUP6 DUP3 DUP7 ADD PUSH2 0x1789 JUMP JUMPDEST SWAP2 POP POP SWAP3 POP SWAP3 SWAP1 POP JUMP JUMPDEST PUSH0 PUSH1 0x40 DUP3 ADD SWAP1 POP PUSH2 0x17EE PUSH0 DUP4 ADD DUP6 PUSH2 0x14AE JUMP JUMPDEST PUSH2 0x17FB PUSH1 0x20 DUP4 ADD DUP5 PUSH2 0x14AE JUMP JUMPDEST SWAP4 SWAP3 POP POP POP JUMP JUMPDEST PUSH0 PUSH2 0x180C DUP3 PUSH2 0x1578 JUMP JUMPDEST SWAP1 POP SWAP2 SWAP1 POP JUMP JUMPDEST PUSH2 0x181C DUP2 PUSH2 0x1802 JUMP JUMPDEST DUP3 MSTORE POP POP JUMP JUMPDEST PUSH0 PUSH1 0x20 DUP3 ADD SWAP1 POP PUSH2 0x1835 PUSH0 DUP4 ADD DUP5 PUSH2 0x1813 JUMP JUMPDEST SWAP3 SWAP2 POP POP JUMP JUMPDEST PUSH0 PUSH1 0x20 DUP3 DUP5 SUB SLT ISZERO PUSH2 0x1850 JUMPI PUSH2 0x184F PUSH2 0x14D6 JUMP JUMPDEST JUMPDEST PUSH0 PUSH2 0x185D DUP5 DUP3 DUP6 ADD PUSH2 0x1789 JUMP JUMPDEST SWAP2 POP POP SWAP3 SWAP2 POP POP JUMP JUMPDEST PUSH32 0x4E487B7100000000000000000000000000000000000000000000000000000000 PUSH0 MSTORE PUSH1 0x11 PUSH1 0x4 MSTORE PUSH1 0x24 PUSH0 REVERT JUMPDEST PUSH0 PUSH2 0x189D DUP3 PUSH2 0x14A5 JUMP JUMPDEST SWAP2 POP PUSH2 0x18A8 DUP4 PUSH2 0x14A5 JUMP JUMPDEST SWAP3 POP DUP3 DUP3 ADD SWAP1 POP DUP1 DUP3 GT ISZERO PUSH2 0x18C0 JUMPI PUSH2 0x18BF PUSH2 0x1866 JUMP JUMPDEST JUMPDEST SWAP3 SWAP2 POP POP JUMP JUMPDEST PUSH0 DUP3 DUP3 MSTORE PUSH1 0x20 DUP3 ADD SWAP1 POP SWAP3 SWAP2 POP POP JUMP JUMPDEST PUSH32 0x546F6F206561726C790000000000000000000000000000000000000000000000 PUSH0 DUP3 ADD MSTORE POP JUMP JUMPDEST PUSH0 PUSH2 0x190A PUSH1 0x9 DUP4 PUSH2 0x18C6 JUMP JUMPDEST SWAP2 POP PUSH2 0x1915 DUP3 PUSH2 0x18D6 JUMP JUMPDEST PUSH1 0x20 DUP3 ADD SWAP1 POP SWAP2 SWAP1 POP JUMP JUMPDEST PUSH0 PUSH1 0x20 DUP3 ADD SWAP1 POP DUP2 DUP2 SUB PUSH0 DUP4 ADD MSTORE PUSH2 0x1937 DUP2 PUSH2 0x18FE JUMP JUMPDEST SWAP1 POP SWAP2 SWAP1 POP JUMP JUMPDEST PUSH32 0x4E487B7100000000000000000000000000000000000000000000000000000000 PUSH0 MSTORE PUSH1 0x32 PUSH1 0x4 MSTORE PUSH1 0x24 PUSH0 REVERT JUMPDEST PUSH32 0x77697468647261773A206E6F7420676F6F640000000000000000000000000000 PUSH0 DUP3 ADD MSTORE POP JUMP JUMPDEST PUSH0 PUSH2 0x199F PUSH1 0x12 DUP4 PUSH2 0x18C6 JUMP JUMPDEST SWAP2 POP PUSH2 0x19AA DUP3 PUSH2 0x196B JUMP JUMPDEST PUSH1 0x20 DUP3 ADD SWAP1 POP SWAP2 SWAP1 POP JUMP JUMPDEST PUSH0 PUSH1 0x20 DUP3 ADD SWAP1 POP DUP2 DUP2 SUB PUSH0 DUP4 ADD MSTORE PUSH2 0x19CC DUP2 PUSH2 0x1993 JUMP JUMPDEST SWAP1 POP SWAP2 SWAP1 POP JUMP JUMPDEST PUSH0 PUSH2 0x19DD DUP3 PUSH2 0x14A5 JUMP JUMPDEST SWAP2 POP PUSH2 0x19E8 DUP4 PUSH2 0x14A5 JUMP JUMPDEST SWAP3 POP DUP3 DUP3 MUL PUSH2 0x19F6 DUP2 PUSH2 0x14A5 JUMP JUMPDEST SWAP2 POP DUP3 DUP3 DIV DUP5 EQ DUP4 ISZERO OR PUSH2 0x1A0D JUMPI PUSH2 0x1A0C PUSH2 0x1866 JUMP JUMPDEST JUMPDEST POP SWAP3 SWAP2 POP POP JUMP JUMPDEST PUSH32 0x4E487B7100000000000000000000000000000000000000000000000000000000 PUSH0 MSTORE PUSH1 0x12 PUSH1 0x4 MSTORE PUSH1 0x24 PUSH0 REVERT JUMPDEST PUSH0 PUSH2 0x1A4B DUP3 PUSH2 0x14A5 JUMP JUMPDEST SWAP2 POP PUSH2 0x1A56 DUP4 PUSH2 0x14A5 JUMP JUMPDEST SWAP3 POP DUP3 PUSH2 0x1A66 JUMPI PUSH2 0x1A65 PUSH2 0x1A14 JUMP JUMPDEST JUMPDEST DUP3 DUP3 DIV SWAP1 POP SWAP3 SWAP2 POP POP JUMP JUMPDEST PUSH0 PUSH2 0x1A7B DUP3 PUSH2 0x14A5 JUMP JUMPDEST SWAP2 POP PUSH2 0x1A86 DUP4 PUSH2 0x14A5 JUMP JUMPDEST SWAP3 POP DUP3 DUP3 SUB SWAP1 POP DUP2 DUP2 GT ISZERO PUSH2 0x1A9E JUMPI PUSH2 0x1A9D PUSH2 0x1866 JUMP JUMPDEST JUMPDEST SWAP3 SWAP2 POP POP JUMP JUMPDEST PUSH0 DUP2 MLOAD SWAP1 POP PUSH2 0x1AB2 DUP2 PUSH2 0x14DA JUMP JUMPDEST SWAP3 SWAP2 POP POP JUMP JUMPDEST PUSH0 PUSH1 0x20 DUP3 DUP5 SUB SLT ISZERO PUSH2 0x1ACD JUMPI PUSH2 0x1ACC PUSH2 0x14D6 JUMP JUMPDEST JUMPDEST PUSH0 PUSH2 0x1ADA DUP5 DUP3 DUP6 ADD PUSH2 0x1AA4 JUMP JUMPDEST SWAP2 POP POP SWAP3 SWAP2 POP POP JUMP JUMPDEST PUSH0 PUSH1 0x40 DUP3 ADD SWAP1 POP PUSH2 0x1AF6 PUSH0 DUP4 ADD DUP6 PUSH2 0x174B JUMP JUMPDEST PUSH2 0x1B03 PUSH1 0x20 DUP4 ADD DUP5 PUSH2 0x14AE JUMP JUMPDEST SWAP4 SWAP3 POP POP POP JUMP JUMPDEST PUSH0 PUSH1 0x40 DUP3 ADD SWAP1 POP PUSH2 0x1B1D PUSH0 DUP4 ADD DUP6 PUSH2 0x174B JUMP JUMPDEST PUSH2 0x1B2A PUSH1 0x20 DUP4 ADD DUP5 PUSH2 0x174B JUMP JUMPDEST SWAP4 SWAP3 POP POP POP JUMP JUMPDEST PUSH32 0x416C6C6F77616E6365206E6F74206869676820656E6F75676800000000000000 PUSH0 DUP3 ADD MSTORE POP JUMP JUMPDEST PUSH0 PUSH2 0x1B65 PUSH1 0x19 DUP4 PUSH2 0x18C6 JUMP JUMPDEST SWAP2 POP PUSH2 0x1B70 DUP3 PUSH2 0x1B31 JUMP JUMPDEST PUSH1 0x20 DUP3 ADD SWAP1 POP SWAP2 SWAP1 POP JUMP JUMPDEST PUSH0 PUSH1 0x20 DUP3 ADD SWAP1 POP DUP2 DUP2 SUB PUSH0 DUP4 ADD MSTORE PUSH2 0x1B92 DUP2 PUSH2 0x1B59 JUMP JUMPDEST SWAP1 POP SWAP2 SWAP1 POP JUMP JUMPDEST PUSH0 PUSH1 0x60 DUP3 ADD SWAP1 POP PUSH2 0x1BAC PUSH0 DUP4 ADD DUP7 PUSH2 0x174B JUMP JUMPDEST PUSH2 0x1BB9 PUSH1 0x20 DUP4 ADD DUP6 PUSH2 0x174B JUMP JUMPDEST PUSH2 0x1BC6 PUSH1 0x40 DUP4 ADD DUP5 PUSH2 0x14AE JUMP JUMPDEST SWAP5 SWAP4 POP POP POP POP JUMP INVALID LOG2 PUSH5 0x6970667358 0x22 SLT KECCAK256 0x22 0x27 LOG3 PUSH20 0xFC540A7B682224CA800FC24DD6ADE251FBE8B159 0xCE ORIGIN 0xD7 PUSH17 0x3633A74F64736F6C634300081C00330000 "
		},
		"gasEstimates": {
			"creation": {
				"codeDepositCost": "1434400",
				"executionCost": "infinite",
				"totalCost": "infinite"
			},
			"external": {
				"BONUS_MULTIPLIER()": "436",
				"GRAND_CAP()": "369",
				"Grand()": "infinite",
				"GrandPerBlock()": "2537",
				"addPool(uint256,address,bool)": "infinite",
				"bonusEndBlock()": "2515",
				"collector()": "2575",
				"deposit(uint256,uint256)": "infinite",
				"emergencyWithdraw(uint256)": "infinite",
				"getMultiplier(uint256,uint256)": "infinite",
				"grandMinted()": "2514",
				"massUpdatePools()": "infinite",
				"owner()": "2647",
				"poolInfo(uint256)": "infinite",
				"poolLength()": "2464",
				"renounceOwnership()": "infinite",
				"setPool(uint256,uint256,bool)": "infinite",
				"startBlock()": "2470",
				"startTime()": "2470",
				"totalAllocPoint()": "2493",
				"totalBoxes()": "2536",
				"transferOwnership(address)": "infinite",
				"updatePool(uint256)": "infinite",
				"userInfo(uint256,address)": "infinite",
				"withdraw(uint256,uint256)": "infinite"
			}
		},
		"methodIdentifiers": {
			"BONUS_MULTIPLIER()": "8aa28550",
			"GRAND_CAP()": "b9926557",
			"Grand()": "d129459b",
			"GrandPerBlock()": "212f14cc",
			"addPool(uint256,address,bool)": "7abceffd",
			"bonusEndBlock()": "1aed6553",
			"collector()": "913e77ad",
			"deposit(uint256,uint256)": "e2bbb158",
			"emergencyWithdraw(uint256)": "5312ea8e",
			"getMultiplier(uint256,uint256)": "8dbb1e3a",
			"grandMinted()": "83e27185",
			"massUpdatePools()": "630b5ba1",
			"owner()": "8da5cb5b",
			"poolInfo(uint256)": "1526fe27",
			"poolLength()": "081e3eda",
			"renounceOwnership()": "715018a6",
			"setPool(uint256,uint256,bool)": "46ca6bea",
			"startBlock()": "48cd4cb1",
			"startTime()": "78e97925",
			"totalAllocPoint()": "17caf6f1",
			"totalBoxes()": "57e78adc",
			"transferOwnership(address)": "f2fde38b",
			"updatePool(uint256)": "51eb05a6",
			"userInfo(uint256,address)": "93f1a40b",
			"withdraw(uint256,uint256)": "441a3e70"
		}
	},
	"abi": [
		{
			"inputs": [
				{
					"internalType": "contract GrandToken",
					"name": "_Grand",
					"type": "address"
				},
				{
					"internalType": "uint256",
					"name": "_GrandPerBlock",
					"type": "uint256"
				},
				{
					"internalType": "uint256",
					"name": "_bonusEndBlock",
					"type": "uint256"
				}
			],
			"stateMutability": "nonpayable",
			"type": "constructor"
		},
		{
			"inputs": [
				{
					"internalType": "address",
					"name": "owner",
					"type": "address"
				}
			],
			"name": "OwnableInvalidOwner",
			"type": "error"
		},
		{
			"inputs": [
				{
					"internalType": "address",
					"name": "account",
					"type": "address"
				}
			],
			"name": "OwnableUnauthorizedAccount",
			"type": "error"
		},
		{
			"inputs": [
				{
					"internalType": "address",
					"name": "token",
					"type": "address"
				}
			],
			"name": "SafeERC20FailedOperation",
			"type": "error"
		},
		{
			"anonymous": false,
			"inputs": [
				{
					"indexed": true,
					"internalType": "address",
					"name": "user",
					"type": "address"
				},
				{
					"indexed": true,
					"internalType": "address",
					"name": "lpAddress",
					"type": "address"
				},
				{
					"indexed": true,
					"internalType": "uint256",
					"name": "pid",
					"type": "uint256"
				},
				{
					"indexed": false,
					"internalType": "uint256",
					"name": "amount",
					"type": "uint256"
				}
			],
			"name": "Deposit",
			"type": "event"
		},
		{
			"anonymous": false,
			"inputs": [
				{
					"indexed": true,
					"internalType": "address",
					"name": "user",
					"type": "address"
				},
				{
					"indexed": true,
					"internalType": "uint256",
					"name": "pid",
					"type": "uint256"
				},
				{
					"indexed": false,
					"internalType": "uint256",
					"name": "amount",
					"type": "uint256"
				}
			],
			"name": "EmergencyWithdraw",
			"type": "event"
		},
		{
			"anonymous": false,
			"inputs": [
				{
					"indexed": true,
					"internalType": "address",
					"name": "previousOwner",
					"type": "address"
				},
				{
					"indexed": true,
					"internalType": "address",
					"name": "newOwner",
					"type": "address"
				}
			],
			"name": "OwnershipTransferred",
			"type": "event"
		},
		{
			"anonymous": false,
			"inputs": [
				{
					"indexed": true,
					"internalType": "address",
					"name": "user",
					"type": "address"
				},
				{
					"indexed": true,
					"internalType": "address",
					"name": "lpAddress",
					"type": "address"
				},
				{
					"indexed": true,
					"internalType": "uint256",
					"name": "pid",
					"type": "uint256"
				},
				{
					"indexed": false,
					"internalType": "uint256",
					"name": "amount",
					"type": "uint256"
				}
			],
			"name": "Withdraw",
			"type": "event"
		},
		{
			"inputs": [],
			"name": "BONUS_MULTIPLIER",
			"outputs": [
				{
					"internalType": "uint256",
					"name": "",
					"type": "uint256"
				}
			],
			"stateMutability": "view",
			"type": "function"
		},
		{
			"inputs": [],
			"name": "GRAND_CAP",
			"outputs": [
				{
					"internalType": "uint256",
					"name": "",
					"type": "uint256"
				}
			],
			"stateMutability": "view",
			"type": "function"
		},
		{
			"inputs": [],
			"name": "Grand",
			"outputs": [
				{
					"internalType": "contract GrandToken",
					"name": "",
					"type": "address"
				}
			],
			"stateMutability": "view",
			"type": "function"
		},
		{
			"inputs": [],
			"name": "GrandPerBlock",
			"outputs": [
				{
					"internalType": "uint256",
					"name": "",
					"type": "uint256"
				}
			],
			"stateMutability": "view",
			"type": "function"
		},
		{
			"inputs": [
				{
					"internalType": "uint256",
					"name": "_allocPoint",
					"type": "uint256"
				},
				{
					"internalType": "contract IERC20",
					"name": "_lpToken",
					"type": "address"
				},
				{
					"internalType": "bool",
					"name": "_withUpdate",
					"type": "bool"
				}
			],
			"name": "addPool",
			"outputs": [],
			"stateMutability": "nonpayable",
			"type": "function"
		},
		{
			"inputs": [],
			"name": "bonusEndBlock",
			"outputs": [
				{
					"internalType": "uint256",
					"name": "",
					"type": "uint256"
				}
			],
			"stateMutability": "view",
			"type": "function"
		},
		{
			"inputs": [],
			"name": "collector",
			"outputs": [
				{
					"internalType": "address",
					"name": "",
					"type": "address"
				}
			],
			"stateMutability": "view",
			"type": "function"
		},
		{
			"inputs": [
				{
					"internalType": "uint256",
					"name": "_pid",
					"type": "uint256"
				},
				{
					"internalType": "uint256",
					"name": "_amount",
					"type": "uint256"
				}
			],
			"name": "deposit",
			"outputs": [],
			"stateMutability": "nonpayable",
			"type": "function"
		},
		{
			"inputs": [
				{
					"internalType": "uint256",
					"name": "_pid",
					"type": "uint256"
				}
			],
			"name": "emergencyWithdraw",
			"outputs": [],
			"stateMutability": "nonpayable",
			"type": "function"
		},
		{
			"inputs": [
				{
					"internalType": "uint256",
					"name": "_from",
					"type": "uint256"
				},
				{
					"internalType": "uint256",
					"name": "_to",
					"type": "uint256"
				}
			],
			"name": "getMultiplier",
			"outputs": [
				{
					"internalType": "uint256",
					"name": "",
					"type": "uint256"
				}
			],
			"stateMutability": "view",
			"type": "function"
		},
		{
			"inputs": [],
			"name": "grandMinted",
			"outputs": [
				{
					"internalType": "uint256",
					"name": "",
					"type": "uint256"
				}
			],
			"stateMutability": "view",
			"type": "function"
		},
		{
			"inputs": [],
			"name": "massUpdatePools",
			"outputs": [],
			"stateMutability": "nonpayable",
			"type": "function"
		},
		{
			"inputs": [],
			"name": "owner",
			"outputs": [
				{
					"internalType": "address",
					"name": "",
					"type": "address"
				}
			],
			"stateMutability": "view",
			"type": "function"
		},
		{
			"inputs": [
				{
					"internalType": "uint256",
					"name": "",
					"type": "uint256"
				}
			],
			"name": "poolInfo",
			"outputs": [
				{
					"internalType": "contract IERC20",
					"name": "lpToken",
					"type": "address"
				},
				{
					"internalType": "uint256",
					"name": "allocPoint",
					"type": "uint256"
				},
				{
					"internalType": "uint256",
					"name": "lastRewardBlock",
					"type": "uint256"
				},
				{
					"internalType": "uint256",
					"name": "accGrandPerShare",
					"type": "uint256"
				}
			],
			"stateMutability": "view",
			"type": "function"
		},
		{
			"inputs": [],
			"name": "poolLength",
			"outputs": [
				{
					"internalType": "uint256",
					"name": "",
					"type": "uint256"
				}
			],
			"stateMutability": "view",
			"type": "function"
		},
		{
			"inputs": [],
			"name": "renounceOwnership",
			"outputs": [],
			"stateMutability": "nonpayable",
			"type": "function"
		},
		{
			"inputs": [
				{
					"internalType": "uint256",
					"name": "_pid",
					"type": "uint256"
				},
				{
					"internalType": "uint256",
					"name": "_allocPoint",
					"type": "uint256"
				},
				{
					"internalType": "bool",
					"name": "_withUpdate",
					"type": "bool"
				}
			],
			"name": "setPool",
			"outputs": [],
			"stateMutability": "nonpayable",
			"type": "function"
		},
		{
			"inputs": [],
			"name": "startBlock",
			"outputs": [
				{
					"internalType": "uint256",
					"name": "",
					"type": "uint256"
				}
			],
			"stateMutability": "view",
			"type": "function"
		},
		{
			"inputs": [],
			"name": "startTime",
			"outputs": [
				{
					"internalType": "uint256",
					"name": "",
					"type": "uint256"
				}
			],
			"stateMutability": "view",
			"type": "function"
		},
		{
			"inputs": [],
			"name": "totalAllocPoint",
			"outputs": [
				{
					"internalType": "uint256",
					"name": "",
					"type": "uint256"
				}
			],
			"stateMutability": "view",
			"type": "function"
		},
		{
			"inputs": [],
			"name": "totalBoxes",
			"outputs": [
				{
					"internalType": "uint256",
					"name": "",
					"type": "uint256"
				}
			],
			"stateMutability": "view",
			"type": "function"
		},
		{
			"inputs": [
				{
					"internalType": "address",
					"name": "newOwner",
					"type": "address"
				}
			],
			"name": "transferOwnership",
			"outputs": [],
			"stateMutability": "nonpayable",
			"type": "function"
		},
		{
			"inputs": [
				{
					"internalType": "uint256",
					"name": "_pid",
					"type": "uint256"
				}
			],
			"name": "updatePool",
			"outputs": [],
			"stateMutability": "nonpayable",
			"type": "function"
		},
		{
			"inputs": [
				{
					"internalType": "uint256",
					"name": "",
					"type": "uint256"
				},
				{
					"internalType": "address",
					"name": "",
					"type": "address"
				}
			],
			"name": "userInfo",
			"outputs": [
				{
					"internalType": "uint256",
					"name": "amount",
					"type": "uint256"
				},
				{
					"internalType": "uint256",
					"name": "rewardDebt",
					"type": "uint256"
				}
			],
			"stateMutability": "view",
			"type": "function"
		},
		{
			"inputs": [
				{
					"internalType": "uint256",
					"name": "_pid",
					"type": "uint256"
				},
				{
					"internalType": "uint256",
					"name": "_amount",
					"type": "uint256"
				}
			],
			"name": "withdraw",
			"outputs": [],
			"stateMutability": "nonpayable",
			"type": "function"
		}
	]
}