{
	"data": {
		"bytecode": {
			"linkReferences": {},
			"object": "6080604052348015600e575f5ffd5b50335f5f6101000a81548173ffffffffffffffffffffffffffffffffffffffff021916908373ffffffffffffffffffffffffffffffffffffffff1602179055506130df8061005b5f395ff3fe608060405234801561000f575f5ffd5b5060043610610156575f3560e01c806392eefe9b116100c1578063c15973041161007a578063c1597304146103b2578063ced683c7146103e2578063e8c4be30146103fe578063f2fde38b1461041c578063f8a2abd314610438578063feaf968c1461045457610156565b806392eefe9b146102c85780639a6fc8f5146102e4578063a928c09614610318578063b5ab58dc14610334578063b633620c14610364578063bc43cbaf1461039457610156565b8063668a0f0211610113578063668a0f02146102245780637284e4161461024257806379ba5097146102605780638205bf6a1461026a5780638da5cb5b146102885780638f6b4d91146102a657610156565b8063245a7bfc1461015a578063313ce5671461017857806350d25bcd1461019657806354fd4d50146101b457806358303b10146101d25780636001ac53146101f0575b5f5ffd5b610162610476565b60405161016f9190612330565b60405180910390f35b6101806104a1565b60405161018d9190612364565b60405180910390f35b61019e610538565b6040516101ab9190612395565b60405180910390f35b6101bc61065e565b6040516101c991906123c6565b60405180910390f35b6101da6106f5565b6040516101e791906123fb565b60405180910390f35b61020a60048036038101906102059190612464565b61070d565b60405161021b95949392919061249e565b60405180910390f35b61022c6108d5565b60405161023991906123c6565b60405180910390f35b61024a6109fb565b604051610257919061255f565b60405180910390f35b610268610a96565b005b610272610be6565b60405161027f91906123c6565b60405180910390f35b610290610d0c565b60405161029d919061259f565b60405180910390f35b6102ae610d30565b6040516102bf95949392919061249e565b60405180910390f35b6102e260048036038101906102dd91906125e2565b610ef5565b005b6102fe60048036038101906102f99190612464565b610fc7565b60405161030f95949392919061249e565b60405180910390f35b610332600480360381019061032d91906125e2565b611100565b005b61034e60048036038101906103499190612637565b61124d565b60405161035b9190612395565b60405180910390f35b61037e60048036038101906103799190612637565b611376565b60405161038b91906123c6565b60405180910390f35b61039c61149f565b6040516103a991906126bd565b60405180910390f35b6103cc60048036038101906103c79190612700565b6114c5565b6040516103d9919061274b565b60405180910390f35b6103fc60048036038101906103f7919061278e565b6114f5565b005b610406611569565b604051610413919061274b565b60405180910390f35b610436600480360381019061043191906125e2565b61158e565b005b610452600480360381019061044d91906125e2565b6116d9565b005b61045c6117aa565b60405161046d95949392919061249e565b60405180910390f35b5f60025f0160029054906101000a900473ffffffffffffffffffffffffffffffffffffffff16905090565b5f60025f0160029054906101000a900473ffffffffffffffffffffffffffffffffffffffff1673ffffffffffffffffffffffffffffffffffffffff1663313ce5676040518163ffffffff1660e01b8152600401602060405180830381865afa15801561050f573d5f5f3e3d5ffd5b505050506040513d601f19601f82011682018060405250810190610533919061282f565b905090565b5f5f6009600a9054906101000a900473ffffffffffffffffffffffffffffffffffffffff1690505f73ffffffffffffffffffffffffffffffffffffffff168173ffffffffffffffffffffffffffffffffffffffff16148061061157508073ffffffffffffffffffffffffffffffffffffffff16636b14daf8335f366040518463ffffffff1660e01b81526004016105d1939291906128a4565b602060405180830381865afa1580156105ec573d5f5f3e3d5ffd5b505050506040513d601f19601f820116820180604052508101906106109190612909565b5b610650576040517f08c379a00000000000000000000000000000000000000000000000000000000081526004016106479061297e565b60405180910390fd5b6106586118e0565b91505090565b5f60025f0160029054906101000a900473ffffffffffffffffffffffffffffffffffffffff1673ffffffffffffffffffffffffffffffffffffffff166354fd4d506040518163ffffffff1660e01b8152600401602060405180830381865afa1580156106cc573d5f5f3e3d5ffd5b505050506040513d601f19601f820116820180604052508101906106f091906129b0565b905090565b5f60025f015f9054906101000a900461ffff16905090565b5f5f5f5f5f5f6009600a9054906101000a900473ffffffffffffffffffffffffffffffffffffffff1690505f73ffffffffffffffffffffffffffffffffffffffff168173ffffffffffffffffffffffffffffffffffffffff1614806107ea57508073ffffffffffffffffffffffffffffffffffffffff16636b14daf8335f366040518463ffffffff1660e01b81526004016107aa939291906128a4565b602060405180830381865afa1580156107c5573d5f5f3e3d5ffd5b505050506040513d601f19601f820116820180604052508101906107e99190612909565b5b610829576040517f08c379a00000000000000000000000000000000000000000000000000000000081526004016108209061297e565b60405180910390fd5b5f73ffffffffffffffffffffffffffffffffffffffff1660035f9054906101000a900473ffffffffffffffffffffffffffffffffffffffff1673ffffffffffffffffffffffffffffffffffffffff16036108b8576040517f08c379a00000000000000000000000000000000000000000000000000000000081526004016108af90612a25565b60405180910390fd5b6108c187611977565b955095509550955095505091939590929450565b5f5f6009600a9054906101000a900473ffffffffffffffffffffffffffffffffffffffff1690505f73ffffffffffffffffffffffffffffffffffffffff168173ffffffffffffffffffffffffffffffffffffffff1614806109ae57508073ffffffffffffffffffffffffffffffffffffffff16636b14daf8335f366040518463ffffffff1660e01b815260040161096e939291906128a4565b602060405180830381865afa158015610989573d5f5f3e3d5ffd5b505050506040513d601f19601f820116820180604052508101906109ad9190612909565b5b6109ed576040517f08c379a00000000000000000000000000000000000000000000000000000000081526004016109e49061297e565b60405180910390fd5b6109f5611ab7565b91505090565b606060025f0160029054906101000a900473ffffffffffffffffffffffffffffffffffffffff1673ffffffffffffffffffffffffffffffffffffffff16637284e4166040518163ffffffff1660e01b81526004015f60405180830381865afa158015610a69573d5f5f3e3d5ffd5b505050506040513d5f823e3d601f19601f82011682018060405250810190610a919190612b61565b905090565b60015f9054906101000a900473ffffffffffffffffffffffffffffffffffffffff1673ffffffffffffffffffffffffffffffffffffffff163373ffffffffffffffffffffffffffffffffffffffff1614610b25576040517f08c379a0000000000000000000000000000000000000000000000000000000008152600401610b1c90612bf2565b60405180910390fd5b5f5f5f9054906101000a900473ffffffffffffffffffffffffffffffffffffffff1690505f60015f6101000a81548173ffffffffffffffffffffffffffffffffffffffff021916908373ffffffffffffffffffffffffffffffffffffffff1602179055503373ffffffffffffffffffffffffffffffffffffffff168173ffffffffffffffffffffffffffffffffffffffff167f8be0079c531659141344cd1fd0a4f28419497f9722a3daafe3b4186f6b6457e060405160405180910390a350565b5f5f6009600a9054906101000a900473ffffffffffffffffffffffffffffffffffffffff1690505f73ffffffffffffffffffffffffffffffffffffffff168173ffffffffffffffffffffffffffffffffffffffff161480610cbf57508073ffffffffffffffffffffffffffffffffffffffff16636b14daf8335f366040518463ffffffff1660e01b8152600401610c7f939291906128a4565b602060405180830381865afa158015610c9a573d5f5f3e3d5ffd5b505050506040513d601f19601f82011682018060405250810190610cbe9190612909565b5b610cfe576040517f08c379a0000000000000000000000000000000000000000000000000000000008152600401610cf59061297e565b60405180910390fd5b610d06611bca565b91505090565b5f5f9054906101000a900473ffffffffffffffffffffffffffffffffffffffff1681565b5f5f5f5f5f5f6009600a9054906101000a900473ffffffffffffffffffffffffffffffffffffffff1690505f73ffffffffffffffffffffffffffffffffffffffff168173ffffffffffffffffffffffffffffffffffffffff161480610e0d57508073ffffffffffffffffffffffffffffffffffffffff16636b14daf8335f366040518463ffffffff1660e01b8152600401610dcd939291906128a4565b602060405180830381865afa158015610de8573d5f5f3e3d5ffd5b505050506040513d601f19601f82011682018060405250810190610e0c9190612909565b5b610e4c576040517f08c379a0000000000000000000000000000000000000000000000000000000008152600401610e439061297e565b60405180910390fd5b5f73ffffffffffffffffffffffffffffffffffffffff1660035f9054906101000a900473ffffffffffffffffffffffffffffffffffffffff1673ffffffffffffffffffffffffffffffffffffffff1603610edb576040517f08c379a0000000000000000000000000000000000000000000000000000000008152600401610ed290612a25565b60405180910390fd5b610ee3611c61565b95509550955095509550509091929394565b5f5f9054906101000a900473ffffffffffffffffffffffffffffffffffffffff1673ffffffffffffffffffffffffffffffffffffffff163373ffffffffffffffffffffffffffffffffffffffff1614610f83576040517f08c379a0000000000000000000000000000000000000000000000000000000008152600401610f7a90612c5a565b60405180910390fd5b806009600a6101000a81548173ffffffffffffffffffffffffffffffffffffffff021916908373ffffffffffffffffffffffffffffffffffffffff16021790555050565b5f5f5f5f5f5f6009600a9054906101000a900473ffffffffffffffffffffffffffffffffffffffff1690505f73ffffffffffffffffffffffffffffffffffffffff168173ffffffffffffffffffffffffffffffffffffffff1614806110a457508073ffffffffffffffffffffffffffffffffffffffff16636b14daf8335f366040518463ffffffff1660e01b8152600401611064939291906128a4565b602060405180830381865afa15801561107f573d5f5f3e3d5ffd5b505050506040513d601f19601f820116820180604052508101906110a39190612909565b5b6110e3576040517f08c379a00000000000000000000000000000000000000000000000000000000081526004016110da9061297e565b60405180910390fd5b6110ec87611d94565b955095509550955095505091939590929450565b5f5f9054906101000a900473ffffffffffffffffffffffffffffffffffffffff1673ffffffffffffffffffffffffffffffffffffffff163373ffffffffffffffffffffffffffffffffffffffff161461118e576040517f08c379a000000000000000000000000000000000000000000000000000000000815260040161118590612c5a565b60405180910390fd5b60035f9054906101000a900473ffffffffffffffffffffffffffffffffffffffff1673ffffffffffffffffffffffffffffffffffffffff168173ffffffffffffffffffffffffffffffffffffffff161461121d576040517f08c379a000000000000000000000000000000000000000000000000000000000815260040161121490612cc2565b60405180910390fd5b60035f6101000a81549073ffffffffffffffffffffffffffffffffffffffff021916905561124a81611e9b565b50565b5f5f6009600a9054906101000a900473ffffffffffffffffffffffffffffffffffffffff1690505f73ffffffffffffffffffffffffffffffffffffffff168173ffffffffffffffffffffffffffffffffffffffff16148061132657508073ffffffffffffffffffffffffffffffffffffffff16636b14daf8335f366040518463ffffffff1660e01b81526004016112e6939291906128a4565b602060405180830381865afa158015611301573d5f5f3e3d5ffd5b505050506040513d601f19601f820116820180604052508101906113259190612909565b5b611365576040517f08c379a000000000000000000000000000000000000000000000000000000000815260040161135c9061297e565b60405180910390fd5b61136e83611fb1565b915050919050565b5f5f6009600a9054906101000a900473ffffffffffffffffffffffffffffffffffffffff1690505f73ffffffffffffffffffffffffffffffffffffffff168173ffffffffffffffffffffffffffffffffffffffff16148061144f57508073ffffffffffffffffffffffffffffffffffffffff16636b14daf8335f366040518463ffffffff1660e01b815260040161140f939291906128a4565b602060405180830381865afa15801561142a573d5f5f3e3d5ffd5b505050506040513d601f19601f8201168201806040525081019061144e9190612909565b5b61148e576040517f08c379a00000000000000000000000000000000000000000000000000000000081526004016114859061297e565b60405180910390fd5b611497836120f3565b915050919050565b6009600a9054906101000a900473ffffffffffffffffffffffffffffffffffffffff1681565b6004602052805f5260405f205f915054906101000a900473ffffffffffffffffffffffffffffffffffffffff1681565b8460055f6101000a81548169ffffffffffffffffffff021916908369ffffffffffffffffffff1602179055508360068190555082600781905550816008819055508060095f6101000a81548169ffffffffffffffffffff021916908369ffffffffffffffffffff1602179055505050505050565b60035f9054906101000a900473ffffffffffffffffffffffffffffffffffffffff1681565b5f5f9054906101000a900473ffffffffffffffffffffffffffffffffffffffff1673ffffffffffffffffffffffffffffffffffffffff163373ffffffffffffffffffffffffffffffffffffffff161461161c576040517f08c379a000000000000000000000000000000000000000000000000000000000815260040161161390612c5a565b60405180910390fd5b8060015f6101000a81548173ffffffffffffffffffffffffffffffffffffffff021916908373ffffffffffffffffffffffffffffffffffffffff1602179055508073ffffffffffffffffffffffffffffffffffffffff165f5f9054906101000a900473ffffffffffffffffffffffffffffffffffffffff1673ffffffffffffffffffffffffffffffffffffffff167fed8889f560326eb138920d842192f0eb3dd22b4f139c87a2c57538e05bae127860405160405180910390a350565b5f5f9054906101000a900473ffffffffffffffffffffffffffffffffffffffff1673ffffffffffffffffffffffffffffffffffffffff163373ffffffffffffffffffffffffffffffffffffffff1614611767576040517f08c379a000000000000000000000000000000000000000000000000000000000815260040161175e90612c5a565b60405180910390fd5b8060035f6101000a81548173ffffffffffffffffffffffffffffffffffffffff021916908373ffffffffffffffffffffffffffffffffffffffff16021790555050565b5f5f5f5f5f5f6009600a9054906101000a900473ffffffffffffffffffffffffffffffffffffffff1690505f73ffffffffffffffffffffffffffffffffffffffff168173ffffffffffffffffffffffffffffffffffffffff16148061188757508073ffffffffffffffffffffffffffffffffffffffff16636b14daf8335f366040518463ffffffff1660e01b8152600401611847939291906128a4565b602060405180830381865afa158015611862573d5f5f3e3d5ffd5b505050506040513d601f19601f820116820180604052508101906118869190612909565b5b6118c6576040517f08c379a00000000000000000000000000000000000000000000000000000000081526004016118bd9061297e565b60405180910390fd5b6118ce612235565b95509550955095509550509091929394565b5f60025f0160029054906101000a900473ffffffffffffffffffffffffffffffffffffffff1673ffffffffffffffffffffffffffffffffffffffff166350d25bcd6040518163ffffffff1660e01b8152600401602060405180830381865afa15801561194e573d5f5f3e3d5ffd5b505050506040513d601f19601f820116820180604052508101906119729190612cf4565b905090565b5f5f5f5f5f5f73ffffffffffffffffffffffffffffffffffffffff1660035f9054906101000a900473ffffffffffffffffffffffffffffffffffffffff1673ffffffffffffffffffffffffffffffffffffffff1603611a0b576040517f08c379a0000000000000000000000000000000000000000000000000000000008152600401611a0290612a25565b60405180910390fd5b60035f9054906101000a900473ffffffffffffffffffffffffffffffffffffffff1673ffffffffffffffffffffffffffffffffffffffff16639a6fc8f5876040518263ffffffff1660e01b8152600401611a659190612d1f565b60a060405180830381865afa158015611a80573d5f5f3e3d5ffd5b505050506040513d601f19601f82011682018060405250810190611aa49190612d4c565b9450945094509450945091939590929450565b5f5f60026040518060400160405290815f82015f9054906101000a900461ffff1661ffff1661ffff1681526020015f820160029054906101000a900473ffffffffffffffffffffffffffffffffffffffff1673ffffffffffffffffffffffffffffffffffffffff1673ffffffffffffffffffffffffffffffffffffffff16815250509050611bb8815f0151826020015173ffffffffffffffffffffffffffffffffffffffff1663668a0f026040518163ffffffff1660e01b8152600401602060405180830381865afa158015611b8f573d5f5f3e3d5ffd5b505050506040513d601f19601f82011682018060405250810190611bb391906129b0565b612284565b69ffffffffffffffffffff1691505090565b5f60025f0160029054906101000a900473ffffffffffffffffffffffffffffffffffffffff1673ffffffffffffffffffffffffffffffffffffffff16638205bf6a6040518163ffffffff1660e01b8152600401602060405180830381865afa158015611c38573d5f5f3e3d5ffd5b505050506040513d601f19601f82011682018060405250810190611c5c91906129b0565b905090565b5f5f5f5f5f5f73ffffffffffffffffffffffffffffffffffffffff1660035f9054906101000a900473ffffffffffffffffffffffffffffffffffffffff1673ffffffffffffffffffffffffffffffffffffffff1603611cf5576040517f08c379a0000000000000000000000000000000000000000000000000000000008152600401611cec90612a25565b60405180910390fd5b60035f9054906101000a900473ffffffffffffffffffffffffffffffffffffffff1673ffffffffffffffffffffffffffffffffffffffff1663feaf968c6040518163ffffffff1660e01b815260040160a060405180830381865afa158015611d5f573d5f5f3e3d5ffd5b505050506040513d601f19601f82011682018060405250810190611d839190612d4c565b945094509450945094509091929394565b5f5f5f5f5f5f5f611db08869ffffffffffffffffffff166122a2565b915091505f5f5f5f5f60045f8861ffff1661ffff1681526020019081526020015f205f9054906101000a900473ffffffffffffffffffffffffffffffffffffffff1673ffffffffffffffffffffffffffffffffffffffff16639a6fc8f5876040518263ffffffff1660e01b8152600401611e2a9190612e06565b60a060405180830381865afa158015611e45573d5f5f3e3d5ffd5b505050506040513d601f19601f82011682018060405250810190611e699190612d4c565b94509450945094509450611e8185858585858c6122bd565b9b509b509b509b509b505050505050505091939590929450565b5f600160025f015f9054906101000a900461ffff16611eba9190612e4c565b905060405180604001604052808261ffff1681526020018373ffffffffffffffffffffffffffffffffffffffff1681525060025f820151815f015f6101000a81548161ffff021916908361ffff1602179055506020820151815f0160026101000a81548173ffffffffffffffffffffffffffffffffffffffff021916908373ffffffffffffffffffffffffffffffffffffffff1602179055509050508160045f8361ffff1661ffff1681526020019081526020015f205f6101000a81548173ffffffffffffffffffffffffffffffffffffffff021916908373ffffffffffffffffffffffffffffffffffffffff1602179055505050565b5f600160106040611fc29190612e81565b6002611fce9190612fe3565b611fd8919061302d565b821115611fe7575f90506120ee565b5f5f611ff2846122a2565b915091505f60045f8461ffff1661ffff1681526020019081526020015f205f9054906101000a900473ffffffffffffffffffffffffffffffffffffffff1690505f73ffffffffffffffffffffffffffffffffffffffff168173ffffffffffffffffffffffffffffffffffffffff1603612070575f93505050506120ee565b8073ffffffffffffffffffffffffffffffffffffffff1663b5ab58dc836040518263ffffffff1660e01b81526004016120a99190613090565b602060405180830381865afa1580156120c4573d5f5f3e3d5ffd5b505050506040513d601f19601f820116820180604052508101906120e89190612cf4565b93505050505b919050565b5f6001601060406121049190612e81565b60026121109190612fe3565b61211a919061302d565b821115612129575f9050612230565b5f5f612134846122a2565b915091505f60045f8461ffff1661ffff1681526020019081526020015f205f9054906101000a900473ffffffffffffffffffffffffffffffffffffffff1690505f73ffffffffffffffffffffffffffffffffffffffff168173ffffffffffffffffffffffffffffffffffffffff16036121b2575f9350505050612230565b8073ffffffffffffffffffffffffffffffffffffffff1663b633620c836040518263ffffffff1660e01b81526004016121eb9190613090565b602060405180830381865afa158015612206573d5f5f3e3d5ffd5b505050506040513d601f19601f8201168201806040525081019061222a91906129b0565b93505050505b919050565b5f5f5f5f5f60055f9054906101000a900469ffffffffffffffffffff1660065460075460085460095f9054906101000a900469ffffffffffffffffffff16945094509450945094509091929394565b5f8167ffffffffffffffff1660408461ffff16901b17905092915050565b5f5f5f604084901c90505f8490508181935093505050915091565b5f5f5f5f5f6122cc868c612284565b8a8a8a6122d98a8c612284565b94509450945094509450965096509650965096915050565b5f73ffffffffffffffffffffffffffffffffffffffff82169050919050565b5f61231a826122f1565b9050919050565b61232a81612310565b82525050565b5f6020820190506123435f830184612321565b92915050565b5f60ff82169050919050565b61235e81612349565b82525050565b5f6020820190506123775f830184612355565b92915050565b5f819050919050565b61238f8161237d565b82525050565b5f6020820190506123a85f830184612386565b92915050565b5f819050919050565b6123c0816123ae565b82525050565b5f6020820190506123d95f8301846123b7565b92915050565b5f61ffff82169050919050565b6123f5816123df565b82525050565b5f60208201905061240e5f8301846123ec565b92915050565b5f604051905090565b5f5ffd5b5f5ffd5b5f69ffffffffffffffffffff82169050919050565b61244381612425565b811461244d575f5ffd5b50565b5f8135905061245e8161243a565b92915050565b5f602082840312156124795761247861241d565b5b5f61248684828501612450565b91505092915050565b61249881612425565b82525050565b5f60a0820190506124b15f83018861248f565b6124be6020830187612386565b6124cb60408301866123b7565b6124d860608301856123b7565b6124e5608083018461248f565b9695505050505050565b5f81519050919050565b5f82825260208201905092915050565b8281835e5f83830152505050565b5f601f19601f8301169050919050565b5f612531826124ef565b61253b81856124f9565b935061254b818560208601612509565b61255481612517565b840191505092915050565b5f6020820190508181035f8301526125778184612527565b905092915050565b5f612589826122f1565b9050919050565b6125998161257f565b82525050565b5f6020820190506125b25f830184612590565b92915050565b6125c181612310565b81146125cb575f5ffd5b50565b5f813590506125dc816125b8565b92915050565b5f602082840312156125f7576125f661241d565b5b5f612604848285016125ce565b91505092915050565b612616816123ae565b8114612620575f5ffd5b50565b5f813590506126318161260d565b92915050565b5f6020828403121561264c5761264b61241d565b5b5f61265984828501612623565b91505092915050565b5f819050919050565b5f61268561268061267b846122f1565b612662565b6122f1565b9050919050565b5f6126968261266b565b9050919050565b5f6126a78261268c565b9050919050565b6126b78161269d565b82525050565b5f6020820190506126d05f8301846126ae565b92915050565b6126df816123df565b81146126e9575f5ffd5b50565b5f813590506126fa816126d6565b92915050565b5f602082840312156127155761271461241d565b5b5f612722848285016126ec565b91505092915050565b5f6127358261268c565b9050919050565b6127458161272b565b82525050565b5f60208201905061275e5f83018461273c565b92915050565b61276d8161237d565b8114612777575f5ffd5b50565b5f8135905061278881612764565b92915050565b5f5f5f5f5f60a086880312156127a7576127a661241d565b5b5f6127b488828901612450565b95505060206127c58882890161277a565b94505060406127d688828901612623565b93505060606127e788828901612623565b92505060806127f888828901612450565b9150509295509295909350565b61280e81612349565b8114612818575f5ffd5b50565b5f8151905061282981612805565b92915050565b5f602082840312156128445761284361241d565b5b5f6128518482850161281b565b91505092915050565b5f82825260208201905092915050565b828183375f83830152505050565b5f612883838561285a565b935061289083858461286a565b61289983612517565b840190509392505050565b5f6040820190506128b75f830186612321565b81810360208301526128ca818486612878565b9050949350505050565b5f8115159050919050565b6128e8816128d4565b81146128f2575f5ffd5b50565b5f81519050612903816128df565b92915050565b5f6020828403121561291e5761291d61241d565b5b5f61292b848285016128f5565b91505092915050565b7f4e6f2061636365737300000000000000000000000000000000000000000000005f82015250565b5f6129686009836124f9565b915061297382612934565b602082019050919050565b5f6020820190508181035f8301526129958161295c565b9050919050565b5f815190506129aa8161260d565b92915050565b5f602082840312156129c5576129c461241d565b5b5f6129d28482850161299c565b91505092915050565b7f4e6f2070726f706f7365642061676772656761746f722070726573656e7400005f82015250565b5f612a0f601e836124f9565b9150612a1a826129db565b602082019050919050565b5f6020820190508181035f830152612a3c81612a03565b9050919050565b5f5ffd5b5f5ffd5b7f4e487b71000000000000000000000000000000000000000000000000000000005f52604160045260245ffd5b612a8182612517565b810181811067ffffffffffffffff82111715612aa057612a9f612a4b565b5b80604052505050565b5f612ab2612414565b9050612abe8282612a78565b919050565b5f67ffffffffffffffff821115612add57612adc612a4b565b5b612ae682612517565b9050602081019050919050565b5f612b05612b0084612ac3565b612aa9565b905082815260208101848484011115612b2157612b20612a47565b5b612b2c848285612509565b509392505050565b5f82601f830112612b4857612b47612a43565b5b8151612b58848260208601612af3565b91505092915050565b5f60208284031215612b7657612b7561241d565b5b5f82015167ffffffffffffffff811115612b9357612b92612421565b5b612b9f84828501612b34565b91505092915050565b7f4d7573742062652070726f706f736564206f776e6572000000000000000000005f82015250565b5f612bdc6016836124f9565b9150612be782612ba8565b602082019050919050565b5f6020820190508181035f830152612c0981612bd0565b9050919050565b7f4f6e6c792063616c6c61626c65206279206f776e6572000000000000000000005f82015250565b5f612c446016836124f9565b9150612c4f82612c10565b602082019050919050565b5f6020820190508181035f830152612c7181612c38565b9050919050565b7f496e76616c69642070726f706f7365642061676772656761746f7200000000005f82015250565b5f612cac601b836124f9565b9150612cb782612c78565b602082019050919050565b5f6020820190508181035f830152612cd981612ca0565b9050919050565b5f81519050612cee81612764565b92915050565b5f60208284031215612d0957612d0861241d565b5b5f612d1684828501612ce0565b91505092915050565b5f602082019050612d325f83018461248f565b92915050565b5f81519050612d468161243a565b92915050565b5f5f5f5f5f60a08688031215612d6557612d6461241d565b5b5f612d7288828901612d38565b9550506020612d8388828901612ce0565b9450506040612d948882890161299c565b9350506060612da58882890161299c565b9250506080612db688828901612d38565b9150509295509295909350565b5f67ffffffffffffffff82169050919050565b5f612df0612deb612de684612dc3565b612662565b612425565b9050919050565b612e0081612dd6565b82525050565b5f602082019050612e195f830184612df7565b92915050565b7f4e487b71000000000000000000000000000000000000000000000000000000005f52601160045260245ffd5b5f612e56826123df565b9150612e61836123df565b9250828201905061ffff811115612e7b57612e7a612e1f565b5b92915050565b5f612e8b826123ae565b9150612e96836123ae565b9250828201905080821115612eae57612ead612e1f565b5b92915050565b5f8160011c9050919050565b5f5f8291508390505b6001851115612f0957808604811115612ee557612ee4612e1f565b5b6001851615612ef45780820291505b8081029050612f0285612eb4565b9450612ec9565b94509492505050565b5f82612f215760019050612fdc565b81612f2e575f9050612fdc565b8160018114612f445760028114612f4e57612f7d565b6001915050612fdc565b60ff841115612f6057612f5f612e1f565b5b8360020a915084821115612f7757612f76612e1f565b5b50612fdc565b5060208310610133831016604e8410600b8410161715612fb25782820a905083811115612fad57612fac612e1f565b5b612fdc565b612fbf8484846001612ec0565b92509050818404811115612fd657612fd5612e1f565b5b81810290505b9392505050565b5f612fed826123ae565b9150612ff8836123ae565b92506130257fffffffffffffffffffffffffffffffffffffffffffffffffffffffffffffffff8484612f12565b905092915050565b5f613037826123ae565b9150613042836123ae565b925082820390508181111561305a57613059612e1f565b5b92915050565b5f61307a61307561307084612dc3565b612662565b6123ae565b9050919050565b61308a81613060565b82525050565b5f6020820190506130a35f830184613081565b9291505056fea2646970667358221220b79e7542e91a160a0f1bbe52861639c3ac248bf7d0749047e477c410d7eabdaa64736f6c634300081c0033",
			"opcodes": "PUSH1 0x80 PUSH1 0x40 MSTORE CALLVALUE DUP1 ISZERO PUSH1 0xE JUMPI PUSH0 PUSH0 REVERT JUMPDEST POP CALLER PUSH0 PUSH0 PUSH2 0x100 EXP DUP2 SLOAD DUP2 PUSH20 0xFFFFFFFFFFFFFFFFFFFFFFFFFFFFFFFFFFFFFFFF MUL NOT AND SWAP1 DUP4 PUSH20 0xFFFFFFFFFFFFFFFFFFFFFFFFFFFFFFFFFFFFFFFF AND MUL OR SWAP1 SSTORE POP PUSH2 0x30DF DUP1 PUSH2 0x5B PUSH0 CODECOPY PUSH0 RETURN INVALID PUSH1 0x80 PUSH1 0x40 MSTORE CALLVALUE DUP1 ISZERO PUSH2 0xF JUMPI PUSH0 PUSH0 REVERT JUMPDEST POP PUSH1 0x4 CALLDATASIZE LT PUSH2 0x156 JUMPI PUSH0 CALLDATALOAD PUSH1 0xE0 SHR DUP1 PUSH4 0x92EEFE9B GT PUSH2 0xC1 JUMPI DUP1 PUSH4 0xC1597304 GT PUSH2 0x7A JUMPI DUP1 PUSH4 0xC1597304 EQ PUSH2 0x3B2 JUMPI DUP1 PUSH4 0xCED683C7 EQ PUSH2 0x3E2 JUMPI DUP1 PUSH4 0xE8C4BE30 EQ PUSH2 0x3FE JUMPI DUP1 PUSH4 0xF2FDE38B EQ PUSH2 0x41C JUMPI DUP1 PUSH4 0xF8A2ABD3 EQ PUSH2 0x438 JUMPI DUP1 PUSH4 0xFEAF968C EQ PUSH2 0x454 JUMPI PUSH2 0x156 JUMP JUMPDEST DUP1 PUSH4 0x92EEFE9B EQ PUSH2 0x2C8 JUMPI DUP1 PUSH4 0x9A6FC8F5 EQ PUSH2 0x2E4 JUMPI DUP1 PUSH4 0xA928C096 EQ PUSH2 0x318 JUMPI DUP1 PUSH4 0xB5AB58DC EQ PUSH2 0x334 JUMPI DUP1 PUSH4 0xB633620C EQ PUSH2 0x364 JUMPI DUP1 PUSH4 0xBC43CBAF EQ PUSH2 0x394 JUMPI PUSH2 0x156 JUMP JUMPDEST DUP1 PUSH4 0x668A0F02 GT PUSH2 0x113 JUMPI DUP1 PUSH4 0x668A0F02 EQ PUSH2 0x224 JUMPI DUP1 PUSH4 0x7284E416 EQ PUSH2 0x242 JUMPI DUP1 PUSH4 0x79BA5097 EQ PUSH2 0x260 JUMPI DUP1 PUSH4 0x8205BF6A EQ PUSH2 0x26A JUMPI DUP1 PUSH4 0x8DA5CB5B EQ PUSH2 0x288 JUMPI DUP1 PUSH4 0x8F6B4D91 EQ PUSH2 0x2A6 JUMPI PUSH2 0x156 JUMP JUMPDEST DUP1 PUSH4 0x245A7BFC EQ PUSH2 0x15A JUMPI DUP1 PUSH4 0x313CE567 EQ PUSH2 0x178 JUMPI DUP1 PUSH4 0x50D25BCD EQ PUSH2 0x196 JUMPI DUP1 PUSH4 0x54FD4D50 EQ PUSH2 0x1B4 JUMPI DUP1 PUSH4 0x58303B10 EQ PUSH2 0x1D2 JUMPI DUP1 PUSH4 0x6001AC53 EQ PUSH2 0x1F0 JUMPI JUMPDEST PUSH0 PUSH0 REVERT JUMPDEST PUSH2 0x162 PUSH2 0x476 JUMP JUMPDEST PUSH1 0x40 MLOAD PUSH2 0x16F SWAP2 SWAP1 PUSH2 0x2330 JUMP JUMPDEST PUSH1 0x40 MLOAD DUP1 SWAP2 SUB SWAP1 RETURN JUMPDEST PUSH2 0x180 PUSH2 0x4A1 JUMP JUMPDEST PUSH1 0x40 MLOAD PUSH2 0x18D SWAP2 SWAP1 PUSH2 0x2364 JUMP JUMPDEST PUSH1 0x40 MLOAD DUP1 SWAP2 SUB SWAP1 RETURN JUMPDEST PUSH2 0x19E PUSH2 0x538 JUMP JUMPDEST PUSH1 0x40 MLOAD PUSH2 0x1AB SWAP2 SWAP1 PUSH2 0x2395 JUMP JUMPDEST PUSH1 0x40 MLOAD DUP1 SWAP2 SUB SWAP1 RETURN JUMPDEST PUSH2 0x1BC PUSH2 0x65E JUMP JUMPDEST PUSH1 0x40 MLOAD PUSH2 0x1C9 SWAP2 SWAP1 PUSH2 0x23C6 JUMP JUMPDEST PUSH1 0x40 MLOAD DUP1 SWAP2 SUB SWAP1 RETURN JUMPDEST PUSH2 0x1DA PUSH2 0x6F5 JUMP JUMPDEST PUSH1 0x40 MLOAD PUSH2 0x1E7 SWAP2 SWAP1 PUSH2 0x23FB JUMP JUMPDEST PUSH1 0x40 MLOAD DUP1 SWAP2 SUB SWAP1 RETURN JUMPDEST PUSH2 0x20A PUSH1 0x4 DUP1 CALLDATASIZE SUB DUP2 ADD SWAP1 PUSH2 0x205 SWAP2 SWAP1 PUSH2 0x2464 JUMP JUMPDEST PUSH2 0x70D JUMP JUMPDEST PUSH1 0x40 MLOAD PUSH2 0x21B SWAP6 SWAP5 SWAP4 SWAP3 SWAP2 SWAP1 PUSH2 0x249E JUMP JUMPDEST PUSH1 0x40 MLOAD DUP1 SWAP2 SUB SWAP1 RETURN JUMPDEST PUSH2 0x22C PUSH2 0x8D5 JUMP JUMPDEST PUSH1 0x40 MLOAD PUSH2 0x239 SWAP2 SWAP1 PUSH2 0x23C6 JUMP JUMPDEST PUSH1 0x40 MLOAD DUP1 SWAP2 SUB SWAP1 RETURN JUMPDEST PUSH2 0x24A PUSH2 0x9FB JUMP JUMPDEST PUSH1 0x40 MLOAD PUSH2 0x257 SWAP2 SWAP1 PUSH2 0x255F JUMP JUMPDEST PUSH1 0x40 MLOAD DUP1 SWAP2 SUB SWAP1 RETURN JUMPDEST PUSH2 0x268 PUSH2 0xA96 JUMP JUMPDEST STOP JUMPDEST PUSH2 0x272 PUSH2 0xBE6 JUMP JUMPDEST PUSH1 0x40 MLOAD PUSH2 0x27F SWAP2 SWAP1 PUSH2 0x23C6 JUMP JUMPDEST PUSH1 0x40 MLOAD DUP1 SWAP2 SUB SWAP1 RETURN JUMPDEST PUSH2 0x290 PUSH2 0xD0C JUMP JUMPDEST PUSH1 0x40 MLOAD PUSH2 0x29D SWAP2 SWAP1 PUSH2 0x259F JUMP JUMPDEST PUSH1 0x40 MLOAD DUP1 SWAP2 SUB SWAP1 RETURN JUMPDEST PUSH2 0x2AE PUSH2 0xD30 JUMP JUMPDEST PUSH1 0x40 MLOAD PUSH2 0x2BF SWAP6 SWAP5 SWAP4 SWAP3 SWAP2 SWAP1 PUSH2 0x249E JUMP JUMPDEST PUSH1 0x40 MLOAD DUP1 SWAP2 SUB SWAP1 RETURN JUMPDEST PUSH2 0x2E2 PUSH1 0x4 DUP1 CALLDATASIZE SUB DUP2 ADD SWAP1 PUSH2 0x2DD SWAP2 SWAP1 PUSH2 0x25E2 JUMP JUMPDEST PUSH2 0xEF5 JUMP JUMPDEST STOP JUMPDEST PUSH2 0x2FE PUSH1 0x4 DUP1 CALLDATASIZE SUB DUP2 ADD SWAP1 PUSH2 0x2F9 SWAP2 SWAP1 PUSH2 0x2464 JUMP JUMPDEST PUSH2 0xFC7 JUMP JUMPDEST PUSH1 0x40 MLOAD PUSH2 0x30F SWAP6 SWAP5 SWAP4 SWAP3 SWAP2 SWAP1 PUSH2 0x249E JUMP JUMPDEST PUSH1 0x40 MLOAD DUP1 SWAP2 SUB SWAP1 RETURN JUMPDEST PUSH2 0x332 PUSH1 0x4 DUP1 CALLDATASIZE SUB DUP2 ADD SWAP1 PUSH2 0x32D SWAP2 SWAP1 PUSH2 0x25E2 JUMP JUMPDEST PUSH2 0x1100 JUMP JUMPDEST STOP JUMPDEST PUSH2 0x34E PUSH1 0x4 DUP1 CALLDATASIZE SUB DUP2 ADD SWAP1 PUSH2 0x349 SWAP2 SWAP1 PUSH2 0x2637 JUMP JUMPDEST PUSH2 0x124D JUMP JUMPDEST PUSH1 0x40 MLOAD PUSH2 0x35B SWAP2 SWAP1 PUSH2 0x2395 JUMP JUMPDEST PUSH1 0x40 MLOAD DUP1 SWAP2 SUB SWAP1 RETURN JUMPDEST PUSH2 0x37E PUSH1 0x4 DUP1 CALLDATASIZE SUB DUP2 ADD SWAP1 PUSH2 0x379 SWAP2 SWAP1 PUSH2 0x2637 JUMP JUMPDEST PUSH2 0x1376 JUMP JUMPDEST PUSH1 0x40 MLOAD PUSH2 0x38B SWAP2 SWAP1 PUSH2 0x23C6 JUMP JUMPDEST PUSH1 0x40 MLOAD DUP1 SWAP2 SUB SWAP1 RETURN JUMPDEST PUSH2 0x39C PUSH2 0x149F JUMP JUMPDEST PUSH1 0x40 MLOAD PUSH2 0x3A9 SWAP2 SWAP1 PUSH2 0x26BD JUMP JUMPDEST PUSH1 0x40 MLOAD DUP1 SWAP2 SUB SWAP1 RETURN JUMPDEST PUSH2 0x3CC PUSH1 0x4 DUP1 CALLDATASIZE SUB DUP2 ADD SWAP1 PUSH2 0x3C7 SWAP2 SWAP1 PUSH2 0x2700 JUMP JUMPDEST PUSH2 0x14C5 JUMP JUMPDEST PUSH1 0x40 MLOAD PUSH2 0x3D9 SWAP2 SWAP1 PUSH2 0x274B JUMP JUMPDEST PUSH1 0x40 MLOAD DUP1 SWAP2 SUB SWAP1 RETURN JUMPDEST PUSH2 0x3FC PUSH1 0x4 DUP1 CALLDATASIZE SUB DUP2 ADD SWAP1 PUSH2 0x3F7 SWAP2 SWAP1 PUSH2 0x278E JUMP JUMPDEST PUSH2 0x14F5 JUMP JUMPDEST STOP JUMPDEST PUSH2 0x406 PUSH2 0x1569 JUMP JUMPDEST PUSH1 0x40 MLOAD PUSH2 0x413 SWAP2 SWAP1 PUSH2 0x274B JUMP JUMPDEST PUSH1 0x40 MLOAD DUP1 SWAP2 SUB SWAP1 RETURN JUMPDEST PUSH2 0x436 PUSH1 0x4 DUP1 CALLDATASIZE SUB DUP2 ADD SWAP1 PUSH2 0x431 SWAP2 SWAP1 PUSH2 0x25E2 JUMP JUMPDEST PUSH2 0x158E JUMP JUMPDEST STOP JUMPDEST PUSH2 0x452 PUSH1 0x4 DUP1 CALLDATASIZE SUB DUP2 ADD SWAP1 PUSH2 0x44D SWAP2 SWAP1 PUSH2 0x25E2 JUMP JUMPDEST PUSH2 0x16D9 JUMP JUMPDEST STOP JUMPDEST PUSH2 0x45C PUSH2 0x17AA JUMP JUMPDEST PUSH1 0x40 MLOAD PUSH2 0x46D SWAP6 SWAP5 SWAP4 SWAP3 SWAP2 SWAP1 PUSH2 0x249E JUMP JUMPDEST PUSH1 0x40 MLOAD DUP1 SWAP2 SUB SWAP1 RETURN JUMPDEST PUSH0 PUSH1 0x2 PUSH0 ADD PUSH1 0x2 SWAP1 SLOAD SWAP1 PUSH2 0x100 EXP SWAP1 DIV PUSH20 0xFFFFFFFFFFFFFFFFFFFFFFFFFFFFFFFFFFFFFFFF AND SWAP1 POP SWAP1 JUMP JUMPDEST PUSH0 PUSH1 0x2 PUSH0 ADD PUSH1 0x2 SWAP1 SLOAD SWAP1 PUSH2 0x100 EXP SWAP1 DIV PUSH20 0xFFFFFFFFFFFFFFFFFFFFFFFFFFFFFFFFFFFFFFFF AND PUSH20 0xFFFFFFFFFFFFFFFFFFFFFFFFFFFFFFFFFFFFFFFF AND PUSH4 0x313CE567 PUSH1 0x40 MLOAD DUP2 PUSH4 0xFFFFFFFF AND PUSH1 0xE0 SHL DUP2 MSTORE PUSH1 0x4 ADD PUSH1 0x20 PUSH1 0x40 MLOAD DUP1 DUP4 SUB DUP2 DUP7 GAS STATICCALL ISZERO DUP1 ISZERO PUSH2 0x50F JUMPI RETURNDATASIZE PUSH0 PUSH0 RETURNDATACOPY RETURNDATASIZE PUSH0 REVERT JUMPDEST POP POP POP POP PUSH1 0x40 MLOAD RETURNDATASIZE PUSH1 0x1F NOT PUSH1 0x1F DUP3 ADD AND DUP3 ADD DUP1 PUSH1 0x40 MSTORE POP DUP2 ADD SWAP1 PUSH2 0x533 SWAP2 SWAP1 PUSH2 0x282F JUMP JUMPDEST SWAP1 POP SWAP1 JUMP JUMPDEST PUSH0 PUSH0 PUSH1 0x9 PUSH1 0xA SWAP1 SLOAD SWAP1 PUSH2 0x100 EXP SWAP1 DIV PUSH20 0xFFFFFFFFFFFFFFFFFFFFFFFFFFFFFFFFFFFFFFFF AND SWAP1 POP PUSH0 PUSH20 0xFFFFFFFFFFFFFFFFFFFFFFFFFFFFFFFFFFFFFFFF AND DUP2 PUSH20 0xFFFFFFFFFFFFFFFFFFFFFFFFFFFFFFFFFFFFFFFF AND EQ DUP1 PUSH2 0x611 JUMPI POP DUP1 PUSH20 0xFFFFFFFFFFFFFFFFFFFFFFFFFFFFFFFFFFFFFFFF AND PUSH4 0x6B14DAF8 CALLER PUSH0 CALLDATASIZE PUSH1 0x40 MLOAD DUP5 PUSH4 0xFFFFFFFF AND PUSH1 0xE0 SHL DUP2 MSTORE PUSH1 0x4 ADD PUSH2 0x5D1 SWAP4 SWAP3 SWAP2 SWAP1 PUSH2 0x28A4 JUMP JUMPDEST PUSH1 0x20 PUSH1 0x40 MLOAD DUP1 DUP4 SUB DUP2 DUP7 GAS STATICCALL ISZERO DUP1 ISZERO PUSH2 0x5EC JUMPI RETURNDATASIZE PUSH0 PUSH0 RETURNDATACOPY RETURNDATASIZE PUSH0 REVERT JUMPDEST POP POP POP POP PUSH1 0x40 MLOAD RETURNDATASIZE PUSH1 0x1F NOT PUSH1 0x1F DUP3 ADD AND DUP3 ADD DUP1 PUSH1 0x40 MSTORE POP DUP2 ADD SWAP1 PUSH2 0x610 SWAP2 SWAP1 PUSH2 0x2909 JUMP JUMPDEST JUMPDEST PUSH2 0x650 JUMPI PUSH1 0x40 MLOAD PUSH32 0x8C379A000000000000000000000000000000000000000000000000000000000 DUP2 MSTORE PUSH1 0x4 ADD PUSH2 0x647 SWAP1 PUSH2 0x297E JUMP JUMPDEST PUSH1 0x40 MLOAD DUP1 SWAP2 SUB SWAP1 REVERT JUMPDEST PUSH2 0x658 PUSH2 0x18E0 JUMP JUMPDEST SWAP2 POP POP SWAP1 JUMP JUMPDEST PUSH0 PUSH1 0x2 PUSH0 ADD PUSH1 0x2 SWAP1 SLOAD SWAP1 PUSH2 0x100 EXP SWAP1 DIV PUSH20 0xFFFFFFFFFFFFFFFFFFFFFFFFFFFFFFFFFFFFFFFF AND PUSH20 0xFFFFFFFFFFFFFFFFFFFFFFFFFFFFFFFFFFFFFFFF AND PUSH4 0x54FD4D50 PUSH1 0x40 MLOAD DUP2 PUSH4 0xFFFFFFFF AND PUSH1 0xE0 SHL DUP2 MSTORE PUSH1 0x4 ADD PUSH1 0x20 PUSH1 0x40 MLOAD DUP1 DUP4 SUB DUP2 DUP7 GAS STATICCALL ISZERO DUP1 ISZERO PUSH2 0x6CC JUMPI RETURNDATASIZE PUSH0 PUSH0 RETURNDATACOPY RETURNDATASIZE PUSH0 REVERT JUMPDEST POP POP POP POP PUSH1 0x40 MLOAD RETURNDATASIZE PUSH1 0x1F NOT PUSH1 0x1F DUP3 ADD AND DUP3 ADD DUP1 PUSH1 0x40 MSTORE POP DUP2 ADD SWAP1 PUSH2 0x6F0 SWAP2 SWAP1 PUSH2 0x29B0 JUMP JUMPDEST SWAP1 POP SWAP1 JUMP JUMPDEST PUSH0 PUSH1 0x2 PUSH0 ADD PUSH0 SWAP1 SLOAD SWAP1 PUSH2 0x100 EXP SWAP1 DIV PUSH2 0xFFFF AND SWAP1 POP SWAP1 JUMP JUMPDEST PUSH0 PUSH0 PUSH0 PUSH0 PUSH0 PUSH0 PUSH1 0x9 PUSH1 0xA SWAP1 SLOAD SWAP1 PUSH2 0x100 EXP SWAP1 DIV PUSH20 0xFFFFFFFFFFFFFFFFFFFFFFFFFFFFFFFFFFFFFFFF AND SWAP1 POP PUSH0 PUSH20 0xFFFFFFFFFFFFFFFFFFFFFFFFFFFFFFFFFFFFFFFF AND DUP2 PUSH20 0xFFFFFFFFFFFFFFFFFFFFFFFFFFFFFFFFFFFFFFFF AND EQ DUP1 PUSH2 0x7EA JUMPI POP DUP1 PUSH20 0xFFFFFFFFFFFFFFFFFFFFFFFFFFFFFFFFFFFFFFFF AND PUSH4 0x6B14DAF8 CALLER PUSH0 CALLDATASIZE PUSH1 0x40 MLOAD DUP5 PUSH4 0xFFFFFFFF AND PUSH1 0xE0 SHL DUP2 MSTORE PUSH1 0x4 ADD PUSH2 0x7AA SWAP4 SWAP3 SWAP2 SWAP1 PUSH2 0x28A4 JUMP JUMPDEST PUSH1 0x20 PUSH1 0x40 MLOAD DUP1 DUP4 SUB DUP2 DUP7 GAS STATICCALL ISZERO DUP1 ISZERO PUSH2 0x7C5 JUMPI RETURNDATASIZE PUSH0 PUSH0 RETURNDATACOPY RETURNDATASIZE PUSH0 REVERT JUMPDEST POP POP POP POP PUSH1 0x40 MLOAD RETURNDATASIZE PUSH1 0x1F NOT PUSH1 0x1F DUP3 ADD AND DUP3 ADD DUP1 PUSH1 0x40 MSTORE POP DUP2 ADD SWAP1 PUSH2 0x7E9 SWAP2 SWAP1 PUSH2 0x2909 JUMP JUMPDEST JUMPDEST PUSH2 0x829 JUMPI PUSH1 0x40 MLOAD PUSH32 0x8C379A000000000000000000000000000000000000000000000000000000000 DUP2 MSTORE PUSH1 0x4 ADD PUSH2 0x820 SWAP1 PUSH2 0x297E JUMP JUMPDEST PUSH1 0x40 MLOAD DUP1 SWAP2 SUB SWAP1 REVERT JUMPDEST PUSH0 PUSH20 0xFFFFFFFFFFFFFFFFFFFFFFFFFFFFFFFFFFFFFFFF AND PUSH1 0x3 PUSH0 SWAP1 SLOAD SWAP1 PUSH2 0x100 EXP SWAP1 DIV PUSH20 0xFFFFFFFFFFFFFFFFFFFFFFFFFFFFFFFFFFFFFFFF AND PUSH20 0xFFFFFFFFFFFFFFFFFFFFFFFFFFFFFFFFFFFFFFFF AND SUB PUSH2 0x8B8 JUMPI PUSH1 0x40 MLOAD PUSH32 0x8C379A000000000000000000000000000000000000000000000000000000000 DUP2 MSTORE PUSH1 0x4 ADD PUSH2 0x8AF SWAP1 PUSH2 0x2A25 JUMP JUMPDEST PUSH1 0x40 MLOAD DUP1 SWAP2 SUB SWAP1 REVERT JUMPDEST PUSH2 0x8C1 DUP8 PUSH2 0x1977 JUMP JUMPDEST SWAP6 POP SWAP6 POP SWAP6 POP SWAP6 POP SWAP6 POP POP SWAP2 SWAP4 SWAP6 SWAP1 SWAP3 SWAP5 POP JUMP JUMPDEST PUSH0 PUSH0 PUSH1 0x9 PUSH1 0xA SWAP1 SLOAD SWAP1 PUSH2 0x100 EXP SWAP1 DIV PUSH20 0xFFFFFFFFFFFFFFFFFFFFFFFFFFFFFFFFFFFFFFFF AND SWAP1 POP PUSH0 PUSH20 0xFFFFFFFFFFFFFFFFFFFFFFFFFFFFFFFFFFFFFFFF AND DUP2 PUSH20 0xFFFFFFFFFFFFFFFFFFFFFFFFFFFFFFFFFFFFFFFF AND EQ DUP1 PUSH2 0x9AE JUMPI POP DUP1 PUSH20 0xFFFFFFFFFFFFFFFFFFFFFFFFFFFFFFFFFFFFFFFF AND PUSH4 0x6B14DAF8 CALLER PUSH0 CALLDATASIZE PUSH1 0x40 MLOAD DUP5 PUSH4 0xFFFFFFFF AND PUSH1 0xE0 SHL DUP2 MSTORE PUSH1 0x4 ADD PUSH2 0x96E SWAP4 SWAP3 SWAP2 SWAP1 PUSH2 0x28A4 JUMP JUMPDEST PUSH1 0x20 PUSH1 0x40 MLOAD DUP1 DUP4 SUB DUP2 DUP7 GAS STATICCALL ISZERO DUP1 ISZERO PUSH2 0x989 JUMPI RETURNDATASIZE PUSH0 PUSH0 RETURNDATACOPY RETURNDATASIZE PUSH0 REVERT JUMPDEST POP POP POP POP PUSH1 0x40 MLOAD RETURNDATASIZE PUSH1 0x1F NOT PUSH1 0x1F DUP3 ADD AND DUP3 ADD DUP1 PUSH1 0x40 MSTORE POP DUP2 ADD SWAP1 PUSH2 0x9AD SWAP2 SWAP1 PUSH2 0x2909 JUMP JUMPDEST JUMPDEST PUSH2 0x9ED JUMPI PUSH1 0x40 MLOAD PUSH32 0x8C379A000000000000000000000000000000000000000000000000000000000 DUP2 MSTORE PUSH1 0x4 ADD PUSH2 0x9E4 SWAP1 PUSH2 0x297E JUMP JUMPDEST PUSH1 0x40 MLOAD DUP1 SWAP2 SUB SWAP1 REVERT JUMPDEST PUSH2 0x9F5 PUSH2 0x1AB7 JUMP JUMPDEST SWAP2 POP POP SWAP1 JUMP JUMPDEST PUSH1 0x60 PUSH1 0x2 PUSH0 ADD PUSH1 0x2 SWAP1 SLOAD SWAP1 PUSH2 0x100 EXP SWAP1 DIV PUSH20 0xFFFFFFFFFFFFFFFFFFFFFFFFFFFFFFFFFFFFFFFF AND PUSH20 0xFFFFFFFFFFFFFFFFFFFFFFFFFFFFFFFFFFFFFFFF AND PUSH4 0x7284E416 PUSH1 0x40 MLOAD DUP2 PUSH4 0xFFFFFFFF AND PUSH1 0xE0 SHL DUP2 MSTORE PUSH1 0x4 ADD PUSH0 PUSH1 0x40 MLOAD DUP1 DUP4 SUB DUP2 DUP7 GAS STATICCALL ISZERO DUP1 ISZERO PUSH2 0xA69 JUMPI RETURNDATASIZE PUSH0 PUSH0 RETURNDATACOPY RETURNDATASIZE PUSH0 REVERT JUMPDEST POP POP POP POP PUSH1 0x40 MLOAD RETURNDATASIZE PUSH0 DUP3 RETURNDATACOPY RETURNDATASIZE PUSH1 0x1F NOT PUSH1 0x1F DUP3 ADD AND DUP3 ADD DUP1 PUSH1 0x40 MSTORE POP DUP2 ADD SWAP1 PUSH2 0xA91 SWAP2 SWAP1 PUSH2 0x2B61 JUMP JUMPDEST SWAP1 POP SWAP1 JUMP JUMPDEST PUSH1 0x1 PUSH0 SWAP1 SLOAD SWAP1 PUSH2 0x100 EXP SWAP1 DIV PUSH20 0xFFFFFFFFFFFFFFFFFFFFFFFFFFFFFFFFFFFFFFFF AND PUSH20 0xFFFFFFFFFFFFFFFFFFFFFFFFFFFFFFFFFFFFFFFF AND CALLER PUSH20 0xFFFFFFFFFFFFFFFFFFFFFFFFFFFFFFFFFFFFFFFF AND EQ PUSH2 0xB25 JUMPI PUSH1 0x40 MLOAD PUSH32 0x8C379A000000000000000000000000000000000000000000000000000000000 DUP2 MSTORE PUSH1 0x4 ADD PUSH2 0xB1C SWAP1 PUSH2 0x2BF2 JUMP JUMPDEST PUSH1 0x40 MLOAD DUP1 SWAP2 SUB SWAP1 REVERT JUMPDEST PUSH0 PUSH0 PUSH0 SWAP1 SLOAD SWAP1 PUSH2 0x100 EXP SWAP1 DIV PUSH20 0xFFFFFFFFFFFFFFFFFFFFFFFFFFFFFFFFFFFFFFFF AND SWAP1 POP PUSH0 PUSH1 0x1 PUSH0 PUSH2 0x100 EXP DUP2 SLOAD DUP2 PUSH20 0xFFFFFFFFFFFFFFFFFFFFFFFFFFFFFFFFFFFFFFFF MUL NOT AND SWAP1 DUP4 PUSH20 0xFFFFFFFFFFFFFFFFFFFFFFFFFFFFFFFFFFFFFFFF AND MUL OR SWAP1 SSTORE POP CALLER PUSH20 0xFFFFFFFFFFFFFFFFFFFFFFFFFFFFFFFFFFFFFFFF AND DUP2 PUSH20 0xFFFFFFFFFFFFFFFFFFFFFFFFFFFFFFFFFFFFFFFF AND PUSH32 0x8BE0079C531659141344CD1FD0A4F28419497F9722A3DAAFE3B4186F6B6457E0 PUSH1 0x40 MLOAD PUSH1 0x40 MLOAD DUP1 SWAP2 SUB SWAP1 LOG3 POP JUMP JUMPDEST PUSH0 PUSH0 PUSH1 0x9 PUSH1 0xA SWAP1 SLOAD SWAP1 PUSH2 0x100 EXP SWAP1 DIV PUSH20 0xFFFFFFFFFFFFFFFFFFFFFFFFFFFFFFFFFFFFFFFF AND SWAP1 POP PUSH0 PUSH20 0xFFFFFFFFFFFFFFFFFFFFFFFFFFFFFFFFFFFFFFFF AND DUP2 PUSH20 0xFFFFFFFFFFFFFFFFFFFFFFFFFFFFFFFFFFFFFFFF AND EQ DUP1 PUSH2 0xCBF JUMPI POP DUP1 PUSH20 0xFFFFFFFFFFFFFFFFFFFFFFFFFFFFFFFFFFFFFFFF AND PUSH4 0x6B14DAF8 CALLER PUSH0 CALLDATASIZE PUSH1 0x40 MLOAD DUP5 PUSH4 0xFFFFFFFF AND PUSH1 0xE0 SHL DUP2 MSTORE PUSH1 0x4 ADD PUSH2 0xC7F SWAP4 SWAP3 SWAP2 SWAP1 PUSH2 0x28A4 JUMP JUMPDEST PUSH1 0x20 PUSH1 0x40 MLOAD DUP1 DUP4 SUB DUP2 DUP7 GAS STATICCALL ISZERO DUP1 ISZERO PUSH2 0xC9A JUMPI RETURNDATASIZE PUSH0 PUSH0 RETURNDATACOPY RETURNDATASIZE PUSH0 REVERT JUMPDEST POP POP POP POP PUSH1 0x40 MLOAD RETURNDATASIZE PUSH1 0x1F NOT PUSH1 0x1F DUP3 ADD AND DUP3 ADD DUP1 PUSH1 0x40 MSTORE POP DUP2 ADD SWAP1 PUSH2 0xCBE SWAP2 SWAP1 PUSH2 0x2909 JUMP JUMPDEST JUMPDEST PUSH2 0xCFE JUMPI PUSH1 0x40 MLOAD PUSH32 0x8C379A000000000000000000000000000000000000000000000000000000000 DUP2 MSTORE PUSH1 0x4 ADD PUSH2 0xCF5 SWAP1 PUSH2 0x297E JUMP JUMPDEST PUSH1 0x40 MLOAD DUP1 SWAP2 SUB SWAP1 REVERT JUMPDEST PUSH2 0xD06 PUSH2 0x1BCA JUMP JUMPDEST SWAP2 POP POP SWAP1 JUMP JUMPDEST PUSH0 PUSH0 SWAP1 SLOAD SWAP1 PUSH2 0x100 EXP SWAP1 DIV PUSH20 0xFFFFFFFFFFFFFFFFFFFFFFFFFFFFFFFFFFFFFFFF AND DUP2 JUMP JUMPDEST PUSH0 PUSH0 PUSH0 PUSH0 PUSH0 PUSH0 PUSH1 0x9 PUSH1 0xA SWAP1 SLOAD SWAP1 PUSH2 0x100 EXP SWAP1 DIV PUSH20 0xFFFFFFFFFFFFFFFFFFFFFFFFFFFFFFFFFFFFFFFF AND SWAP1 POP PUSH0 PUSH20 0xFFFFFFFFFFFFFFFFFFFFFFFFFFFFFFFFFFFFFFFF AND DUP2 PUSH20 0xFFFFFFFFFFFFFFFFFFFFFFFFFFFFFFFFFFFFFFFF AND EQ DUP1 PUSH2 0xE0D JUMPI POP DUP1 PUSH20 0xFFFFFFFFFFFFFFFFFFFFFFFFFFFFFFFFFFFFFFFF AND PUSH4 0x6B14DAF8 CALLER PUSH0 CALLDATASIZE PUSH1 0x40 MLOAD DUP5 PUSH4 0xFFFFFFFF AND PUSH1 0xE0 SHL DUP2 MSTORE PUSH1 0x4 ADD PUSH2 0xDCD SWAP4 SWAP3 SWAP2 SWAP1 PUSH2 0x28A4 JUMP JUMPDEST PUSH1 0x20 PUSH1 0x40 MLOAD DUP1 DUP4 SUB DUP2 DUP7 GAS STATICCALL ISZERO DUP1 ISZERO PUSH2 0xDE8 JUMPI RETURNDATASIZE PUSH0 PUSH0 RETURNDATACOPY RETURNDATASIZE PUSH0 REVERT JUMPDEST POP POP POP POP PUSH1 0x40 MLOAD RETURNDATASIZE PUSH1 0x1F NOT PUSH1 0x1F DUP3 ADD AND DUP3 ADD DUP1 PUSH1 0x40 MSTORE POP DUP2 ADD SWAP1 PUSH2 0xE0C SWAP2 SWAP1 PUSH2 0x2909 JUMP JUMPDEST JUMPDEST PUSH2 0xE4C JUMPI PUSH1 0x40 MLOAD PUSH32 0x8C379A000000000000000000000000000000000000000000000000000000000 DUP2 MSTORE PUSH1 0x4 ADD PUSH2 0xE43 SWAP1 PUSH2 0x297E JUMP JUMPDEST PUSH1 0x40 MLOAD DUP1 SWAP2 SUB SWAP1 REVERT JUMPDEST PUSH0 PUSH20 0xFFFFFFFFFFFFFFFFFFFFFFFFFFFFFFFFFFFFFFFF AND PUSH1 0x3 PUSH0 SWAP1 SLOAD SWAP1 PUSH2 0x100 EXP SWAP1 DIV PUSH20 0xFFFFFFFFFFFFFFFFFFFFFFFFFFFFFFFFFFFFFFFF AND PUSH20 0xFFFFFFFFFFFFFFFFFFFFFFFFFFFFFFFFFFFFFFFF AND SUB PUSH2 0xEDB JUMPI PUSH1 0x40 MLOAD PUSH32 0x8C379A000000000000000000000000000000000000000000000000000000000 DUP2 MSTORE PUSH1 0x4 ADD PUSH2 0xED2 SWAP1 PUSH2 0x2A25 JUMP JUMPDEST PUSH1 0x40 MLOAD DUP1 SWAP2 SUB SWAP1 REVERT JUMPDEST PUSH2 0xEE3 PUSH2 0x1C61 JUMP JUMPDEST SWAP6 POP SWAP6 POP SWAP6 POP SWAP6 POP SWAP6 POP POP SWAP1 SWAP2 SWAP3 SWAP4 SWAP5 JUMP JUMPDEST PUSH0 PUSH0 SWAP1 SLOAD SWAP1 PUSH2 0x100 EXP SWAP1 DIV PUSH20 0xFFFFFFFFFFFFFFFFFFFFFFFFFFFFFFFFFFFFFFFF AND PUSH20 0xFFFFFFFFFFFFFFFFFFFFFFFFFFFFFFFFFFFFFFFF AND CALLER PUSH20 0xFFFFFFFFFFFFFFFFFFFFFFFFFFFFFFFFFFFFFFFF AND EQ PUSH2 0xF83 JUMPI PUSH1 0x40 MLOAD PUSH32 0x8C379A000000000000000000000000000000000000000000000000000000000 DUP2 MSTORE PUSH1 0x4 ADD PUSH2 0xF7A SWAP1 PUSH2 0x2C5A JUMP JUMPDEST PUSH1 0x40 MLOAD DUP1 SWAP2 SUB SWAP1 REVERT JUMPDEST DUP1 PUSH1 0x9 PUSH1 0xA PUSH2 0x100 EXP DUP2 SLOAD DUP2 PUSH20 0xFFFFFFFFFFFFFFFFFFFFFFFFFFFFFFFFFFFFFFFF MUL NOT AND SWAP1 DUP4 PUSH20 0xFFFFFFFFFFFFFFFFFFFFFFFFFFFFFFFFFFFFFFFF AND MUL OR SWAP1 SSTORE POP POP JUMP JUMPDEST PUSH0 PUSH0 PUSH0 PUSH0 PUSH0 PUSH0 PUSH1 0x9 PUSH1 0xA SWAP1 SLOAD SWAP1 PUSH2 0x100 EXP SWAP1 DIV PUSH20 0xFFFFFFFFFFFFFFFFFFFFFFFFFFFFFFFFFFFFFFFF AND SWAP1 POP PUSH0 PUSH20 0xFFFFFFFFFFFFFFFFFFFFFFFFFFFFFFFFFFFFFFFF AND DUP2 PUSH20 0xFFFFFFFFFFFFFFFFFFFFFFFFFFFFFFFFFFFFFFFF AND EQ DUP1 PUSH2 0x10A4 JUMPI POP DUP1 PUSH20 0xFFFFFFFFFFFFFFFFFFFFFFFFFFFFFFFFFFFFFFFF AND PUSH4 0x6B14DAF8 CALLER PUSH0 CALLDATASIZE PUSH1 0x40 MLOAD DUP5 PUSH4 0xFFFFFFFF AND PUSH1 0xE0 SHL DUP2 MSTORE PUSH1 0x4 ADD PUSH2 0x1064 SWAP4 SWAP3 SWAP2 SWAP1 PUSH2 0x28A4 JUMP JUMPDEST PUSH1 0x20 PUSH1 0x40 MLOAD DUP1 DUP4 SUB DUP2 DUP7 GAS STATICCALL ISZERO DUP1 ISZERO PUSH2 0x107F JUMPI RETURNDATASIZE PUSH0 PUSH0 RETURNDATACOPY RETURNDATASIZE PUSH0 REVERT JUMPDEST POP POP POP POP PUSH1 0x40 MLOAD RETURNDATASIZE PUSH1 0x1F NOT PUSH1 0x1F DUP3 ADD AND DUP3 ADD DUP1 PUSH1 0x40 MSTORE POP DUP2 ADD SWAP1 PUSH2 0x10A3 SWAP2 SWAP1 PUSH2 0x2909 JUMP JUMPDEST JUMPDEST PUSH2 0x10E3 JUMPI PUSH1 0x40 MLOAD PUSH32 0x8C379A000000000000000000000000000000000000000000000000000000000 DUP2 MSTORE PUSH1 0x4 ADD PUSH2 0x10DA SWAP1 PUSH2 0x297E JUMP JUMPDEST PUSH1 0x40 MLOAD DUP1 SWAP2 SUB SWAP1 REVERT JUMPDEST PUSH2 0x10EC DUP8 PUSH2 0x1D94 JUMP JUMPDEST SWAP6 POP SWAP6 POP SWAP6 POP SWAP6 POP SWAP6 POP POP SWAP2 SWAP4 SWAP6 SWAP1 SWAP3 SWAP5 POP JUMP JUMPDEST PUSH0 PUSH0 SWAP1 SLOAD SWAP1 PUSH2 0x100 EXP SWAP1 DIV PUSH20 0xFFFFFFFFFFFFFFFFFFFFFFFFFFFFFFFFFFFFFFFF AND PUSH20 0xFFFFFFFFFFFFFFFFFFFFFFFFFFFFFFFFFFFFFFFF AND CALLER PUSH20 0xFFFFFFFFFFFFFFFFFFFFFFFFFFFFFFFFFFFFFFFF AND EQ PUSH2 0x118E JUMPI PUSH1 0x40 MLOAD PUSH32 0x8C379A000000000000000000000000000000000000000000000000000000000 DUP2 MSTORE PUSH1 0x4 ADD PUSH2 0x1185 SWAP1 PUSH2 0x2C5A JUMP JUMPDEST PUSH1 0x40 MLOAD DUP1 SWAP2 SUB SWAP1 REVERT JUMPDEST PUSH1 0x3 PUSH0 SWAP1 SLOAD SWAP1 PUSH2 0x100 EXP SWAP1 DIV PUSH20 0xFFFFFFFFFFFFFFFFFFFFFFFFFFFFFFFFFFFFFFFF AND PUSH20 0xFFFFFFFFFFFFFFFFFFFFFFFFFFFFFFFFFFFFFFFF AND DUP2 PUSH20 0xFFFFFFFFFFFFFFFFFFFFFFFFFFFFFFFFFFFFFFFF AND EQ PUSH2 0x121D JUMPI PUSH1 0x40 MLOAD PUSH32 0x8C379A000000000000000000000000000000000000000000000000000000000 DUP2 MSTORE PUSH1 0x4 ADD PUSH2 0x1214 SWAP1 PUSH2 0x2CC2 JUMP JUMPDEST PUSH1 0x40 MLOAD DUP1 SWAP2 SUB SWAP1 REVERT JUMPDEST PUSH1 0x3 PUSH0 PUSH2 0x100 EXP DUP2 SLOAD SWAP1 PUSH20 0xFFFFFFFFFFFFFFFFFFFFFFFFFFFFFFFFFFFFFFFF MUL NOT AND SWAP1 SSTORE PUSH2 0x124A DUP2 PUSH2 0x1E9B JUMP JUMPDEST POP JUMP JUMPDEST PUSH0 PUSH0 PUSH1 0x9 PUSH1 0xA SWAP1 SLOAD SWAP1 PUSH2 0x100 EXP SWAP1 DIV PUSH20 0xFFFFFFFFFFFFFFFFFFFFFFFFFFFFFFFFFFFFFFFF AND SWAP1 POP PUSH0 PUSH20 0xFFFFFFFFFFFFFFFFFFFFFFFFFFFFFFFFFFFFFFFF AND DUP2 PUSH20 0xFFFFFFFFFFFFFFFFFFFFFFFFFFFFFFFFFFFFFFFF AND EQ DUP1 PUSH2 0x1326 JUMPI POP DUP1 PUSH20 0xFFFFFFFFFFFFFFFFFFFFFFFFFFFFFFFFFFFFFFFF AND PUSH4 0x6B14DAF8 CALLER PUSH0 CALLDATASIZE PUSH1 0x40 MLOAD DUP5 PUSH4 0xFFFFFFFF AND PUSH1 0xE0 SHL DUP2 MSTORE PUSH1 0x4 ADD PUSH2 0x12E6 SWAP4 SWAP3 SWAP2 SWAP1 PUSH2 0x28A4 JUMP JUMPDEST PUSH1 0x20 PUSH1 0x40 MLOAD DUP1 DUP4 SUB DUP2 DUP7 GAS STATICCALL ISZERO DUP1 ISZERO PUSH2 0x1301 JUMPI RETURNDATASIZE PUSH0 PUSH0 RETURNDATACOPY RETURNDATASIZE PUSH0 REVERT JUMPDEST POP POP POP POP PUSH1 0x40 MLOAD RETURNDATASIZE PUSH1 0x1F NOT PUSH1 0x1F DUP3 ADD AND DUP3 ADD DUP1 PUSH1 0x40 MSTORE POP DUP2 ADD SWAP1 PUSH2 0x1325 SWAP2 SWAP1 PUSH2 0x2909 JUMP JUMPDEST JUMPDEST PUSH2 0x1365 JUMPI PUSH1 0x40 MLOAD PUSH32 0x8C379A000000000000000000000000000000000000000000000000000000000 DUP2 MSTORE PUSH1 0x4 ADD PUSH2 0x135C SWAP1 PUSH2 0x297E JUMP JUMPDEST PUSH1 0x40 MLOAD DUP1 SWAP2 SUB SWAP1 REVERT JUMPDEST PUSH2 0x136E DUP4 PUSH2 0x1FB1 JUMP JUMPDEST SWAP2 POP POP SWAP2 SWAP1 POP JUMP JUMPDEST PUSH0 PUSH0 PUSH1 0x9 PUSH1 0xA SWAP1 SLOAD SWAP1 PUSH2 0x100 EXP SWAP1 DIV PUSH20 0xFFFFFFFFFFFFFFFFFFFFFFFFFFFFFFFFFFFFFFFF AND SWAP1 POP PUSH0 PUSH20 0xFFFFFFFFFFFFFFFFFFFFFFFFFFFFFFFFFFFFFFFF AND DUP2 PUSH20 0xFFFFFFFFFFFFFFFFFFFFFFFFFFFFFFFFFFFFFFFF AND EQ DUP1 PUSH2 0x144F JUMPI POP DUP1 PUSH20 0xFFFFFFFFFFFFFFFFFFFFFFFFFFFFFFFFFFFFFFFF AND PUSH4 0x6B14DAF8 CALLER PUSH0 CALLDATASIZE PUSH1 0x40 MLOAD DUP5 PUSH4 0xFFFFFFFF AND PUSH1 0xE0 SHL DUP2 MSTORE PUSH1 0x4 ADD PUSH2 0x140F SWAP4 SWAP3 SWAP2 SWAP1 PUSH2 0x28A4 JUMP JUMPDEST PUSH1 0x20 PUSH1 0x40 MLOAD DUP1 DUP4 SUB DUP2 DUP7 GAS STATICCALL ISZERO DUP1 ISZERO PUSH2 0x142A JUMPI RETURNDATASIZE PUSH0 PUSH0 RETURNDATACOPY RETURNDATASIZE PUSH0 REVERT JUMPDEST POP POP POP POP PUSH1 0x40 MLOAD RETURNDATASIZE PUSH1 0x1F NOT PUSH1 0x1F DUP3 ADD AND DUP3 ADD DUP1 PUSH1 0x40 MSTORE POP DUP2 ADD SWAP1 PUSH2 0x144E SWAP2 SWAP1 PUSH2 0x2909 JUMP JUMPDEST JUMPDEST PUSH2 0x148E JUMPI PUSH1 0x40 MLOAD PUSH32 0x8C379A000000000000000000000000000000000000000000000000000000000 DUP2 MSTORE PUSH1 0x4 ADD PUSH2 0x1485 SWAP1 PUSH2 0x297E JUMP JUMPDEST PUSH1 0x40 MLOAD DUP1 SWAP2 SUB SWAP1 REVERT JUMPDEST PUSH2 0x1497 DUP4 PUSH2 0x20F3 JUMP JUMPDEST SWAP2 POP POP SWAP2 SWAP1 POP JUMP JUMPDEST PUSH1 0x9 PUSH1 0xA SWAP1 SLOAD SWAP1 PUSH2 0x100 EXP SWAP1 DIV PUSH20 0xFFFFFFFFFFFFFFFFFFFFFFFFFFFFFFFFFFFFFFFF AND DUP2 JUMP JUMPDEST PUSH1 0x4 PUSH1 0x20 MSTORE DUP1 PUSH0 MSTORE PUSH1 0x40 PUSH0 KECCAK256 PUSH0 SWAP2 POP SLOAD SWAP1 PUSH2 0x100 EXP SWAP1 DIV PUSH20 0xFFFFFFFFFFFFFFFFFFFFFFFFFFFFFFFFFFFFFFFF AND DUP2 JUMP JUMPDEST DUP5 PUSH1 0x5 PUSH0 PUSH2 0x100 EXP DUP2 SLOAD DUP2 PUSH10 0xFFFFFFFFFFFFFFFFFFFF MUL NOT AND SWAP1 DUP4 PUSH10 0xFFFFFFFFFFFFFFFFFFFF AND MUL OR SWAP1 SSTORE POP DUP4 PUSH1 0x6 DUP2 SWAP1 SSTORE POP DUP3 PUSH1 0x7 DUP2 SWAP1 SSTORE POP DUP2 PUSH1 0x8 DUP2 SWAP1 SSTORE POP DUP1 PUSH1 0x9 PUSH0 PUSH2 0x100 EXP DUP2 SLOAD DUP2 PUSH10 0xFFFFFFFFFFFFFFFFFFFF MUL NOT AND SWAP1 DUP4 PUSH10 0xFFFFFFFFFFFFFFFFFFFF AND MUL OR SWAP1 SSTORE POP POP POP POP POP POP JUMP JUMPDEST PUSH1 0x3 PUSH0 SWAP1 SLOAD SWAP1 PUSH2 0x100 EXP SWAP1 DIV PUSH20 0xFFFFFFFFFFFFFFFFFFFFFFFFFFFFFFFFFFFFFFFF AND DUP2 JUMP JUMPDEST PUSH0 PUSH0 SWAP1 SLOAD SWAP1 PUSH2 0x100 EXP SWAP1 DIV PUSH20 0xFFFFFFFFFFFFFFFFFFFFFFFFFFFFFFFFFFFFFFFF AND PUSH20 0xFFFFFFFFFFFFFFFFFFFFFFFFFFFFFFFFFFFFFFFF AND CALLER PUSH20 0xFFFFFFFFFFFFFFFFFFFFFFFFFFFFFFFFFFFFFFFF AND EQ PUSH2 0x161C JUMPI PUSH1 0x40 MLOAD PUSH32 0x8C379A000000000000000000000000000000000000000000000000000000000 DUP2 MSTORE PUSH1 0x4 ADD PUSH2 0x1613 SWAP1 PUSH2 0x2C5A JUMP JUMPDEST PUSH1 0x40 MLOAD DUP1 SWAP2 SUB SWAP1 REVERT JUMPDEST DUP1 PUSH1 0x1 PUSH0 PUSH2 0x100 EXP DUP2 SLOAD DUP2 PUSH20 0xFFFFFFFFFFFFFFFFFFFFFFFFFFFFFFFFFFFFFFFF MUL NOT AND SWAP1 DUP4 PUSH20 0xFFFFFFFFFFFFFFFFFFFFFFFFFFFFFFFFFFFFFFFF AND MUL OR SWAP1 SSTORE POP DUP1 PUSH20 0xFFFFFFFFFFFFFFFFFFFFFFFFFFFFFFFFFFFFFFFF AND PUSH0 PUSH0 SWAP1 SLOAD SWAP1 PUSH2 0x100 EXP SWAP1 DIV PUSH20 0xFFFFFFFFFFFFFFFFFFFFFFFFFFFFFFFFFFFFFFFF AND PUSH20 0xFFFFFFFFFFFFFFFFFFFFFFFFFFFFFFFFFFFFFFFF AND PUSH32 0xED8889F560326EB138920D842192F0EB3DD22B4F139C87A2C57538E05BAE1278 PUSH1 0x40 MLOAD PUSH1 0x40 MLOAD DUP1 SWAP2 SUB SWAP1 LOG3 POP JUMP JUMPDEST PUSH0 PUSH0 SWAP1 SLOAD SWAP1 PUSH2 0x100 EXP SWAP1 DIV PUSH20 0xFFFFFFFFFFFFFFFFFFFFFFFFFFFFFFFFFFFFFFFF AND PUSH20 0xFFFFFFFFFFFFFFFFFFFFFFFFFFFFFFFFFFFFFFFF AND CALLER PUSH20 0xFFFFFFFFFFFFFFFFFFFFFFFFFFFFFFFFFFFFFFFF AND EQ PUSH2 0x1767 JUMPI PUSH1 0x40 MLOAD PUSH32 0x8C379A000000000000000000000000000000000000000000000000000000000 DUP2 MSTORE PUSH1 0x4 ADD PUSH2 0x175E SWAP1 PUSH2 0x2C5A JUMP JUMPDEST PUSH1 0x40 MLOAD DUP1 SWAP2 SUB SWAP1 REVERT JUMPDEST DUP1 PUSH1 0x3 PUSH0 PUSH2 0x100 EXP DUP2 SLOAD DUP2 PUSH20 0xFFFFFFFFFFFFFFFFFFFFFFFFFFFFFFFFFFFFFFFF MUL NOT AND SWAP1 DUP4 PUSH20 0xFFFFFFFFFFFFFFFFFFFFFFFFFFFFFFFFFFFFFFFF AND MUL OR SWAP1 SSTORE POP POP JUMP JUMPDEST PUSH0 PUSH0 PUSH0 PUSH0 PUSH0 PUSH0 PUSH1 0x9 PUSH1 0xA SWAP1 SLOAD SWAP1 PUSH2 0x100 EXP SWAP1 DIV PUSH20 0xFFFFFFFFFFFFFFFFFFFFFFFFFFFFFFFFFFFFFFFF AND SWAP1 POP PUSH0 PUSH20 0xFFFFFFFFFFFFFFFFFFFFFFFFFFFFFFFFFFFFFFFF AND DUP2 PUSH20 0xFFFFFFFFFFFFFFFFFFFFFFFFFFFFFFFFFFFFFFFF AND EQ DUP1 PUSH2 0x1887 JUMPI POP DUP1 PUSH20 0xFFFFFFFFFFFFFFFFFFFFFFFFFFFFFFFFFFFFFFFF AND PUSH4 0x6B14DAF8 CALLER PUSH0 CALLDATASIZE PUSH1 0x40 MLOAD DUP5 PUSH4 0xFFFFFFFF AND PUSH1 0xE0 SHL DUP2 MSTORE PUSH1 0x4 ADD PUSH2 0x1847 SWAP4 SWAP3 SWAP2 SWAP1 PUSH2 0x28A4 JUMP JUMPDEST PUSH1 0x20 PUSH1 0x40 MLOAD DUP1 DUP4 SUB DUP2 DUP7 GAS STATICCALL ISZERO DUP1 ISZERO PUSH2 0x1862 JUMPI RETURNDATASIZE PUSH0 PUSH0 RETURNDATACOPY RETURNDATASIZE PUSH0 REVERT JUMPDEST POP POP POP POP PUSH1 0x40 MLOAD RETURNDATASIZE PUSH1 0x1F NOT PUSH1 0x1F DUP3 ADD AND DUP3 ADD DUP1 PUSH1 0x40 MSTORE POP DUP2 ADD SWAP1 PUSH2 0x1886 SWAP2 SWAP1 PUSH2 0x2909 JUMP JUMPDEST JUMPDEST PUSH2 0x18C6 JUMPI PUSH1 0x40 MLOAD PUSH32 0x8C379A000000000000000000000000000000000000000000000000000000000 DUP2 MSTORE PUSH1 0x4 ADD PUSH2 0x18BD SWAP1 PUSH2 0x297E JUMP JUMPDEST PUSH1 0x40 MLOAD DUP1 SWAP2 SUB SWAP1 REVERT JUMPDEST PUSH2 0x18CE PUSH2 0x2235 JUMP JUMPDEST SWAP6 POP SWAP6 POP SWAP6 POP SWAP6 POP SWAP6 POP POP SWAP1 SWAP2 SWAP3 SWAP4 SWAP5 JUMP JUMPDEST PUSH0 PUSH1 0x2 PUSH0 ADD PUSH1 0x2 SWAP1 SLOAD SWAP1 PUSH2 0x100 EXP SWAP1 DIV PUSH20 0xFFFFFFFFFFFFFFFFFFFFFFFFFFFFFFFFFFFFFFFF AND PUSH20 0xFFFFFFFFFFFFFFFFFFFFFFFFFFFFFFFFFFFFFFFF AND PUSH4 0x50D25BCD PUSH1 0x40 MLOAD DUP2 PUSH4 0xFFFFFFFF AND PUSH1 0xE0 SHL DUP2 MSTORE PUSH1 0x4 ADD PUSH1 0x20 PUSH1 0x40 MLOAD DUP1 DUP4 SUB DUP2 DUP7 GAS STATICCALL ISZERO DUP1 ISZERO PUSH2 0x194E JUMPI RETURNDATASIZE PUSH0 PUSH0 RETURNDATACOPY RETURNDATASIZE PUSH0 REVERT JUMPDEST POP POP POP POP PUSH1 0x40 MLOAD RETURNDATASIZE PUSH1 0x1F NOT PUSH1 0x1F DUP3 ADD AND DUP3 ADD DUP1 PUSH1 0x40 MSTORE POP DUP2 ADD SWAP1 PUSH2 0x1972 SWAP2 SWAP1 PUSH2 0x2CF4 JUMP JUMPDEST SWAP1 POP SWAP1 JUMP JUMPDEST PUSH0 PUSH0 PUSH0 PUSH0 PUSH0 PUSH0 PUSH20 0xFFFFFFFFFFFFFFFFFFFFFFFFFFFFFFFFFFFFFFFF AND PUSH1 0x3 PUSH0 SWAP1 SLOAD SWAP1 PUSH2 0x100 EXP SWAP1 DIV PUSH20 0xFFFFFFFFFFFFFFFFFFFFFFFFFFFFFFFFFFFFFFFF AND PUSH20 0xFFFFFFFFFFFFFFFFFFFFFFFFFFFFFFFFFFFFFFFF AND SUB PUSH2 0x1A0B JUMPI PUSH1 0x40 MLOAD PUSH32 0x8C379A000000000000000000000000000000000000000000000000000000000 DUP2 MSTORE PUSH1 0x4 ADD PUSH2 0x1A02 SWAP1 PUSH2 0x2A25 JUMP JUMPDEST PUSH1 0x40 MLOAD DUP1 SWAP2 SUB SWAP1 REVERT JUMPDEST PUSH1 0x3 PUSH0 SWAP1 SLOAD SWAP1 PUSH2 0x100 EXP SWAP1 DIV PUSH20 0xFFFFFFFFFFFFFFFFFFFFFFFFFFFFFFFFFFFFFFFF AND PUSH20 0xFFFFFFFFFFFFFFFFFFFFFFFFFFFFFFFFFFFFFFFF AND PUSH4 0x9A6FC8F5 DUP8 PUSH1 0x40 MLOAD DUP3 PUSH4 0xFFFFFFFF AND PUSH1 0xE0 SHL DUP2 MSTORE PUSH1 0x4 ADD PUSH2 0x1A65 SWAP2 SWAP1 PUSH2 0x2D1F JUMP JUMPDEST PUSH1 0xA0 PUSH1 0x40 MLOAD DUP1 DUP4 SUB DUP2 DUP7 GAS STATICCALL ISZERO DUP1 ISZERO PUSH2 0x1A80 JUMPI RETURNDATASIZE PUSH0 PUSH0 RETURNDATACOPY RETURNDATASIZE PUSH0 REVERT JUMPDEST POP POP POP POP PUSH1 0x40 MLOAD RETURNDATASIZE PUSH1 0x1F NOT PUSH1 0x1F DUP3 ADD AND DUP3 ADD DUP1 PUSH1 0x40 MSTORE POP DUP2 ADD SWAP1 PUSH2 0x1AA4 SWAP2 SWAP1 PUSH2 0x2D4C JUMP JUMPDEST SWAP5 POP SWAP5 POP SWAP5 POP SWAP5 POP SWAP5 POP SWAP2 SWAP4 SWAP6 SWAP1 SWAP3 SWAP5 POP JUMP JUMPDEST PUSH0 PUSH0 PUSH1 0x2 PUSH1 0x40 MLOAD DUP1 PUSH1 0x40 ADD PUSH1 0x40 MSTORE SWAP1 DUP2 PUSH0 DUP3 ADD PUSH0 SWAP1 SLOAD SWAP1 PUSH2 0x100 EXP SWAP1 DIV PUSH2 0xFFFF AND PUSH2 0xFFFF AND PUSH2 0xFFFF AND DUP2 MSTORE PUSH1 0x20 ADD PUSH0 DUP3 ADD PUSH1 0x2 SWAP1 SLOAD SWAP1 PUSH2 0x100 EXP SWAP1 DIV PUSH20 0xFFFFFFFFFFFFFFFFFFFFFFFFFFFFFFFFFFFFFFFF AND PUSH20 0xFFFFFFFFFFFFFFFFFFFFFFFFFFFFFFFFFFFFFFFF AND PUSH20 0xFFFFFFFFFFFFFFFFFFFFFFFFFFFFFFFFFFFFFFFF AND DUP2 MSTORE POP POP SWAP1 POP PUSH2 0x1BB8 DUP2 PUSH0 ADD MLOAD DUP3 PUSH1 0x20 ADD MLOAD PUSH20 0xFFFFFFFFFFFFFFFFFFFFFFFFFFFFFFFFFFFFFFFF AND PUSH4 0x668A0F02 PUSH1 0x40 MLOAD DUP2 PUSH4 0xFFFFFFFF AND PUSH1 0xE0 SHL DUP2 MSTORE PUSH1 0x4 ADD PUSH1 0x20 PUSH1 0x40 MLOAD DUP1 DUP4 SUB DUP2 DUP7 GAS STATICCALL ISZERO DUP1 ISZERO PUSH2 0x1B8F JUMPI RETURNDATASIZE PUSH0 PUSH0 RETURNDATACOPY RETURNDATASIZE PUSH0 REVERT JUMPDEST POP POP POP POP PUSH1 0x40 MLOAD RETURNDATASIZE PUSH1 0x1F NOT PUSH1 0x1F DUP3 ADD AND DUP3 ADD DUP1 PUSH1 0x40 MSTORE POP DUP2 ADD SWAP1 PUSH2 0x1BB3 SWAP2 SWAP1 PUSH2 0x29B0 JUMP JUMPDEST PUSH2 0x2284 JUMP JUMPDEST PUSH10 0xFFFFFFFFFFFFFFFFFFFF AND SWAP2 POP POP SWAP1 JUMP JUMPDEST PUSH0 PUSH1 0x2 PUSH0 ADD PUSH1 0x2 SWAP1 SLOAD SWAP1 PUSH2 0x100 EXP SWAP1 DIV PUSH20 0xFFFFFFFFFFFFFFFFFFFFFFFFFFFFFFFFFFFFFFFF AND PUSH20 0xFFFFFFFFFFFFFFFFFFFFFFFFFFFFFFFFFFFFFFFF AND PUSH4 0x8205BF6A PUSH1 0x40 MLOAD DUP2 PUSH4 0xFFFFFFFF AND PUSH1 0xE0 SHL DUP2 MSTORE PUSH1 0x4 ADD PUSH1 0x20 PUSH1 0x40 MLOAD DUP1 DUP4 SUB DUP2 DUP7 GAS STATICCALL ISZERO DUP1 ISZERO PUSH2 0x1C38 JUMPI RETURNDATASIZE PUSH0 PUSH0 RETURNDATACOPY RETURNDATASIZE PUSH0 REVERT JUMPDEST POP POP POP POP PUSH1 0x40 MLOAD RETURNDATASIZE PUSH1 0x1F NOT PUSH1 0x1F DUP3 ADD AND DUP3 ADD DUP1 PUSH1 0x40 MSTORE POP DUP2 ADD SWAP1 PUSH2 0x1C5C SWAP2 SWAP1 PUSH2 0x29B0 JUMP JUMPDEST SWAP1 POP SWAP1 JUMP JUMPDEST PUSH0 PUSH0 PUSH0 PUSH0 PUSH0 PUSH0 PUSH20 0xFFFFFFFFFFFFFFFFFFFFFFFFFFFFFFFFFFFFFFFF AND PUSH1 0x3 PUSH0 SWAP1 SLOAD SWAP1 PUSH2 0x100 EXP SWAP1 DIV PUSH20 0xFFFFFFFFFFFFFFFFFFFFFFFFFFFFFFFFFFFFFFFF AND PUSH20 0xFFFFFFFFFFFFFFFFFFFFFFFFFFFFFFFFFFFFFFFF AND SUB PUSH2 0x1CF5 JUMPI PUSH1 0x40 MLOAD PUSH32 0x8C379A000000000000000000000000000000000000000000000000000000000 DUP2 MSTORE PUSH1 0x4 ADD PUSH2 0x1CEC SWAP1 PUSH2 0x2A25 JUMP JUMPDEST PUSH1 0x40 MLOAD DUP1 SWAP2 SUB SWAP1 REVERT JUMPDEST PUSH1 0x3 PUSH0 SWAP1 SLOAD SWAP1 PUSH2 0x100 EXP SWAP1 DIV PUSH20 0xFFFFFFFFFFFFFFFFFFFFFFFFFFFFFFFFFFFFFFFF AND PUSH20 0xFFFFFFFFFFFFFFFFFFFFFFFFFFFFFFFFFFFFFFFF AND PUSH4 0xFEAF968C PUSH1 0x40 MLOAD DUP2 PUSH4 0xFFFFFFFF AND PUSH1 0xE0 SHL DUP2 MSTORE PUSH1 0x4 ADD PUSH1 0xA0 PUSH1 0x40 MLOAD DUP1 DUP4 SUB DUP2 DUP7 GAS STATICCALL ISZERO DUP1 ISZERO PUSH2 0x1D5F JUMPI RETURNDATASIZE PUSH0 PUSH0 RETURNDATACOPY RETURNDATASIZE PUSH0 REVERT JUMPDEST POP POP POP POP PUSH1 0x40 MLOAD RETURNDATASIZE PUSH1 0x1F NOT PUSH1 0x1F DUP3 ADD AND DUP3 ADD DUP1 PUSH1 0x40 MSTORE POP DUP2 ADD SWAP1 PUSH2 0x1D83 SWAP2 SWAP1 PUSH2 0x2D4C JUMP JUMPDEST SWAP5 POP SWAP5 POP SWAP5 POP SWAP5 POP SWAP5 POP SWAP1 SWAP2 SWAP3 SWAP4 SWAP5 JUMP JUMPDEST PUSH0 PUSH0 PUSH0 PUSH0 PUSH0 PUSH0 PUSH0 PUSH2 0x1DB0 DUP9 PUSH10 0xFFFFFFFFFFFFFFFFFFFF AND PUSH2 0x22A2 JUMP JUMPDEST SWAP2 POP SWAP2 POP PUSH0 PUSH0 PUSH0 PUSH0 PUSH0 PUSH1 0x4 PUSH0 DUP9 PUSH2 0xFFFF AND PUSH2 0xFFFF AND DUP2 MSTORE PUSH1 0x20 ADD SWAP1 DUP2 MSTORE PUSH1 0x20 ADD PUSH0 KECCAK256 PUSH0 SWAP1 SLOAD SWAP1 PUSH2 0x100 EXP SWAP1 DIV PUSH20 0xFFFFFFFFFFFFFFFFFFFFFFFFFFFFFFFFFFFFFFFF AND PUSH20 0xFFFFFFFFFFFFFFFFFFFFFFFFFFFFFFFFFFFFFFFF AND PUSH4 0x9A6FC8F5 DUP8 PUSH1 0x40 MLOAD DUP3 PUSH4 0xFFFFFFFF AND PUSH1 0xE0 SHL DUP2 MSTORE PUSH1 0x4 ADD PUSH2 0x1E2A SWAP2 SWAP1 PUSH2 0x2E06 JUMP JUMPDEST PUSH1 0xA0 PUSH1 0x40 MLOAD DUP1 DUP4 SUB DUP2 DUP7 GAS STATICCALL ISZERO DUP1 ISZERO PUSH2 0x1E45 JUMPI RETURNDATASIZE PUSH0 PUSH0 RETURNDATACOPY RETURNDATASIZE PUSH0 REVERT JUMPDEST POP POP POP POP PUSH1 0x40 MLOAD RETURNDATASIZE PUSH1 0x1F NOT PUSH1 0x1F DUP3 ADD AND DUP3 ADD DUP1 PUSH1 0x40 MSTORE POP DUP2 ADD SWAP1 PUSH2 0x1E69 SWAP2 SWAP1 PUSH2 0x2D4C JUMP JUMPDEST SWAP5 POP SWAP5 POP SWAP5 POP SWAP5 POP SWAP5 POP PUSH2 0x1E81 DUP6 DUP6 DUP6 DUP6 DUP6 DUP13 PUSH2 0x22BD JUMP JUMPDEST SWAP12 POP SWAP12 POP SWAP12 POP SWAP12 POP SWAP12 POP POP POP POP POP POP POP POP SWAP2 SWAP4 SWAP6 SWAP1 SWAP3 SWAP5 POP JUMP JUMPDEST PUSH0 PUSH1 0x1 PUSH1 0x2 PUSH0 ADD PUSH0 SWAP1 SLOAD SWAP1 PUSH2 0x100 EXP SWAP1 DIV PUSH2 0xFFFF AND PUSH2 0x1EBA SWAP2 SWAP1 PUSH2 0x2E4C JUMP JUMPDEST SWAP1 POP PUSH1 0x40 MLOAD DUP1 PUSH1 0x40 ADD PUSH1 0x40 MSTORE DUP1 DUP3 PUSH2 0xFFFF AND DUP2 MSTORE PUSH1 0x20 ADD DUP4 PUSH20 0xFFFFFFFFFFFFFFFFFFFFFFFFFFFFFFFFFFFFFFFF AND DUP2 MSTORE POP PUSH1 0x2 PUSH0 DUP3 ADD MLOAD DUP2 PUSH0 ADD PUSH0 PUSH2 0x100 EXP DUP2 SLOAD DUP2 PUSH2 0xFFFF MUL NOT AND SWAP1 DUP4 PUSH2 0xFFFF AND MUL OR SWAP1 SSTORE POP PUSH1 0x20 DUP3 ADD MLOAD DUP2 PUSH0 ADD PUSH1 0x2 PUSH2 0x100 EXP DUP2 SLOAD DUP2 PUSH20 0xFFFFFFFFFFFFFFFFFFFFFFFFFFFFFFFFFFFFFFFF MUL NOT AND SWAP1 DUP4 PUSH20 0xFFFFFFFFFFFFFFFFFFFFFFFFFFFFFFFFFFFFFFFF AND MUL OR SWAP1 SSTORE POP SWAP1 POP POP DUP2 PUSH1 0x4 PUSH0 DUP4 PUSH2 0xFFFF AND PUSH2 0xFFFF AND DUP2 MSTORE PUSH1 0x20 ADD SWAP1 DUP2 MSTORE PUSH1 0x20 ADD PUSH0 KECCAK256 PUSH0 PUSH2 0x100 EXP DUP2 SLOAD DUP2 PUSH20 0xFFFFFFFFFFFFFFFFFFFFFFFFFFFFFFFFFFFFFFFF MUL NOT AND SWAP1 DUP4 PUSH20 0xFFFFFFFFFFFFFFFFFFFFFFFFFFFFFFFFFFFFFFFF AND MUL OR SWAP1 SSTORE POP POP POP JUMP JUMPDEST PUSH0 PUSH1 0x1 PUSH1 0x10 PUSH1 0x40 PUSH2 0x1FC2 SWAP2 SWAP1 PUSH2 0x2E81 JUMP JUMPDEST PUSH1 0x2 PUSH2 0x1FCE SWAP2 SWAP1 PUSH2 0x2FE3 JUMP JUMPDEST PUSH2 0x1FD8 SWAP2 SWAP1 PUSH2 0x302D JUMP JUMPDEST DUP3 GT ISZERO PUSH2 0x1FE7 JUMPI PUSH0 SWAP1 POP PUSH2 0x20EE JUMP JUMPDEST PUSH0 PUSH0 PUSH2 0x1FF2 DUP5 PUSH2 0x22A2 JUMP JUMPDEST SWAP2 POP SWAP2 POP PUSH0 PUSH1 0x4 PUSH0 DUP5 PUSH2 0xFFFF AND PUSH2 0xFFFF AND DUP2 MSTORE PUSH1 0x20 ADD SWAP1 DUP2 MSTORE PUSH1 0x20 ADD PUSH0 KECCAK256 PUSH0 SWAP1 SLOAD SWAP1 PUSH2 0x100 EXP SWAP1 DIV PUSH20 0xFFFFFFFFFFFFFFFFFFFFFFFFFFFFFFFFFFFFFFFF AND SWAP1 POP PUSH0 PUSH20 0xFFFFFFFFFFFFFFFFFFFFFFFFFFFFFFFFFFFFFFFF AND DUP2 PUSH20 0xFFFFFFFFFFFFFFFFFFFFFFFFFFFFFFFFFFFFFFFF AND SUB PUSH2 0x2070 JUMPI PUSH0 SWAP4 POP POP POP POP PUSH2 0x20EE JUMP JUMPDEST DUP1 PUSH20 0xFFFFFFFFFFFFFFFFFFFFFFFFFFFFFFFFFFFFFFFF AND PUSH4 0xB5AB58DC DUP4 PUSH1 0x40 MLOAD DUP3 PUSH4 0xFFFFFFFF AND PUSH1 0xE0 SHL DUP2 MSTORE PUSH1 0x4 ADD PUSH2 0x20A9 SWAP2 SWAP1 PUSH2 0x3090 JUMP JUMPDEST PUSH1 0x20 PUSH1 0x40 MLOAD DUP1 DUP4 SUB DUP2 DUP7 GAS STATICCALL ISZERO DUP1 ISZERO PUSH2 0x20C4 JUMPI RETURNDATASIZE PUSH0 PUSH0 RETURNDATACOPY RETURNDATASIZE PUSH0 REVERT JUMPDEST POP POP POP POP PUSH1 0x40 MLOAD RETURNDATASIZE PUSH1 0x1F NOT PUSH1 0x1F DUP3 ADD AND DUP3 ADD DUP1 PUSH1 0x40 MSTORE POP DUP2 ADD SWAP1 PUSH2 0x20E8 SWAP2 SWAP1 PUSH2 0x2CF4 JUMP JUMPDEST SWAP4 POP POP POP POP JUMPDEST SWAP2 SWAP1 POP JUMP JUMPDEST PUSH0 PUSH1 0x1 PUSH1 0x10 PUSH1 0x40 PUSH2 0x2104 SWAP2 SWAP1 PUSH2 0x2E81 JUMP JUMPDEST PUSH1 0x2 PUSH2 0x2110 SWAP2 SWAP1 PUSH2 0x2FE3 JUMP JUMPDEST PUSH2 0x211A SWAP2 SWAP1 PUSH2 0x302D JUMP JUMPDEST DUP3 GT ISZERO PUSH2 0x2129 JUMPI PUSH0 SWAP1 POP PUSH2 0x2230 JUMP JUMPDEST PUSH0 PUSH0 PUSH2 0x2134 DUP5 PUSH2 0x22A2 JUMP JUMPDEST SWAP2 POP SWAP2 POP PUSH0 PUSH1 0x4 PUSH0 DUP5 PUSH2 0xFFFF AND PUSH2 0xFFFF AND DUP2 MSTORE PUSH1 0x20 ADD SWAP1 DUP2 MSTORE PUSH1 0x20 ADD PUSH0 KECCAK256 PUSH0 SWAP1 SLOAD SWAP1 PUSH2 0x100 EXP SWAP1 DIV PUSH20 0xFFFFFFFFFFFFFFFFFFFFFFFFFFFFFFFFFFFFFFFF AND SWAP1 POP PUSH0 PUSH20 0xFFFFFFFFFFFFFFFFFFFFFFFFFFFFFFFFFFFFFFFF AND DUP2 PUSH20 0xFFFFFFFFFFFFFFFFFFFFFFFFFFFFFFFFFFFFFFFF AND SUB PUSH2 0x21B2 JUMPI PUSH0 SWAP4 POP POP POP POP PUSH2 0x2230 JUMP JUMPDEST DUP1 PUSH20 0xFFFFFFFFFFFFFFFFFFFFFFFFFFFFFFFFFFFFFFFF AND PUSH4 0xB633620C DUP4 PUSH1 0x40 MLOAD DUP3 PUSH4 0xFFFFFFFF AND PUSH1 0xE0 SHL DUP2 MSTORE PUSH1 0x4 ADD PUSH2 0x21EB SWAP2 SWAP1 PUSH2 0x3090 JUMP JUMPDEST PUSH1 0x20 PUSH1 0x40 MLOAD DUP1 DUP4 SUB DUP2 DUP7 GAS STATICCALL ISZERO DUP1 ISZERO PUSH2 0x2206 JUMPI RETURNDATASIZE PUSH0 PUSH0 RETURNDATACOPY RETURNDATASIZE PUSH0 REVERT JUMPDEST POP POP POP POP PUSH1 0x40 MLOAD RETURNDATASIZE PUSH1 0x1F NOT PUSH1 0x1F DUP3 ADD AND DUP3 ADD DUP1 PUSH1 0x40 MSTORE POP DUP2 ADD SWAP1 PUSH2 0x222A SWAP2 SWAP1 PUSH2 0x29B0 JUMP JUMPDEST SWAP4 POP POP POP POP JUMPDEST SWAP2 SWAP1 POP JUMP JUMPDEST PUSH0 PUSH0 PUSH0 PUSH0 PUSH0 PUSH1 0x5 PUSH0 SWAP1 SLOAD SWAP1 PUSH2 0x100 EXP SWAP1 DIV PUSH10 0xFFFFFFFFFFFFFFFFFFFF AND PUSH1 0x6 SLOAD PUSH1 0x7 SLOAD PUSH1 0x8 SLOAD PUSH1 0x9 PUSH0 SWAP1 SLOAD SWAP1 PUSH2 0x100 EXP SWAP1 DIV PUSH10 0xFFFFFFFFFFFFFFFFFFFF AND SWAP5 POP SWAP5 POP SWAP5 POP SWAP5 POP SWAP5 POP SWAP1 SWAP2 SWAP3 SWAP4 SWAP5 JUMP JUMPDEST PUSH0 DUP2 PUSH8 0xFFFFFFFFFFFFFFFF AND PUSH1 0x40 DUP5 PUSH2 0xFFFF AND SWAP1 SHL OR SWAP1 POP SWAP3 SWAP2 POP POP JUMP JUMPDEST PUSH0 PUSH0 PUSH0 PUSH1 0x40 DUP5 SWAP1 SHR SWAP1 POP PUSH0 DUP5 SWAP1 POP DUP2 DUP2 SWAP4 POP SWAP4 POP POP POP SWAP2 POP SWAP2 JUMP JUMPDEST PUSH0 PUSH0 PUSH0 PUSH0 PUSH0 PUSH2 0x22CC DUP7 DUP13 PUSH2 0x2284 JUMP JUMPDEST DUP11 DUP11 DUP11 PUSH2 0x22D9 DUP11 DUP13 PUSH2 0x2284 JUMP JUMPDEST SWAP5 POP SWAP5 POP SWAP5 POP SWAP5 POP SWAP5 POP SWAP7 POP SWAP7 POP SWAP7 POP SWAP7 POP SWAP7 SWAP2 POP POP JUMP JUMPDEST PUSH0 PUSH20 0xFFFFFFFFFFFFFFFFFFFFFFFFFFFFFFFFFFFFFFFF DUP3 AND SWAP1 POP SWAP2 SWAP1 POP JUMP JUMPDEST PUSH0 PUSH2 0x231A DUP3 PUSH2 0x22F1 JUMP JUMPDEST SWAP1 POP SWAP2 SWAP1 POP JUMP JUMPDEST PUSH2 0x232A DUP2 PUSH2 0x2310 JUMP JUMPDEST DUP3 MSTORE POP POP JUMP JUMPDEST PUSH0 PUSH1 0x20 DUP3 ADD SWAP1 POP PUSH2 0x2343 PUSH0 DUP4 ADD DUP5 PUSH2 0x2321 JUMP JUMPDEST SWAP3 SWAP2 POP POP JUMP JUMPDEST PUSH0 PUSH1 0xFF DUP3 AND SWAP1 POP SWAP2 SWAP1 POP JUMP JUMPDEST PUSH2 0x235E DUP2 PUSH2 0x2349 JUMP JUMPDEST DUP3 MSTORE POP POP JUMP JUMPDEST PUSH0 PUSH1 0x20 DUP3 ADD SWAP1 POP PUSH2 0x2377 PUSH0 DUP4 ADD DUP5 PUSH2 0x2355 JUMP JUMPDEST SWAP3 SWAP2 POP POP JUMP JUMPDEST PUSH0 DUP2 SWAP1 POP SWAP2 SWAP1 POP JUMP JUMPDEST PUSH2 0x238F DUP2 PUSH2 0x237D JUMP JUMPDEST DUP3 MSTORE POP POP JUMP JUMPDEST PUSH0 PUSH1 0x20 DUP3 ADD SWAP1 POP PUSH2 0x23A8 PUSH0 DUP4 ADD DUP5 PUSH2 0x2386 JUMP JUMPDEST SWAP3 SWAP2 POP POP JUMP JUMPDEST PUSH0 DUP2 SWAP1 POP SWAP2 SWAP1 POP JUMP JUMPDEST PUSH2 0x23C0 DUP2 PUSH2 0x23AE JUMP JUMPDEST DUP3 MSTORE POP POP JUMP JUMPDEST PUSH0 PUSH1 0x20 DUP3 ADD SWAP1 POP PUSH2 0x23D9 PUSH0 DUP4 ADD DUP5 PUSH2 0x23B7 JUMP JUMPDEST SWAP3 SWAP2 POP POP JUMP JUMPDEST PUSH0 PUSH2 0xFFFF DUP3 AND SWAP1 POP SWAP2 SWAP1 POP JUMP JUMPDEST PUSH2 0x23F5 DUP2 PUSH2 0x23DF JUMP JUMPDEST DUP3 MSTORE POP POP JUMP JUMPDEST PUSH0 PUSH1 0x20 DUP3 ADD SWAP1 POP PUSH2 0x240E PUSH0 DUP4 ADD DUP5 PUSH2 0x23EC JUMP JUMPDEST SWAP3 SWAP2 POP POP JUMP JUMPDEST PUSH0 PUSH1 0x40 MLOAD SWAP1 POP SWAP1 JUMP JUMPDEST PUSH0 PUSH0 REVERT JUMPDEST PUSH0 PUSH0 REVERT JUMPDEST PUSH0 PUSH10 0xFFFFFFFFFFFFFFFFFFFF DUP3 AND SWAP1 POP SWAP2 SWAP1 POP JUMP JUMPDEST PUSH2 0x2443 DUP2 PUSH2 0x2425 JUMP JUMPDEST DUP2 EQ PUSH2 0x244D JUMPI PUSH0 PUSH0 REVERT JUMPDEST POP JUMP JUMPDEST PUSH0 DUP2 CALLDATALOAD SWAP1 POP PUSH2 0x245E DUP2 PUSH2 0x243A JUMP JUMPDEST SWAP3 SWAP2 POP POP JUMP JUMPDEST PUSH0 PUSH1 0x20 DUP3 DUP5 SUB SLT ISZERO PUSH2 0x2479 JUMPI PUSH2 0x2478 PUSH2 0x241D JUMP JUMPDEST JUMPDEST PUSH0 PUSH2 0x2486 DUP5 DUP3 DUP6 ADD PUSH2 0x2450 JUMP JUMPDEST SWAP2 POP POP SWAP3 SWAP2 POP POP JUMP JUMPDEST PUSH2 0x2498 DUP2 PUSH2 0x2425 JUMP JUMPDEST DUP3 MSTORE POP POP JUMP JUMPDEST PUSH0 PUSH1 0xA0 DUP3 ADD SWAP1 POP PUSH2 0x24B1 PUSH0 DUP4 ADD DUP9 PUSH2 0x248F JUMP JUMPDEST PUSH2 0x24BE PUSH1 0x20 DUP4 ADD DUP8 PUSH2 0x2386 JUMP JUMPDEST PUSH2 0x24CB PUSH1 0x40 DUP4 ADD DUP7 PUSH2 0x23B7 JUMP JUMPDEST PUSH2 0x24D8 PUSH1 0x60 DUP4 ADD DUP6 PUSH2 0x23B7 JUMP JUMPDEST PUSH2 0x24E5 PUSH1 0x80 DUP4 ADD DUP5 PUSH2 0x248F JUMP JUMPDEST SWAP7 SWAP6 POP POP POP POP POP POP JUMP JUMPDEST PUSH0 DUP2 MLOAD SWAP1 POP SWAP2 SWAP1 POP JUMP JUMPDEST PUSH0 DUP3 DUP3 MSTORE PUSH1 0x20 DUP3 ADD SWAP1 POP SWAP3 SWAP2 POP POP JUMP JUMPDEST DUP3 DUP2 DUP4 MCOPY PUSH0 DUP4 DUP4 ADD MSTORE POP POP POP JUMP JUMPDEST PUSH0 PUSH1 0x1F NOT PUSH1 0x1F DUP4 ADD AND SWAP1 POP SWAP2 SWAP1 POP JUMP JUMPDEST PUSH0 PUSH2 0x2531 DUP3 PUSH2 0x24EF JUMP JUMPDEST PUSH2 0x253B DUP2 DUP6 PUSH2 0x24F9 JUMP JUMPDEST SWAP4 POP PUSH2 0x254B DUP2 DUP6 PUSH1 0x20 DUP7 ADD PUSH2 0x2509 JUMP JUMPDEST PUSH2 0x2554 DUP2 PUSH2 0x2517 JUMP JUMPDEST DUP5 ADD SWAP2 POP POP SWAP3 SWAP2 POP POP JUMP JUMPDEST PUSH0 PUSH1 0x20 DUP3 ADD SWAP1 POP DUP2 DUP2 SUB PUSH0 DUP4 ADD MSTORE PUSH2 0x2577 DUP2 DUP5 PUSH2 0x2527 JUMP JUMPDEST SWAP1 POP SWAP3 SWAP2 POP POP JUMP JUMPDEST PUSH0 PUSH2 0x2589 DUP3 PUSH2 0x22F1 JUMP JUMPDEST SWAP1 POP SWAP2 SWAP1 POP JUMP JUMPDEST PUSH2 0x2599 DUP2 PUSH2 0x257F JUMP JUMPDEST DUP3 MSTORE POP POP JUMP JUMPDEST PUSH0 PUSH1 0x20 DUP3 ADD SWAP1 POP PUSH2 0x25B2 PUSH0 DUP4 ADD DUP5 PUSH2 0x2590 JUMP JUMPDEST SWAP3 SWAP2 POP POP JUMP JUMPDEST PUSH2 0x25C1 DUP2 PUSH2 0x2310 JUMP JUMPDEST DUP2 EQ PUSH2 0x25CB JUMPI PUSH0 PUSH0 REVERT JUMPDEST POP JUMP JUMPDEST PUSH0 DUP2 CALLDATALOAD SWAP1 POP PUSH2 0x25DC DUP2 PUSH2 0x25B8 JUMP JUMPDEST SWAP3 SWAP2 POP POP JUMP JUMPDEST PUSH0 PUSH1 0x20 DUP3 DUP5 SUB SLT ISZERO PUSH2 0x25F7 JUMPI PUSH2 0x25F6 PUSH2 0x241D JUMP JUMPDEST JUMPDEST PUSH0 PUSH2 0x2604 DUP5 DUP3 DUP6 ADD PUSH2 0x25CE JUMP JUMPDEST SWAP2 POP POP SWAP3 SWAP2 POP POP JUMP JUMPDEST PUSH2 0x2616 DUP2 PUSH2 0x23AE JUMP JUMPDEST DUP2 EQ PUSH2 0x2620 JUMPI PUSH0 PUSH0 REVERT JUMPDEST POP JUMP JUMPDEST PUSH0 DUP2 CALLDATALOAD SWAP1 POP PUSH2 0x2631 DUP2 PUSH2 0x260D JUMP JUMPDEST SWAP3 SWAP2 POP POP JUMP JUMPDEST PUSH0 PUSH1 0x20 DUP3 DUP5 SUB SLT ISZERO PUSH2 0x264C JUMPI PUSH2 0x264B PUSH2 0x241D JUMP JUMPDEST JUMPDEST PUSH0 PUSH2 0x2659 DUP5 DUP3 DUP6 ADD PUSH2 0x2623 JUMP JUMPDEST SWAP2 POP POP SWAP3 SWAP2 POP POP JUMP JUMPDEST PUSH0 DUP2 SWAP1 POP SWAP2 SWAP1 POP JUMP JUMPDEST PUSH0 PUSH2 0x2685 PUSH2 0x2680 PUSH2 0x267B DUP5 PUSH2 0x22F1 JUMP JUMPDEST PUSH2 0x2662 JUMP JUMPDEST PUSH2 0x22F1 JUMP JUMPDEST SWAP1 POP SWAP2 SWAP1 POP JUMP JUMPDEST PUSH0 PUSH2 0x2696 DUP3 PUSH2 0x266B JUMP JUMPDEST SWAP1 POP SWAP2 SWAP1 POP JUMP JUMPDEST PUSH0 PUSH2 0x26A7 DUP3 PUSH2 0x268C JUMP JUMPDEST SWAP1 POP SWAP2 SWAP1 POP JUMP JUMPDEST PUSH2 0x26B7 DUP2 PUSH2 0x269D JUMP JUMPDEST DUP3 MSTORE POP POP JUMP JUMPDEST PUSH0 PUSH1 0x20 DUP3 ADD SWAP1 POP PUSH2 0x26D0 PUSH0 DUP4 ADD DUP5 PUSH2 0x26AE JUMP JUMPDEST SWAP3 SWAP2 POP POP JUMP JUMPDEST PUSH2 0x26DF DUP2 PUSH2 0x23DF JUMP JUMPDEST DUP2 EQ PUSH2 0x26E9 JUMPI PUSH0 PUSH0 REVERT JUMPDEST POP JUMP JUMPDEST PUSH0 DUP2 CALLDATALOAD SWAP1 POP PUSH2 0x26FA DUP2 PUSH2 0x26D6 JUMP JUMPDEST SWAP3 SWAP2 POP POP JUMP JUMPDEST PUSH0 PUSH1 0x20 DUP3 DUP5 SUB SLT ISZERO PUSH2 0x2715 JUMPI PUSH2 0x2714 PUSH2 0x241D JUMP JUMPDEST JUMPDEST PUSH0 PUSH2 0x2722 DUP5 DUP3 DUP6 ADD PUSH2 0x26EC JUMP JUMPDEST SWAP2 POP POP SWAP3 SWAP2 POP POP JUMP JUMPDEST PUSH0 PUSH2 0x2735 DUP3 PUSH2 0x268C JUMP JUMPDEST SWAP1 POP SWAP2 SWAP1 POP JUMP JUMPDEST PUSH2 0x2745 DUP2 PUSH2 0x272B JUMP JUMPDEST DUP3 MSTORE POP POP JUMP JUMPDEST PUSH0 PUSH1 0x20 DUP3 ADD SWAP1 POP PUSH2 0x275E PUSH0 DUP4 ADD DUP5 PUSH2 0x273C JUMP JUMPDEST SWAP3 SWAP2 POP POP JUMP JUMPDEST PUSH2 0x276D DUP2 PUSH2 0x237D JUMP JUMPDEST DUP2 EQ PUSH2 0x2777 JUMPI PUSH0 PUSH0 REVERT JUMPDEST POP JUMP JUMPDEST PUSH0 DUP2 CALLDATALOAD SWAP1 POP PUSH2 0x2788 DUP2 PUSH2 0x2764 JUMP JUMPDEST SWAP3 SWAP2 POP POP JUMP JUMPDEST PUSH0 PUSH0 PUSH0 PUSH0 PUSH0 PUSH1 0xA0 DUP7 DUP9 SUB SLT ISZERO PUSH2 0x27A7 JUMPI PUSH2 0x27A6 PUSH2 0x241D JUMP JUMPDEST JUMPDEST PUSH0 PUSH2 0x27B4 DUP9 DUP3 DUP10 ADD PUSH2 0x2450 JUMP JUMPDEST SWAP6 POP POP PUSH1 0x20 PUSH2 0x27C5 DUP9 DUP3 DUP10 ADD PUSH2 0x277A JUMP JUMPDEST SWAP5 POP POP PUSH1 0x40 PUSH2 0x27D6 DUP9 DUP3 DUP10 ADD PUSH2 0x2623 JUMP JUMPDEST SWAP4 POP POP PUSH1 0x60 PUSH2 0x27E7 DUP9 DUP3 DUP10 ADD PUSH2 0x2623 JUMP JUMPDEST SWAP3 POP POP PUSH1 0x80 PUSH2 0x27F8 DUP9 DUP3 DUP10 ADD PUSH2 0x2450 JUMP JUMPDEST SWAP2 POP POP SWAP3 SWAP6 POP SWAP3 SWAP6 SWAP1 SWAP4 POP JUMP JUMPDEST PUSH2 0x280E DUP2 PUSH2 0x2349 JUMP JUMPDEST DUP2 EQ PUSH2 0x2818 JUMPI PUSH0 PUSH0 REVERT JUMPDEST POP JUMP JUMPDEST PUSH0 DUP2 MLOAD SWAP1 POP PUSH2 0x2829 DUP2 PUSH2 0x2805 JUMP JUMPDEST SWAP3 SWAP2 POP POP JUMP JUMPDEST PUSH0 PUSH1 0x20 DUP3 DUP5 SUB SLT ISZERO PUSH2 0x2844 JUMPI PUSH2 0x2843 PUSH2 0x241D JUMP JUMPDEST JUMPDEST PUSH0 PUSH2 0x2851 DUP5 DUP3 DUP6 ADD PUSH2 0x281B JUMP JUMPDEST SWAP2 POP POP SWAP3 SWAP2 POP POP JUMP JUMPDEST PUSH0 DUP3 DUP3 MSTORE PUSH1 0x20 DUP3 ADD SWAP1 POP SWAP3 SWAP2 POP POP JUMP JUMPDEST DUP3 DUP2 DUP4 CALLDATACOPY PUSH0 DUP4 DUP4 ADD MSTORE POP POP POP JUMP JUMPDEST PUSH0 PUSH2 0x2883 DUP4 DUP6 PUSH2 0x285A JUMP JUMPDEST SWAP4 POP PUSH2 0x2890 DUP4 DUP6 DUP5 PUSH2 0x286A JUMP JUMPDEST PUSH2 0x2899 DUP4 PUSH2 0x2517 JUMP JUMPDEST DUP5 ADD SWAP1 POP SWAP4 SWAP3 POP POP POP JUMP JUMPDEST PUSH0 PUSH1 0x40 DUP3 ADD SWAP1 POP PUSH2 0x28B7 PUSH0 DUP4 ADD DUP7 PUSH2 0x2321 JUMP JUMPDEST DUP2 DUP2 SUB PUSH1 0x20 DUP4 ADD MSTORE PUSH2 0x28CA DUP2 DUP5 DUP7 PUSH2 0x2878 JUMP JUMPDEST SWAP1 POP SWAP5 SWAP4 POP POP POP POP JUMP JUMPDEST PUSH0 DUP2 ISZERO ISZERO SWAP1 POP SWAP2 SWAP1 POP JUMP JUMPDEST PUSH2 0x28E8 DUP2 PUSH2 0x28D4 JUMP JUMPDEST DUP2 EQ PUSH2 0x28F2 JUMPI PUSH0 PUSH0 REVERT JUMPDEST POP JUMP JUMPDEST PUSH0 DUP2 MLOAD SWAP1 POP PUSH2 0x2903 DUP2 PUSH2 0x28DF JUMP JUMPDEST SWAP3 SWAP2 POP POP JUMP JUMPDEST PUSH0 PUSH1 0x20 DUP3 DUP5 SUB SLT ISZERO PUSH2 0x291E JUMPI PUSH2 0x291D PUSH2 0x241D JUMP JUMPDEST JUMPDEST PUSH0 PUSH2 0x292B DUP5 DUP3 DUP6 ADD PUSH2 0x28F5 JUMP JUMPDEST SWAP2 POP POP SWAP3 SWAP2 POP POP JUMP JUMPDEST PUSH32 0x4E6F206163636573730000000000000000000000000000000000000000000000 PUSH0 DUP3 ADD MSTORE POP JUMP JUMPDEST PUSH0 PUSH2 0x2968 PUSH1 0x9 DUP4 PUSH2 0x24F9 JUMP JUMPDEST SWAP2 POP PUSH2 0x2973 DUP3 PUSH2 0x2934 JUMP JUMPDEST PUSH1 0x20 DUP3 ADD SWAP1 POP SWAP2 SWAP1 POP JUMP JUMPDEST PUSH0 PUSH1 0x20 DUP3 ADD SWAP1 POP DUP2 DUP2 SUB PUSH0 DUP4 ADD MSTORE PUSH2 0x2995 DUP2 PUSH2 0x295C JUMP JUMPDEST SWAP1 POP SWAP2 SWAP1 POP JUMP JUMPDEST PUSH0 DUP2 MLOAD SWAP1 POP PUSH2 0x29AA DUP2 PUSH2 0x260D JUMP JUMPDEST SWAP3 SWAP2 POP POP JUMP JUMPDEST PUSH0 PUSH1 0x20 DUP3 DUP5 SUB SLT ISZERO PUSH2 0x29C5 JUMPI PUSH2 0x29C4 PUSH2 0x241D JUMP JUMPDEST JUMPDEST PUSH0 PUSH2 0x29D2 DUP5 DUP3 DUP6 ADD PUSH2 0x299C JUMP JUMPDEST SWAP2 POP POP SWAP3 SWAP2 POP POP JUMP JUMPDEST PUSH32 0x4E6F2070726F706F7365642061676772656761746F722070726573656E740000 PUSH0 DUP3 ADD MSTORE POP JUMP JUMPDEST PUSH0 PUSH2 0x2A0F PUSH1 0x1E DUP4 PUSH2 0x24F9 JUMP JUMPDEST SWAP2 POP PUSH2 0x2A1A DUP3 PUSH2 0x29DB JUMP JUMPDEST PUSH1 0x20 DUP3 ADD SWAP1 POP SWAP2 SWAP1 POP JUMP JUMPDEST PUSH0 PUSH1 0x20 DUP3 ADD SWAP1 POP DUP2 DUP2 SUB PUSH0 DUP4 ADD MSTORE PUSH2 0x2A3C DUP2 PUSH2 0x2A03 JUMP JUMPDEST SWAP1 POP SWAP2 SWAP1 POP JUMP JUMPDEST PUSH0 PUSH0 REVERT JUMPDEST PUSH0 PUSH0 REVERT JUMPDEST PUSH32 0x4E487B7100000000000000000000000000000000000000000000000000000000 PUSH0 MSTORE PUSH1 0x41 PUSH1 0x4 MSTORE PUSH1 0x24 PUSH0 REVERT JUMPDEST PUSH2 0x2A81 DUP3 PUSH2 0x2517 JUMP JUMPDEST DUP2 ADD DUP2 DUP2 LT PUSH8 0xFFFFFFFFFFFFFFFF DUP3 GT OR ISZERO PUSH2 0x2AA0 JUMPI PUSH2 0x2A9F PUSH2 0x2A4B JUMP JUMPDEST JUMPDEST DUP1 PUSH1 0x40 MSTORE POP POP POP JUMP JUMPDEST PUSH0 PUSH2 0x2AB2 PUSH2 0x2414 JUMP JUMPDEST SWAP1 POP PUSH2 0x2ABE DUP3 DUP3 PUSH2 0x2A78 JUMP JUMPDEST SWAP2 SWAP1 POP JUMP JUMPDEST PUSH0 PUSH8 0xFFFFFFFFFFFFFFFF DUP3 GT ISZERO PUSH2 0x2ADD JUMPI PUSH2 0x2ADC PUSH2 0x2A4B JUMP JUMPDEST JUMPDEST PUSH2 0x2AE6 DUP3 PUSH2 0x2517 JUMP JUMPDEST SWAP1 POP PUSH1 0x20 DUP2 ADD SWAP1 POP SWAP2 SWAP1 POP JUMP JUMPDEST PUSH0 PUSH2 0x2B05 PUSH2 0x2B00 DUP5 PUSH2 0x2AC3 JUMP JUMPDEST PUSH2 0x2AA9 JUMP JUMPDEST SWAP1 POP DUP3 DUP2 MSTORE PUSH1 0x20 DUP2 ADD DUP5 DUP5 DUP5 ADD GT ISZERO PUSH2 0x2B21 JUMPI PUSH2 0x2B20 PUSH2 0x2A47 JUMP JUMPDEST JUMPDEST PUSH2 0x2B2C DUP5 DUP3 DUP6 PUSH2 0x2509 JUMP JUMPDEST POP SWAP4 SWAP3 POP POP POP JUMP JUMPDEST PUSH0 DUP3 PUSH1 0x1F DUP4 ADD SLT PUSH2 0x2B48 JUMPI PUSH2 0x2B47 PUSH2 0x2A43 JUMP JUMPDEST JUMPDEST DUP2 MLOAD PUSH2 0x2B58 DUP5 DUP3 PUSH1 0x20 DUP7 ADD PUSH2 0x2AF3 JUMP JUMPDEST SWAP2 POP POP SWAP3 SWAP2 POP POP JUMP JUMPDEST PUSH0 PUSH1 0x20 DUP3 DUP5 SUB SLT ISZERO PUSH2 0x2B76 JUMPI PUSH2 0x2B75 PUSH2 0x241D JUMP JUMPDEST JUMPDEST PUSH0 DUP3 ADD MLOAD PUSH8 0xFFFFFFFFFFFFFFFF DUP2 GT ISZERO PUSH2 0x2B93 JUMPI PUSH2 0x2B92 PUSH2 0x2421 JUMP JUMPDEST JUMPDEST PUSH2 0x2B9F DUP5 DUP3 DUP6 ADD PUSH2 0x2B34 JUMP JUMPDEST SWAP2 POP POP SWAP3 SWAP2 POP POP JUMP JUMPDEST PUSH32 0x4D7573742062652070726F706F736564206F776E657200000000000000000000 PUSH0 DUP3 ADD MSTORE POP JUMP JUMPDEST PUSH0 PUSH2 0x2BDC PUSH1 0x16 DUP4 PUSH2 0x24F9 JUMP JUMPDEST SWAP2 POP PUSH2 0x2BE7 DUP3 PUSH2 0x2BA8 JUMP JUMPDEST PUSH1 0x20 DUP3 ADD SWAP1 POP SWAP2 SWAP1 POP JUMP JUMPDEST PUSH0 PUSH1 0x20 DUP3 ADD SWAP1 POP DUP2 DUP2 SUB PUSH0 DUP4 ADD MSTORE PUSH2 0x2C09 DUP2 PUSH2 0x2BD0 JUMP JUMPDEST SWAP1 POP SWAP2 SWAP1 POP JUMP JUMPDEST PUSH32 0x4F6E6C792063616C6C61626C65206279206F776E657200000000000000000000 PUSH0 DUP3 ADD MSTORE POP JUMP JUMPDEST PUSH0 PUSH2 0x2C44 PUSH1 0x16 DUP4 PUSH2 0x24F9 JUMP JUMPDEST SWAP2 POP PUSH2 0x2C4F DUP3 PUSH2 0x2C10 JUMP JUMPDEST PUSH1 0x20 DUP3 ADD SWAP1 POP SWAP2 SWAP1 POP JUMP JUMPDEST PUSH0 PUSH1 0x20 DUP3 ADD SWAP1 POP DUP2 DUP2 SUB PUSH0 DUP4 ADD MSTORE PUSH2 0x2C71 DUP2 PUSH2 0x2C38 JUMP JUMPDEST SWAP1 POP SWAP2 SWAP1 POP JUMP JUMPDEST PUSH32 0x496E76616C69642070726F706F7365642061676772656761746F720000000000 PUSH0 DUP3 ADD MSTORE POP JUMP JUMPDEST PUSH0 PUSH2 0x2CAC PUSH1 0x1B DUP4 PUSH2 0x24F9 JUMP JUMPDEST SWAP2 POP PUSH2 0x2CB7 DUP3 PUSH2 0x2C78 JUMP JUMPDEST PUSH1 0x20 DUP3 ADD SWAP1 POP SWAP2 SWAP1 POP JUMP JUMPDEST PUSH0 PUSH1 0x20 DUP3 ADD SWAP1 POP DUP2 DUP2 SUB PUSH0 DUP4 ADD MSTORE PUSH2 0x2CD9 DUP2 PUSH2 0x2CA0 JUMP JUMPDEST SWAP1 POP SWAP2 SWAP1 POP JUMP JUMPDEST PUSH0 DUP2 MLOAD SWAP1 POP PUSH2 0x2CEE DUP2 PUSH2 0x2764 JUMP JUMPDEST SWAP3 SWAP2 POP POP JUMP JUMPDEST PUSH0 PUSH1 0x20 DUP3 DUP5 SUB SLT ISZERO PUSH2 0x2D09 JUMPI PUSH2 0x2D08 PUSH2 0x241D JUMP JUMPDEST JUMPDEST PUSH0 PUSH2 0x2D16 DUP5 DUP3 DUP6 ADD PUSH2 0x2CE0 JUMP JUMPDEST SWAP2 POP POP SWAP3 SWAP2 POP POP JUMP JUMPDEST PUSH0 PUSH1 0x20 DUP3 ADD SWAP1 POP PUSH2 0x2D32 PUSH0 DUP4 ADD DUP5 PUSH2 0x248F JUMP JUMPDEST SWAP3 SWAP2 POP POP JUMP JUMPDEST PUSH0 DUP2 MLOAD SWAP1 POP PUSH2 0x2D46 DUP2 PUSH2 0x243A JUMP JUMPDEST SWAP3 SWAP2 POP POP JUMP JUMPDEST PUSH0 PUSH0 PUSH0 PUSH0 PUSH0 PUSH1 0xA0 DUP7 DUP9 SUB SLT ISZERO PUSH2 0x2D65 JUMPI PUSH2 0x2D64 PUSH2 0x241D JUMP JUMPDEST JUMPDEST PUSH0 PUSH2 0x2D72 DUP9 DUP3 DUP10 ADD PUSH2 0x2D38 JUMP JUMPDEST SWAP6 POP POP PUSH1 0x20 PUSH2 0x2D83 DUP9 DUP3 DUP10 ADD PUSH2 0x2CE0 JUMP JUMPDEST SWAP5 POP POP PUSH1 0x40 PUSH2 0x2D94 DUP9 DUP3 DUP10 ADD PUSH2 0x299C JUMP JUMPDEST SWAP4 POP POP PUSH1 0x60 PUSH2 0x2DA5 DUP9 DUP3 DUP10 ADD PUSH2 0x299C JUMP JUMPDEST SWAP3 POP POP PUSH1 0x80 PUSH2 0x2DB6 DUP9 DUP3 DUP10 ADD PUSH2 0x2D38 JUMP JUMPDEST SWAP2 POP POP SWAP3 SWAP6 POP SWAP3 SWAP6 SWAP1 SWAP4 POP JUMP JUMPDEST PUSH0 PUSH8 0xFFFFFFFFFFFFFFFF DUP3 AND SWAP1 POP SWAP2 SWAP1 POP JUMP JUMPDEST PUSH0 PUSH2 0x2DF0 PUSH2 0x2DEB PUSH2 0x2DE6 DUP5 PUSH2 0x2DC3 JUMP JUMPDEST PUSH2 0x2662 JUMP JUMPDEST PUSH2 0x2425 JUMP JUMPDEST SWAP1 POP SWAP2 SWAP1 POP JUMP JUMPDEST PUSH2 0x2E00 DUP2 PUSH2 0x2DD6 JUMP JUMPDEST DUP3 MSTORE POP POP JUMP JUMPDEST PUSH0 PUSH1 0x20 DUP3 ADD SWAP1 POP PUSH2 0x2E19 PUSH0 DUP4 ADD DUP5 PUSH2 0x2DF7 JUMP JUMPDEST SWAP3 SWAP2 POP POP JUMP JUMPDEST PUSH32 0x4E487B7100000000000000000000000000000000000000000000000000000000 PUSH0 MSTORE PUSH1 0x11 PUSH1 0x4 MSTORE PUSH1 0x24 PUSH0 REVERT JUMPDEST PUSH0 PUSH2 0x2E56 DUP3 PUSH2 0x23DF JUMP JUMPDEST SWAP2 POP PUSH2 0x2E61 DUP4 PUSH2 0x23DF JUMP JUMPDEST SWAP3 POP DUP3 DUP3 ADD SWAP1 POP PUSH2 0xFFFF DUP2 GT ISZERO PUSH2 0x2E7B JUMPI PUSH2 0x2E7A PUSH2 0x2E1F JUMP JUMPDEST JUMPDEST SWAP3 SWAP2 POP POP JUMP JUMPDEST PUSH0 PUSH2 0x2E8B DUP3 PUSH2 0x23AE JUMP JUMPDEST SWAP2 POP PUSH2 0x2E96 DUP4 PUSH2 0x23AE JUMP JUMPDEST SWAP3 POP DUP3 DUP3 ADD SWAP1 POP DUP1 DUP3 GT ISZERO PUSH2 0x2EAE JUMPI PUSH2 0x2EAD PUSH2 0x2E1F JUMP JUMPDEST JUMPDEST SWAP3 SWAP2 POP POP JUMP JUMPDEST PUSH0 DUP2 PUSH1 0x1 SHR SWAP1 POP SWAP2 SWAP1 POP JUMP JUMPDEST PUSH0 PUSH0 DUP3 SWAP2 POP DUP4 SWAP1 POP JUMPDEST PUSH1 0x1 DUP6 GT ISZERO PUSH2 0x2F09 JUMPI DUP1 DUP7 DIV DUP2 GT ISZERO PUSH2 0x2EE5 JUMPI PUSH2 0x2EE4 PUSH2 0x2E1F JUMP JUMPDEST JUMPDEST PUSH1 0x1 DUP6 AND ISZERO PUSH2 0x2EF4 JUMPI DUP1 DUP3 MUL SWAP2 POP JUMPDEST DUP1 DUP2 MUL SWAP1 POP PUSH2 0x2F02 DUP6 PUSH2 0x2EB4 JUMP JUMPDEST SWAP5 POP PUSH2 0x2EC9 JUMP JUMPDEST SWAP5 POP SWAP5 SWAP3 POP POP POP JUMP JUMPDEST PUSH0 DUP3 PUSH2 0x2F21 JUMPI PUSH1 0x1 SWAP1 POP PUSH2 0x2FDC JUMP JUMPDEST DUP2 PUSH2 0x2F2E JUMPI PUSH0 SWAP1 POP PUSH2 0x2FDC JUMP JUMPDEST DUP2 PUSH1 0x1 DUP2 EQ PUSH2 0x2F44 JUMPI PUSH1 0x2 DUP2 EQ PUSH2 0x2F4E JUMPI PUSH2 0x2F7D JUMP JUMPDEST PUSH1 0x1 SWAP2 POP POP PUSH2 0x2FDC JUMP JUMPDEST PUSH1 0xFF DUP5 GT ISZERO PUSH2 0x2F60 JUMPI PUSH2 0x2F5F PUSH2 0x2E1F JUMP JUMPDEST JUMPDEST DUP4 PUSH1 0x2 EXP SWAP2 POP DUP5 DUP3 GT ISZERO PUSH2 0x2F77 JUMPI PUSH2 0x2F76 PUSH2 0x2E1F JUMP JUMPDEST JUMPDEST POP PUSH2 0x2FDC JUMP JUMPDEST POP PUSH1 0x20 DUP4 LT PUSH2 0x133 DUP4 LT AND PUSH1 0x4E DUP5 LT PUSH1 0xB DUP5 LT AND OR ISZERO PUSH2 0x2FB2 JUMPI DUP3 DUP3 EXP SWAP1 POP DUP4 DUP2 GT ISZERO PUSH2 0x2FAD JUMPI PUSH2 0x2FAC PUSH2 0x2E1F JUMP JUMPDEST JUMPDEST PUSH2 0x2FDC JUMP JUMPDEST PUSH2 0x2FBF DUP5 DUP5 DUP5 PUSH1 0x1 PUSH2 0x2EC0 JUMP JUMPDEST SWAP3 POP SWAP1 POP DUP2 DUP5 DIV DUP2 GT ISZERO PUSH2 0x2FD6 JUMPI PUSH2 0x2FD5 PUSH2 0x2E1F JUMP JUMPDEST JUMPDEST DUP2 DUP2 MUL SWAP1 POP JUMPDEST SWAP4 SWAP3 POP POP POP JUMP JUMPDEST PUSH0 PUSH2 0x2FED DUP3 PUSH2 0x23AE JUMP JUMPDEST SWAP2 POP PUSH2 0x2FF8 DUP4 PUSH2 0x23AE JUMP JUMPDEST SWAP3 POP PUSH2 0x3025 PUSH32 0xFFFFFFFFFFFFFFFFFFFFFFFFFFFFFFFFFFFFFFFFFFFFFFFFFFFFFFFFFFFFFFFF DUP5 DUP5 PUSH2 0x2F12 JUMP JUMPDEST SWAP1 POP SWAP3 SWAP2 POP POP JUMP JUMPDEST PUSH0 PUSH2 0x3037 DUP3 PUSH2 0x23AE JUMP JUMPDEST SWAP2 POP PUSH2 0x3042 DUP4 PUSH2 0x23AE JUMP JUMPDEST SWAP3 POP DUP3 DUP3 SUB SWAP1 POP DUP2 DUP2 GT ISZERO PUSH2 0x305A JUMPI PUSH2 0x3059 PUSH2 0x2E1F JUMP JUMPDEST JUMPDEST SWAP3 SWAP2 POP POP JUMP JUMPDEST PUSH0 PUSH2 0x307A PUSH2 0x3075 PUSH2 0x3070 DUP5 PUSH2 0x2DC3 JUMP JUMPDEST PUSH2 0x2662 JUMP JUMPDEST PUSH2 0x23AE JUMP JUMPDEST SWAP1 POP SWAP2 SWAP1 POP JUMP JUMPDEST PUSH2 0x308A DUP2 PUSH2 0x3060 JUMP JUMPDEST DUP3 MSTORE POP POP JUMP JUMPDEST PUSH0 PUSH1 0x20 DUP3 ADD SWAP1 POP PUSH2 0x30A3 PUSH0 DUP4 ADD DUP5 PUSH2 0x3081 JUMP JUMPDEST SWAP3 SWAP2 POP POP JUMP INVALID LOG2 PUSH5 0x6970667358 0x22 SLT KECCAK256 0xB7 SWAP15 PUSH22 0x42E91A160A0F1BBE52861639C3AC248BF7D0749047E4 PUSH24 0xC410D7EABDAA64736F6C634300081C003300000000000000 "
		},
		"gasEstimates": {
			"creation": {
				"codeDepositCost": "2502200",
				"executionCost": "26957",
				"totalCost": "2529157"
			},
			"external": {
				"acceptOwnership()": "30334",
				"accessController()": "infinite",
				"aggregator()": "2595",
				"confirmAggregator(address)": "infinite",
				"decimals()": "infinite",
				"description()": "infinite",
				"getAnswer(uint256)": "infinite",
				"getRoundData(uint80)": "infinite",
				"getTimestamp(uint256)": "infinite",
				"latestAnswer()": "infinite",
				"latestRound()": "infinite",
				"latestRoundData()": "infinite",
				"latestTimestamp()": "infinite",
				"owner()": "2618",
				"phaseAggregators(uint16)": "infinite",
				"phaseId()": "2590",
				"proposeAggregator(address)": "26993",
				"proposedAggregator()": "infinite",
				"proposedGetRoundData(uint80)": "infinite",
				"proposedLatestRoundData()": "infinite",
				"setController(address)": "26957",
				"transferOwnership(address)": "30650",
				"version()": "infinite",
				"writeLatestRoundData(uint80,int256,uint256,uint256,uint80)": "infinite"
			}
		},
		"methodIdentifiers": {
			"acceptOwnership()": "79ba5097",
			"accessController()": "bc43cbaf",
			"aggregator()": "245a7bfc",
			"confirmAggregator(address)": "a928c096",
			"decimals()": "313ce567",
			"description()": "7284e416",
			"getAnswer(uint256)": "b5ab58dc",
			"getRoundData(uint80)": "9a6fc8f5",
			"getTimestamp(uint256)": "b633620c",
			"latestAnswer()": "50d25bcd",
			"latestRound()": "668a0f02",
			"latestRoundData()": "feaf968c",
			"latestTimestamp()": "8205bf6a",
			"owner()": "8da5cb5b",
			"phaseAggregators(uint16)": "c1597304",
			"phaseId()": "58303b10",
			"proposeAggregator(address)": "f8a2abd3",
			"proposedAggregator()": "e8c4be30",
			"proposedGetRoundData(uint80)": "6001ac53",
			"proposedLatestRoundData()": "8f6b4d91",
			"setController(address)": "92eefe9b",
			"transferOwnership(address)": "f2fde38b",
			"version()": "54fd4d50",
			"writeLatestRoundData(uint80,int256,uint256,uint256,uint80)": "ced683c7"
		}
	},
	"abi": [
		{
			"inputs": [],
			"stateMutability": "nonpayable",
			"type": "constructor"
		},
		{
			"anonymous": false,
			"inputs": [
				{
					"indexed": true,
					"internalType": "int256",
					"name": "current",
					"type": "int256"
				},
				{
					"indexed": true,
					"internalType": "uint256",
					"name": "roundId",
					"type": "uint256"
				},
				{
					"indexed": false,
					"internalType": "uint256",
					"name": "updatedAt",
					"type": "uint256"
				}
			],
			"name": "AnswerUpdated",
			"type": "event"
		},
		{
			"anonymous": false,
			"inputs": [
				{
					"indexed": true,
					"internalType": "uint256",
					"name": "roundId",
					"type": "uint256"
				},
				{
					"indexed": true,
					"internalType": "address",
					"name": "startedBy",
					"type": "address"
				},
				{
					"indexed": false,
					"internalType": "uint256",
					"name": "startedAt",
					"type": "uint256"
				}
			],
			"name": "NewRound",
			"type": "event"
		},
		{
			"anonymous": false,
			"inputs": [
				{
					"indexed": true,
					"internalType": "address",
					"name": "from",
					"type": "address"
				},
				{
					"indexed": true,
					"internalType": "address",
					"name": "to",
					"type": "address"
				}
			],
			"name": "OwnershipTransferRequested",
			"type": "event"
		},
		{
			"anonymous": false,
			"inputs": [
				{
					"indexed": true,
					"internalType": "address",
					"name": "from",
					"type": "address"
				},
				{
					"indexed": true,
					"internalType": "address",
					"name": "to",
					"type": "address"
				}
			],
			"name": "OwnershipTransferred",
			"type": "event"
		},
		{
			"inputs": [],
			"name": "acceptOwnership",
			"outputs": [],
			"stateMutability": "nonpayable",
			"type": "function"
		},
		{
			"inputs": [],
			"name": "accessController",
			"outputs": [
				{
					"internalType": "contract AccessControllerInterface",
					"name": "",
					"type": "address"
				}
			],
			"stateMutability": "view",
			"type": "function"
		},
		{
			"inputs": [],
			"name": "aggregator",
			"outputs": [
				{
					"internalType": "address",
					"name": "",
					"type": "address"
				}
			],
			"stateMutability": "view",
			"type": "function"
		},
		{
			"inputs": [
				{
					"internalType": "address",
					"name": "_aggregator",
					"type": "address"
				}
			],
			"name": "confirmAggregator",
			"outputs": [],
			"stateMutability": "nonpayable",
			"type": "function"
		},
		{
			"inputs": [],
			"name": "decimals",
			"outputs": [
				{
					"internalType": "uint8",
					"name": "",
					"type": "uint8"
				}
			],
			"stateMutability": "view",
			"type": "function"
		},
		{
			"inputs": [],
			"name": "description",
			"outputs": [
				{
					"internalType": "string",
					"name": "",
					"type": "string"
				}
			],
			"stateMutability": "view",
			"type": "function"
		},
		{
			"inputs": [
				{
					"internalType": "uint256",
					"name": "_roundId",
					"type": "uint256"
				}
			],
			"name": "getAnswer",
			"outputs": [
				{
					"internalType": "int256",
					"name": "",
					"type": "int256"
				}
			],
			"stateMutability": "view",
			"type": "function"
		},
		{
			"inputs": [
				{
					"internalType": "uint80",
					"name": "_roundId",
					"type": "uint80"
				}
			],
			"name": "getRoundData",
			"outputs": [
				{
					"internalType": "uint80",
					"name": "roundId",
					"type": "uint80"
				},
				{
					"internalType": "int256",
					"name": "answer",
					"type": "int256"
				},
				{
					"internalType": "uint256",
					"name": "startedAt",
					"type": "uint256"
				},
				{
					"internalType": "uint256",
					"name": "updatedAt",
					"type": "uint256"
				},
				{
					"internalType": "uint80",
					"name": "answeredInRound",
					"type": "uint80"
				}
			],
			"stateMutability": "view",
			"type": "function"
		},
		{
			"inputs": [
				{
					"internalType": "uint256",
					"name": "_roundId",
					"type": "uint256"
				}
			],
			"name": "getTimestamp",
			"outputs": [
				{
					"internalType": "uint256",
					"name": "",
					"type": "uint256"
				}
			],
			"stateMutability": "view",
			"type": "function"
		},
		{
			"inputs": [],
			"name": "latestAnswer",
			"outputs": [
				{
					"internalType": "int256",
					"name": "",
					"type": "int256"
				}
			],
			"stateMutability": "view",
			"type": "function"
		},
		{
			"inputs": [],
			"name": "latestRound",
			"outputs": [
				{
					"internalType": "uint256",
					"name": "",
					"type": "uint256"
				}
			],
			"stateMutability": "view",
			"type": "function"
		},
		{
			"inputs": [],
			"name": "latestRoundData",
			"outputs": [
				{
					"internalType": "uint80",
					"name": "roundId",
					"type": "uint80"
				},
				{
					"internalType": "int256",
					"name": "answer",
					"type": "int256"
				},
				{
					"internalType": "uint256",
					"name": "startedAt",
					"type": "uint256"
				},
				{
					"internalType": "uint256",
					"name": "updatedAt",
					"type": "uint256"
				},
				{
					"internalType": "uint80",
					"name": "answeredInRound",
					"type": "uint80"
				}
			],
			"stateMutability": "view",
			"type": "function"
		},
		{
			"inputs": [],
			"name": "latestTimestamp",
			"outputs": [
				{
					"internalType": "uint256",
					"name": "",
					"type": "uint256"
				}
			],
			"stateMutability": "view",
			"type": "function"
		},
		{
			"inputs": [],
			"name": "owner",
			"outputs": [
				{
					"internalType": "address payable",
					"name": "",
					"type": "address"
				}
			],
			"stateMutability": "view",
			"type": "function"
		},
		{
			"inputs": [
				{
					"internalType": "uint16",
					"name": "",
					"type": "uint16"
				}
			],
			"name": "phaseAggregators",
			"outputs": [
				{
					"internalType": "contract AggregatorV2V3Interface",
					"name": "",
					"type": "address"
				}
			],
			"stateMutability": "view",
			"type": "function"
		},
		{
			"inputs": [],
			"name": "phaseId",
			"outputs": [
				{
					"internalType": "uint16",
					"name": "",
					"type": "uint16"
				}
			],
			"stateMutability": "view",
			"type": "function"
		},
		{
			"inputs": [
				{
					"internalType": "address",
					"name": "_aggregator",
					"type": "address"
				}
			],
			"name": "proposeAggregator",
			"outputs": [],
			"stateMutability": "nonpayable",
			"type": "function"
		},
		{
			"inputs": [],
			"name": "proposedAggregator",
			"outputs": [
				{
					"internalType": "contract AggregatorV2V3Interface",
					"name": "",
					"type": "address"
				}
			],
			"stateMutability": "view",
			"type": "function"
		},
		{
			"inputs": [
				{
					"internalType": "uint80",
					"name": "_roundId",
					"type": "uint80"
				}
			],
			"name": "proposedGetRoundData",
			"outputs": [
				{
					"internalType": "uint80",
					"name": "roundId",
					"type": "uint80"
				},
				{
					"internalType": "int256",
					"name": "answer",
					"type": "int256"
				},
				{
					"internalType": "uint256",
					"name": "startedAt",
					"type": "uint256"
				},
				{
					"internalType": "uint256",
					"name": "updatedAt",
					"type": "uint256"
				},
				{
					"internalType": "uint80",
					"name": "answeredInRound",
					"type": "uint80"
				}
			],
			"stateMutability": "view",
			"type": "function"
		},
		{
			"inputs": [],
			"name": "proposedLatestRoundData",
			"outputs": [
				{
					"internalType": "uint80",
					"name": "roundId",
					"type": "uint80"
				},
				{
					"internalType": "int256",
					"name": "answer",
					"type": "int256"
				},
				{
					"internalType": "uint256",
					"name": "startedAt",
					"type": "uint256"
				},
				{
					"internalType": "uint256",
					"name": "updatedAt",
					"type": "uint256"
				},
				{
					"internalType": "uint80",
					"name": "answeredInRound",
					"type": "uint80"
				}
			],
			"stateMutability": "view",
			"type": "function"
		},
		{
			"inputs": [
				{
					"internalType": "address",
					"name": "_accessController",
					"type": "address"
				}
			],
			"name": "setController",
			"outputs": [],
			"stateMutability": "nonpayable",
			"type": "function"
		},
		{
			"inputs": [
				{
					"internalType": "address",
					"name": "_to",
					"type": "address"
				}
			],
			"name": "transferOwnership",
			"outputs": [],
			"stateMutability": "nonpayable",
			"type": "function"
		},
		{
			"inputs": [],
			"name": "version",
			"outputs": [
				{
					"internalType": "uint256",
					"name": "",
					"type": "uint256"
				}
			],
			"stateMutability": "view",
			"type": "function"
		},
		{
			"inputs": [
				{
					"internalType": "uint80",
					"name": "roundId",
					"type": "uint80"
				},
				{
					"internalType": "int256",
					"name": "answer",
					"type": "int256"
				},
				{
					"internalType": "uint256",
					"name": "startedAt",
					"type": "uint256"
				},
				{
					"internalType": "uint256",
					"name": "updatedAt",
					"type": "uint256"
				},
				{
					"internalType": "uint80",
					"name": "answeredInRound",
					"type": "uint80"
				}
			],
			"name": "writeLatestRoundData",
			"outputs": [],
			"stateMutability": "nonpayable",
			"type": "function"
		}
	]
}